:02000004C0DE5C
:1000000010B5044662B606F0B3FE3CB12068B0F508
:10001000807F07D1204606F03FFC01E006F006FC99
:10002000002010BD06F0F7FB70B58AB00C460546FF
:1000300068462021164607F04FFB14B9012006F050
:1000400031FE142E0AD3402001210990681C6D4610
:10005000089008A82A4606F0E5FD08B1002006E051
:1000600005F10C012046142207F02CFB01200AB0F8
:1000700070BD1FB5044610B9012006F013FE2078AC
:10008000E0284AD100200390CDE9010060781728CC
:1000900046D004284ED0052858D006286CD0072812
:1000A00078D0082800F08080092800F087800A288E
:1000B00000F08E800B2800F095800C2800F09B80CB
:1000C0000D2800F0A1800E2800F0A7800F2800F076
:1000D000AD80102800F0B380112800F0B9801228FC
:1000E00000F0BF80132800F0C480142800F0C980FD
:1000F000152800F0CE80162800F0D380032840F0A9
:10010000DD80A078002840F0EE80E078002840F004
:10011000EA80BDE81F4000F0AAB94FF4DC40E4E0FB
:10012000A068002800F0DC8000F0EBF801A801F0E6
:1001300085F8D3E0A078002840F0D580E07800284A
:1001400040F0D180BDE81F4000F02AB9A178012914
:1001500000F2C980E078002840F0C580A06800283F
:1001600000F0BE80019020790029029018BF012183
:1001700001A800F029F9B1E0A178002900F0A180E0
:10018000032900F2B080E07840F08002802A00F07D
:100190009C80A8E0A068002800F0A28000F0B1F8E0
:1001A00001A800F06FFA99E0A068002800F098809C
:1001B00000F0A7F801A800F02CFA8FE0A068002852
:1001C00000F08E8000F09DF801A800F0C3FA85E0F1
:1001D000A068002800F0848000F093F801A800F0E7
:1001E0001FFC7BE0A06800287AD000F08AF801A804
:1001F00000F07CFB72E0A068002871D000F081F86C
:1002000001A800F0B4FB69E0A068002868D000F005
:1002100078F801A800F024FB60E0A06800285FD017
:1002200000F06FF801A800F06FFC57E0A06800280C
:1002300056D000F066F8BDE81F4000F041BAA06853
:1002400000284DD000F05DF801A800F013FD45E056
:10025000A068002844D000F054F801A800F0BFFDC9
:100260003CE0A068E0B300F04CF801A800F07FFE8D
:1002700034E0A068A0B300F044F801A800F0C8FE84
:100280002CE0A06860B300F03CF801A800F0F6FE96
:1002900024E0A06820B300F034F801A800F030FF9B
:1002A0001CE0A07801281ED8E078E0B9A068B8B1B9
:1002B00000F027F801A800F097FF0FE04FF4DA40B4
:1002C00013E0E07880280ED18020A26842B101922C
:1002D00022790292C20901A800F0E0F804B010BD32
:1002E00046F6872001E046F6862004B0BDE81040BF
:1002F00000F000B880B502460020002106F032FA76
:1003000080BD01902079029070470000BFB506F0D3
:100310000BFA1E4819F8000008B901F055FA1C48FC
:100320004FF43671484407F0E5F91B48784406F06D
:10033000C7FE807801280DD001208DF80200002032
:10034000ADF800001548784406F0BAFE694603226D
:1003500006F0E6FE0F4D01AC06F0EEF9002814D4CD
:10036000024609EB0501204606F0E6FA30B12046C8
:10037000FFF77FFEB0F1FF3FEEDC06E0002000213A
:1003800046F6872206F0EEF9E6E7BFBDCC0800008E
:100390000000000007040000D0880000B6880000BC
:1003A000F8B50848784406F08BFE00214FF410425F
:1003B00003910721CDE9010101A8012106F0D2F93D
:1003C00004B080BD2C790000F0B585B0234F0C46F9
:1003D00005464FF4367109EB0706304607F08AF9F7
:1003E000002006F5357109F8070086F8A8022846AE
:1003F00005F066FF08B309EB070090F8D42200F57A
:100400002B71284605F0AFFFB8B109EB07000021BA
:10041000052290F8D432CDE90221049100F149057A
:1004200000F1080600F52B7200202121CDE90065BE
:1004300006F05AF840B180B201E046F6872005B0D8
:10044000BDE8F04000F00CB8002C05B0BDE8F0406D
:1004500008BF00F083BF01F09BBA00BF000000009E
:1004600080B502460020002106F07CF980BDF8B579
:10047000002001214FF410428DF802008DF8010098
:10048000039003208DF80310012102900DF101006B
:10049000019001A806F066F904B080BD70B586B081
:1004A000544E044691B109EB060090F8A8020128C9
:1004B0002CD109EB060015466268D0F80802111825
:1004C000B1F5FF7F25D94BF2040039E009EB0605B1
:1004D0004FF43671284607F00DF9002005F5357107
:1004E00009F80600012085F8A802204605F0E8FE7C
:1004F00048B109EB060090F8D42200F52B71204694
:1005000005F031FFB8B946F6872019E04BF2070035
:1005100016E009EB0601084400F10801204605F049
:100520004CFF58B109EB06016268D1F8080210448B
:10053000C1F808024DB14FF4104001E04BF2050044
:1005400006B0BDE8704000F05DB80021CDE90201C1
:1005500009EB060000F10801019100F5047101A802
:1005600001F052F8012814D1012009F8060009EB26
:100570000600D0F8081200F50E72059100F108018E
:10058000049104A8012106F04DFB40B14BF2060096
:1005900001E04BF2050000F035F806B070BD1648DA
:1005A00019F80000A0B1154819F80010F9B909EBC5
:1005B0000604012109F8001004F506741FCC00940C
:1005C00000F0E2FF10B1012001F0A8F80020E4E7FC
:1005D00009EB0600D0F82C020949794407F0CEF85F
:1005E00010B101F0F6FAD8E701F0F0FAD5E7FF20F4
:1005F00006F02CFF00000000CC080000CD08000031
:100600000F74000080B502460020002106F0AAF811
:1006100080BD10B5D0B00446406820280BD12068BA
:1006200040A9202201F0D8FA88B940A8402100F062
:1006300017F800200DE068460921402206F020FB53
:1006400028B9D4E90012684606F01FFB18B100F083
:1006500053FE50B010BD684640A906F00CFBE3E71E
:10066000F8B5002201AB07C301A801214FF41042E5
:1006700006F078F88FBD80B502460020002106F014
:1006800071F880BD10B5F2B00446684606212022FC
:1006900006F0F6FA50B9D4E90012684606F0F5FA09
:1006A00020B968466AA906F0E6FA18B100F024FEFF
:1006B00072B010BD6AA800F04BFE0020F8E7000001
:1006C00010B5A4B000F014FEA0BB14AC1E4920224B
:1006D0002046794406F0F6FF0CA81C4920227944F4
:1006E00006F0F0FF04A81A492022794406F0EAFF38
:1006F00003A82021224600F013FED8B902A80CAAB4
:10070000202100F00DFEA8B901A804AA202100F0C4
:1007100007FE78B9684600F0F5FD58B9DDE9021327
:10072000DDE9000206F092FD20B900981CA900F056
:10073000E6FD18B100F0E0FD24B010BD1CA800F0EB
:1007400007FE0020F8E700BF0A7700007E76000071
:10075000927700002DE9F041ADF5087D044660A8D0
:100760003D49A022794406F0ADFF00F0C1FD68BB11
:10077000002048A9FF22602802D00A540130FAE77D
:1007800036496D4620222846794406F09BFF09A889
:1007900020212A4600F0C4FDC0B908A86A462021DD
:1007A00000F0BEFD90B90AA8202106F095FD68B9B9
:1007B00009990AA806F09AFD40B90DF130080AAB74
:1007C00005210522404602F04BFB28B100F094FDC4
:1007D0000DF5087DBDE8F081002760AE0D988742D9
:1007E00012D208EB870531462022E86906F0DEFCCC
:1007F0000028EBD1E869119A014606F081FD013726
:1008000020360028EAD0E1E708AA4046002101236B
:1008100002F08CFB2068119A007808EB800454F8F1
:10082000180F014606F078FD0028CFD1206848A9AE
:1008300000F065FD0028C9D148A86021FFF710FF2E
:1008400008A806F09FFC0028C0D106F07DFC002817
:10085000BCD10020BCE700BFF8770000547700004F
:1008600070B5D0B0044600F043FDA0BB48A81D49B8
:100870002022794406F026FF01AD1B49202228469C
:10088000794406F01FFF09A820212A4600F048FD00
:1008900008BB0AA8202106F01FFDE0B909990AA8A3
:1008A00006F024FDB8B90CA80AAB0521052202F018
:1008B000D7FA80B9206806780CAC48AD2EB1204636
:1008C000294602F0C9FA013EF8E748A800F040FDC9
:1008D00006F03AFC18B100F00FFD50B070BD0020DA
:1008E000FBE700BFCA7400005C760000B0B5ADF550
:1008F0001A7D01680022FF230D785AACB2F5807F83
:1009000002D0A3540132F9E7406801311AAA013834
:1009100028B111F8013B013802F8013BF8E700F07B
:10092000E7FCE8B904A800F016FDC8B904A801A9BD
:1009300001F07AFDA0B904A81AA901AA01F082F970
:1009400070B904A804F1200301A900F0FEFC38B935
:10095000049841005AA8FFF783FE06F0F5FB20B18A
:1009600000F0CAFC0DF51A7DB0BD0020FAE7F0B525
:10097000ADF52B7D064600680021FF2205786BACA3
:10098000B1F5807F02D062540131F9E7716801301E
:100990002BAA013929B110F8013B013902F8013BBA
:1009A000F8E700F0A5FCA0BB30680AAA002102AB62
:1009B000202907D046187778575496F821605E545E
:1009C0000131F5E715A800F0C6FC10BB15A812A967
:1009D00001F02AFDE8B915A82BA912AA01F032F9F5
:1009E000B8B915A804F1200312A900F0AEFC80B933
:1009F0002020CDE9000415A80AA912AA02AB01F033
:100A000049F930B96BA86021FFF72AFE06F09CFB7C
:100A100020B100F071FC0DF52B7DF0BD0020FAE750
:100A20002DE9F045EBB0054600680DF1AB04FF2160
:100A300006780020B0F5807F02D021540130F9E71C
:100A400000F056FC002854D114AF3146384601F06E
:100A50006BFE00284DD107F10C060DF2AB123846A3
:100A6000314601F00AFE002843D19DF8AB114CF647
:100A7000012001293DD122490DF1240A20225046AE
:100A8000794406F01FFE01AF1E4920223846794402
:100A900006F018FE0DF1440814A851463A464346A4
:100AA00002F033F828BB14A80DF2AB12314601F066
:100AB000E4FDF0B99DF8AB0101284CF6012018D1F6
:100AC000D5E90001CDF80080421C4B1E14A8314628
:100AD00002F0A0F868B914A804F1400311A900F0CD
:100AE00034FC30B90DF1AB0000F016FC06F02CFB25
:100AF00020B100F001FC6BB0BDE8F0850020FAE702
:100B00007C7400008E740000F0B5EFB005464068BC
:100B1000412801D8022802D246F6872015E028682D
:100B2000FF21067800202FACB0F5807F02D0215441
:100B30000130F9E700F0DCFB20B919A8314601F0DB
:100B4000F3FD20B180B2FFF796FD6FB0F0BD022E2D
:100B50000CD0012E28D10BAE4249202230467944D8
:100B600006F0B0FD03AF4049794409E00BAE3F49C0
:100B700020223046794406F0A5FD03AF3C49794474
:100B80003846202206F09EFD19A816AB31463A469B
:100B900001F0BBFF0028D5D119A80BA903AA13ABFC
:100BA00001F0B3FF0028CDD100200DF10B028DF82C
:100BB0000B0019A816A901F060FD0028C2D19DF80C
:100BC0000B00012842D119A813AE0DF10B023146DA
:100BD00001F053FD0028B5D19DF80B00012838D154
:100BE0001A980DF10B0106F06DFB0028AAD19DF8B3
:100BF0000B00012830D11B980DF10B0106F062FBB0
:100C000000289FD19DF80B00012828D1D5E90001CB
:100C10000096421C4B1E19A816A901F0FBFF0028E4
:100C200090D119A804F1200313A900F08EFB00282D
:100C30007FF488AF06F088FA00287FF483AF199814
:100C400041002FA8FFF70CFD00207EE74CF60120A5
:100C500079E74CF6022076E74CF6032073E74CF672
:100C6000042070E71E7200009472000028720000D9
:100C70009E7100002DE9F04DADF5047D054600683C
:100C8000FF220478002044A9B0F5807F02D00A54E6
:100C90000130F9E700F02CFB28BB0DF1B808214624
:100CA000404601F041FDF0B927A800F02BFBD0B978
:100CB000286800210FAA0130602903D0435C5354F7
:100CC0000131F9E70FAA00212BAF0C1D102C10D019
:100CD00078182021202302F1200506F047FA002889
:100CE0002A462146F1D000F007FB0DF5047DBDE852
:100CF000F08D08F10C004FF0000A01260DF10C0BED
:100D0000019044ADBAF10C0F3BD028A8202100EB94
:100D10000A04204606F020FA0028E4D12068314673
:100D200006F05AFA0028DED14046594601F07CFB15
:100D30000028D8D1029607EB0A06019940465B4687
:100D4000324601F001FF0028CDD12068294600F08D
:100D5000D6FA0028C7D1306805F1200100F0CFFA9B
:100D60000028C0D14046594601F08FFE029E403512
:100D70000BF10C0B0AF1040A2BAF01360028C1D08D
:100D8000B1E72798032300902EA828A92BAA01F0E9
:100D900048F90028A7D1279844A92022C03106F09D
:100DA00025FA00289FD12EA827AA03AB019901F0AC
:100DB000CBFE002897D144A800F1E0022EA803A999
:100DC0000FAB01F03CFE00288DD144A800F0A4FA3E
:100DD00006F0BAF900287FF486AF002085E72DE9F8
:100DE000F04DADF50A7D04460068FF22057800202D
:100DF00048A9B0F5807F02D00A540130F9E700F02D
:100E000077FA90BB32A800F0A6FA70BB20680022E7
:100E10001AA90230202A03D0835C8B540132F9E7EF
:100E20006268023ACDE9880201F1200288A8012116
:100E300005F005FFC8B91AAA002117AC0D1D102D29
:100E40000BD060182021202302F1200606F08EF935
:100E5000002832462946F1D007E00AA800F052FAED
:100E600018B909A800F04EFA28B100F045FA0DF5BE
:100E70000A7DBDE8F08D4FF000080DF5907B0BAEBC
:100E80000DF1C80A0024B8F1100F4DD005A820219B
:100E900000EB0807384606F05FF90028E5D101A805
:100EA000202100EB0805284606F056F90028DCD181
:100EB0000998214606F090F90028D6D128682146E5
:100EC00006F08AF90028D0D15046314601F0ACFA3C
:100ED0000028CAD1DDE9093002220090504617A946
:100EE00001F0E1F80028C0D138680A9906F06AF9E3
:100EF0000028BAD15046314601F0C7FD0028B4D1D0
:100F00000998594600F0FBF90028AED10A980BF178
:100F1000200100F0F4F90C3601340BF1400B08F11C
:100F200004080028AFD0A0E700210C1D102C07D02A
:100F300017A8084406F026F900282146F5D094E7C2
:100F40000A980323009001A8011D05A8021D32A8DC
:100F500001F067F800287FF488AF48A800F0DCF9BA
:100F600006F0F2F800287FF480AF00207FE7B0B5EC
:100F7000D8B0044600F0BCF9002842D120680178BE
:100F800002A801F0D1FBE0BB01A800F0BBF9C0BB97
:100F900000F0BBF902F0E6F898BB019818AD2022EA
:100FA000294606F023F960BB00F0AFF902F0E8F83B
:100FB00038BB019805F1200100F0A1F908BB00F051
:100FC000A4F902F0F1F8E0B9019805F1400100F050
:100FD00096F9B0B900F099F902F0F4F888B90198DF
:100FE00005F1600100F08BF958B9049805F1E001B2
:100FF00000F085F928B918A800F08EF906F0A4F8D9
:1010000018B100F079F958B0B0BD0020FBE700003E
:1010100010B5ADF5507D044600F06AF910BB2068AC
:1010200001787AA801F080FBE0B979A800F06AF9AC
:10103000C0B901AC10494FF4F0722046794406F073
:1010400041FB799B7AA82146032201F065F848B953
:10105000799890A92022203106F0C8F810B906F03E
:1010600073F820B100F048F90DF5507D10BD90A83F
:1010700000F06EF90020F7E7C06F000070B5ADF525
:101080006A7D044600F034F958BB2068017894A8C2
:1010900001F04AFB28BB94A891AC214601F0C4F9A9
:1010A000F8B919AD14494FF4F0722846794406F0A6
:1010B00009FB01AE114960223046794406F002FB7B
:1010C000009494A8294600F03CF950B9AAAA94A823
:1010D00091A902F1200301F0B2FC10B906F034F836
:1010E00020B100F009F90DF56A7D70BDAAA8402174
:1010F000FFF7B6FA0020F6E7307100000273000037
:101100002DE9F045ADF5657D044600F0F1F80028C5
:101110005CD1206801788FA801F006FB002855D12A
:101120008EA800F0EFF8002850D18FA88BAC214694
:1011300001F07AF9002849D113AD28494FF4F07233
:101140002846794406F0BEFA8E9B8FA829460322D2
:1011500000F0E2FFD0BB0DF5257800F0ECF8A8BB5D
:101160001F490DF12C0A20225046794406F0AAFAB4
:1011700003AD1C4920222846794406F0A3FA00F06A
:10118000D2F88FA813AA01F0AFF8F8B900948FA88D
:1011900013A900F0D6F8C8B98FA808F1800208F1A9
:1011A000A0038BA901F04BFC80B98E9808F1C00117
:1011B00000F0A5F850B9A5A8E021FFF751FA8EA8D4
:1011C00005F0E0FF10B905F0BFFF28B100F094F87A
:1011D0000DF5657DBDE8F0850020F9E7DA720000C5
:1011E000B26C0000C46D000010B5EAB00021FFF73A
:1011F000EBF868460621202205F042FD78B90D483B
:101200004122484400F10801684605F03EFD30B92E
:10121000094C684609EB040105F02DFD18B100F0FA
:101220006BF86AB010BD09EB040000F091F80020E3
:10123000F7E700BF00000000D802000070B5ADF570
:10124000047D064600680021FF22057844ACB1F514
:10125000807F02D062540131F9E77168013024AA1D
:10126000013929B110F8013B013902F8013BF8E7D7
:1012700000F03EF890BB3068002103AA013020291D
:1012800003D0435C53540131F9E70EA800F063F832
:1012900020BB0EA80BA901F0C7F8F8B90EA824A925
:1012A0000BAA00F0CFFCC8B90EA804F120030BA9CB
:1012B00000F04BF890B92020CDE900040B4809EB71
:1012C00000010EA80BAA03AB00F0E4FC30B944A85F
:1012D0006021FFF7C5F905F037FF20B100F00CF8E9
:1012E0000DF5047D70BD0020FAE700BFD8020000B4
:1012F0002020002105F01EBF80B2FFF7BCB92022DC
:1013000005F074BF202105F027BFD4E90001019B3F
:10131000049A0130013970474FF48071FFF7A0B98A
:10132000202305F023BF08F12006CDE900575146E0
:101330000323029670478E9820222027414605F00D
:1013400055BF3246032300F064BF224601F077BB4D
:101350002021FFF785B9294601F0E6B9B0B59AB06A
:1013600041200DF1050441228DF805000B4809EBE1
:101370000005601C05F1080106F0A4F9202005F124
:10138000490120228DF8470004F1430006F09AF944
:101390002046632100F004F81AB0B0BD0000000040
:1013A000F8B5002201AB07C301A801214FF4104298
:1013B00005F0D8F904B080BDF0B593B00DF102048A
:1013C0004921651C284606F087F90B4809EB000700
:1013D000284697F8A06207F5167132468DF802602C
:1013E00006F070F997F8A11230194170B11C20462F
:1013F000FFF7D6FF13B0F0BD000000002DE9F0416B
:10140000BCB004460020A568A061002D4DD0206925
:1014100000284AD006F0BCF9282846D1207B4FF09E
:10142000000839956121CDF8EC803A9015AD284639
:1014300006F052F939AE0DF1E301304604F040FFF9
:101440009DF8E3202EAF3046394604F08CFF05208E
:1014500005F141019DF8E3303A46CDF81080CDE921
:101460000051CDE902080020212105F03DF8E0B946
:1014700010AD1421284606F02FF915A8294614228C
:10148000FEF7D2FD05AE2921304606F025F92846A3
:1014900014213246292305F005F921693046292215
:1014A00006F07EF908B90120A0613CB0BDE8F081EA
:1014B00070B58CB004AC06461E21204606F00CF92F
:1014C00006F10E053221284606F006F90020317B90
:1014D000CDE90200B06802AA05F0D0FA78B1032085
:1014E000DDE902231E210090204605F094F80094C7
:1014F000284632211E23034A7A4405F04FFC0CB0E3
:1015000070BD00BF3E670000F0B593B08569ADB314
:101510000446284606F03CF928282FD1A7686FB367
:101520006E464821304606F0D7F806F11800002133
:10153000282909D06A5CA2F16103DBB21A2B38BFFB
:10154000203A42540131F3E7217B06F10802384684
:1015500005F094FA90B1217D206906F1100205F0A2
:101560008DFA58B101248DF8004005F00BFC0548B8
:1015700069464822484406F0A5F800E000242046C9
:1015800013B0F0BDF802000070B58CB01D4E19F814
:1015900006402CB309EB0604D4E9024569406040DB
:1015A000084321D109EB0600D0E90401594050401D
:1015B00008431DD101AD109C2921284606F08CF866
:1015C000204614212A46292305F06CF809EB060071
:1015D0002946183006F0D2F870B901200CB070BD61
:1015E0004FF44040FF210AE04FF44040012106E063
:1015F0004FF44040032102E04FF44040022100221A
:1016000005F003FAF802000070B50D46044610B963
:10161000012005F047FB15B9012005F043FB606888
:10162000B0F5FF7F01D9F9204BE020462946002282
:1016300004F05CFE30B32068A16808441421A8615E
:10164000204604F032FEF8B105F1080120460022E0
:10165000002604F04BFEC8B105F120012046C5E983
:10166000046604F063FE296A90B9686A5FEA500074
:101670004FEA31020023D2F1E80273EB000007D2F7
:10168000FC201EE0FF201CE0FE201AE0FD2018E0F8
:101690002068A2681044E861204604F006FE68B1A4
:1016A00005F11C030DCB00F00EF848B1D4E901128E
:1016B0006FF006008A4208BF012002E0FB2000E034
:1016C000FA2040B270BDF8B51C461546064610B962
:1016D000012005F0E7FA002000230246401B1946CE
:1016E00073EB040006D2B756501C41F10003B7F16A
:1016F000FF3FF2DC0020521BA14128BF0120F8BDB2
:1017000008B1FFF72BBE46F6851000F000B880B593
:1017100002460020002105F025F880BD2DE9F041AA
:101720008CB078B3DFF894800220002520270322B4
:1017300040F201640DF12C0C0DF1280E0B9509F807
:10174000080048200A9009EB080090F8D43200F510
:101750000E7100F51676CDE9004200F52B720020DF
:101760000895CDE906C5CDE902172121CDE9046E22
:1017700004F0EEFE88B14BF2080009F80850FFF7BC
:10178000C6FF17E00D48002109F8001046F6851045
:101790000CB0BDE8F041FFF7BABF0A9909EB0800A9
:1017A00080F8A0129DF82C1001F0010180F8A11220
:1017B000FFF702FE0CB0BDE8F08100BF00000000A2
:1017C000FF2005F043FE0000BFB5194C17487C44CC
:1017D00009EB000500F0D8F8142169731549164A81
:1017E00079447A44C5E901210078287300F0CCF8E7
:1017F000152169761149124A79447A44C5E90421D0
:101800000021407828760F480F4A104B78447A44DC
:101810007B44CDE90032CDE902100022FF230C48C1
:101820000C497844794403F037F8BFBD4003000009
:101830002E740000036300006A6400006663000009
:10184000AC610000B1FFFFFFFA6D0000EC6D00001D
:10185000AE640000DB5F0000BFB5224C152809F81C
:10186000042011D014282AD109EB04051E4C7C4415
:1018700000F08AF80078B0FA80F0400928738DF8FB
:101880000F0000F081F815E01848784405F018FCC6
:101890004078A8B109EB0405154C7C4400F074F8BD
:1018A0004078B0FA80F0400928768DF80F0000F0FB
:1018B0006BF801300DF10F01012205F031FCBFBDC5
:1018C0000C480D4978447944CDE900100B480C4987
:1018D0000C4A0D4B784479447A447B4403F052FC23
:1018E000BFBD00BF400300008E7300007273000094
:1018F0006273000045000000BE620000A5600000A9
:10190000D0600000946100007A630000B0B586B03A
:10191000A8B1174C15487C4409EB000500F034F8D9
:101920004078B0FA80F0400928768DF8170000F072
:101930002BF801300DF11701012205F0F1FB0B48E6
:10194000002119F800300B480B4A0C4C78447A44BB
:101950007C44CDE90042CDE9021000220848094943
:101960007844794402F098FF06B0B0BD400300000F
:10197000E672000071FEFFFFBA6C0000AC6C000064
:10198000706300009D5E0000204605F099BB0000DA
:1019900070B588B0224E09EB060119F8060091F8DF
:1019A000A81208432AD11F4D2B2109EB050005F091
:1019B00093FE03AC1421204605F08EFE09EB0600D1
:1019C000214614220830FEF72FFB08B309EB05026D
:1019D00003A814212B2304F065FE013018D012480F
:1019E000002400217844CDE9004009EB05000F4AAE
:1019F0000F4B7A447B4403F0A9F80EE0002009F86D
:101A000006004BF2070008B0BDE8704000F012B8C5
:101A10004BF2020000F00EF80446204608B070BDFC
:101A2000000000005C0300005D000000AA5F0000F1
:101A3000C962000080B502460020002104F092FE39
:101A400080BD000010B50446FFF75AFE0720002CA9
:101A500018BF062002497944BDE8104003F068BA77
:101A60006FFDFFFFF0B58DB0434F044609EB070053
:101A700090F8A80201285DD119F80700012859D172
:101A80003E4E1E2109EB0600143005F025FE05AD83
:101A90001E21284605F020FE09EB07001E21D0E993
:101AA000862303200090284604F0B5FD00284BD083
:101AB000009509EB06051E211E23314A05F114008D
:101AC0007A4405F06BF954352B21284605F004FEC5
:101AD00009EB070014212A462B23D0F8280204F032
:101AE000E1FD013033D0274909EB0600002502460D
:101AF000794442F8341F49F8062002222249027232
:101B000000F1540285727944C0E9111200F1140108
:101B100081631E48784414B3CDE90250CDE90055E5
:101B200009EB060100201A4A1A4B7A447B4402F062
:101B3000FBFF11E0002009F807004BF207000DB091
:101B4000BDE8F04000F02CB84BF2030001E04BF28E
:101B5000020000F025F8054628460DB0F0BD0290C1
:101B6000CDE9005509EB060100200B4A0B4B7A44E6
:101B70007B4402F039FFEFE700000000880300001B
:101B800076610000645F0000396100009900000088
:101B9000725E0000825E00002E5E00003E5E00006D
:101BA00080B502460020002104F0DCFD80BD00006D
:101BB00010B50446FFF7B2FD034984F001007944F3
:101BC000BDE8104003F0B4B907FCFFFF0120FFF7A8
:101BD00049BF0020FFF746BF2DE9FC4D0C46CDE97B
:101BE0000002684601210126224605F028F8054634
:101BF00018BB207800F0F8002070E07F66F39F109B
:101C0000E077D4E900010E4E7E44B04780468A4614
:101C1000D4E90201B04783460F46D4E90601B04734
:101C2000C4E90001D4E90401B04704F1080282E8E4
:101C3000030804F1140080E880052846BDE8FC8D07
:101C40004103000070B592B01446026802AE05462A
:101C500008463146FFF7C0FF00200021202809D0A8
:101C6000325C4901130641EAD361315402F00701A5
:101C70000130F3E72946284651F80C3B009402AAAC
:101C800000F0C8FF18B92846214600F0FEFE12B049
:101C900070BD00002DE9F04DADF5467D0546CE98AE
:101CA000202818D10F4682A928461E46924600F0E9
:101CB000BBFB88B92A6872AC38462146FFF78CFF17
:101CC00050B9DDF83CB300205AA9202808D0225C86
:101CD0000A540130F9E79B480DF5467DBDE8F08DCB
:101CE00012A80921402204F0CBFF0028F4D104F10E
:101CF000200112A8202204F0C8FF0028ECD112A86D
:101D00003146202204F0C1FF0028E5D112A862ACC0
:101D1000214604F0B0FF0028DED13F2072A9421C0A
:101D200004D0225C013801F8012BF8E789A872AAD7
:101D30004021402305F01AFA0028CDD187A8402180
:101D400005F00AFA0028C7D17F490DF108084022A2
:101D50004046794405F0B6FC88A84021424640231D
:101D600005F004FA0028B7D18999DDE9870205F06A
:101D700091FA0028B0D187AA05F10C0182AB284660
:101D800000F0E2FE0028A7D182A9284600F07DFEDF
:101D90000028A1D1879852A900F0E0F800289BD133
:101DA00088A805F0EFF9002896D189A805F0EAF98E
:101DB000002891D187A805F0E5F900287FF48CAFC1
:101DC000284600F0E0FD00287FF486AF05F12004EE
:101DD0008AA805210522234601F042F800287FF455
:101DE0007BAF1F2062A9421C04D0325C013801F88D
:101DF000012BF8E78299919805F0E4F900287FF427
:101E00006BAF8399929805F0DDF900287FF464AFF9
:101E1000DAF80010939805F0D5F900287FF45CAF4C
:101E2000DAF80410949805F0CDF900287FF454AF47
:101E3000959862A9202205F0B9F900287FF44CAFEB
:101E400095982246014605F05BFA00287FF444AFDE
:101E5000829800F07FF800287FF43EAF839800F06E
:101E600079F800287FF438AF8298594600F076F868
:101E700000287FF431AF83980BF1200100F06EF859
:101E800000287FF429AF82A9284600F0E2FA002852
:101E90007FF422AF85A8202105F05EF900287FF4A9
:101EA0001BAF8AA885AA0021012301F03FF8002872
:101EB0007FF412AF859800F04DF800287FF40CAF46
:101EC00086A85AAA2021202305F050F900287FF483
:101ED00003AF01A8202105F03FF900287FF4FCAEF4
:101EE00008F1200288A82021202305F03FF90028CE
:101EF0007FF4F2AE889BDDE98512019805F0BEF90A
:101F000000287FF4E9AE859852A9202205F04EF909
:101F100000287FF4E1AE889B019ADDE9851005F089
:101F200095F900287FF4D8AE889ADDE9850105F09F
:101F3000B1F900287FF4D0AE85980BF1400100F094
:101F40000DF8C9E6034E4B5A0E6900000ABA01BAF1
:101F5000104670472246014605F0DEB9202205F002
:101F600045B92DE9F04585B00E46074603A8202166
:101F700000F050FA88B902A800F053FA68B901A835
:101F800000F04FFA48B90398012105F025F920B96E
:101F90000298012105F020F910B105B0BDE8F085E7
:101FA000DDF830800DF1100A1EB33868294652461C
:101FB00005F028F90028F0D10498B8B102983A68E1
:101FC0002346014605F05AF90028E6D13968019800
:101FD0002A46234605F046F90028DED10398019AE7
:101FE0002346014605F04AF90028D6D10437013EC0
:101FF000DAE703994046224605F058F90028CCD18B
:10200000029A40464146234605F038F90028C4D1DB
:1020100003A805F0B7F80028BFD102A805F0B2F870
:10202000BBE72DE9FE450F46064602A820211C46C7
:10203000924605F091F808B1BDE8FE8501A800F0D0
:10204000F0F90028F8D10298002105F0C5F8002821
:10205000F2D1DDF828800025AC421DD0019857F858
:102060002520B368214600903846FFF77AFF002804
:10207000E2D101985AF82520B368014605F0FEF830
:102080000028D9D1DDE90120B368014605F0DEF86A
:1020900001350028E0D0CFE7B2680299404605F04C
:1020A000F9F8BDE8FE852DE9FC410E4601680746BA
:1020B00001A800F0AFF908B1BDE8FC81DDF820808F
:1020C00056F82510404605F07DF80028F4D1043E6E
:1020D000BB68019841467DB1224605F0CFF8002843
:1020E000EAD156F82520BB680199404605F0AEF8C4
:1020F000013D0028ECD0DFE71A4605F0CBF80028B8
:10210000DAD10199404605F05DF80028D4D101A844
:1021100005F038F8BDE8FC812DE9F04DD6B0064653
:1021200016A81C4615460F4601F08AF810B156B0A5
:10213000BDE8F08DCDE90476019406A84FF0000AC1
:102140004FF0020B042600240295A0F10108AC42D6
:1021500058D0059804EB840103910568049805FBA9
:102160000A00294629B110F8012B08F8012001398D
:10217000F8E716A806A92A4601F07CF80028D6D16F
:102180000398049F431C059805FB0B710268501EC1
:10219000154602FB0303FB5C2DB111F8017B08F827
:1021A0000570013DF8E706A90D5C45EAC3130B5421
:1021B00016A801F05FF80028B9D10598049D0268BF
:1021C0000398C31C501E02FB065102FB0303EB5C89
:1021D00015462DB111F8017B08F80570013DF8E7AF
:1021E00006A90D5C45EAC3130B5416A801F042F88A
:1021F00005360134029D0BF1050B0AF1050A002892
:10220000A5D094E70598816816A8019A01F034F8E2
:102210008DE72DE9F04D88B00D4605A91F46924681
:10222000044600F001F948B902A9204600F0FCF884
:1022300020B91099204600F0EFFB10B108B0BDE8BE
:10224000F08D05AE4FF000084FF0040B01954745A7
:1022500041D02268ABF10300334602FB0051ABF1E1
:10226000020002FB0052204600F04EFB0028E5D1A0
:102270001099204632460B4600F067F90028DDD160
:102280002268ABF10100334602FB005102FB0B5206
:10229000204600F039FB0028D0D1236850460DF1CC
:1022A000080A31460546CDF800A003FB0802204687
:1022B00000F0B0FC0028C1D11099204652460B46D0
:1022C00000F043F9AA46019D0BF1050B08F1010846
:1022D0000028BCD0B2E705A900F0A0F80028ADD1D5
:1022E00002A900F09BF8A9E72DE9F04DF4B00E46E5
:1022F0000168074673A800F08DF8F0B9396872A834
:1023000004F02AFFC8B9DDE97C01BA68739B00F0CC
:102310004BFF90B9729B384629462246FFF7FCFED8
:1023200058B93A68739812A904F060FF28B93A685E
:10233000729802A904F05AFF10B174B0BDE8F08D94
:1023400000200DF1C80A0DF1880B4FF00008009035
:10235000444543D0396801A804F0FEFE0028ECD1C2
:10236000504600F053FF0028E7D1396830465A46FE
:1023700000F045F80028E0D1396812A85A4600F06C
:102380003EF80028D9D1396802A85A4600F037F83B
:102390000028D2D1396800985A4600FB015000F05D
:1023A0002EF80028C9D1B968019A504600F064FFA0
:1023B0000028C2D13A687E9802FB0801019804F017
:1023C00015FF0028B9D101A804F0DCFE0028B4D123
:1023D000009808F1010805300090B9E773A804F0EF
:1023E000D1FE0028A9D172A804F0CCFEA5E7013ADD
:1023F00021B110F8013B53540139F9E770474DF80A
:1024000008EDFFF7F4FF3A68504659465DF808EBCF
:1024100000F030BF1C46154604F09EBE204600F07A
:1024200018B8202104F098BEB0B50D4601680446E6
:10243000284604F091FE20B92168281D04F08CFE86
:1024400000B1B0BD216805F10800BDE8B04004F05E
:1024500083BE10B508460C4604F094FE18B9201D42
:1024600004F090FE00B110BD04F10800BDE810407A
:1024700004F088BEF8B50F4614460546436809685F
:10248000406B7A6804F0E2FE002854D1D5E90C01D3
:1024900005F1200600F0E4FB00284CD13968686B98
:1024A00000F0DEFB002846D17968A86B00F0D8FB6D
:1024B000002840D1A9696A6BE86B00F0CBFBD0BB68
:1024C0006B68D5E90E21286C04F0C0FE98BBB96892
:1024D000A86C00F0C5FB70BB6B68E86A296CAA6C3D
:1024E00004F0C0FE38BB6B68E96AD5E9122004F03D
:1024F000B9FE00BB05F12C026B6807CA04F0B2FEFE
:10250000C8B96B68D5E90B10AA6B04F0ABFE90B9A3
:102510002A6BE96C206800F09DFB60B96B68D5E917
:102520000D02E96B04F09EFE28B96A6B296C6068A5
:1025300000F090FB00B1F8BD296CEA6CA06833464E
:1025400001B0BDE8F04004F0F3BE2DE9F0410646CD
:1025500017460C4692688968C06A984606F12005BD
:1025600000F07BFB00287DD1D6E90B102B460A46F4
:1025700004F0DEFE002875D13A682168706B00F027
:102580006CFB00286ED17A686168B06B00F065FB67
:10259000002867D1D6E90D12F06C00F05EFB002830
:1025A00060D1F269F06BF16C00F057FB002859D153
:1025B0007368316BD6E90F2004F054FE002851D126
:1025C0007368316BF26B706C04F040FE002849D1E7
:1025D000D4E900127368B06C04F038FE002841D1D1
:1025E000D7E900127368F06C04F030FED0BB306B9A
:1025F000D6E9121200F031FBA0BB7368D6E90C12C9
:10260000B06C04F02FFE68BB7368B26BD6E9121091
:1026100004F028FE30BBD6E90B10F26C00F01DFB75
:1026200000BB326B316CD8F8000000F016FBC8B963
:10263000B169D6E90C0200F010FB98B97368326BEF
:10264000B16BF06C04F00EFE60B9306B716CF26C23
:1026500000F003FB30B9D6E90B12D8F8040000F003
:10266000FCFA08B1BDE8F081D6E91012D8F80800EC
:102670002B46BDE8F04104F05BBEF8B505460F46B9
:10268000052009681446009005F12006E86A0A460C
:1026900000F0E0FA00B1F8BD7968286B00F0E0FACC
:1026A0000028F8D1D5E90B12686B00F0D3FA0028A6
:1026B000F1D1A969EA6AE86B00F0CCFA0028EAD106
:1026C000E86B6B682A6B014604F0C0FD0028E2D17C
:1026D000E9696A6B286C00F0BDFA0028DBD16B68F1
:1026E000AA6AA86B296C04F0B1FD0028D3D1A86BAD
:1026F0003246014604F010FE0028CCD1E86B324689
:10270000014604F009FE0028C5D1D5E90E016A464C
:1027100004F078FD0028BED10098B0FA80F040099E
:1027200020700020F8BD00002DE9F04DD2B0044625
:10273000022922D0012940F0CD80202020222060D3
:102740004AAF67493846794404F0BCFF42AE654958
:1027500020223046794404F0B5FF63490DF1E80AC0
:1027600020225046794404F0ADFF32AD5F4920226B
:102770002846794404F0A6FF2DE020202022206086
:102780002AAF5B493846794404F09CFF22AE594990
:1027900020223046794404F095FF57490DF1680A2C
:1027A00020225046794404F08DFF12A8534920227C
:1027B0000190794404F086FF51490DF1280B202245
:1027C0005846794404F07EFF02AD4E492022284647
:1027D000794404F077FF04F1040820213A462023CD
:1027E000404604F0C3FC002875D120462A4650F824
:1027F000081B0B4604F0BAFC00286CD104F120053C
:102800002021284604F068FD002864D1D8F8001083
:10281000284604F06BFD00285DD1274657F8281B99
:10282000384604F099FC002855D13868012104F09D
:10283000D3FC00284FD1386800F016FA00284AD19E
:1028400004F10C0720463946FFF7EEFD002842D17F
:10285000019920465A463B4600F056F8D8BB274619
:10286000324657F8181B38460B4604F07FFC90BBE5
:10287000386800F0F9F970BB2646524656F81C1B22
:1028800030460B4604F072FC28BB306800F0ECF9CF
:1028900008BB204650F82C1B04F05EFCD8B900F0B1
:1028A000FBF9C0B900F0E4F9A8B900F0F0F990B96B
:1028B00000F0FCF978B900F0E5F960B900F0F1F941
:1028C00048B900F0DAF930B954F84C1B204604F04E
:1028D00043FC00E0014852B0BDE8F08D014E4B5A78
:1028E000B655000048570000F85600004A56000050
:1028F00056570000A8560000185700004A5700001D
:102900005A5700000C560000FEB506681C461746D4
:102910000A46054602A83146334604F027FC00B1BA
:10292000FEBD01A831463A46334604F01FFC00289C
:10293000F6D16846314604F00FFC0028F0D105F1CD
:10294000200620680299324604F0DAFC0028E7D11C
:1029500060680199324604F0D3FC0028E0D1A96AEE
:10296000A06804F02FFC0028DAD102A804F00AFCC9
:102970000028D5D101A804F005FC0028D0D1684674
:1029800004F000FCFEBD10B504462C3004F0FAFB48
:10299000D8BB04F1300004F0F5FBB0BB04F1340007
:1029A00004F0F0FB88BB04F1380004F0EBFB60BBE3
:1029B00004F13C0004F0E6FB38BB04F1400004F0F5
:1029C000E1FB10BB04F1440004F0DCFBE8B904F1C6
:1029D000480004F0D7FBC0B904F14C0004F0D2FB6E
:1029E00098B904F10C01FFF734FD70B904F1180037
:1029F00004F0C8FB48B904F11C0004F0C3FB20B983
:102A000004F1280004F0BEFB00B110BD04F1080081
:102A1000BDE8104004F0B6BBB0B5054608680C46EA
:102A2000002104F0D9FB18B9A96A00F044F900B1FB
:102A3000B0BDA96AA068BDE8B04004F0C3BB2DE9F1
:102A4000F041984616460F46054600F01EF898B924
:102A500005F120043968E86A224604F05DFC58B9A3
:102A60007968286B224604F057FC28B92A68E86A7E
:102A7000314604F0BBFB08B1BDE8F0812A68286B41
:102A80004146BDE8F04104F0B1BB70B505460C46C7
:102A90008968C06A05F12006324604F065FCD0B9A9
:102AA0002268D5E90B1000F0D5F8A0B96268E96A90
:102AB000686B00F0CFF870B9A268E96AA86B00F003
:102AC000C9F840B9296B206804F07CFB18B9696B20
:102AD00000F0F1F800B170BDA96BA068BDE87040CE
:102AE00004F070BBB0B50C4605460168206804F0E0
:102AF00069FB18B9696800F0DEF800B1B0BDA968DB
:102B0000A068BDE8B04004F05DBBF8B50E460168B2
:102B1000074618461C46154604F01EFB50B9396896
:102B2000201D04F019FB28B9396804F1080004F0ED
:102B300013FB00B1F8BD384631462A46234601B0A2
:102B4000BDE8F040FFF7E0BE2DE9FF4D074600204D
:102B50008846154600219B4603908DF80B001068AF
:102B600003AA04F05BFB38BB0398D0B1286801A925
:102B700004F012FB00BB02204FF0FF310DF10B04FB
:102B80003865019801EBC006002001280FD02868A5
:102B90003146224604F04EFB70B99DF80B00013E11
:102BA000F3E738465946FFF737FF28B9DEE74046D6
:102BB0005946FFF797FF10B104B0BDE8F08D012032
:102BC0000DF10B0AC7E91406002E20D438465946E9
:102BD0005A46FFF74FFC0028EED1386D3146524679
:102BE00040003865286804F025FB0028E4D19DF8F2
:102BF0000B0050B13846594642465B46FFF7A5FCEC
:102C00000028D9D1386D01303865013EDCE700205D
:102C1000D2E70000BCB50C46016899423CBF0C48A5
:102C2000BCBD0546CA20286501A804F09FFA00B182
:102C3000BCBDB320069B2146286501AA2846FFF7A4
:102C400083FF0028F4D101A804F09CFABCBD00BFAA
:102C5000014E4B5A334604F06BBB2B4604F068BB65
:102C600033460A4604F064BB2A46014604F048BBDA
:102C7000204650F8341B04F06FBA204650F8481B29
:102C800004F06ABA204650F8401B04F065BA2046AA
:102C900050F8381B04F060BA204650F8301B04F09E
:102CA0005BBA204650F8441B04F056BA204650F850
:102CB0003C1B04F051BA606804F084BAB0B5C26835
:102CC00090E81A005FEA52054FEA3402E407C56053
:102CD000DD0744EA530445EA51054460154C05609C
:102CE0002140154C234019440C0C44EA034443EAA8
:102CF000134321440C0A44EA036483EA132361402A
:102D00000C0944EA037483EA131361408C0844EA13
:102D1000837483EA930361405FEA53034FEA31030C
:102D2000594001F0010182EAC13282600846002167
:102D3000B0BD00BF01208000400008402DE9F845EB
:102D40000C4605464FF0000A4FF000080027A74246
:102D500015D22846FFF7B2FF06462846FFF7AEFF1A
:102D600010EB46008107F2D500F001004FEA480160
:102D7000013740EA4A0041EADA788246E7E75046FE
:102D80004146BDE8F8850000B0B5094A094B044644
:102D9000A02500204FF6FF71C4E90210C4E90032FB
:102DA00025B12046FFF78AFF013DF9E7B0BD00BF1E
:102DB00010F0FCFF02FC01182DE9F041204F224EDB
:102DC00005460C460020B8461E4F7E44F8B92846FA
:102DD0003E21B047C4E9000128464021B047C4E97C
:102DE000020128464021B047C4E904012846402199
:102DF000B047C4E90601D4E900013A46C01B404689
:102E000071EB08004FF0000038BF0120DEE7D4E985
:102E100000010E4D7D44A847C4E90001D4E9020138
:102E2000A847C4E90201D4E90401A847C4E90401A0
:102E3000D4E90601A847C4E90601BDE8F08100BF56
:102E40004E4B5A302221584F6FFFFFFF39000000D0
:102E50000ABA01BA10467047C030FFF7ADBF000094
:102E60002DE9F041ADF5906D0446C0301E46174681
:102E70000D46FFF789FF2C49E8464FF49062404623
:102E8000794404F01FFC0020257366612146C4F8D4
:102E9000D000781CC4E90170306804F07DF930B9C5
:102EA000204650F8D46B314604F056F918B10DF5B0
:102EB000906DBDE8F081A0680025854230D204EB1A
:102EC0008507314607F1180004F046F90028EED1D5
:102ED00007F1D800314604F03FF90028E7D1002778
:102EE000A06887421AD205FB00703146334600FBCA
:102EF000068204EB8000303004F038F90028D6D187
:102F0000A068626905FB007004EB8000006B01465D
:102F100004F0F6F901370028E2D0C8E70135CCE724
:102F2000012020610020C2E7205800002DE9F04D6B
:102F30008CB006460069012840F0B480B0691F4695
:102F4000924604F049F9002840F0AD8006F10C00EB
:102F500006F1180806F1C00B01900020442800F08B
:102F6000AE803468CDE9020A4FF0000AB0688245AD
:102F700024D204AD58462946FFF71EFFD6F8D800E4
:102F80002946224604F012F9002840F08C80D6F839
:102F9000D8007269014604F0B3F9002840F083803C
:102FA000726958F82A00D6F8D8101368024604F05F
:102FB0004DF90AF1010A0028D8D074E002990429D9
:102FC00001D3402923D3DDF80CA0002484422BD266
:102FD00058F824107369D6F8D8000A4604F0A8F906
:102FE000002860D1D6E9361073690A4604F0A0F9CA
:102FF000002858D158F824007369D6F8DC2001461F
:1030000004F096F900284ED1B0680134DEE7D6E925
:103010000510019A01230091014604F095F9DDF8AD
:103020000CA000283FD1B0680025854229D206EBCC
:103030008504002154F8D80F04F0CEF898BB03950E
:103040000025B068854219D20399736901FB0050CD
:1030500058F8251006EB8000026BD6F8D40004F077
:1030600067F900BB71692068D6F8D4200B68014667
:1030700004F0ECF801350028E3D014E0039D01359D
:10308000D3E7002484420AD206EB84018869D1F890
:10309000D81004F097F830B9B0680134F2E702981C
:1030A00001305BE708480CB0BDE8F08D58F8041B10
:1030B0005AF8040B04F086F8013F0028F3D1002FE2
:1030C000F4D10020EFE700BF024E4B5AF0B5D9B063
:1030D0000E46074658A840211C46154604F03CF809
:1030E000D8BB1F4968461D22794404F0EBFA08A8B2
:1030F0000921402203F0C4FD78BB08A869461D22BF
:1031000003F0C3FD48BB08A83946324603F0BDFDB5
:1031100018BB08A82946224603F0B7FDE8B908A85D
:1031200048AE314603F0A7FDB8B9DDE95E450020A1
:103130003F21202802D000F0DDF8FAE7589848A98E
:10314000402204F033F840B958992846224604F04A
:10315000A1F810B958A804F015F859B0F0BD00BF97
:10316000385A0000BFB505466F2000F0B7F846F6A4
:10317000720000F0BAF803A8FFF7A8FF04B0B0BDD2
:10318000BFB5054665200C46CDE9002305218DF825
:103190000C0004482A462346029002A8FFF796FF37
:1031A00004B0B0BD6E6F6E63BFB50546672000F01A
:1031B00095F847F26D3000F098F803A8FFF786FF06
:1031C00004B0B0BDBFB505466D2000F087F846F6E7
:1031D000637000F08AF803A8FFF778FF04B0B0BD71
:1031E000F8B51D46044603F04BFD38B9DDE9062766
:1031F000089E2046294603F048FD00B1F8BD204650
:1032000039463246BDE8F84003F03FBD70B58CB09A
:1032100004466F201D221D268DF82E0046F67200F2
:10322000ADF82C0003AD05492846794404F04AFA6C
:103230000BA900F049F80CB070BD00BFF6580000B3
:1032400070B58CB004466D201D221D268DF82E0011
:1032500046F66370ADF82C0003AD05492846794465
:1032600004F030FA0BA900F02FF80CB070BD00BFCD
:10327000C258000003F009BDF0B591B00C460746F6
:1032800010A84021154603F067FFD8B96E463846AE
:10329000314603F0F0FCA8B900203F21202802D0DD
:1032A00000F028F8FAE710986946402203F07EFF04
:1032B00040B910992846224603F0ECFF10B910A837
:1032C00003F060FF11B0F0BD032040222B46CDE992
:1032D0000061029020460921FFF782BF0C46CDE92C
:1032E000002303218DF80E0070472A462346ADF8CF
:1032F0000C007047325C735C3354725401390130F6
:103300007047F0B59DB01546229AC8B3C1B3BDB39E
:103310001C46ABB30AB1002111700178B02931D13C
:103320004178A72931D0062936D0012931D18178B9
:1033300079BBC07868BB206800212160032821D3B5
:103340000126C71E26602E7020683A1A2844411CA8
:10335000012004F06FF800F03FF820603A1A28448A
:10336000411C022004F066F800F036F8411C216090
:103370002E5404F057F821684A1C2260685428E053
:1033800014781EE046F685141BE0817809B9C078F0
:10339000D0B14FF4DC4414E000212160837802793D
:1033A00002ADCDE90015411D1846002304F006F8D2
:1033B000044628466C2104F09DF9002C08BF4FF408
:1033C000104420461DB0F0BD002020600AB101204D
:1033D00010704FF41044F4E721684A1C22606854CE
:1033E00021680844704780B5C078202807D10120A3
:1033F00003F065FC03F072FC03F057FC0021084663
:1034000080BD0000B0B50A460146064800230025ED
:1034100009EB0004607804F037F80349657049440B
:103420008D71B0BD320600002A060000FEB5654E63
:1034300000210546002201238DF80B1040F21111E6
:1034400009EB060004F02CF804460128C0F2B58010
:1034500019F80600A0F11001162943D8012202FA3A
:1034600001F1594A11423DD0584F09EB070148700C
:1034700003F0B4FFAA2803D103F0B9FFAA284DD165
:1034800009EB06004078B02834D140F21110611EDB
:1034900001900DF10B0000904D4801AB09EB0005C8
:1034A00009EB060001302A46FFF72BFF00240199A3
:1034B00009EB0706B0F5104F18BF2146020A00239A
:1034C0006A546A185070881C2946019082B270783C
:1034D00003F0DAFF9DF80B10747001296FD000EA39
:1034E000E0746AE0411E02292AD33028BCD040286B
:1034F000BAD061E009EB07004078102840D040289E
:1035000040D0212840D0222834D0232834D030285D
:1035100034D0202814BF0020012036E02C4855214B
:103520000222002309F8001009EB00011520487061
:1035300009EB0700407803B0BDE8F04003F0A4BFFA
:10354000254F4E44013C711C224609EB070004F054
:10355000B9F870781A2807D109EB0700214603B0A3
:10356000BDE8F040FFF73FBFE5B10020002403F0C5
:10357000C3F822E0042008E0072006E0022004E06F
:10358000062002E0032000E005201249013C22460B
:10359000494488710E4809EB06010131484404F0A2
:1035A00091F80AE019F807001528DED8012101FA80
:1035B00000F00A490842D8D000242046FEBDFF2072
:1035C00003F044FF1805000001007F0032060000F0
:1035D000070400002A060000AC070000205020006D
:1035E00070B58AB00B4D0026182109EB0500467016
:1035F00001AC204604F070F81120ADF82460ADF85D
:103600001C00204603F02CFF012009F805000AB039
:1036100070BD00BF320600002DE9F04D1C469046FB
:103620000E46824603F073FB0746304604F0B0F8BE
:10363000DDF820B005460020ABF80000208028040B
:103640003ED03078013D082825D00C2835D00A28F6
:1036500033D0F97A88422DD33A7B90422AD8401A47
:10366000396901EBC00003F02BFD0079397AC0F312
:103670004500401A01061DD0BBF80010C0B201443D
:1036800041451DD8218801312180BBF80010084434
:10369000ABF80000D3E75FFA8AF00A2804D00828C4
:1036A00008D14FF00A0A01E04FF0080A504603F033
:1036B0002EFB074620880130C0E72088013020809B
:1036C000BDE8F08D70B50546007848B1194809EBA2
:1036D00000018A7B52B14844817E51B1002426E02A
:1036E000144809EB00040020A07004E001F10C0470
:1036F00001E000F1180400202646A060206046F892
:10370000040F686803F0DCFCA060287805F108026B
:103710002070094B7B4420B13046072103F0D9FAD1
:1037200004E03046072103F0CFFA00206070204605
:1037300070BD00BF3406000025000000B0B590F851
:103740003E20114802235C1C1DD0DCB209EB0005B1
:1037500004EB440405EB84056D78AA4205D109EB1E
:10376000000505EB8405AD780DB9013BEBE709EBEE
:10377000000202EB840292682AB1484400EB840004
:10378000BDE8B0401047B0BD3406000070B5002859
:103790004DD00D4649780446C80722D061780220F2
:1037A00003F0ABFA2A786978234B244E002A7B4435
:1037B0007E44024608BF1E4602F8216F330ED370C6
:1037C000330C9370320A80F822206268A37842F8A2
:1037D00023000322C2770422827500224272581C01
:1037E000A07088074FF0000623D56178022003F00F
:1037F00084FA2978124A134B00297A447B44014603
:1038000008BF134601F8213F1A0E4672CA701A0CFF
:103810008A70190A80F822106168A27841F82200A3
:103820000321C17706218175501CA07001E04FF083
:10383000FF36304670BD00BF4841000085410000A2
:103840002D410000EC400000002800F040812DE9EF
:10385000F04D88B00E4641780546012017461C46BB
:1038600003F04BFA80460320002F08BF012069783F
:1038700088F8200003F046FA4146020E4FF0720A23
:103880004FF0000B049701F8220F88F804A088F885
:1038900005B0CA70020C000A88F823008A70042060
:1038A000697803F02AFA07460320F877304603F0D8
:1038B00007FC0146082087F804A087F805B00394A8
:1038C0004FF0010A002C08BF0A2087F822000522C9
:1038D0000B0E87F820203A4602F8261FD3700B0CF7
:1038E00093700A0A012387F82720722203F019FA3D
:1038F0000646052805951DD33E4604200DF11E05FC
:1039000016F8261F7278B378F47806F8010C16F8CA
:10391000040C0095059DCDF804A041EA022143EA7C
:103920000422042300F06DFCBDF81E003071000A73
:103930007071042600F072FC8346022087F824A0F0
:10394000049CB8759BF80700002C06FB00FA4FEAB0
:103950001A2087F806A0F871404610F8221F427816
:103960008378C07841EA022143EA002041EA00401E
:10397000076000F0118103986978022840F0A9805F
:103980000520052503F0B9F90026074680F82160D7
:103990000120ADF81A60ADF8186000F046FC204632
:1039A00003F08EFB01460E20FE71BD75B871082034
:1039B0000A0E87F82300384600F8251F00F015FC92
:1039C000652840F2D980BB4697F8265097F8230027
:1039D0001BF8251F9BF802209BF8033041EA0521C4
:1039E00006AE009642EA03220DF11A0341EA0241B3
:1039F0006622FFF711FEBDF81800BDF81A600390AB
:103A00000C3002963871000A78716E48132E28BF68
:103A100013269BF800109BF802209BF8033009EB5B
:103A2000000497F8260041EA002042EA03213246CA
:103A300040EA0141204603F045FE00252046A555F9
:103A400003F03EFB01218BF80000BD76059D7976E1
:103A5000010E8BF80310010C000A87F826008BF882
:103A60000210404610F8221F42788378C07841EA5D
:103A7000022143EA002041EA004047600398002801
:103A800000F0888069780520052603F036F90025C6
:103A9000074680F82150012000F0C7FB049803F08E
:103AA0000FFB0E21FD71B971082187F823100299CF
:103AB0000144384600F8251F0A0E00F096FB0C3032
:103AC0000F21BE753871000A787102205AE000F0AB
:103AD000A9BB00F093FB03260746C677204603F0F8
:103AE000EFFA0146722000240123387101200A0EEA
:103AF0007C7187F824000A2087F8220000F05BFB25
:103B000004281ED33D4615F826CF05F8016C15F89C
:103B1000040C95F801E0AB78E97807AA009201223D
:103B2000019243EA01214CEA0E22032342EA0141B9
:103B3000722203F005F9BDF81C002871000A6871B3
:103B400003200399002908BF06469BF80700BC76AE
:103B5000BC7506FB00F106FB00A0B971090AF971FA
:103B6000022100F1020A7976052187F820104146EA
:103B700000F02EFB4F600FE00C3008213871000A76
:103B800078710120002279764146BA7600F020FB58
:103B900041F820700AF12C0A6868A978052288F893
:103BA00016204FEA1A2240F821800020013188F8BF
:103BB00006A088F8072088F81F00A97008B0BDE8A3
:103BC000F08D00BF5806000000284FD02DE9F04DC1
:103BD0000C46054600274FF0050B4FF003084FF049
:103BE000000A207982453ED26079032802D3811EE3
:103BF000514535DC0230504532D3697800F0FEFA89
:103C0000216806465FFA8AF0884761790A228A4568
:103C100008BF082286F82220F771777186F820B055
:103C200086F8217086F816B086F81F803246030E9B
:103C300002F8260FD370030C000A937086F8270051
:103C40006868AA7840F822600C20B0717220307148
:103C5000AAEB0100010900017076501CB176A87032
:103C60000AF1010ABDE70020BDE8F08D00F0DABAE4
:103C7000002800F0D9802DE9F04D86B00C4641783F
:103C80008246012003F039F89AF80110804603209B
:103C9000032703F037F84146020E4FF0000B04945F
:103CA00001F8220F88F820B0CA70020C000A8A704E
:103CB00088F82300A068C0B39AF80110022003F02E
:103CC0001CF80646C777A06803F0FAF93146020EE1
:103CD00086F813B086F809B001F8210FCA70020CFB
:103CE0008A70010A86F82210314601F812BF81F865
:103CF00003B081F802B0414611F8222F4F788C783A
:103D0000CD7811F8023C42EA072244EA052442EA4F
:103D10000442049C42F823600222B2755A1C01F846
:103D2000022C8178C07841EA002B2068002800F03E
:103D3000A2809AF8011000F061FA07460320F87794
:103D4000206803F0BDF90146722000253871052076
:103D50000A0E7D7187F82000012087F8240038467C
:103D600000F8261FC2700A0C8270080A87F8270024
:103D70000820627B002A08BF0A2087F822007222EE
:103D8000012302F0CEFF064605281ED33D4604203F
:103D900001210DF1160415F826CF6A78AB78EE787C
:103DA00005F8010C15F8040C01910094049C4CEAF0
:103DB000022143EA0622042300F023FABDF816008C
:103DC00004262871000A6871002500F027FAC079DE
:103DD00087F821507043010AB871F971A16829B3BD
:103DE000414611F8222F4C7811F8023C8D78C978A1
:103DF00042EA042245EA012142EA01413A4601EB46
:103E0000830151F8041C02F8121F0B0ED3700B0C27
:103E1000090A5170002193701172032E38BF0121DD
:103E20008900D17108210AE000F0FCB9616819B17C
:103E300000F0ECF9022102E000F0E8F9052111712F
:103E40004146584411F8222F4C788D78CE7811F8DD
:103E5000023C42EA042245EA062442EA0442049C67
:103E600042F823705A1C01F8022C797EBA7E41EA8E
:103E7000022100EB010B6068002874D09AF8011051
:103E80000420CDF80CA002F038FF03260746C677C1
:103E9000606803F015F90146002001237871722053
:103EA0000A0E38710A2087F82200052087F82000C2
:103EB000012087F8240000F07EF9824604281CD3F4
:103EC0003D464FF0010C15F8261F05F8016C6A7885
:103ED000AB78EE7815F8040C05ACCDE9004C41EA5E
:103EE000022143EA0622032300F08BF9BDF81400F7
:103EF0004FF0030A2871000A687100F08FF94146FB
:103F000011F8223F4C788D78CE7811F8022C43EAD4
:103F1000042345EA06243D4643EA044303EB8204B6
:103F200054F8044C05F8124F260EEE70260C240AA5
:103F3000FC74AE7043F822700223002401327B76B9
:103F40000823BC7687F82140C079BB750AFB00F3D3
:103F50000AFB00B0DDE903A4BB711B0A01F8022CC7
:103F600000F1020BFB71207B0221002808BF052114
:103F700088F81610DAF804009AF80210722240F855
:103F80002180002088F804204FEA1B22013188F8A4
:103F900006B088F8190088F81A0088F8050088F833
:103FA0001F0088F807208AF8021006B0BDE8F08DDF
:103FB0002DE9F04D00287DD00D464178044600F0F3
:103FC0001DF94FF00308064680F81F80286803F0AB
:103FD00077F80146722000270123307108200A0E6D
:103FE000777186F82200052086F82000012086F8E7
:103FF0002400304600F8261FC2700A0C8270080A9E
:10400000722286F82700082002F08BFE012851D882
:1040100096F8220002F080FE6168A278B776F77108
:1040200041F82260B071022086F81980B075501CEA
:10403000A070686800284CD0617800F0DFF8064670
:104040000320F077686803F03BF8722137464FF0A1
:1040500000084FF0050A31710A2107F8260F86F88B
:10406000058086F820A086F82210010EF970010C58
:10407000000A86F827000A20B97002F04DFEC10937
:104080003A78BB78FF7840004FF0010BF17196F859
:104090002710B07196F8220086F824B042EA012178
:1040A00043EA0722012341EA0241722202F039FE6B
:1040B000022802D94FF0FF365DE06068A17886F8EB
:1040C0001A8086F816A040F82160481C86F819B0BE
:1040D000A0706178052002F010FE002607464FF020
:1040E000030A4FF0080880F82160012087F820A01B
:1040F00087F81FA087F8238087F82200287A1F4AB4
:104100001F4901287A44794408BF11463A460B0EEC
:1041100002F8251FD3700B0C93700A0A87F826202B
:1041200001283846174A184D7A447D4418BF2A465C
:1041300000F82E2F130EC370130C8370100A87F82B
:104140002F00082002F0F7FD6168A2786B78BE7638
:10415000FE7187F8168041F822700C2187F819A0AB
:10416000B971297841EA03210844511C0A30387199
:10417000000AA17078713046BDE8F08DD739000093
:10418000A43A0000493700003137000020B180B563
:1041900002F0A4FD002080BD00F044B848B110B585
:1041A0000446007810B1607802F09DFD0020A070F8
:1041B00010BD00F037B8384600F8261FC2700A0C50
:1041C0008270080A722287F827000A2002F0A9BD2F
:1041D00011F8222F4B788D78C97845EA012142EAFF
:1041E0000322059D42EA01417047C2700A0C8270A9
:1041F000080A87F82600082002F09DBD042002F07E
:104200007CBD41EA0241722202F09ABD00213A4689
:1042100002F8121FD17091705170704797F8220008
:1042200002F075BD4FF0FF30704787F82200032081
:1042300087F82000F87770472DE9F8450E460A996F
:10424000054600209A46174600F030F848B3DDF8DE
:104250002080044646610FB100F0E1FA0A20B8F16F
:10426000000F19BF4146032251460422722302F077
:104270005DFD099920702A0746BF0138607060789B
:10428000C4F80C80C4F804A084F83010C5F3801181
:10429000617405F003012174C1B2204600F02CF8CE
:1042A00000E000242046BDE8F885000070B5044613
:1042B00010480D4651B1002190290AD009EB0002A7
:1042C0000A44D2F8882032B14831F5E709EB0006FC
:1042D00005E000260BE04844084400F1480630465B
:1042E000482103F0F9F986F8455086F844403046F5
:1042F00070BD00BF6C0600002DE9F04591B004468A
:1043000040780E4688421CD2A56820786670013835
:10431000B04231DDE0680121032308AACDE9002184
:104320002946002808BF04230A20722202F008FD53
:10433000BDF820106818A060695C0A291ED1013000
:104340001BE0E568002D74D000274FF001080DF147
:10435000200ABE42D9D020780138B8420ADD0A20AE
:10436000294672220323CDE900A802F0E9FCBDF83A
:10437000200005440137ECE70020A0604F4804F11D
:104380003402784404900020ADF80A0094F8450007
:104390008DF80C0007CA05AB07C303A8FFF792F915
:1043A000277894F801A006462064207C39465246BE
:1043B00000F0FCF880468DF80B00E06888B1012F12
:1043C00015D16168082072220023002602F0A9FCA2
:1043D000022848D36168182004F11802CDE90020B2
:1043E00021E094F8303030462946002255E00AF1A9
:1043F000010063682421CDE9000708AF304A384640
:104400007A4402F0CBFC08203946722200234FF098
:10441000000A02F086FC04F1180C02282CD31820A4
:10442000CDE900C008A908207222012302F08DFC0A
:104430002DE0656800274FF001080DF1200ABE420B
:104440003FF463AF20780138B8420ADD0A202946DC
:1044500072220423CDE900A802F072FCBDF820000E
:1044600005440137EBE7616804F11800172203F0F7
:1044700029F984F82F600AE04FCFACE84F0084F8A8
:104480002FA03888ACF80000B8788CF8020094F8B7
:104490003030206C04F118012A46FFF7D5F9B8F145
:1044A000000F04D0206C0DF10A01FFF76FF900F046
:1044B000E9F902F0FAFB11B0BDE8F085BB0100009C
:1044C000CD3500002DE9F04587B00D46824602A8A3
:1044D00000F0D3F919480E99784400F0C5F968B195
:1044E000044645610FB100F053F900F0CEF907D052
:1044F000022807D0012808D1022004E0002418E097
:10450000032000E00120002500E000208DF80700D6
:1045100002A8FFF7D7F841462064FFF7A9FB25B9A9
:10452000206C0DF10601FFF731F900F0ABF902F054
:10453000BCFB204607B0BDE8F08500BF6500000069
:1045400010B50C4600F0F0F878B3042C06D0012C1E
:1045500008D054BB4178D9B1013909E0426922B38E
:1045600004211FE002784178013A8A4205DD0131D9
:10457000C9B2BDE81040FFF7BFBE017C41F00201A7
:10458000032901D0417C81B1426972B1012109E066
:10459000017C01F0FE01022901D0417C29B1426970
:1045A0001AB10021BDE81040104710BD0346022992
:1045B00008D301391046002A18BF0120914288BF54
:1045C000023000E00020032B0AD0022B04BF40F091
:1045D00001007047012B04BF40F002007047704794
:1045E00003207047F8B50F460646022019461546C7
:1045F000FFF75CFE70B104460FB100F010F92879A6
:104600002072687960722868C4E90060204600F072
:1046100005F800E000242046F8BD0000B0B586B0E3
:1046200004460020019004F13402194878440290B5
:1046300094F845008DF8040007CA03AB07C301A82E
:10464000FFF740F8251D20642946FFF7BDFA207AC0
:10465000022816D30121ADF80210697900290A4613
:1046600018BF012201388DF80320884203D9901C1D
:104670008DF8030000E021B1206C0DF10201FFF77D
:1046800085F800F0FFF802F010FB06B0B0BD00BFE7
:10469000210100002DE9F04587B00D46824602A8B1
:1046A00000F0EBF819480E99784400F0DDF868B195
:1046B000044645610FB100F06BF800F0E6F807D052
:1046C000022807D0012808D1022004E0002418E0C5
:1046D000032000E00120002500E000208DF8070005
:1046E00002A8FEF7EFFF41462064FFF761FC25B901
:1046F000206C0DF10601FFF749F800F0C3F802F055
:10470000D4FA204607B0BDE8F08500BF95FEFFFF54
:1047100038B110B50446006CFFF740FD002121645C
:1047200010BD4FF0FF307047084A0021D82904BF60
:104730000020704709EB02030B441B6C834201D03D
:104740004831F3E709EB0200084470476C060000AB
:1047500010B50C46FFF7E8FFC8B1042C06D0012CB9
:104760000AD0A4B9417A91B101390BE0417A0268CB
:104770000846BDE810401047027A417A013A8A4261
:1047800005DD01314172BDE81040FFF747BF10BDA4
:1047900038787978BA78FB7842EA032240EA012037
:1047A00040EA02406063384610F8082F797A42EAFE
:1047B00001218278C37842EA032241EA0241E1639F
:1047C000394611F8043F7A7943EA02228B78CD7892
:1047D00043EA052342EA0342A2633A787B78BD7834
:1047E000FE7842EA032245EA0625037842EA0542BA
:1047F0008578C07804927A7A45EA002043EA02225A
:104800008B7842EA00400A78C9780690787943EAC2
:10481000012142EA002040EA0140059070473878C3
:104820007978BA78FB7840EA012042EA03223946D7
:1048300040EA024011F8082F6063787A42EA0020CB
:104840008A78C97842EA012140EA0140E063787938
:1048500017F8041F41EA0020B978FA7841EA0221EA
:1048600040EA0140A06370478DF8081003900020D3
:10487000ADF806000120FFF719BD14219846174630
:1048800002F02ABF206CFFF781BC01250AF003006B
:1048900003282570207470472DE9F0410746104821
:1048A00001F098FCC4E90E762564069D284602F0C6
:1048B00007FC6064079802F003FC0999B8F1FF0F48
:1048C00021650899C4E9120118BF002D03D1BDE884
:1048D000F04100F043B84046BDE8F04100F002B8B6
:1048E00044070000F0B58FB0044601A8382102F05B
:1048F000F3FE194E09EB060090F828000F281EBFA2
:1049000009EB06000E2180F8281009EB06000121B2
:10491000002780F8301001AD09EB0600406C017AE9
:104920008F420ED279B22A4600F0A6FC00F0FEFCBF
:1049300009EB0601013791F83020104481F830006E
:10494000EAE709EB0600002180F83140002000F082
:10495000F7FE0FB0F0BD00BF4407000010B52148BE
:1049600009EB000191F828100D2909D00E2914D166
:1049700009EB0001CA6C0221002A08BF01210DE0E9
:1049800009EB00020221D46C536C002C08BF0121FA
:1049900082F8311033B1013100E0002109EB00024F
:1049A00082F8311009EB00020C21D2E9113482F8AF
:1049B00028100321002B08BF022182F8301024B1F7
:1049C000013109EB000282F8301009EB0002D26CD1
:1049D0001AB14844013180F830100020BDE8104081
:1049E00000F09EBF440700001FB514460A4601466A
:1049F00008980390079802900698CDE900300220AD
:104A0000234600F001F81FBD2DE9F041074611488B
:104A1000884640211D46144601F0F1FB0898F064D9
:104A20000798B0640699C6E90F4571640999C6F8FC
:104A30002C8086F82870B1630421002808BF032168
:104A4000207A084486F830000020BDE8F04100F0EC
:104A5000B1B800BF440700002DE9F04D88B088468A
:104A6000DDE913A11546DDE9102B0446BAF1000F6C
:104A700039D0DAF800602EB9DAF8140010B9DAF893
:104A8000180080B32248CDE90641282105961F462B
:104A9000164609EB0004204602F01EFE1C490220C7
:104AA000B4462B4609F8010005994020082908BFA3
:104AB00080200699C4E9056BC4E90357C4F81CA01B
:104AC000079E01430798C4E9011820629AF8000084
:104AD00010F0160F02D1DAF8140088B108B0BDE862
:104AE000F04D00F017B8CDE90032CDE902B1022057
:104AF000214642462B46FFF787FF08B0BDE8F08D00
:104B0000022042463D46CDE9007CCDE902B6F2E7FF
:104B10004407000003484FF400714844C18400F08A
:104B2000EBBF00BF44070000B0B586B0064D0D9C3A
:104B30007D44CDE903540B9C01940A9C0094FFF73B
:104B40008BFF06B0B0BD00BF104000002DE9F84556
:104B5000DFF85C800C46074640219A46164609EB72
:104B6000080505F1280002F0B7FD04202F6585F83F
:104B700028000898C5E9106AA8640999A963052165
:104B8000002808BF042185F830105CB1204609EBED
:104B9000080502F095FAE86395F83000217A084498
:104BA00085F830000020BDE8F84500F003B800BFEC
:104BB00044070000F0B58BB05D4E04460020012292
:104BC0000227CDE90900CDE9070009EB0603586388
:104BD000986C002808BFFF2208BF012793F9311005
:104BE00093F830309D1EEDB2A94206DAB9420BDAD5
:104BF000002941D08A4244D044E010D108A90AAA31
:104C0000012000F0E1FF3DE009EB0600056D8DB1EC
:104C1000B9420FD10995474878440A9033E0581EAD
:104C2000C0B281422ED108A90AAA0020002500F0B6
:104C3000CBFF28E009EB060090F82C20D20635D5F2
:104C400090F8590090BBB94205DC09EB060090F8DA
:104C50005A0008282AD100200690CDE9040009EB6B
:104C6000060090F8582004F00800012A01D001291C
:104C700043DB40F0030042E009EB0600D0E91010EE
:104C800008910A90002500200A9A08992E4EC0B279
:104C90000023029020467E44CDE900632B4600F0BD
:104CA00075F80BB0BDE8F04001F0FFBF002209EB42
:104CB0000600CF1B0DF10C0C80F859208DF80C204C
:104CC000C06B08AB07AA002D8DE80C1018BF013F80
:104CD0000AAAF9B209AB00F0B7FC079840B109EB9A
:104CE000060080F85B70174979444163012002E0B7
:104CF0009DF80C004000099DC6E740F001000E49F8
:104D00000022794403910D497944059100210091D5
:104D10000B4903AB7944FFF7D5FB09EB060401F01F
:104D2000C4FF012084F8327084F859000BB0F0BD44
:104D300044070000273000000B2D00001A2B000054
:104D4000BD100000A1110000671200007FB50546EC
:104D50000C484021144601F052FA092074632A4697
:104D6000002386F82800012086F83000002006493C
:104D700002907944CDE900104020002100F006F8AF
:104D80007FBD00BF440700009F0100002DE9F04DEA
:104D90009AB0884604460CA838211D46164602F0F3
:104DA0009BFC0027CDE90A775648784402F088F941
:104DB000DFF84CB140F6B8310997CDE9070109EBAE
:104DC0000B0090F8300002280BD309EB0B0191F98E
:104DD000311029B101380327884208BF022700E0BB
:104DE000012709EB0B0047EA040290F8581014461B
:104DF000012988BF44F00204416D002908BF144610
:104E000090F82800062840F0080118BF1446092928
:104E10000CBF0DF11C0A4FF0000A0A2805D109EB5E
:104E20000B00C06C08B1FFF773FC239FB6B1229949
:104E3000B8F1000F2CD12498022829D00122334642
:104E4000012808BF02222046002D08BF2A46CDE9CE
:104E5000005202975246FFF7EFF943E009EB0B00CF
:104E600090F8310003A90CAA00F0AAFB30B3017836
:104E700000240A2924D0092935D101F0D0F922498A
:104E800079440A91417980798DF82D00481C20E001
:104E900000200396CDF81480049552468DF8180032
:104EA00009EB0B00406B284318BF01208DF8190057
:104EB000009703AB2046FFF705FB13E0002412E048
:104EC00001F0ADF98DF82D401049007A7944013098
:104ED0000A918DF82C0051463B460D480AAA7844A9
:104EE000FFF780FB044609EB0B0090F828000A2826
:104EF00004BF09EB0B00C4641AB0BDE8F08D00BF1D
:104F000044070000DF12000019120000CD1100005C
:104F10001F12000041F00400042801D0012904D12F
:104F200002484844406B00B1004770474407000006
:104F30000A4698B1012816D0022819D003281CD09F
:104F400004281FD0072822D0062825D0052818BFFE
:104F50007047154800217844FFF7F8BE1348012137
:104F60007844FFF7F3BE124800217844FFF7EEBE05
:104F7000104801217844FFF7E9BE0F48002178442A
:104F8000FFF7E4BE074801217844FFF7DFBE0C4875
:104F900000217844FFF7DABE084801217844FFF782
:104FA000D5BE00BF502A0000A42A00003B2B000001
:104FB000002D00009A2B0000962C0000BF2A000054
:104FC000F92B000070B58CB05A4D00210446CDE994
:104FD0000A11CDE9081109EB0500416390F828009A
:104FE000062815D005283DD109EB05020121022331
:104FF000906C002808BFFF2108BF012392F93120DF
:1050000093423BDDD3B2002B63D0914266D066E081
:1050100009EB050090F93110C06B027A91422DDA4C
:1050200009EB0502536DCBB392F85920B2BB09EBE3
:10503000050292F85820012A07D8002905DC09EB5F
:10504000050393F85A30082B28D100200790CDE9AA
:10505000050004F00800012A01D0012950DB40F0CE
:1050600003004FE009EB050090F8310080B109A979
:105070000BAA0020002500F0A7FD31E009EB050098
:10508000816B002953D001200CB0BDE87040084767
:1050900009A90BAA012000F097FD20E0002309EBED
:1050A0000502C9B282F859308DF80F3009AB08AD4E
:1050B0000DF10F02CDE9005302920BAA0AAB00F0EA
:1050C000C3FA0898002812BF01259DF80F0045007B
:1050D00006E009EB0500D0E9101009910B900025BE
:1050E0000B9ADDE90913174EE8B20025029020461D
:1050F0007E4401F097F80CB0BDE8704001F0D5BDDA
:1051000040F001000C490022794404910B49794494
:105110000691002100910A4904AB7944FFF7D2F9C6
:1051200009EB050401F0C1FD012084F859000CB021
:1051300070BD00BF440700000529000014270000CF
:10514000B70C000079100000BFB504460B484021A1
:1051500001F05BF801202246002385F8300085F835
:1051600028000020CDE90000029000200449794485
:10517000FFF70CFEBDE8BF4001F097BD44070000FB
:10518000AB2700002DE9F04107460B4801F022F85B
:105190000798E0640698C4E91058C4E90E76A06444
:1051A000082084F82800042084F830000020BDE89E
:1051B000F04100F003B800BF44070000BFB5284B22
:1051C000002209EB03014A6391F8311079B10229F9
:1051D00021D001290FD109EB0301896BA1B109EBA2
:1051E0000302126C82B109EB0301CA6B29E009EBDF
:1051F0000301896B1DE01D4A09EB03017A444A63F0
:105200008A6C1B49794418E002070DD409EB0301AD
:10521000022281F83120134A09EB03017A444A63E0
:105220004A6C1149794408E009EB0302002482F832
:10523000314009EB0302D26B09B1002303E009EB13
:1052400003010B6C00210B4D002402947D44CDE939
:105250000054FFF79BFDBDE8BF4001F026BD00BF35
:1052600044070000710F000032270000A50F000066
:10527000D6260000690F0000F0B587B00D4606463F
:1052800001A81821144602F027FA002D28D4307AFC
:10529000854225DA307838B314B32046382102F03D
:1052A0001BFA21484844026D42B3E8B201AD2946D9
:1052B0009047A8B19DF804000A28207028D0032840
:1052C00008D004282AD007281DD0082802D0092891
:1052D00019D028B9281D211D90E86C006CC100E090
:1052E0000024204607B0F0BD7168C5EBC50001EB96
:1052F000C00007B0BDE8F04001F0E2BE7268E8B25D
:1053000021469047EDE7029803996060A160E8E7C5
:10531000281D211D90E82C002CC1E2E7281D211D2D
:1053200090E8EC00ECC1DCE74407000002780121C2
:10533000A2B1032A12D00A2A07D0072A07D0082AC6
:1053400007D0092A07D0042A07D1017B06E0017A99
:1053500004E0017C02E0417A00E000210846704749
:1053600070B58AB00D46044604A8182102F0B4F9BD
:10537000204800F039FF14DD04A9284600F046F863
:105380009DF8100018B39DF82430DDE905121E4881
:105390007844002B0090204618BF012300F0D8F875
:1053A00023E04844416D4163816C134A00297A44EB
:1053B00018BF0A46059290F828001049104A0328A1
:1053C0007A44794408BF0A460792002002E09DF81B
:1053D00025004000DDE9052307990A4EC0B20025EB
:1053E000029020467E4400F01DFF01F05EFC0AB0F2
:1053F00070BD00BF44070000992800001825000078
:10540000D4240000B90100000D020000F0B593B0F3
:10541000064600200C4638218DF84B0004AD284686
:1054200002F05AF9474F0DF14B012A4609EB0700EC
:1054300000F0F1FE00287AD0054600780A2811D045
:1054400003282CD0042835D0072845D0082860D060
:10545000092807D000286AD1686801F031FE606031
:10546000A86819E0281D09EB070601F029FE00686D
:1054700001F026FE96F828100546B06B102900D1E1
:1054800018B90F2955D1002853D001F019FE6060DA
:105490009DF84B0055F8200001F012FE46E0A86888
:1054A000294E7E44B047E0606868B0476060E868B5
:1054B000B0473BE004F115009DF84B1004F10C02DD
:1054C00004F11003CDE900320290281D221D04F1E1
:1054D000080300F0B9F82AE001204F442070686802
:1054E00001F0EEFD1949794479639DF84B1001EB09
:1054F000410150F8212000EB810062604168A16009
:10550000007A411E18BF0121002E08BF01462175F7
:105510000DE0686801F0D4FD9DF84B6050F826005E
:105520006060A86801F0CCFD50F82600A06013B0C0
:10553000F0BD9DF84B0055F8200001F0C1FD606002
:10554000F5E700BF440700001B1C0000A701000096
:10555000F0B585B0114CDDF828C0002609EB040534
:1055600095F830700025022F0AD34C4494F931404D
:105570002CB1013F0326A74208BF022600E0012606
:10558000CDE902128DF810300095304302AB614630
:105590000022FFF77FF805B0F0BD00BF4407000010
:1055A000E0B508460DF1070100F028F930B19DF88B
:1055B00007000021BDE88C40FFF7D2BE8CBD000083
:1055C0002DE9FC4D1E4C0646002709EB040090F81F
:1055D0002830102B30D893460122019102FA03F3B0
:1055E00013F4504F04D009EB0400A246446C05E0CC
:1055F000144A134220D0A24600F13C0400270020A8
:105600004FF000080546207A804515D24FFA88F100
:1056100020465A46FFF730FE0746FFF787FEE9B2FD
:1056200008F101080844B042ECD909EB0A000199DD
:1056300090F83100401B08703846BDE8FC8D00BF73
:105640004407000008000100B0B5154602681C467A
:1056500012B102EB011002E042680846904701F0E7
:105660002FFD026804992A6042682260027B53077A
:1056700003D4920704D4002000E080680860B0BD25
:10568000DDE9052101230B7080681060B0BD0000CA
:10569000F0B58FB001AC3821204602F01DF8264E3F
:1056A0000DF10301224609EB060000F0B4FD0028CD
:1056B00040D00446007807283CD1606809EB060713
:1056C00001F0FEFC054697F828009DF803701028AD
:1056D00011D8012101FA00F010F4504F04D000203D
:1056E000012100F02DF806E01449084203D0002003
:1056F0000121FFF735FE606B88B107EB470105EB31
:10570000810401F0DDFC217A09EB06020346607A90
:10571000013918BF012192F9312098470AE009EBBD
:105720000600C26C32B107EB4700002105EB800098
:10573000407A90470FB0F0BD440700000800010018
:10574000B0B58AB00D46044604A8182101F0C4FF84
:105750001C4800F049FD14DD04A92846FFF756FE59
:105760009DF81000E8B19DF82430DDE905121A48D3
:105770007844002B0090204618BF0123FFF7E8FE75
:105780001BE0484490F82810026D0F4B7B440F2912
:1057900008BF134643630D48784405900C4878448D
:1057A0000790DDE9052307990A4D002002907D440A
:1057B000CDE900502046FFF7E9FA01F076FA0AB089
:1057C000B0BD00BF44070000CDF1FFFFAF240000D3
:1057D000F62000002B00000069000000E0B508463C
:1057E0000DF1070100F00AF830B19DF80700002123
:1057F000BDE88C40FFF7A4BF8CBD0000B0B590B0F1
:105800000C46054601A8382101F066FF042D0DD095
:10581000012D12D0002D7CD13F4809EB000191F9F8
:10582000311001291DDB0139082013E03A4C09EB46
:105830000400406B38B380476BE0374809EB000148
:1058400091F9310091F830100139814261DDC0B227
:10585000411C0020304A4A4482F831102070012057
:1058600058E009EB000191F82810062951D109EB05
:105870000001496D00294CD0484490F85800012897
:1058800047D00820EAE709EB040090F82810002030
:1058900010293FD8012202FA01F1204A114239D0E1
:1058A00009EB04000DF13F0190F8310001AAFFF768
:1058B00087FE70B301780246002059B30A2909D047
:1058C00007290FD0092911D003294FF0000112D167
:1058D000107C05E009EB0400916890F93100085C48
:1058E000002108E050680021407A04E009EB040040
:1058F00090F83110D07A536B33B109EB040191F970
:1059000031200021984704E009EB0402D26C02B177
:105910009047002010B0B0BD4407000008C001004F
:105920002DE9FF4180463248002209EB00014F6C0F
:10593000CD6C4A630222002D3E4608BF0122002F93
:1059400018BF012691F9313083B10124002D08BF21
:10595000FF249C4211D109EB0004D5E9000501F0B8
:10596000AFFB0246E06C8068606304E009EB000175
:10597000D1E90F5212B300232CE0002F144608BFC8
:10598000FF249C4209D11C494844002379444163C7
:105990001A4D1B4A7D447A441CE0896C32444844C9
:1059A000002908BFFF229A420DD1164900237944ED
:1059B0004163154D154A7D447A440BE04844826B9F
:1059C0000C4B7B4406E0016D00234163104D114AEE
:1059D0007D447A441049002002907944CDE90010BA
:1059E00040462946FFF7D2F9BDE8FF4101F05DB915
:1059F00044070000162300008D000000231F000054
:105A00001D220000730000006C1E0000C722000071
:105A1000751E0000132300006B0000000020FEF73D
:105A200061BF000007480D21484480F8281000217C
:105A300080F83110816C097B013180F83010002032
:105A400000F010B844070000E0B508460DF107016A
:105A5000FFF7D4FE28B19DF80700BDE88C40FFF7A2
:105A60005FBF8CBDFEB50446164800F0BDFB11DDDE
:105A700009EB0007B86C0068134E7E44B04700F095
:105A8000D5FB0546B86C4068B04700F0CFFB034635
:105A9000002108E00D4948440023794441630C4942
:105AA0000C4D79447D440C4E022000220290204689
:105AB0007E44CDE900622A46FFF768F9BDE8FE4062
:105AC00001F0F3B84407000043160000BFEEFFFFEB
:105AD000F21D0000A321000029000000E0B50846E7
