:02000004C0DE5C
:1000000010B5044662B609F07AF93CB12068B0F543
:10001000807F07D1204608F035F801E007F0FCFFAB
:10002000002010BD07F0E8FF70B58AB00C46054609
:100030006846202116460AF09DFB14B9012009F0FC
:100040005BF9142E0AD3402001210990681C6D46EB
:10005000089008A82A4609F009F908B1002006E02E
:1000600005F10C01204614220AF087FB01200AB09A
:1000700070BD1FB5044610B9012009F03DF9207884
:10008000E02834D100200390CDE9010060781128E8
:1000900030D0042838D0052842D0062855D007286B
:1000A0005ED0082865D009286CD00A2873D00B28A8
:1000B0007AD00C2800F081800D2800F086800E2870
:1000C00000F08B800F2800F09080102800F09580C1
:1000D000032840F09A80A078002840F0AB80E078B8
:1000E000002840F0A780BDE81F4000F062B94FF43F
:1000F000DC40A1E0A068002800F0998000F0A6F89C
:1001000001A800F008FE90E0A078002840F092805E
:10011000E078002840F08E80BDE81F4000F0E4B891
:10012000A178012900F28680E078002840F08280E2
:10013000A06800287BD0019020790029029018BF88
:10014000012101A800F0E4F86FE0A17800295FD058
:1001500003296FD8E07840F08002802A5CD069E003
:10016000A068002863D000F071F801A800F028FA18
:100170005BE0A06800285AD000F068F801A800F001
:10018000E8F952E0A068002851D000F05FF801A81B
:1001900000F07EFA49E0A068002848D000F056F848
:1001A00001A800F0DDFB40E0A06800283FD000F08F
:1001B0004DF801A800F038FB37E0A068B8B300F0B4
:1001C00045F801A800F072FB2FE0A06878B300F0BA
:1001D0003DF801A800F0E2FA27E0A06838B300F08B
:1001E00035F801A800F030FC1FE0A068F8B100F07D
:1001F0002DF801A800F002FA17E0A068B8B100F0ED
:1002000025F801A800F0D6FC0FE04FF4DA4013E027
:10021000E07880280ED18020A26842B10192227934
:100220000292C20901A800F0DBF804B010BD46F646
:10023000872001E046F6862004B0BDE8104000F0BB
:1002400000B802460020002107F066BE0190207928
:1002500002907047BFB507F037FE1E4819F800003E
:1002600008B901F067F81C484FF4367148440AF0A9
:100270008DFA1B48784409F07DFE807801280DD066
:1002800001208DF802000020ADF8000015487844E8
:1002900009F070FE6946032209F0F0FE0F4D01AC33
:1002A00007F01CFE002814D4024609EB0501204685
:1002B00007F038FF30B12046FFF7DBFEB0F1FF3F1B
:1002C000EEDC06E00020002146F6872207F024FE3F
:1002D000E6E7BFBDD418000000000000BC19000014
:1002E00088B700006EB70000F8B50848784409F0F8
:1002F00041FE00214FF4104203910721CDE9010195
:1003000001A8012107F008FE04B080BD8DAA0000FD
:10031000F0B585B0234F0C4605464FF4367109EB16
:10032000070630460AF032FA002006F5357109F862
:10033000070086F8A802284607F05AFB08B309EB25
:10034000070090F8D42200F52B71284607F0A3FB94
:10035000B8B109EB07000021052290F8D432CDE9AD
:100360000221049100F1490500F1080600F52B7205
:1003700000202121CDE9006507F04EFC40B180B29C
:1003800001E046F6872005B0BDE8F04000F00CB86B
:10039000002C05B0BDE8F04008BF00F097BD01F0AB
:1003A000ADB800BF0000000002460020002107F0A9
:1003B000B3BDF8B5002001214FF410428DF80200C2
:1003C0008DF80100039003208DF8031001210290A5
:1003D0000DF10100019001A807F09EFD04B080BD61
:1003E00070B586B0544E044691B109EB060090F802
:1003F000A80201282CD109EB060015466268D0F846
:1004000008021118B1F5FF7F25D94BF2040039E03D
:1004100009EB06054FF4367128460AF0B7F90020BB
:1004200005F5357109F80600012085F8A802204677
:1004300007F0DEFA48B109EB060090F8D42200F587
:100440002B71204607F027FBB8B946F6872019E044
:100450004BF2070016E009EB0601084400F1080121
:10046000204607F042FB58B109EB06016268D1F85B
:1004700008021044C1F808024DB14FF4104001E0E9
:100480004BF2050006B0BDE8704000F05DB80021F9
:10049000CDE9020109EB060000F10801019100F528
:1004A000047101A800F068FE012814D1012009F8A8
:1004B000060009EB0600D0F8081200F50E7205914F
:1004C00000F10801049104A8012108F0CFFE40B119
:1004D0004BF2060001E04BF2050000F035F806B0E3
:1004E00070BD164819F80000A0B1154819F80010A1
:1004F000F9B909EB0604012109F8001004F50674A6
:100500001FCC009400F0F8FD10B1012000F0BCFEFB
:100510000020E4E709EB0600D0F82C0209497944F1
:100520000AF078F910B101F006F9D8E701F000F906
:10053000D5E7FF2009F038FF00000000D4180000C4
:10054000D518000067A5000002460020002107F032
:10055000E3BC10B5D0B00446406820280BD1206819
:1005600040A9202201F0EAF888B940A8402100F013
:1005700017F800200DE068460921402208F0A4FE8B
:1005800028B9D4E90012684608F0A3FE18B100F0BB
:100590008AFC50B010BD684640A908F090FEE3E721
:1005A000F8B5002201AB07C301A801214FF41042A6
:1005B00007F0B2FC8FBD02460020002107F0ACBC62
:1005C00010B5F2B0044668460621202208F07CFEF1
:1005D00050B9D4E90012684608F07BFE20B968469D
:1005E0006AA908F06CFE18B100F05DFC72B010BD95
:1005F0006AA82021FFF7D4FF0020F7E710B5A4B0C8
:1006000000F04DFCA0BB14AC1E49202220467944CA
:100610000AF0B3F80CA81C49202279440AF0ADF87E
:1006200004A81A49202279440AF0A7F803A8202137
:10063000224600F045FCD8B902A80CAA202100F0FF
:100640003FFCA8B901A804AA202100F039FC78B920
:10065000684600F02BFC58B9DDE90213DDE9000221
:1006600009F0A2FD20B900981CA900F026FC18B1E1
:1006700000F019FC24B010BD1CA82021FFF790FF4A
:100680000020F7E776A80000EAA70000DEA8000037
:100690002DE9F041ADF5087D044660A83D49A02252
:1006A00079440AF06AF800F0FAFB68BB002048A918
:1006B000FF22602802D00A540130FAE736496D461D
:1006C0002022284679440AF058F809A820212A4611
:1006D00000F0F6FBC0B908A86A46202100F0F0FB44
:1006E00090B90AA8202109F0A5FD68B909990AA8BE
:1006F00009F0AAFD40B90DF130080AAB0521052229
:10070000404601F0D5FF28B100F0CDFB0DF5087D86
:10071000BDE8F081002760AE0D98874212D208EB49
:10072000870531462022E86909F0EEFC0028EBD16C
:10073000E869119A014609F091FD01372036002839
:10074000EAD0E1E708AA40460021012302F016F8AA
:100750002068119A007808EB800454F8180F0146BD
:1007600009F088FD0028CFD1206848A900F0A5FB3A
:100770000028C9D148A86021FFF712FF08A809F096
:10078000AFFC0028C0D109F08DFC0028BCD10020AE
:10079000BCE700BF24A90000A0A8000070B5D0B03D
:1007A000044600F07CFBA8BB48A81D4920227944E0
:1007B00009F0E3FF01AD1B4920222846794409F0E6
:1007C000DCFF09A820212A4600F07AFB10BB0AA80A
:1007D000202109F02FFDE8B909990AA809F034FD94
:1007E000C0B90CA80AAB0521052201F061FF88B948
:1007F000206806780CAC48AD2EB12046294601F0A1
:1008000053FF013EF8E748A82021FFF7C9FE09F091
:1008100049FC18B100F047FB50B070BD0020FBE769
:1008200036A60000A8A70000B0B5ADF51A7D016896
:100830000022FF230D785AACB2F5807F02D0A3547A
:100840000132F9E7406801311AAA013828B111F8DC
:10085000013B013802F8013BF8E700F020FBF0B95A
:1008600004A8294601F090FBC8B904A801A901F029
:100870000CFAA0B904A81AA901AA00F095FF70B952
:1008800004A804F1200301A900F01DFB38B9049865
:1008900041005AA8FFF784FE09F004FC20B100F0E3
:1008A00002FB0DF51A7DB0BD0020FAE7F0B5ADF5FD
:1008B0002B7D064600680021FF2205786BACB1F560
:1008C000807F02D062540131F9E7716801302BAAB0
:1008D000013929B110F8013B013902F8013BF8E771
:1008E00000F0DDFAA8BB30680AAA002102AB20297B
:1008F00007D046187778575496F821605E54013136
:10090000F5E715A8294601F03FFB10BB15A812A971
:1009100001F0BBF9E8B915A82BA912AA00F044FF11
:10092000B8B915A804F1200312A900F0CCFA80B9D7
:100930002020CDE9000415A80AA912AA02AB00F0F4
:100940005BFF30B96BA86021FFF72AFE09F0AAFB14
:1009500020B100F0A8FA0DF52B7DF0BD0020FAE7DC
:100960002DE9F045EBB0054600680DF1AB04FF2121
:1009700006780020B0F5807F02D021540130F9E7DD
:1009800000F08DFA002854D114AF3146384601F0FA
:10099000FBFA00284DD107F10C060DF2AB123846D8
:1009A000314601F09BFA002843D19DF8AB114CF67B
:1009B000012001293DD122490DF1240A202250466F
:1009C000794409F0DAFE01AF1E4920223846794405
:1009D00009F0D3FE0DF1440814A851463A464346A7
:1009E00001F0DDFC28BB14A80DF2AB12314601F07A
:1009F00075FAF0B99DF8AB0101284CF6012018D129
:100A0000D5E90001CDF80080421C4B1E14A83146E8
:100A100001F04AFD68B914A804F1400311A900F0DF
:100A200052FA30B90DF1AB0000F043FA09F03AFB8D
:100A300020B100F038FA6BB0BDE8F0850020FAE78D
:100A4000C4A50000D6A50000F0B5EFB0054640688B
:100A5000412801D8022802D246F6872015E02868EE
:100A6000FF21067800202FACB0F5807F02D0215402
:100A70000130F9E700F013FA20B919A8314601F066
:100A800083FA20B180B2FFF796FD6FB0F0BD022E61
:100A90000CD0012E28D10BAE424920223046794499
:100AA00009F06BFE03AF4049794409E00BAE3F49C2
:100AB00020223046794409F060FE03AF3C49794476
:100AC0003846202209F059FE19A816AB31463A469D
:100AD00001F065FC0028D5D119A80BA903AA13AB16
:100AE00001F05DFC0028CDD100200DF10B028DF846
:100AF0000B0019A816A901F0F1F90028C2D19DF840
:100B00000B00012842D119A813AE0DF10B0231469A
:100B100001F0E4F90028B5D19DF80B00012838D187
:100B20001A980DF10B0109F07BFB0028AAD19DF862
:100B30000B00012830D11B980DF10B0109F070FB5F
:100B400000289FD19DF80B00012828D1D5E900018C
:100B50000096421C4B1E19A816A901F0A5FC0028FE
:100B600090D119A804F1200313A900F0ACF90028D2
:100B70007FF488AF09F096FA00287FF483AF1998C4
:100B800041002FA8FFF70CFD00207EE74CF6012066
:100B900079E74CF6022076E74CF6032073E74CF633
:100BA000042070E786A30000FCA3000090A30000CF
:100BB00006A300002DE9F04DADF5047D0546006863
:100BC000FF220478002044A9B0F5807F02D00A54A7
:100BD0000130F9E700F063F920BB0DF1B8082146B8
:100BE000404601F0D1F9E8B927A800F05FF928687C
:100BF00000210FAA0130602903D0435C5354013116
:100C0000F9E70FAA00212BAE0C1D102C10D0701884
:100C10002021202302F1200509F056FA00282A4657
:100C20002146F1D000F03FF90DF5047DBDE8F08DCF
:100C300008F10C004FF0000A4FF0010B029044AD98
:100C400003AFBAF10C0F38D028A8202100EB0A041A
:100C5000204609F02FFA0028E4D12068594609F00F
:100C600069FA0028DED14046394601F00EF8002826
:100C7000D8D15644029940463B46324601F0AEFB7D
:100C80000028CFD12068294600F017F90028C9D1E3
:100C9000306805F1200100F010F90028C2D140466B
:100CA000394601F03CFB0C3740350BF1010B0AF1E2
:100CB000040A2BAE0028C4D0B4E727980323009081
:100CC0002EA828A92BAA00F062FF0028AAD12798F5
:100CD00044A92022C03109F037FA0028A2D12EA859
:100CE00027AA03AB029901F079FB00289AD144A806
:100CF00000F1E0022EA803A90FAB01F0EAFA0028E8
:100D000090D144A800F0D5F809F0CCF900287FF480
:100D100089AF002088E72DE9F04DADF50A7D044646
:100D20000068FF220578002048A9B0F5807F02D036
:100D30000A540130F9E700F0B2F850BB32A8294656
:100D400001F022F928BB206800221AA90230202ACB
:100D500003D0835C8B540132F9E76268023ACDE933
:100D6000880201F1200288A8012108F08CFA80B9DC
:100D70001AAA002117AC0D1D102D10D060182021CB
:100D8000202302F1200609F09FF900283246294667
:100D9000F1D000F088F80DF50A7DBDE8F08D0AA8C5
:100DA00000F084F809A800F081F84FF000080DF574
:100DB000907B0BAE0DF15C0A0024B8F1100F4ED001
:100DC00005A8202100EB0807384609F073F9002830
:100DD000DFD101A8202100EB0805284609F06AF9B7
:100DE0000028D6D10998214609F0A4F90028D0D1CD
:100DF0002868214609F09EF90028CAD132AD314653
:100E0000284600F042FF0028C3D1DDE909305146F1
:100E100002220090284600F0FDFE0028B9D1386873
:100E20000A9909F07DF90028B3D132A8314601F0C2
:100E300076FA0028ADD10998594600F03EF800280E
:100E4000A7D10A980BF1200100F037F80C360134D5
:100E50000BF1400B08F104080028AED099E70024FC
:100E60000C2C05D00AEB040009F03AF90434F7E73A
:100E70000A980323009001A8011D05A8021D32A8AD
:100E800000F085FE00287FF484AF48A800F011F838
:100E900009F008F900287FF47CAF00207BE72020D0
:100EA000002109F0F5B880B2FFF785BB202109F0D9
:100EB00001B94FF48071FFF773BB202209F044B9E8
:100EC000202309F001B9224601F003BAB0B59AB067
:100ED00041200DF1050441228DF805000B4809EB76
:100EE0000005601C05F1080109F047FC202005F110
:100EF000490120228DF8470004F1430009F03DFC30
:100F00002046632100F004F81AB0B0BD00000000D4
:100F1000F8B5002201AB07C301A801214FF410422C
:100F200006F0FAFF04B080BDF0B593B00DF10204F5
:100F30004921651C284609F01DFC0B4809EB0007F8
:100F4000284697F8A06207F5167132468DF80260C0
:100F500009F013FC97F8A11230194170B11C20461A
:100F6000FFF7D6FF13B0F0BD000000002DE9F041FF
:100F7000BCB004460020A568A061002D4DD02069BA
:100F800000284AD009F050FC282846D1207B4FF099
:100F9000000839956121CDF8EC803A9015AD2846CE
:100FA00009F0E8FB39AE0DF1E301304606F020FD13
:100FB0009DF8E3202EAF3046394606F06CFD052043
:100FC00005F141019DF8E3303A46CDF81080CDE9B6
:100FD0000051CDE902080020212106F01DFEE0B9F4
:100FE00010AD1421284609F0C5FB15A82946142286
:100FF000FFF71AF805AE2921304609F0BBFB284659
:1010000014213246292306F0E5FE216930462922C3
:1010100009F012FC08B90120A0613CB0BDE8F081E4
:1010200070B58CB004AC06461E21204609F0A2FB28
:1010300006F10E053221284609F09CFB0020317B89
:10104000CDE90200B06802AA07F00EF978B10320DA
:10105000DDE902231E210090204606F074FE009474
:10106000284632211E23034A7A4408F0E9FD0CB0D9
:1010700070BD00BF749C0000F0B593B08569ADB33E
:101080000446284609F0D0FB28282FD1A7686FB363
:101090006E464821304609F06DFB06F1180000212C
:1010A000282909D06A5CA2F16103DBB21A2B38BF90
:1010B000203A42540131F3E7217B06F10802384619
:1010C00007F0D2F890B1217D206906F1100207F0F7
:1010D000CBF858B101248DF8004008F019F9054803
:1010E00069464822484409F048FB00E000242046B5
:1010F00013B0F0BDD802000070B58CB01D4E19F8C9
:1011000006402CB309EB0604D4E90245694060406F
:10111000084321D109EB0600D0E9040159405040B1
:1011200008431DD101AD109C2921284609F022FB5E
:10113000204614212A46292306F04CFE09EB06001E
:101140002946183009F066FB70B901200CB070BD5B
:101150004FF44040FF210AE04FF44040012106E0F7
:101160004FF44040032102E04FF4404002210022AE
:1011700007F041F8D802000070B50D46044610B9DA
:10118000012008F0B9F815B9012008F0B5F8606839
:10119000B0F5FF7F01D9F9204BE020462946002217
:1011A00006F03CFC30B32068A16808441421A86113
:1011B000204606F012FCF8B105F108012046002295
:1011C000002606F02BFCC8B105F120012046C5E938
:1011D000046606F043FC296A90B9686A5FEA500029
:1011E0004FEA31020023D2F1E80273EB000007D28C
:1011F000FC201EE0FF201CE0FE201AE0FD2018E08D
:101200002068A2681044E861204606F0E6FB68B159
:1012100005F11C030DCB00F00EF848B1D4E9011222
:101220006FF006008A4208BF012002E0FB2000E0C8
:10123000FA2040B270BDF8B51C461546064610B9F6
:10124000012008F059F8002000230246401B1946EF
:1012500073EB040006D2B756501C41F10003B7F1FE
:10126000FF3FF2DC0020521BA14128BF0120F8BD46
:1012700008B1FFF72BBE46F6851000F000B8024615
:101280000020002106F048BE2DE9F0418CB078B373
:10129000DFF89480022000252027032240F2016419
:1012A0000DF12C0C0DF1280E0B9509F808004820C3
:1012B0000A9009EB080090F8D43200F50E7100F5A1
:1012C0001676CDE9004200F52B7200200895CDE995
:1012D00006C5CDE902172121CDE9046E06F0D0FC48
:1012E00088B14BF2080009F80850FFF7C8FF17E073
:1012F0000D48002109F8001046F685100CB0BDE835
:10130000F041FFF7BCBF0A9909EB080080F8A01272
:101310009DF82C1001F0010180F8A112FFF704FEE6
:101320000CB0BDE8F08100BF00000000FF2009F014
:101330003BF80000BFB5194C17487C4409EB000589
:1013400000F0D8F8142169731549164A79447A4493
:10135000C5E901210078287300F0CCF815216976E1
:101360001149124A79447A44C5E9042100214078A0
:1013700028760F480F4A104B78447A447B44CDE9D5
:101380000032CDE902100022FF230C480C497844BA
:10139000794404F0EDFEBFBD20030000C2A60000AA
:1013A00033980000A499000096980000DC96000095
:1013B000B1FFFFFFF69C0000E89C0000EB990000E5
:1013C0000B950000BFB5224C152809F8042011D058
:1013D00014282AD109EB04051E4C7C4400F08AF83D
:1013E0000078B0FA80F0400928738DF80F0000F003
:1013F00081F815E01848784408F0BCFD4078A8B1A1
:1014000009EB0405154C7C4400F074F84078B0FA00
:1014100080F0400928768DF80F0000F06BF801305D
:101420000DF10F01012208F029FEBFBD0C480D4946
:1014300078447944CDE900100B480C490C4A0D4B17
:10144000784479447A447B4405F0BEFABFBD00BFBE
:101450002003000022A6000006A60000F6A500005A
:1014600045000000EE970000D595000000960000B2
:10147000C4960000B4980000B0B586B0A8B1174C6F
:1014800015487C4409EB000500F034F84078B0FAC8
:1014900080F0400928768DF8170000F02BF8013015
:1014A0000DF11701012208F0E9FD0B48002119F8A0
:1014B00000300B480B4A0C4C78447A447C44CDE90C
:1014C0000042CDE9021000220848094978447944D5
:1014D00004F04EFE06B0B0BD200300007AA5000067
:1014E00071FEFFFFB69B0000A89B0000AD980000B6
:1014F000CD930000204608F03DBD000070B588B0D7
:10150000224E09EB060119F8060091F8A8120843CB
:101510002AD11F4D2B2109EB050009F02BF903AC53
:101520001421204609F026F909EB06002146142271
:101530000830FEF779FD08B309EB050203A8142172
:101540002B2306F047FC013018D01248002400215C
:101550007844CDE9004009EB05000F4A0F4B7A446F
:101560007B4404F059FF0EE0002009F806004BF21E
:10157000070008B0BDE8704000F012B84BF202005E
:1015800000F00EF80446204608B070BD00000000D0
:101590003C03000059000000DA94000006980000A7
:1015A00002460020002106F0B7BC000010B504463A
:1015B000FFF75EFE0720002C18BF06200249794481
:1015C000BDE8104005F0D6B873FDFFFFF0B58DB053
:1015D000434F044609EB070090F8A80201285DD1AB
:1015E00019F80700012859D13E4E1E2109EB0600CB
:1015F000143009F0BFF805AD1E21284609F0BAF8ED
:1016000009EB07001E21D0E986230320009028461D
:1016100006F099FB00284BD0009509EB06051E212A
:101620001E23314A05F114007A4408F009FB5435B1
:101630002B21284609F09EF809EB070014212A46C1
:101640002B23D0F8280206F0C5FB013033D0274900
:1016500009EB060000250246794442F8341F49F898
:10166000062002222249027200F154028572794456
:10167000C0E9111200F1140181631E48784414B3CB
:10168000CDE90250CDE9005509EB060100201A4AC8
:101690001A4B7A447B4404F0ADFE11E0002009F8B7
:1016A00007004BF207000DB0BDE8F04000F02CB889
:1016B0004BF2030001E04BF2020000F025F8054672
:1016C00028460DB0F0BD0290CDE9005509EB0601AA
:1016D00000200B4A0B4B7A447B4404F0F1FDEFE70A
:1016E0000000000068030000B49600009894000019
:1016F0007796000095000000A6930000B6930000C6
:10170000629300007293000002460020002106F060
:1017100003BC000010B50446FFF7B6FD034984F092
:1017200001007944BDE8104005F024B80FFCFFFF2C
:101730000120FFF74BBF0020FFF748BF2DE9FC4D0C
:101740000C46CDE90002684601210126224607F039
:101750009AFD054618BB207800F0F8002070E07F65
:1017600066F39F10E077D4E900010E4E7E44B04747
:1017700080468A46D4E90201B04783460F46D4E941
:101780000601B047C4E90001D4E90401B04704F1FF
:10179000080282E8030804F1140080E88005284666
:1017A000BDE8FC8D4103000070B592B0144602689C
:1017B00002AE054608463146FFF7C0FF0020002173
:1017C000202809D0325C4901130641EAD361315423
:1017D00002F007010130F3E72946284651F80C3B97
:1017E000009402AA00F060FE18B92846214600F0D5
:1017F00096FD12B070BD00002DE9F04DADF5467DAF
:101800000546CE98202818D10F4682A928461E46A4
:10181000924600F03AFA88B92A6872AC38462146F6
:10182000FFF78CFF50B9DDF83CB300205AA92028FF
:1018300008D0225C0A540130F9E79B480DF5467D3B
:10184000BDE8F08D12A80921402207F03DFD0028D7
:10185000F4D104F1200112A8202207F03AFD00285B
:10186000ECD112A83146202207F033FD0028E5D143
:1018700012A862AC214607F022FD0028DED13F20ED
:1018800072A9421C04D0225C013801F8012BF8E750
:1018900089A872AA4021402308F016FC0028CDD167
:1018A00087A8402108F006FC0028C7D17F490DF128
:1018B000080840224046794408F05FFF88A840218C
:1018C0004246402308F000FC0028B7D18999DDE9A1
:1018D000870208F08DFC0028B0D187AA05F10C0121
:1018E00082AB284600F07AFD0028A7D182A92846BD
:1018F00000F015FD0028A1D1879852A900F0E0F86A
:1019000000289BD188A808F0EBFB002896D189A875
:1019100008F0E6FB002891D187A808F0E1FB002839
:101920007FF48CAF284600F078FC00287FF486AF67
:1019300005F120048AA805210522234600F0B8FEFF
:1019400000287FF47BAF1F2062A9421C04D0325CC8
:10195000013801F8012BF8E78299919808F0E0FB33
:1019600000287FF46BAF8399929808F0D9FB002888
:101970007FF464AFDAF80010939808F0D1FB0028E8
:101980007FF45CAFDAF80410949808F0C9FB0028E3
:101990007FF454AF959862A9202208F0B5FB002887
:1019A0007FF44CAF95982246014608F057FC00287A
:1019B0007FF444AF829800F07FF800287FF43EAFB8
:1019C000839800F079F800287FF438AF8298594660
:1019D00000F076F800287FF431AF83980BF12001F6
:1019E00000F06EF800287FF429AF82A9284600F0A5
:1019F00061F900287FF422AF85A8202108F05AFB66
:101A000000287FF41BAF8AA885AA0021012300F0DB
:101A1000B5FE00287FF412AF859800F04DF800283D
:101A20007FF40CAF86A85AAA2021202308F04CFB93
:101A300000287FF403AF01A8202108F03BFB002819
:101A40007FF4FCAE08F1200288A82021202308F0B2
:101A50003BFB00287FF4F2AE889BDDE985120198FC
:101A600008F0BAFB00287FF4E9AE859852A920223D
:101A700008F04AFB00287FF4E1AE889B019ADDE97B
:101A8000851008F091FB00287FF4D8AE889ADDE934
:101A9000850108F0ADFB00287FF4D0AE85980BF1EE
:101AA000400100F00DF8C9E6034E4B5A0E980000B5
:101AB0000ABA01BA104670472246014608F0DABB5E
:101AC000202208F041BB2DE9F04585B00E460746BF
:101AD00003A820211C46154608F0ECFA98B902A884
:101AE000202108F0E7FA70B901A8202108F0E2FAF5
:101AF00048B90398012108F01DFB20B90298012183
:101B000008F018FB10B105B0BDE8F085DDF83080B5
:101B10000DF1100A1EB338682946524608F020FB22
:101B20000028F0D10498B8B102983A6823460146DB
:101B300008F052FB0028E6D1396801982A4623466E
:101B400008F03EFB0028DED10398019A23460146A7
:101B500008F042FB0028D6D10437013EDAE70399AA
:101B60004046224608F050FB0028CCD1029A40465D
:101B70004146234608F030FB0028C4D103A808F0F2
:101B8000AFFA0028BFD102A808F0AAFABBE72DE9F6
:101B9000FE450F46064602A820211C46924608F044
:101BA00089FA08B1BDE8FE8501A8202108F082FA73
:101BB0000028F7D10298002108F0BCFA0028F1D1E2
:101BC000DDF828800025AC421DD0019857F825206B
:101BD000B368214600903846FFF775FF0028E1D131
:101BE00001985AF82520B368014608F0F5FA002854
:101BF000D8D1DDE90120B368014608F0D5FA0135F6
:101C00000028E0D0CEE7B2680299404608F0F0FA2A
:101C1000BDE8FE852DE9FC410E460168074601A896
:101C20001C46154608F046FA08B1BDE8FC81DDF80F
:101C3000208056F82510404608F072FA0028F4D1AA
:101C4000043EBB68019841467DB1224608F0C4FAC3
:101C50000028EAD156F82520BB680199404608F0D3
:101C6000A3FA013D0028ECD0DFE71A4608F0C0FADD
:101C70000028DAD10199404608F052FA0028D4D160
:101C800001A808F02DFABDE8FC81B0B50D46016849
:101C90000446284608F00EFA20B92168281D08F0ED
:101CA00009FA00B1B0BD216805F10800BDE8B040F7
:101CB00008F000BA10B508460C4608F011FA18B939
:101CC000201D08F00DFA00B110BD04F10800BDE8B8
:101CD000104008F005BAF8B50F46144605464368AB
:101CE0000968406B7A6808F05FFA002854D1D5E99A
:101CF0000C0105F1200600F0FDFB00284CD13968ED
:101D0000686B00F0F7FB002846D17968A86B00F0FB
:101D1000F1FB002840D1A9696A6BE86B00F0E4FB95
:101D2000D0BB6B68D5E90E21286C08F03DFA98BB52
:101D3000B968A86C00F0DEFB70BB6B68E86A296CC0
:101D4000AA6C08F03DFA38BB6B68E96AD5E9122045
:101D500008F036FA00BB05F12C026B6807CA08F0E0
:101D60002FFAC8B96B68D5E90B10AA6B08F028FAEE
:101D700090B92A6BE96C206800F0B6FB60B96B681B
:101D8000D5E90D02E96B08F01BFA28B96A6B296CDA
:101D9000606800F0A9FB00B1F8BD296CEA6CA0688E
:101DA000334601B0BDE8F04008F070BA2DE9F041CB
:101DB000064617460C4692688968C06A984606F13E
:101DC000200500F094FB00287DD1D6E90B102B46AE
:101DD0000A4608F05BFA002875D13A682168706BF2
:101DE00000F085FB00286ED17A686168B06B00F066
:101DF0007EFB002867D1D6E90D12F06C00F077FB6E
:101E0000002860D1F269F06BF16C00F070FB0028E3
:101E100059D17368316BD6E90F2008F0D1F9002849
:101E200051D17368316BF26B706C08F0BDF900280A
:101E300049D1D4E900127368B06C08F0B5F90028F4
:101E400041D1D7E900127368F06C08F0ADF9D0BB4E
:101E5000306BD6E9121200F04AFBA0BB7368D6E9DA
:101E60000C12B06C08F0ACF968BB7368B26BD6E9C1
:101E7000121008F0A5F930BBD6E90B10F26C00F097
:101E800036FB00BB326B316CD8F8000000F02FFB42
:101E9000C8B9B169D6E90C0200F029FB98B973689A
:101EA000326BB16BF06C08F08BF960B9306B716C10
:101EB000F26C00F01CFB30B9D6E90B12D8F8040024
:101EC00000F015FB08B1BDE8F081D6E91012D8F892
:101ED00008002B46BDE8F04108F0D8B9F8B5054632
:101EE0000F46052009681446009005F12006E86AAF
:101EF0000A4600F0F9FA00B1F8BD7968286B00F0E5
:101F0000F9FA0028F8D1D5E90B12686B00F0ECFA69
:101F10000028F1D1A969EA6AE86B00F0E5FA002827
:101F2000EAD1E86B6B682A6B014608F03DF900289E
:101F3000E2D1E9696A6B286C00F0D6FA0028DBD19F
:101F40006B68AA6AA86B296C08F02EF90028D3D117
:101F5000A86B3246014608F08DF90028CCD1E86B19
:101F60003246014608F086F90028C5D1D5E90E01B0
:101F70006A4608F0F5F80028BED10098B0FA80F063
:101F8000400920700020F8BD2DE9F04DD2B0044684
:101F9000022922D0012940F0E78020202022206061
:101FA0004AAF74493846794408F0E7FB42AE7249BB
:101FB00020223046794408F0E0FB70490DF1E80A30
:101FC00020225046794408F0D8FB32AD6C492022DB
:101FD0002846794408F0D1FB2DE020202022206003
:101FE0002AAF68493846794408F0C7FB22AE6649F3
:101FF00020223046794408F0C0FB64490DF1680A9C
:1020000020225046794408F0B8FB12A860492022EB
:102010000190794408F0B1FB5E490DF1280B2022B4
:102020005846794408F0A9FB02AD5B4920222846B6
:10203000794408F0A2FB04F1040820213A46202349
:10204000404608F041F8002840F08F8020462A469C
:1020500050F8081B0B4608F037F8002840F0858040
:1020600004F120052021284608F0E4F800287CD15E
:10207000D8F80010284608F0E7F8002875D1274660
:1020800057F8281B384608F015F800286DD1386835
:10209000012108F04FF8002867D1386800F02EFAC7
:1020A000002862D104F10C0720463946FFF7EDFD08
:1020B00000285AD1019920465A463B4600F06EF856
:1020C000002852D12746324657F8181B38460B468F
:1020D00007F0FAFF002848D1386800F00FFA00280E
:1020E00043D12646524656F81C1B30460B4607F095
:1020F000EBFFD0BB306800F001FAB0BB204650F8CF
:102100002C1B07F0D7FF80BB204650F8301B07F090
:10211000D1FF50BB204650F8341B07F0CBFF20BB4B
:10212000204650F8381B07F0C5FFF0B9204650F89C
:102130003C1B07F0BFFFC0B9204650F8401B07F01A
:10214000B9FF90B9204650F8441B07F0B3FF60B9BF
:10215000204650F8481B07F0ADFF30B954F84C1B2F
:10216000204607F0A7FF00E0014852B0BDE8F08D1F
:10217000014E4B5AFE8D0000708F0000208F000032
:10218000928E00007E8F0000D08E0000408F0000F5
:10219000728F0000828F0000548E0000FEB506682A
:1021A0001C4617460A46054602A83146334607F044
:1021B0008BFF00B1FEBD01A831463A46334607F019
:1021C00083FF0028F6D16846314607F073FF0028E8
:1021D000F0D105F1200620680299324608F03EF859
:1021E0000028E7D160680199324608F037F80028E6
:1021F000E0D1A96AA06807F093FF0028DAD102A80D
:1022000007F06EFF0028D5D101A807F069FF00286C
:10221000D0D1684607F064FFFEBD10B504462C30EF
:1022200007F05EFFD8BB04F1300007F059FFB0BBE8
:1022300004F1340007F054FF88BB04F1380007F0C4
:102240004FFF60BB04F13C0007F04AFF38BB04F1CC
:10225000400007F045FF10BB04F1440007F040FFC9
:10226000E8B904F1480007F03BFFC0B904F14C00A5
:1022700007F036FF98B904F10C01FFF71BFD70B9A8
:1022800004F1180007F02CFF48B904F11C0007F016
:1022900027FF20B904F1280007F022FF00B110BD8C
:1022A00004F10800BDE8104007F01ABFB0B50546BC
:1022B00008680C46002107F03DFF18B9A96A00F034
:1022C00021F900B1B0BDA96AA068BDE8B04007F02F
:1022D00027BF2DE9F041984616460F46054600F007
:1022E0001EF898B905F120043968E86A224607F01B
:1022F000C1FF58B97968286B224607F0BBFF28B99F
:102300002A68E86A314607F01FFF08B1BDE8F0818E
:102310002A68286B4146BDE8F04107F015BF70B54B
:1023200005460C468968C06A05F12006324607F06A
:10233000C9FFD0B92268D5E90B1000F0D5F8A0B9D3
:102340006268E96A686B00F0CFF870B9A268E96A60
:10235000A86B00F0C9F840B9296B206807F0E0FECF
:1023600018B9696B00F0CEF800B170BDA96BA06818
:10237000BDE8704007F0D4BEB0B50C460546016814
:10238000206807F0CDFE18B9696800F0BBF800B10D
:10239000B0BDA968A068BDE8B04007F0C1BEF8B5FF
:1023A0000E460168074618461C46154607F082FE91
:1023B00050B93968201D07F07DFE28B9396804F14D
:1023C000080007F077FE00B1F8BD384631462A46CE
:1023D000234601B0BDE8F040FFF7E0BE2DE9FF4D18
:1023E000074600208846154600219B4603908DF83D
:1023F0000B00106803AA07F0BFFE38BB0398D0B1EA
:10240000286801A907F076FE00BB02204FF0FF31DB
:102410000DF10B043865019801EBC006002001287E
:102420000FD028683146224607F0B2FE70B99DF8F9
:102430000B00013EF3E738465946FFF737FF28B94E
:10244000DEE740465946FFF797FF10B104B0BDE8FC
:10245000F08D01200DF10B0AC7E91406002E20D4DF
:10246000384659465A46FFF736FC0028EED1386DFB
:102470003146524640003865286807F089FE00283A
:10248000E4D19DF80B0050B13846594642465B46B0
:10249000FFF78CFC0028D9D1386D01303865013E3A
:1024A000DCE70020D2E70000BCB50C460168994289
:1024B0003CBF0C48BCBD0546CA20286501A807F0F2
:1024C00003FE00B1BCBDB320069B2146286501AACE
:1024D0002846FFF783FF0028F4D101A807F000FE8B
:1024E000BCBD00BF014E4B5A334607F0CFBE2B4652
:1024F00007F0CCBE33460A4607F0C8BE2A4601465E
:1025000007F0ACBE606807F00BBE0000B0B5C26853
:1025100090E81A005FEA52054FEA3402E407C5600A
:10252000DD0744EA530445EA51054460154C056053
:102530002140154C234019440C0C44EA034443EA5F
:10254000134321440C0A44EA036483EA13236140E1
:102550000C0944EA037483EA131361408C0844EACB
:10256000837483EA930361405FEA53034FEA3103C4
:10257000594001F0010182EAC1328260084600211F
:10258000B0BD00BF01208000400008402DE9F845A3
:102590000C4605464FF0000A4FF000080027A742FE
:1025A00015D22846FFF7B2FF06462846FFF7AEFFD2
:1025B00010EB46008107F2D500F001004FEA480118
:1025C000013740EA4A0041EADA788246E7E75046B6
:1025D0004146BDE8F8850000B0B5094A094B0446FC
:1025E000A02500204FF6FF71C4E90210C4E90032B3
:1025F00025B12046FFF78AFF013DF9E7B0BD00BFD6
:1026000010F0FCFF02FC01182DE9F041204F224E92
:1026100005460C460020B8461E4F7E44F8B92846B1
:102620003E21B047C4E9000128464021B047C4E933
:10263000020128464021B047C4E904012846402150
:10264000B047C4E90601D4E900013A46C01B404640
:1026500071EB08004FF0000038BF0120DEE7D4E93D
:1026600000010E4D7D44A847C4E90001D4E90201F0
:10267000A847C4E90201D4E90401A847C4E9040158
:10268000D4E90601A847C4E90601BDE8F08100BF0E
:102690004E4B5A302221584F6FFFFFFF3900000088
:1026A0000ABA01BA10467047C030FFF7ADBF00004C
:1026B0002DE9F041ADF5906D0446C0301E46174639
:1026C0000D46FFF789FF2C49E8464FF490624046DB
:1026D000794408F052F80020257366612146C4F859
:1026E000D000781CC4E90170306807F003FD30B9F0
:1026F000204650F8D46B314607F0DCFC18B10DF5DC
:10270000906DBDE8F081A0680025854230D204EBD1
:102710008507314607F1180007F0CCFC0028EED100
:1027200007F1D800314607F0C5FC0028E7D10027A3
:10273000A06887421AD205FB00703146334600FB81
:10274000068204EB8000303007F0BEFC0028D6D1B2
:10275000A068626905FB007004EB8000006B014615
:1027600007F07CFD01370028E2D0C8E70135CCE74F
:10277000012020610020C2E7348A00002DE9F04DDD
:102780008CB006460069012840F0B480B0691F464D
:10279000924607F0CFFC002840F0AD8006F10C0017
:1027A00006F1180806F1C00B01900020442800F043
:1027B000AE803468CDE9020A4FF0000AB068824565
:1027C00024D204AD58462946FFF71EFFD6F8D8009C
:1027D0002946224607F098FC002840F08C80D6F865
:1027E000D8007269014607F039FD002840F0838067
:1027F000726958F82A00D6F8D8101368024607F014
:10280000D3FC0AF1010A0028D8D074E00299042907
:1028100001D3402923D3DDF80CA0002484422BD21D
:1028200058F824107369D6F8D8000A4607F02EFD30
:10283000002860D1D6E9361073690A4607F026FDF4
:10284000002858D158F824007369D6F8DC200146D6
:1028500007F01CFD00284ED1B0680134DEE7D6E950
:102860000510019A01230091014607F01BFDDDF8D8
:102870000CA000283FD1B0680025854229D206EB84
:102880008504002154F8D80F07F054FC98BB039539
:102890000025B068854219D20399736901FB005085
:1028A00058F8251006EB8000026BD6F8D40007F02C
:1028B000EDFC00BB71692068D6F8D4200B68014696
:1028C00007F072FC01350028E3D014E0039D0135C8
:1028D000D3E7002484420AD206EB84018869D1F848
:1028E000D81007F01DFC30B9B0680134F2E7029847
:1028F00001305BE708480CB0BDE8F08D58F8041BC8
:102900005AF8040B07F00CFC013F0028F3D1002F0C
:10291000F4D10020EFE700BF024E4B5AB0B530496A
:1029200019F80120824208D100284BD009EB01039D
:102930005A6801325A60034606E042EA000409EB95
:102940000102526820B123461C4609F8013007E015
:10295000002309EB010564F07F0409F801306B6086
:1029600083421EBF09EB010000214160082A0AD3FF
:102970000320B2FBF0F000EB4000101A08BF44F057
:10298000400404F07F0402F09FFED8B1014611F824
:10299000322F4B788D78C97842EA032245EA01212B
:1029A00042EA014272B1E1B283290CD041290CD034
:1029B00042290CD081290CD082290CD0032901D1C5
:1029C000052109E0B0BD042106E0022104E0032155
:1029D00002E0002100E00121BDE8B040104700BF47
:1029E000E80300002DE9F04D8AB08B460646012928
:1029F000069204D87248784410F80B7004E0BBF1DA
:102A0000FF0F40F0DA80002706987178B278F378EB
:102A10008DF82400307842EA0322B379ADF81E2005
:102A2000F27940EA01203179384443EA0222ADF8D4
:102A30001C007079ADF8222041EA0020A0EB47008D
:102A4000ADF8200007A807F0C5FABBF1FF0F00F0B2
:102A5000B480307871783546B0467C000DF11C0AA0
:102A6000ADF8207040EA0120ADF81C0015F8020F07
:102A7000697840EA01203844ADF81E0018F8060FC6
:102A800098F8011040EA0120001BADF822005046E2
:102A900007F0A0FA2878697832797379ADF8207058
:102AA00040EA012098F801103844ADF81E0098F86B
:102AB000000040EA01207178001BADF8220000F010
:102AC0005FFBADF81C00504607F084FABBF1000F25
:102AD00073D0B246317ADDF8188096F90100337868
:102AE0001AF802CF43EA002001239AF9012002914B
:102AF000CDE900883844334C4CEA02215A46394427
:102B00007C44A047304696F901C032789AF90150CA
:102B10009AF800E0059410F8043F04904178307A68
:102B2000CDE90088029043EA012042EA0C215A468E
:102B30000023C91B08444EEA05213944A047344606
:102B40009AF901E09AF800C0317A96F9015032788A
:102B500014F8063F607802914CEA0E21CDE9008816
:102B6000C91B43EA00200223014442EA0520059DD7
:102B70005A463844A8470499327894F800C094F82B
:102B800001E09AF901309AF8004008784D7896F9FA
:102B90000110367ACDE9008842EA012140EA052099
:102BA0004CEA0E220296C91B084444EA0321059C04
:102BB0000323C91B11445A46A0470AB0BDE8F08D53
:102BC0008E8B0000C50000007FB51C4600230A9DC7
:102BD000012A8DF80D3001938DF80C5037D81D4E19
:102BE000DDE908357E44B25CADF80820ADF80A2076
:102BF00064B1012C14D0022C1BD0032C28D100F07E
:102C0000C7FA154815497844794419E0ADF804002D
:102C1000881AADF8060014481449784479440FE046
:102C2000891A801A00F0B4FA11481249784479449C
:102C300006E0801A00F0ACFA09480A497844794461
:102C4000AB4208BF014601A8002207F0CBF97FBDC7
:102C50000021F8E7A0890000808900008089000039
:102C60004E8900004E8900007489000074890000BC
:102C700066890000668900002DE9F04D8CB006469B
:102C8000904601290846089104D8B5480899784427
:102C9000475C04E00898FF2840F05E810027DDF8DB
:102CA00050B08DF82C305B451ED1307A98421BD144
:102CB00030787178B278F37840EA01203179ADF854
:102CC000240042EA0320ADF82600707941EA002092
:102CD000B179ADF82800F07941EA0020ADF82A007A
:102CE00009A807F077F937E1307971797D0006930B
:102CF00040EA0120B0EB470F18D9B278F378401BB7
:102D00007178ADF82800307842EA0322B379ADF843
:102D10002620F27940EA0120384443EA0222ADF845
:102D20002400ADF82A2009A807F054F9089807955F
:102D300001282AD8B079F17940EA0120854224D2CD
:102D4000401B71783446ADF82870ADF82A00307811
:102D500040EA012000F00CFA3844ADF8260009AD35
:102D6000284607F037F9207861783279737940EA9C
:102D7000012071783844ADF8260000F001FAADF872
:102D800024002846079D07F025F9307871783446ED
:102D9000327973798DF82CB00DF1240BADF82A80BF
:102DA000059740EA0120384400F0E2F9ADF826002A
:102DB00042EA0320401BADF82800584607F00AF904
:102DC00035466278079F15F8060F697840EA0120BA
:102DD000217841EA0221A1EB08010844ADF8260060
:102DE000584607F0F7F82878697840EA01208742CA
:102DF00029D21499C01BB278F378ADF82880ADF8C9
:102E00002A0030788DF82C10717840EA012005995D
:102E1000ADF8240042EA03200844ADF8260009ACCE
:102E2000204607F0D7F8307871783279737940EA24
:102E3000012042EA0321A0EB08000844ADF8240079
:102E4000204607F0C7F80898DDF818B0012800F20E
:102E500083803546347A149996F901003378DDF889
:102E600014A015F802CF43EA0020012395F90120B0
:102E7000CDE9001B029450443A4C089F4CEA0221D1
:102E800051447C443A46A04795F90100A046079476
:102E9000344696F901E03278149B14F804CF04907C
:102EA000287861780390307ACDE9003B00230290C6
:102EB0004CEA012042EA0E21A1EB0A010844DDE9B7
:102EC000032142EA01213A465144C04796F90100E4
:102ED0003A463746317A95F8008096F800E0149B20
:102EE00017F806CF049095F90100039078780291C5
:102EF000CDE9003B022303994CEA002048EA012176
:102F0000DDF81C80A1EB0A01014404984EEA002080
:102F10005044C04797F800C097F801E096F9017057
:102F200031782078647895F901302D78149A367AC2
:102F300041EA072140EA0420CDE9002B4CEA0E22A9
:102F40000296A1EB0A01084445EA03210323A1EB01
:102F50000A011144089AC0470CB0BDE8F08D00BFCB
:102F6000F688000043FDFFFFF0B514460A4613F84B
:102F7000061F13F8015C5E789F78DB7841EA062132
:102F800047EA032341EA03413DB1064A09EB020344
:102F90002246BDE8F04007F045B82346BDE8F040C2
:102FA00007F020B8340400002DE9F04D90B004463D
:102FB00090F80080467818469B461746ADF83A20B0
:102FC0000F9100F0EAF80546207A05940DF13C0ACD
:102FD0000DF12F048DF8380068798DF8390048EA32
:102FE00006200DF13A060A90002F00F0BC805046F2
:102FF0003146224600F0D3F880469DF82F0010B1EC
:10300000BDF83A70F0E7B8F1080F30D0B8F10C0F06
:1030100000F0A980E87A8045F2D3297B8845EFD873
:103020002969A8EB000001EBC00006F0A3FF0746EA
:1030300000686969084406F09DFF09907F68687A16
:1030400095F806C0C7F3450210B3C7F34550C7F360
:10305000C521ACEB000CC7F34340131AA87A08440F
:103060000790C7F3C3100690002004901CE05FFA9D
:103070008BF0082805D00A28C2D14FF0080B082091
:1030800002E04FF00A0B0A2000F087F80546B7E788
:103090003820C7F3C221134600EA171008440490F1
:1030A0000020069000200790E97A5FFA88F00892E5
:1030B000814202D82A7B824231D298460022069968
:1030C0000A98DDF81CE00844ADF83000ACEB0E00C7
:1030D000ADF83600A8EB01000599ADF8340088780A
:1030E000C97840EA01207044ADF832004AB117F0C7
:1030F000010006D10CA80999189B002206F072FF66
:1031000006E00498189B00900CA8099906F078FF37
:103110000A9808990844297A401A0A9070E7A0EBA7
:103120000101984613D9286989B2CDF80CC00191E4
:1031300000EBC10006F01EFF02902869019900EB28
:10314000C100083006F016FFDDE9021C06E08242ED
:10315000B4D188B2296901EBC0012846096800682A
:10316000401A82B2ABE75FFA8BF010B0BDE8F08D89
:10317000ADF8240014F8020F617840EA012070478E
:10318000307840EA012042EA0321C01B084470471E
:10319000ADF80610ADF80400704706F05BBFF0B55F
:1031A00004680125264616F8013B1570F02B15D34F
:1031B0000D88042D15D34FF4E012A678E77802EAC3
:1031C0008342637803F03F0342EA033206F03F0391
:1031D000261D42EA831207F03F030FE0E02B0FD3D6
:1031E0000D88032D0FD362781B03A6789BB202F0E3
:1031F0003F0243EA821206F03F03E61C13440EE04E
:103200000D88C22B09D3022D07D36278A61C02F0C9
:103210003F0263F38A12134601E00027177006602D
:10322000A01B284408801846F0BD01224FF6FF730A
:1032300000F000B82DE9FF4D1C4601920F460546EF
:103240000391FFF7AAFF0646384607F0EDFAA042C1
:1032500038BF0446ADF80A40A0B20DF10C0A0DF1DA
:103260000A0B0DF109074FF00008002458B350462F
:1032700059463A46FFF793FF0A280AD00146082824
:103280000CD1E8B2082816D00A2819D10825082040
:1032900013E00198B8B94FF0000811E09DF809203B
:1032A000304600F019F88044A1B21FFA88F0884235
:1032B00088BF444604E00A250A2006F0CBFE0646F5
:1032C000BDF80A00D2E7A0B204B0BDE8F08D00223C
:1032D0004FF6FF73FFF7AEBF10B532B90446C07AA0
:1032E000884202D8227B8A4202D20020C0B210BD9E
:1032F000081A216901EBC00006F03CFE0079217A32
:10330000C0F34500401AF1E780B5FFF746FF80792A
:1033100080BD80B5FFF741FFC07980BD10B50021A9
:10332000012241F20143445C0C2C05D802FA04F45A
:103330001C421CBF88B210BD0131F4E72DE9F04DED
:1033400086B01C4603920F4606460591FFF725FFFF
:1033500005463846FFF7E2FF804600200E9F002119
:103360000DF1110B02900020ADF812803980218000
:1033700001905FEA084051D005A80DF112015A46AC
:10338000FFF70DFF082829D082460C283FD0BAF15C
:103390000A0F3CD09DF8112028465146FFF79CFFAC
:1033A00040B30F9949B1BAF1200F18BFBAF15F0FBE
:1033B00029D139880291218801913988039A0144E1
:1033C00091422ED8BDF812102388A8EB010288463E
:1033D0001A4422803A8810443880CAE7F0B20A289A
:1033E00003D0082806D10A2600E00826304606F059
:1033F00031FE0546BDF812002288A8EB0001804688
:1034000011442180B5E7BAF12D0FD2D0D5E7BDF830
:1034100012002188A8EB00000844208006B0BDE817
:10342000F08D0F9802990028F8D00029F6D0019865
:10343000013020803980F1E72DE9F04D86B01D463E
:1034400002920E4607460591FFF7A7FE0446304656
:10345000019607F0E9F9DDF83CA0ADF81200002173
:1034600080B24FF0000B4FF000080391002866D0A7
:10347000280464D0059E05A80DF112010DF111027A
:10348000FFF78DFE0146BAF1000F12D0A1F108003E
:10349000182805D8012202FA00F02F4A104203D161
:1034A0005F2901D02D2904D1BDF81200DDF814B038
:1034B000039008291DD00A2923D00C293ED09DF85D
:1034C00011202046FFF708FFA8B31FFA88F100EB90
:1034D0000108029880452ED9BAF1000F18BFBBF140
:1034E000000F1ED10598BDF812100596801B0844E8
:1034F0001CE0F8B208280ED00A281CD108270820A2
:103500000BE0013D280414D105984FF00008002578
:10351000013805900FE00A270A2006F09BFD0446BB
:1035200009E00398CDF814B04FF0000BADF812008D
:10353000013D4FF00008BDF8120097E700250598FF
:103540000199401A0E990880A8B2B0FA80F040099B
:1035500006B0BDE8F08D00BF150000012DE9F04D6B
:103560001C4690460E46FFF718FE82463046FFF78F
:10357000D5FEDDF820B007460020ABF80000208023
:103580003D463FB36F1EB8B2305C0A281FD09AF890
:103590000B108842F4D39AF80C209042F0D8401ACD
:1035A000DAF8101001EBC00006F0E4FC4068BBF84C
:1035B0000010C0F34500014441450BD8218801317A
:1035C0002180BBF800100844ABF80000D8E7208841
:1035D0000130D4E7002D18BF01252846BDE8F08D45
:1035E0002DE9FF4D1C4600920D4606460391FFF75C
:1035F000D4FD0746284607F017F90021ADF80A0068
:1036000080B24FF0000B4FF000084FF0000A01911C
:10361000002856D0039D03A80DF10A010DF10902FF
:10362000FFF7BDFD01468CB1A1F10800182805D8AF
:10363000012202FA00F0284A104203D15F2901D08A
:103640002D2903D1BDF80A00AA460190082921D0EE
:103650000A2927D00C2934D09DF809203846FFF7D5
:103660003BFE58B31FFA8BF100EB010B00998B4521
:1036700024D95CB1BAF1000F08D00198ADF80A0066
:103680000AF101004FF0000A0390002008F1010840
:10369000834613E0F0B208280BD00A280ED1082682
:1036A000082008E008F101084FF0000B4FF0000A75
:1036B00004E00A260A2006F0CDFC0746BDF80A0001
:1036C000A6E75FEA0B4018BF08F101081FFA88F06F
:1036D00004B0BDE8F08D00BF150000012DE9F04DEC
:1036E00086B0CDE900320C4605910390FFF755FDF9
:1036F0000290204607F098F8ADF8120080B200263C
:103700000DF111074FF0000B4FF0010800254FF0AD
:10371000000A00286ED0059C05A80DF112013A465A
:10372000FFF73DFD01460838182814D8012202FA97
:1037300000F0334A10420ED0BDF812A025460829E9
:1037400024D00A290CD00C292AD108F1010800261E
:103750004FF0000B48E05F29EED02D29ECD0EEE7CA
:103760000BF1010B01991FFA8BF0401ABDF81210F2
:10377000B0FA80F04009002918BF0121084018BFA5
:103780004FF0000B8044002600252DE00398C0B2C6
:10379000082823D00A2827D108200390082020E0F9
:1037A0009DF811200298FFF797FDE8B1B1B24618D5
:1037B00000998E4218D925B1681CADF812A0059069
:1037C00000200BF1010B019A1FFA8BF191420ED1EF
:1037D00008F101084FF0000B0646D5E70A200390D8
:1037E0000A2006F037FC0290BDF8120091E7002590
:1037F0000646F9E75FFA88F006B0BDE8F08D00BF35
:10380000150000012DE9F04D88B09A4614460E4689
:103810000746FFF7C2FC8346304607F005F84549E6
:10382000804638467944FFF752FD5FEACA7150D0AE
:10383000CDF81CB04FF0010B201A2546DDE910121F
:1038400006910BEB5A010391022190FBF1F04FEA34
:103850005A014FF0000A80B2029001911FFA88F1DC
:1038600010464FF00008CDE9042182454FF00000DA
:1038700038BF01208A454FF0000138BF012101EA1D
:10388000000414B316F80A70079800223946FFF7AF
:1038900023FD90B11FFA88F100EB0108A84504D977
:1038A0000BF1010B4FF00008EBE703995FFA8BF087
:1038B000814202D1029880450ED8069800F80A701D
:1038C000DDE904010AF1010ACFE70699002001F8B9
:1038D0000A0008B0BDE8F08D06992E20002401EB07
:1038E0000A0801F80A0088F8010008F8010CDDE96F
:1038F000011001FB05070598002506EB000A079E4D
:10390000A0B287420AD90AEB0500002210F8011C78
:103910003046FFF7E1FC0444013DF1E70AEB050105
:1039200008F10200C5F10102013108B0BDE8F04D17
:1039300006F023BF0374000070B50546007848B157
:10394000194809EB00018A7B52B14844817E51B18C
:10395000002426E0144809EB00040020A07004E0D5
:1039600001F10C0401E000F1180400202646A060DB
:10397000206046F8040F686806F0FCFAA06028781A
:1039800005F108022070094B7B4420B13046072125
:1039900001F05EFF04E03046072101F0A1FE0020A7
:1039A0006070204670BD00BFF003000025000000DD
:1039B000B0B590F83E20114802235C1C1DD0DCB24B
:1039C00009EB000504EB440405EB84056D78AA427D
:1039D00005D109EB000505EB8405AD780DB9013B78
:1039E000EBE709EB000202EB840292682AB148443B
:1039F00000EB8400BDE8B0401047B0BDF00300000C
:103A000070B500284DD00D4649780446C80722D02D
:103A10006178022001F090FD2A786978234B244ECA
:103A2000002A7B447E44024608BF1E4602F8216FEE
:103A3000330ED370330C9370320A80F82220626800
:103A4000A37842F823000322C27704228275002261
:103A50004272581CA07088074FF0000623D5617889
:103A6000022001F069FD2978124A134B00297A449B
:103A70007B44014608BF134601F8213F1A0E4672E7
:103A8000CA701A0C8A70190A80F822106168A2782C
:103A900041F822000321C17706218175501CA070D6
:103AA00001E04FF0FF36304670BD00BF706F000080
:103AB000AD6F0000556F0000146F0000002800F08B
:103AC00035812DE9F04D88B00E464178054601203C
:103AD00017461C4601F030FD80460320002F08BF2A
:103AE0000120697888F8200001F088FD4146020E27
:103AF0004FF0720A4FF0000B049701F8220F88F87C
:103B000004A088F805B0CA70020C000A88F82300E7
:103B10008A700420697801F00FFD07460320F877CA
:103B2000304606F027FA0146082087F804A087F8F7
:103B300005B003944FF0010A002C08BF0A2087F853
:103B4000220005220B0E87F820203A4602F8261F95
:103B5000D3700B0C93700A0A012387F82720722276
:103B6000FFF73EFD0646052805951DD33E46042079
:103B70000DF11E0516F8261F7278B378F47806F852
:103B8000010C16F8040C0095059DCDF804A041EA3F
:103B9000022143EA0422042300F060FCBDF81E0069
:103BA0003071000A7071042600F060FC8346022028
:103BB00087F824A0049CB8759BF80700002C06FB2E
:103BC00000FA4FEA1A2087F806A0F871404610F86C
:103BD000221F42788378C07841EA022143EA00201C
:103BE00041EA0040076000F00681039869780228E6
:103BF00040F09E800520052501F09EFC002607462A
:103C000080F821600120ADF81A60ADF8186000F06E
:103C10003CFC204606F0AEF901460E20FE71BD7553
:103C200000F0F1FB652840F2D680BB4697F826509D
:103C300097F8230001241BF8251F9BF802209BF80E
:103C4000033041EA052106AECDE9006442EA0322D1
:103C50000DF11A0341EA02416622FFF76FFBBDF83E
:103C60001840BDF81A60554604F10C003871000A7E
:103C700078716B48132E28BF13269BF800109BF811
:103C800002209BF8033009EB000A97F8260041EA6E
:103C9000002042EA0321324640EA0141504606F044
:103CA0006CFD00200AF80600B87601208BF800A011
:103CB00078764FEA1A60002C8BF803004FEA1A401E
:103CC0008BF802004FEA1A20AA46059D87F82600C5
:103CD000404610F8221F42788378C07841EA0221DA
:103CE00043EA002041EA0040476000F082806978A2
:103CF0000520052601F020FC00250746049980F8E0
:103D00002150012000F0C1FBBDF81A00084406F064
:103D100031F901460E20FD7100F075FB0C300F21CA
:103D2000BE753871000A787102205AE000F0AABB13
:103D300000F099FB03260746C677204606F01AF9DD
:103D40000146722000240123387101200A0E7C7183
:103D500087F824000A2087F8220000F065FB042879
:103D60001ED33D4615F826CF05F8016C15F8040C56
:103D700095F801E0AB78E97807AA00920122019258
:103D800043EA01214CEA0E22032342EA0141722256
:103D9000FFF752FBBDF81C002871000A6871032070
:103DA0000399002908BF06469BF80700BC76BC753E
:103DB00006FB00F106FB00A0B971090AF9710221A6
:103DC00000F1020A7976052187F82010414600F0BB
:103DD00038FB4F600FE00C3008213871000A787111
:103DE0000120002279764146BA7600F02AFB41F89C
:103DF00020700AF12C0A6868A978052288F8162034
:103E00004FEA1A2240F821800020013188F806A0EC
:103E100088F8072088F81F00A97008B0BDE8F08D69
:103E20001404000000284FD02DE9F04D0C46054643
:103E300000274FF0050B4FF003084FF0000A2079E0
:103E400082453ED26079032802D3811E514535DC7C
:103E50000230504532D3697800F005FB21680646F0
:103E60005FFA8AF0884761790A228A4508BF0822EA
:103E700086F82220F771777186F820B086F82170D5
:103E800086F816B086F81F803246030E02F8260F19
:103E9000D370030C000A937086F827006868AA782C
:103EA00040F822600C20B07172203071AAEB010042
:103EB000010900017076501CB176A8700AF1010A60
:103EC000BDE70020BDE8F08D00F0DCBA002800F06E
:103ED000D9802DE9F04D86B00C464178824601200C
:103EE00001F02AFB9AF8011080460320032701F015
:103EF00085FB4146020E4FF0000B049401F8220F9F
:103F000088F820B0CA70020C000A8A7088F8230072
:103F1000A068C0B39AF80110022001F00DFB06461C
:103F2000C777A06806F026F83146020E86F813B06F
:103F300086F809B001F8210FCA70020C8A70010AD4
:103F400086F82210314601F812BF81F803B081F8DB
:103F500002B0414611F8222F4F788C78CD7811F8B5
:103F6000023C42EA072244EA052442EA0442049C55
:103F700042F823600222B2755A1C01F8022C8178A3
:103F8000C07841EA002B2068002800F0A2809AF84F
:103F9000011000F068FA07460320F877206805F062
:103FA000E9FF014672200025387105200A0E7D7157
:103FB00087F82000012087F82400384600F8261FE3
:103FC000C2700A0C8270080A87F827000820627BFA
:103FD000002A08BF0A2087F8220072220123FFF777
:103FE000FFFA064605281ED33D46042001210DF1A7
:103FF000160415F826CF6A78AB78EE7805F8010C30
:1040000015F8040C01910094049C4CEA022143EA47
:104010000622042300F022FABDF8160004262871B7
:10402000000A6871002500F021FAC07987F8215054
:104030007043010AB871F971A16829B3414611F8BA
:10404000222F4C7811F8023C8D78C97842EA04227C
:1040500045EA012142EA01413A4601EB830151F868
:10406000041C02F8121F0B0ED3700B0C090A5170BE
:10407000002193701172032E38BF01218900D17184
:1040800008210AE000F0FEB9616819B100F0F2F908
:10409000022102E000F0EEF9052111714146584479
:1040A00011F8222F4C788D78CE7811F8023C42EA34
:1040B000042245EA062442EA0442049C42F82370A2
:1040C0005A1C01F8022C797EBA7E41EA022100EBEB
:1040D000010B6068002874D09AF801100420CDF814
:1040E0000CA001F029FA03260746C677606805F0A0
:1040F00041FF014600200123787172200A0E3871B9
:104100000A2087F82200052087F82000012087F880
:10411000240000F089F9824604281CD33D464FF064
:10412000010C15F8261F05F8016C6A78AB78EE785B
:1041300015F8040C05ACCDE9004C41EA022143EA34
:104140000622032300F08AF9BDF814004FF0030A99
:104150002871000A687100F089F9414611F8223F80
:104160004C788D78CE7811F8022C43EA042345EA86
:1041700006243D4643EA044303EB820454F8044C0E
:1041800005F8124F260EEE70260C240AFC74AE7051
:1041900043F822700223002401327B760823BC7688
:1041A00087F82140C079BB750AFB00F30AFB00B019
:1041B000DDE903A4BB711B0A01F8022C00F1020B1C
:1041C000FB71207B0221002808BF052188F816100A
:1041D000DAF804009AF80210722240F821800020D8
:1041E00088F804204FEA1B22013188F806B088F8CD
:1041F000190088F81A0088F8050088F81F0088F868
:1042000007208AF8021006B0BDE8F08D2DE9F04DC8
:10421000002877D08B464178044600F024F94FF00F
:10422000030A064680F81FA0DBF8000005F0A2FE96
:104230000146722000254FF0050801233071082047
:104240000A0E757186F8208086F82200012086F813
:104250002400304600F8261FC2700A0C8270080A3B
:10426000722286F827000820FFF7BAF9012849D8FA
:1042700096F82200FFF74DF86268A3786178B5766A
:10428000F57142F82360B071022086F819A0B0756C
:10429000581CA07000F0E7F8074680F81FA0DBF874
:1042A0000400722605F066FE7D713D460A213E71CE
:1042B00087F8208087F8221005F8260F010EE97094
:1042C000010C000A87F827000A20A970FFF721F8DF
:1042D00001212A78AB78ED7887F82410C1094000D5
:1042E000F97197F82710B87197F8220042EA012176
:1042F00043EA0522012341EA02417222FFF770F9E5
:10430000022804D94FF0FF363046BDE8F08D6068D2
:10431000A278617801250026BE7640F8227005203B
:104320007D76B875501CA070052001F005F94FF09E
:10433000030A4FF0080880F8216080F822500746F1
:1043400080F820A080F81FA080F823809BF8080048
:104350001E4A1F4901287A44794408BF11463A464B
:104360000B0E02F8251FD3700B0C93700A0A87F806
:10437000262001283846174A174D7A447D4418BF35
:104380002A4600F82D2F130EC370130C8370100AE9
:1043900087F82E000820FEF79AFF6168A2786B78F4
:1043A000BE76FE7187F8168041F822700C2187F8DE
:1043B00019A0B971297841EA03210844511C0A3037
:1043C0003871000AA17078719EE700BF2168000073
:1043D000F4680000936500007B65000020B180B5A3
:1043E00001F060F9002080BD00F04CB848B110B574
:1043F0000446007810B1607801F0AEFA0020A07099
:1044000010BD00F03FB8B87108200A0E87F82300ED
:10441000384600F8251FC2700A0C8270080A87F817
:1044200026000820FEF753BF384600F8261FC2704A
:104430000A0C8270080A722287F827000A20FFF708
:10444000CFB811F8222F4B788D78C97845EA012131
:1044500042EA0322059D42EA0141704741EA0241D6
:104460007222FEF7E9BF042001F066B897F8220037
:10447000FEF793BE00213A4602F8121FD1709170E8
:10448000517070474FF0FF30704787F822000320CB
:1044900087F82000F877704770B5C17E024691B169
:1044A00003461A4613F80E4F5D789E78DB7844EA8F
:1044B000052446EA032344EA0343002BF1D1D37ECB
:1044C0000BB1012204E092F83F20002A18BF01221C
:1044D000064B19F803300BB102B970BDB1FA81F186
:1044E0004A090021BDE8704000F002B8280400002D
:1044F0002DE9F04D0446C07E102800F2A9800E463A
:104500005449C140C90767D154491546794451F807
:10451000200005F02FFD0346204631462A469847E5
:10452000DFF834C194F90130277809EB0C0539F92B
:104530000C1047EA0327AE8872188F4207DA27EA81
:10454000E77129F80C102378677843EA0727B5F953
:104550000230B5F806E0207965793FB240EA0520DF
:10456000074410B2874200DC1EB9802FA8BF802705
:104570003A4694F90300A5780EEB030645EA0027B6
:104580009F4208DA09EB0C0027EAE7734380A07822
:10459000E57840EA052738B2A579E77945EA0725A5
:1045A0002F1830B2874202DCBEF1000F03D1402F3A
:1045B000A8BF40273E4609EB0C00511A818031B25A
:1045C0004029A8BF4026F11AC180407A617A814211
:1045D00084BF09EB0C004172E07E012838D82046E8
:1045E00010F8221F00F005FF90B300274FEA14686F
:1045F0004FEA144A4FEA142B002594F82000874212
:1046000026D2204610F8221F00F0F3FE50F8276053
:10461000E6B130462946012286F80FB000F80E4F69
:1046200080F8038080F802A03046FFF761FF314632
:10463000F07C11F8122F42EA00208A78C97842EA09
:10464000012140EA0140002808BF35460137D4E780
:10465000BDE8F08DC83E01002A0400008C70000007
:10466000022000F001B8000070B50D4D014609EBC5
:104670000500808898B109EB0500C08878B109EB86
:10468000050400220026204605F0DAFC7F20A680E3
:10469000E68029F80500012060723F20608070BD2F
:1046A0002A040000014800F0E8BE00BF2A04000010
:1046B000024980F0010009F8010070472804000059
:1046C0001FB5017A42788378C4788DF80C10017890
:1046D00041EA02210279ADF8041043EA0421ADF861
:1046E0000610417942EA0121ADF80810C1798079BC
:1046F00040EA0120ADF80A0001A805F06BFC1FBDDF
:1047000070B504460AB100F0D5FE00F0E6FEC67CA6
:1047100000F0DBFE097A00F8061C04D02046BDE854
:10472000704005F057BC70BDF8B50E46044610F851
:10473000211F174600F053FE5DB32878AA786978E8
:10474000EB782071A2716171E3712879607227B1F1
:104750002046314600F08CFB607A21460128204635
:1047600011F80E2F4B788E78CF7842EA032246EA72
:10477000072342EA03422B46127A01F8062C14BFA3
:10478000E27FE42294F8201001B0BDE8F040FEF78B
:10479000EBBB204610F8251F00F048FE05D094F82A
:1047A0002900884705460028C7D1F8BD2DE9F04DFE
:1047B00086B090F8226004460AB100F07BFE2046E5
:1047C00010F82C1F00F032FE09D094F83000884712
:1047D0000546204600F8265F00F086FE04E02046ED
:1047E00010F8261F00F0FBFD002D00F03881224656
:1047F00012F80E1F53789778D07892F813C041EAD8
:10480000032147EA0020BCF1010F41EA0041087A88
:1048100002F8060C19BF097A0A4600220321217208
:1048200020788DF81420E378BCF1010F6178A2782C
:1048300040EA01202179ADF80C0042EA0320ADF8EE
:104840000E00607941EA0020A179ADF81000E0790E
:1048500041EA0020ADF8120003A804D10021032290
:10486000FEF7C0F801E005F0B5FB3046FEF74CFD61
:1048700080463046FEF74DFD834694F8230000281D
:1048800057D030462946FEF7D0FC2179627941EABB
:104890000222904251D9734F30467F443946FEF789
:1048A00016FD8246ADF8100020786178A278E37892
:1048B00040EA0120A179ADF80C00E07941EA00203E
:1048C0000221A0EB08000DF10C0890FBF1F042EA88
:1048D00003210322334608443946ADF80E00E07F39
:1048E00000904046FEF760FB207961790DF10A02E5
:1048F000009202AB40EA01202946A0EB0A0082B2F6
:104900003046FEF72BFEBDF80A00ADF81000BDF8EA
:104910000C005044ADF80C002846FEF7FFFCBDF833
:104920000820E17F94F82230801A0091291840462F
:1049300093E02079617940EA012294F824303046EE
:104940002946FEF74DFE237A94F82570ADF81280C3
:10495000A179E27994F821C08DF81430C3B241EA0C
:104960000221BB42034688BF3B46002F08BF0346D7
:10497000DFB2781E00FB0B804FF0000880B2081AEF
:10498000022190FBF1FA4FF6FF70BCF1010F08BF56
:104990008244474563D02079617994F824200DF151
:1049A0000A03F6B2CDE9003240EA01223046294638
:1049B00002ABFEF7C3FC94F82000062808D00528B7
:1049C00013D0042822D12078617840EA01201BE02E
:1049D000207861782279637940EA012042EA032154
:1049E0000844BDF80A10401A0EE022796379207855
:1049F000617842EA0322BDF80A3040EA0120D21A67
:104A0000022392FBF3F21044ADF80C00BDF80A004B
:104A1000A178E278ADF8100094F8250041EA02216F
:104A20005144ADF80E1010B10138404512D900F0D4
:104A300062FD03A8FEF7B8FA0646BDF80800DA449E
:104A400008F101082844054615F8011B0A2918BF7A
:104A500005469EE700F04FFD03A8FEF7A5FA06B055
:104A6000BDE8F08DE96300002DE9F04D86B0044605
:104A70000020ADF816000AB100F01CFD2346E07BD3
:104A8000E27F94F8221013F80E5F45EA00209D782B
:104A9000DB7845EA032340EA0340007A207220468F
:104AA000FDF7A0FF204610F8291F00F0BFFC09D039
:104AB00094F8310088470546204600F8255F00F04D
:104AC00013FD04E0204610F8251F00F088FC002D9F
:104AD00076D02078617894F8028094F803B040EAA8
:104AE000012A94F82300ADF80CA0FEF70DFC224635
:104AF000ADF8120012F82DCF12F8276C12F8263CF0
:104B000012F8291C12F8287C46EA032341EA0721FF
:104B1000181A0223ADF8101090FBF3F048EA0B23AB
:104B200018449378ADF80E00D078527843EA00200C
:104B30004CEA022242EA004050B10278407842EA50
:104B400000200230091A8244ADF81010ADF80CA014
:104B50008EB294F8230001220DF116032946CDE907
:104B600000320DF10A033246FEF7E8FBBDF81600ED
:104B7000864206D9301A022190FBF1F05044ADF87C
:104B80000C00E07F94F8211094F82330BDF80A203F
:104B900000918DF8140003A82946FEF705FA00F0ED
:104BA0005EFC47D0187859782279657940EA01206F
:104BB000BDF8161042EA05220144511A02390BE0F1
:104BC00000F04DFC36D018785978627940EA01201F
:104BD000217941EA0221091A4FF0020C2678677800
:104BE000ADF81000E07F91FBFCF146EA07268DF856
:104BF0001400E078314493F802E0DA78A6791D7960
:104C0000ADF80C10E1794EEA02228DF81550A57826
:104C100046EA0121ADF81220891A45EA002094F8ED
:104C2000212091FBFCF108440021ADF80E0003A8FF
:104C3000FEF79AF906B0BDE8F08D7FB504460AB1DB
:104C400000F038FC00F049FC467C00F03EFC0B7A9A
:104C500000F8063C08D094F82400012101220090BD
:104C60002046FEF709F804E0204601211A46FDF728
:104C7000B9FE2079617994F8202040EA01200238B9
:104C800000FB02F1642291FBF2F18142B8BF0846B9
:104C9000010420D0ADF808000020A179A278E378C3
:104CA0008DF80D0094F824008DF80C00E07941EAAD
:104CB000002061780238ADF80A00207840EA01202F
:104CC0000130ADF8040042EA03200130ADF80600DF
:104CD00001A805F07FF97FBD70B5044610F81F3FAD
:104CE00045788678C07843EA052346EA002043EAFF
:104CF00000459DB132B100F0DDFB204610F81F1FCA
:104D000000F06DFB0320294600222072044809EBC5
:104D100000032046BDE8704005F084B970BD00BFB7
:104D2000340400002DE9F04D86B00E46044610F81C
:104D3000211F174600F05DFB05F076FD05461FB10B
:104D40002046314600F094F803206178A278E37899
:104D500020720020ADF81400207840EA012021796B
:104D6000ADF80C0042EA03200322ADF80E00607992
:104D700041EA0020A179ADF81000E07941EA002075
:104D80000121ADF8120003A8FDF72CFE217AE07F87
:104D90008DF81410FEF7B8FAADF8120094F8200060
:104DA000092802D906B0BDE8F08D2279637900EBBD
:104DB00080014FF0080B0DF10C0A4FF0000849423A
:104DC00042EA032202EB4101022291FBF2F727495A
:104DD000794401918045E5D221786278A378E6781C
:104DE000ADF810B041EA02213944ADF80C1043EAA5
:104DF000062102398542ADF80E1009DAA8451EDAFF
:104E0000204610F8211F00F0F4FA10F8080017E00F
:104E1000B8F1000F25D0411E884510DA214611F85F
:104E2000212F4B788E78C97842EA032246EA012185
:104E300042EA0141081A28444044407800E05F20DB
:104E40008DF80B0000200DF10B010122009050465F
:104E50000823FEF7A9F894F820000A3708F10108A2
:104E6000B8E7002001990222F0E700BF6D5F000063
:104E7000F0B5024612F80E4F55789678D778137A27
:104E800044EA052246EA0724002B42EA04424ED0B7
:104E9000014611F8124F4D788E78C97844EA0524FE
:104EA00046EA012144EA0141002908BF1146914226
:104EB00050D00D2B00F08F80022B00F0AC80032B24
:104EC00000F0C480042B00F0E380062B00F000818A
:104ED000072B00F01D81082B00F03681092B00F014
:104EE0004D810A2B00F06F810B2B00F086810C2B7B
:104EF00000F0A481012B40F032828B7ACC7AC77DFE
:104F0000057E91F80CC0497BC67943EA042347EA41
:104F1000052584794CEA01212B44457E83721B0AC6
:104F200044EA0624C372837E45EA0323ADE0D37FBF
:104F3000A3B3002943D00B794C798D7AC97A43EA1F
:104F4000042345EA0121047E1944C37D43EA042376
:104F5000194438E0092B00F08B81022B00F0988176
:104F6000032B00F0A781042B00F0BA81052B00F081
:104F7000C281062B00F0DD81072B00F00A82082B8E
:104F800000F00E82012B40F0EA81C17D037E447E59
:104F9000857E8172C37244EA0521DDE1C37D047E12
:104FA000C472837291B18B79CC790D7B497B43EAD2
:104FB000042345EA0121847E1944437EC1E0C17D7A
:104FC000037E41EA03218172090AC172417E837E18
:104FD00041EA0321C0E100F070FA91F807E044EAE9
:104FE00003230C7946EA072644EA0524C5792344BD
:104FF00084793344467E83721B0A44EA0524C372D3
:10500000837E46EA03234E7B097B41EA06214CEA74
:105010000E26314410E1037EC47D8E7ACF7A4D791D
:1050200090F806C090F807E044EA032346EA072612
:105030000C7947793344067944EA0524022546EA87
:105040000726A41B94FBF5F4234411E000F021FA99
:1050500090F807E044EA0323047946EA072644EA85
:1050600005244D7923440C7944EA05243444E31A99
:1050700083721B0A447EC3724B7B097B41EA032186
:10508000837E44EA03234CEA0E242344C91A63E1D5
:1050900000F0FFF990F807E044EA0323047946EAB8
:1050A000072644EA0524CD7923448C79F31A467EF9
:1050B00083721B0A44EA0524C3724B7B097B41EAD5
:1050C0000321837E46EA032319444CEA0E233EE182
:1050D00000F0F3F991F807E044EA03230C7946EA7B
:1050E000072644EA0524C579234484793344467E5F
:1050F00083721B0AC3724B7B097B41EA0321837EC7
:1051000046EA0323194444EA05234CEA0E241EE12F
:105110008D7ACE7A077E91F806C091F807E0437E3B
:10512000847E45EA0625C67D46EA07263544857213
:105130002D0AC5724D7B097B41EA05214CEA0E25FB
:10514000294443EA042306E1CB7A8C7AC67D077EA4
:10515000457991F806C044EA0323047946EA072614
:10516000CF7933444E7944EA05240D7945EA062582
:105170002C1B022594FBF5F4234415E003794479B4
:10518000C57D067E91F806C0CF7945EA062543EA3B
:105190000423CC7A4E792B448D7A45EA04240D7988
:1051A00045EA06252C44E31A83721B0A447EC37227
:1051B000837E44EA03234C7B097B41EA04214CEAC9
:1051C00007242144C7E003794479C57D067E45EA7A
:1051D000062543EA04238C7A0E7B2B44CD7A497B47
:1051E00044EA052446EA0121E31A447E83721B0A3D
:1051F000C372837E44EA0323ADE000F04AF990F8DD
:1052000007E044EA0323047946EA072644EA052432
:10521000CD7923448C79F31A467E83721B0A44EAC3
:105220000524C372837E46EA03234E7B097B41EA51
:10523000062121444CEA0E24091B8CE00B794C79A1
:105240008D7ACE7A877E45EA062543EA0423C47D1B
:10525000467E2B44057E44EA0524234483721B0AC0
:10526000C3724B7B097B41EA032146EA072372E0C4
:1052700000F0C9F8591A437E8172090AC172817E11
:1052800043EA01214CEA0623194447EA0523A4E036
:10529000017943795679C47D057E41EA032113796A
:1052A00043EA0623591A022391FBF3F144EA05234A
:1052B00019440DE001794379C47D057E41EA03215B
:1052C00044EA052413792144547943EA0423591A02
:1052D0008172090A437EC172817E43EA01213BE06B
:1052E00000F0AFF8D57943EA0523591A022391FB60
:1052F000F3F1214430E000F0D4F890F807E043EAFD
:105300000121037945EA062543EA0423147944EA96
:105310000724E31A022493FBF4F31944437E8172B9
:10532000090AC172817E43EA01214CEA0E23EB1A7D
:105330000FE000F068F847EA0524591A437E8172AD
:10534000090AC172817E43EA01214CEA0623E31A6D
:10535000022493FBF4F319440173090A4173BAB1AF
:1053600011785378C57A9478D278067B477B41EAE6
:105370000321837A44EA022243EA0523194446EAD8
:10538000072301701A44090A4170110A8270C17022
:10539000F0BD00F056F82144D47943EA04231CE020
:1053A00000F07FF890F807E043EA0121037943EA2F
:1053B0000423147944EA0724E31A022493FBF4F348
:1053C0001944437E8172090AC172817E43EA012138
:1053D0004CEA0E23194445EA0623591ABCE74278E1
:1053E0008378C07841EA022143EA002041EA00457F
:1053F000704742788378C07841EA022143EA00206E
:1054000041EA00407047017EC37D44799779D579A0
:1054100090F806C0C67943EA0121037943EA0423E0
:1054200054791944137943EA042370474278837806
:10543000C07841EA022143EA002041EA0041002904
:105440007047C47D057E8179C379C5728472847E7C
:10545000457E41EA0321937945EA042470472046BA
:1054600010F82D1F42788378C07841EA022143EA80
:10547000002041EA0043002B70477F21012229F8D8
:105480000010484400218180C1803F214272418048
:105490007047037EC47D45798E7ACF7A90F806C036
:1054A0007047017EC37D447957799579D67990F814
:1054B00006C070472046FFF7DBBCCB7A8C7A4D796B
:1054C000C67D077E91F806C0704741EA022143EA93
:1054D0000522002E41EA02417047204610F80E1FB7
:1054E00042788378C5787047290EC170290C817085
:1054F000290A41707047E07FBDF8082029463346ED
:1055000000907047B0B50B4919F8012082B1032310
:10551000FF242B2B0CD009EB0105ED5C854205D156
:10552000013A09EB010509F80120EC540133F0E7D9
:10553000B0BD00BFE01400002DE9F04D1A4F8046C9
:105540008A4609EB0700407838B909EB070400F0F8
:10555000A3F800F09BF80120607019F80740272C91
:1055600001D100261CE009EB0700851C0020B0F5E6
:10557000F56FF6D015F8011F3130FF29F7D10B492F
:10558000494401EB000B3121ABF13106304605F007
:10559000F1F8601C85F800A00BF8168C09F80700DC
:1055A0003046BDE8F08D00BFE0140000350C00006F
:1055B000F0B5104909EB01029278CAB10E4C0023F4
:1055C000FF250026402E13D009EB0107374497F83A
:1055D0002B7087420AD109EB0407013A47F82630BD
:1055E00009EB0107BA70374487F82B500136E9E719
:1055F000F0BD00BFE0140000E01300002DE9F84505
:10560000DFF880A00546884609EB0A00407838B9E3
:1056100009EB0A0400F040F800F038F8012060704F
:1056200009EB0A000026807844193E2C26D809EBA5
:105630000A0000F12B070020B6F5807F1DD017F877
:10564000011BFF294FF0000108BF411CC8B20436FE
:10565000A8420846F0D10C48A9004844A0EB8500B8
:105660000644304605F086F8781B2946424605F088
:1056700088F809EB0A00847000E000263046BDE897
:10568000F88500BFE0140000E013000004F12B00D7
:105690004021FF2205F075B82821FF22E01C05F00B
:1056A00070B8000010B5074819F8001041B109EBB7
:1056B000000404F0D9FC6068BDE81040FEF7ECBEC1
:1056C00010BD00BF4C160000044819F800104844F3
:1056D0004068002908BF0846704700BF4C1600000C
:1056E000F8B507460D480D461E46144619F8001039
:1056F00031B9012109F80010094948444944416081
:105700000020FFF7FFFE0020FFF752FF0020394680
:105710002A462346009600F005F8F8BD4C16000016
:105720004B150000032884BF4FF0FF3070472DE970
:10573000F84504460F46DDF820A010461D461646E3
:105740002146FFF75BFFDFF80481A301002109EB8D
:105750000802D15402EB84124FEA1A23386082F80F
:105760003330030A82F820604FEA1A66D171517112
:1057700051731173D1729172D17091705170D17651
:10578000117282F83E40D17782F823304023937122
:1057900080231371134602F8220F03F832AFDE7034
:1057A0004FEA1A469E70030E000CD3709070ADB392
:1057B00028786978AA78EB7842EA032240EA012047
:1057C00040EA024004F0D6FB09EB080101EB84112A
:1057D00001F8260F15F8042F15F8043F15F803CC2F
:1057E00015F8027C15F801EC6E7801F8042FEA78C0
:1057F000AD7801F8043F030E01F8053C030C000AE4
:105800004E7001F8027C01F801EC01F803CC01F8BC
:10581000063C01F8070C8D70CA7008E009EB08001F
:1058200000EB841000F8261FC1708170417009EBF5
:10583000080000EB841404F0FDFD0438B0FA80F099
:10584000400984F83F000020BDE8F8854B150000B2
:105850002DE9F845DFF8F880824619F8080003289A
:1058600071D894468E46A0B13A48484400F17A0572
:105870000120042837D02C786E78AF78EA7847EA90
:10588000022244EA062444EA024272B3403501305F
:10589000EFE7304D0027012009F808004D442E0E97
:1058A00085F8777085F8207085F87A5085F87D60E6
:1058B0002E0C85F87C602E0A85F87B602E4606F853
:1058C000767FF770B77005F1400709EB080677603F
:1058D0002E463C0E06F8367FF4703C0CB4703C0A41
:1058E00085F837401FE004201DE009EB0802A5F110
:1058F0003A065468370A310E566084F837702746E6
:1059000007F8366FF970310CB970210E2C70E97000
:10591000210CA970210A6970002105F8031C05F803
:10592000041DA970E970C5B20093514672466346E2
:105930002846FFF7F7FE002805D419F808000130C3
:1059400009F8080001E04FF0FF352846BDE8F8856A
:105950004C1600004B150000F8B5494E044619F8E6
:105960000600002845D0DFF81CC109EB0603411EE4
:105970005B6809F8061009EB0C0202EB84129A42EC
:105980003AD009EB0C0101EB841111F83A2F4B7856
:105990008D78C97842EA032245EA012142EA0140B2
:1059A00070B109EB0C02014602EB841212F8363F8B
:1059B00055789778D27801F8363F8F70CA704D705D
:1059C00009EB0C0101EB841111F8362F4B788D781F
:1059D000C97842EA032245EA012142EA014222B3A0
:1059E00002F83A0F010ED170010C000A917050704C
:1059F0001BE04FF0FF3541E0090612D009EB0C0126
:105A000001EB841111F83A2F4B788D78C97842EA6E
:105A1000032245EA012142EA014109EB06025160F5
:105A200003E009EB060100224A6009EB0C070025A0
:105A300007EB841000F83A5F00F8045D00F8145D8D
:105A4000C57585754575C57685764576C57085704D
:105A5000457000F8025C2046FFF754FD2046FFF732
:105A6000A7FD19F80600012808D197F8200028B9E9
:105A7000002509EB060009F8065045602846F8BDE8
:105A80004C1600004B15000070B5204919F8012094
:105A900052B3494449680B4691F8272013F8264F22
:105AA00044EA02229C78DB7844EA032342EA034278
:105AB000D2B10B4613F82A4F5D789E78DB7844EA22
:105AC000052446EA032344EA03436BB11C1A0D463E
:105AD00038BF002405F82A4F260EEE70260C240A43
