:02000004C0DE5C
:1000000010B5044662B609F08AFF0CB908F0D4FEB8
:10001000002010BD70B58AB00C4605466846202108
:1000200016460BF07BF914B9012009F075FF142E68
:100030000AD3402001210990681C6D46089008A849
:100040002A4609F031FF08B1002006E005F10C0155
:10005000204614220BF065F901200AB070BD1FB5CF
:10006000044610B9012009F057FF2078E02839D163
:1000700000200390CDE901006078132835D00428D2
:100080003CD0052846D006285AD0072866D0092833
:100090006ED00A287CD00B2800F083800C2800F05A
:1000A00089800D2800F093800E2800F099800F2899
:1000B00000F09F80102800F0A980112800F0B18086
:1000C000122800F0B980032840F0C080A0780028F2
:1000D00040F0D580E078002840F0D180BDE81F4096
:1000E00000F087B94FF4DC40CBE0A068A178E2785B
:1000F00000F0D1F801A800F065FBA5E0A078002889
:1001000040F0BD80E078002840F0B980BDE81F4095
:1001100000F00AB9A178012900F2B180E078002846
:1001200040F0AD80A068002800F0A1800190207907
:100130000029029018BF012101A800F009F983E00D
:10014000A178002900F08580032900F29880E078EA
:1001500040F08002802A00F0808090E0A0680028B3
:1001600000F0858000F097F801A800F00AFA6BE033
:10017000E078002840F08380A178022901D380290B
:100180007DD1A06800F087F801A800F013FA5BE0C9
:10019000A06800286BD000F07EF801A800F0D9F923
:1001A00052E0A068002862D000F075F801A800F0C5
:1001B00039FA49E0A078002861D1E07800285ED1C2
:1001C000A06800F068F801A800F03BFA3CE0A068E5
:1001D00000284CD000F05FF801A800F003FB33E0EA
:1001E000A068002843D000F056F801A800F028FBD2
:1001F0002AE0E078002842D1A17802293AD2A0680A
:1002000000F049F801A800F043FA1DE0A078B0BB67
:10021000E078A0BBA06800F03EF801A800F0A0FACA
:1002200012E0A07858BBE07848BBA06800F033F833
:1002300001A800F01AFA07E0A068A178E27800F0BF
:100240002AF801A800F0AEFA04B010BD4FF4DA406D
:1002500017E0E078802812D18020A2683AB101929C
:1002600022790292C20901A800F0DAF8ECE746F61A
:10027000872006E0802902D120790228BFD046F6E7
:10028000862004B0BDE8104000F000B8024600200F
:10029000002108F033BD01902079029070470000E2
:1002A000BFB508F003FD00F0BFFC1B484FF43671EA
:1002B00048440BF03FF81A4878440AF05FFC807815
:1002C00001280DD001208DF802000020ADF80000BB
:1002D000144878440AF052FC694603220AF0D2FC22
:1002E0000E4D01AC08F0ECFC002814D4024609EBDA
:1002F0000501204608F087FD30B12046FFF7AFFE2C
:10030000B0F1FF3FEEDC06E00020002146F6872238
:1003100008F0F4FCE6E7BFBD00000000C42A0000BE
:1003200044D100002AD10000F8B5084878440AF00A
:1003300025FC00214FF4104203910721CDE9010172
:1003400001A8012108F0DAFC04B080BDA3B50000CB
:10035000F0B585B0234F0C4605464FF4367109EBD6
:10036000070630460AF0E6FF002006F5357109F869
:10037000070086F8A802284608F02CFA08B309EB13
:10038000070090F8D42200F52B71284608F075FA82
:10039000B8B109EB07000021052290F8D432CDE96D
:1003A0000221049100F1490500F1080600F52B72C5
:1003B00000202121CDE9006508F020FB40B180B28A
:1003C00001E046F6872005B0BDE8F04000F00CB82B
:1003D000002C05B0BDE8F04008BF00F0F7BA00F00F
:1003E00007BD00BF0000000002460020002108F009
:1003F00085BCF8B5002001214FF410428DF80200B1
:100400008DF80100039003208DF803100121029064
:100410000DF10100019001A808F070FC04B080BD4E
:1004200070B586B0464E044691B109EB060090F8CF
:10043000A80201282CD109EB060015466268D0F805
:1004400008021118B1F5FF7F25D94BF2040039E0FD
:1004500009EB06054FF4367128460AF06BFF0020C1
:1004600005F5357109F80600012085F8A802204637
:1004700008F0B0F948B109EB060090F8D42200F575
:100480002B71204608F0F9F9B8B946F6872019E033
:100490004BF2070016E009EB0601084400F10801E1
:1004A000204608F014FA58B109EB06016268D1F849
:1004B00008021044C1F808024DB14FF4104001E0A9
:1004C0004BF2050006B0BDE8704000F03DB80021D9
:1004D000CDE9020109EB060000F10801019100F5E8
:1004E000047101A800F0C2FA012814D1012009F812
:1004F000060009EB0600D0F8081200F50E7205910F
:1005000000F10801049104A8012109F0CDFC40B1DB
:100510004BF2060001E04BF2050000F015F806B0C2
:1005200070BD09EB0600D0F82C02064979440AF0A8
:1005300045FF10B100F079FDF1E700F073FDEEE743
:1005400000000000B6B0000002460020002108F0C4
:10055000D5BB80B5D0E90021104600F002F800209C
:1005600080BDF8B5002201AB07C301A801214FF4FB
:10057000104208F0C3FB8FBD02460020002108F0A6
:10058000BDBBB0B5F2B06D460446284600F050FD44
:10059000A2882168284600F04FFD6AAC2846214613
:1005A00000F04CFD20462021FFF7DBFF002072B059
:1005B000B0BD000010B590B0802907D0012917D038
:1005C00011BB1748484400F03BFD19E0144C09EBFF
:1005D000040000F058FDA0B909EB04006946402270
:1005E00000F067FD68B968464021FFF7BAFF14E0E4
:1005F0000B4909EB0103D0E90012184600F031FD68
:1006000048B100F0D7F909E046F6862010B0BDE801
:100610001040FFF7B1BF00F0D5F9002010B010BDB9
:10062000D802000010B5ADF5806D01686C4620461B
:1006300001F0A3FC204600F0C1F900200DF5806D0B
:1006400010BD80B5ADF5726D02680DF5206069468C
:1006500001F046FE10B100F0ADF903E0684600F08D
:10066000ADF900200DF5726D80BD80B5ADF5726DF0
:100670000DF52060694601F022FE10B100F09AF9F4
:1006800003E0684600F09AF900200DF5726D80BD18
:10069000B0B5ADF6487D0D46304904460DF62870DC
:1006A000202279440AF03DFE802D13D0012D1FD069
:1006B00035BB0DF6082002A90DF6287201F010FED8
:1006C000044600283ED10020002101F0E7FE00F0A2
:1006D00079F937E00DF6082002A90DF6287201F02D
:1006E000FFFD80BB6068012812D846F687202CE009
:1006F000D4E9000101F0FEFE28BB00F063F927E019
:1007000046F686200DF6487DBDE8B040FFF734BFC1
:100710000238114D60602068023020600020019096
:1007200009EB050001A902AA00F5FC6001F0EAFE50
:10073000044638B909EB05004FF4807100F5FC6000
:10074000FFF70FFF24B14BF20500FFF715FF00E0A4
:1007500000200DF6487DB0BDD802000036B3000081
:1007600080B58EB00D48002140F69513CDE90011FB
:100770007844029004A90A4A0DF117007A4402F065
:1007800067F910B100F016F905E004990DF11700B2
:10079000FFF7E7FE00200EB080BD00BFBDBC00002B
:1007A0001CB3000080B50648C1EB01214844084451
:1007B000114600F5FC60FFF7D4FE002080BD00BFAD
:1007C000D802000080B50648C1EB01214844084426
:1007D000114600F53070FFF7C4FE002080BD00BF59
:1007E000D802000070B5BEB009AD144904462022FD
:1007F000284679440AF095FD11A820212A46202395
:100800000AF066FA119912AE30460AF0F1FA14AD08
:10081000052105223346284602F06FFF20686C460A
:1008200006782EB12846214602F064FF013EF8E723
:1008300068462021FFF795FE3EB070BD86B20000ED
:10084000F0B5EFB005464068412801D8022802D231
:1008500046F6872018E02868FF21067800202FAC94
:10086000B0F5807F02D021540130F9E7202000212B
:100870000AF012FA20B919A8314602F00DFC28B18D
:100880004BF20500FFF778FE6FB0F0BD022E0CD0E2
:10089000012E28D10BAE43492022304679440AF07C
:1008A00040FD03AF4049794409E00BAE3F492022A7
:1008B000304679440AF035FD03AF3D497944384666
:1008C00020220AF02EFD19A816AB31463A4602F056
:1008D00089FD0028D4D119A80BA903AA13AB02F0F3
:1008E00081FD0028CCD100200DF10B028DF80B000A
:1008F00019A816A902F079FB0028C1D19DF80B00B8
:10090000012843D119A813AE0DF10B02314602F0B4
:100910006CFB0028B4D19DF80B00012839D11A983E
:100920000DF10B010AF050FA0028A9D19DF80B0037
:10093000012831D11B980DF10B010AF045FA00286E
:100940009ED19DF80B00012829D1D5E90001009620
:10095000421C4B1E19A816A902F0C8FD00288FD111
:1009600019A804F1200313A9224602F0D5FC00289F
:100970007FF486AF0AF09AF900287FF481AF1998C6
:1009800041002FA8FFF7EDFD00207DE74CF6012088
:1009900078E74CF6022075E74CF6032072E74CF638
:1009A00004206FE79CB0000012B10000A6B0000068
:1009B0005CB000004BF20500FFF7DEBD4FF4807124
:1009C000FFF7CFBD4FF41040FFF7D6BDB0B59AB0DA
:1009D00041200DF1050441228DF805000B4809EB7B
:1009E0000005601C05F108010AF09BFC202005F1C0
:1009F000490120228DF8470004F143000AF091FCE0
:100A00002046632100F004F81AB0B0BD00000000D9
:100A1000F8B5002201AB07C301A801214FF4104231
:100A200008F06CF904B080BDF0B593B00DF102048C
:100A30004921651C28460AF071FC0B4809EB0007A8
:100A4000284697F8A06207F5167132468DF80260C5
:100A50000AF067FC97F8A11230194170B11C2046CA
:100A6000FFF7D6FF13B0F0BD0000000070B50D46D3
:100A7000044610B9012009F04FFA15B9012009F018
:100A80004BFA6068B0F5FF7F01D9F9204BE02046B2
:100A90002946002207F0B4FE30B32068A16808445C
:100AA0001421A861204607F08AFEF8B105F108017B
:100AB00020460022002607F0A3FEC8B105F1200160
:100AC0002046C5E9046607F0BBFE296A90B9686A4A
:100AD0005FEA50004FEA31020023D2F1E80273EBE3
:100AE000000007D2FC201EE0FF201CE0FE201AE0E0
:100AF000FD2018E02068A2681044E861204607F055
:100B00005EFE68B105F11C030DCB00F00EF848B194
:100B1000D4E901126FF006008A4208BF012002E00A
:100B2000FB2000E0FA2040B270BDF8B51C46154627
:100B3000064610B9012009F0EFF900200023024613
:100B4000401B194673EB040006D2B756501C41F106
:100B50000003B7F1FF3FF2DC0020521BA14128BF88
:100B60000120F8BD08B1FFF731BF46F6851000F04F
:100B700000B802460020002108F0C0B82DE9F0417D
:100B80008CB078B3DFF89480022000252027032260
:100B900040F201640DF12C0C0DF1280E0B9509F8B3
:100BA000080048200A9009EB080090F8D43200F5BC
:100BB0000E7100F51676CDE9004200F52B7200208B
:100BC0000895CDE906C5CDE902172121CDE9046ECE
:100BD00007F048FF88B14BF2080009F80850FFF70A
:100BE000C8FF17E00D48002109F8001046F68510EF
:100BF0000CB0BDE8F041FFF7BCBF0A9909EB080053
:100C000080F8A0129DF82C1001F0010180F8A112CB
:100C1000FFF70AFF0CB0BDE8F08100BF0000000044
:100C2000FF200AF07DF90000BFB5194C17487C443D
:100C300009EB000500F0D8F8142169731549164A2C
:100C400079447A44C5E901210078287300F0CCF892
:100C5000152169761149124A79447A44C5E904217B
:100C60000021407828760F480F4A104B78447A4488
:100C70007B44CDE90032CDE902100022FF230C486D
:100C80000C497844794406F089F9BFBD301400005E
:100C9000CEC7000094AA00000CAC0000FEAA000021
:100CA00045A90000B1FFFFFFEEBC0000E0BC000062
:100CB0004DAC000097A70000BFB5224C152809F8DD
:100CC000042011D014282AD109EB04051E4C7C44C1
:100CD00000F08AF80078B0FA80F0400928738DF8A7
:100CE0000F0000F081F815E01848784409F046FF3D
:100CF0004078A8B109EB0405154C7C4400F074F869
:100D00004078B0FA80F0400928768DF80F0000F0A6
:100D10006BF801300DF10F01012209F0B3FFBFBDE7
:100D20000C480D4978447944CDE900100B480C4932
:100D30000C4A0D4B784479447A447B4406F03CFDE0
:100D4000BFBD00BF301400002EC7000012C7000056
:100D500002C700004500000056AA00003EA800009F
:100D600069A8000025A900001CAB0000B0B586B042
:100D7000A8B1174C15487C4409EB000500F034F885
:100D80004078B0FA80F0400928768DF8170000F01E
:100D90002BF801300DF11701012209F073FF0B4808
:100DA000002119F800300B480B4A0C4C78447A4467
:100DB0007C44CDE90042CDE90210002208480949EF
:100DC0007844794406F0EAF806B0B0BD301400006B
:100DD00086C6000071FEFFFFAEBB0000A0BB000096
:100DE0000FAB000059A60000204609F0C7BE000066
:100DF00070B588B0224E09EB060119F8060091F88B
:100E0000A81208432AD11F4D2B2109EB05000AF037
:100E100085FA03AC142120460AF080FA09EB06009B
:100E2000214614220830FFF7F5F808B309EB050254
:100E300003A814212B2307F0BFFE013018D012485D
:100E4000002400217844CDE9004009EB05000F4A59
:100E50000F4B7A447B4406F0F5F90EE0002009F8C8
:100E600006004BF2070008B0BDE8704000F012B871
:100E70004BF2020000F00EF80446204608B070BDA8
:100E8000000000004C1400005900000043A70000BF
:100E900068AA000002460020002107F02FBF0000D2
:100EA00010B50446FFF75EFE0720002C18BF062091
:100EB00002497944BDE8104006F072BB73FDFFFFA4
:100EC000F0B58DB0434F044609EB070090F8A80237
:100ED00001285DD119F80700012859D13E4E1E2185
:100EE00009EB060014300AF019FA05AD1E21284658
:100EF0000AF014FA09EB07001E21D0E9862303202B
:100F00000090284607F011FE00284BD0009509EB11
:100F100006051E211E23314A05F114007A4409F00A
:100F200093FC54352B2128460AF0F8F909EB070009
:100F300014212A462B23D0F8280207F03DFE013069
:100F400033D0274909EB060000250246794442F8D0
:100F5000341F49F8062002222249027200F154028D
:100F600085727944C0E9111200F1140181631E48B1
:100F7000784414B3CDE90250CDE9005509EB0601E0
:100F800000201A4A1A4B7A447B4406F049F911E0D2
:100F9000002009F807004BF207000DB0BDE8F04053
:100FA00000F02CB84BF2030001E04BF2020000F01D
:100FB00025F8054628460DB0F0BD0290CDE9005554
:100FC00009EB060100200B4A0B4B7A447B4406F0E8
:100FD0008DF8EFE700000000781400001CA9000065
:100FE000F9A60000DFA80000950000000FA6000091
:100FF0001FA60000CBA50000DBA5000002460020D4
:10100000002107F07BBE000010B50446FFF7B6FDD7
:10101000034984F001007944BDE8104006F0C0BAED
:101020000FFCFFFF0120FFF74BBF0020FFF748BF79
:101030000621202208F059BF08F05CBF08F050BF1D
:1010400060B110B52C2104460AF068F904F13000B3
:10105000FFF7EEFF0020C4E97E0010BD4FF0FF3027
:10106000704780B503464FF0FF305BB151B1986ACD
:1010700010B16FF0010080BD03F1300092B2FFF7B4
:10108000DBFF002080BD10B528B10446806A28B17E
:101090006FF0010010BD4FF0FF3010BD04F13000C3
:1010A0002146FFF7CBFF00200121C4E97E00A162A9
:1010B00010BD2DE9F04DF8B082464FF0FF30BAF187
:1010C000000F20D00E46F1B1DAF82800C8B1DAE9F5
:1010D0007E011546814219D90C1A5044A346AC42F0
:1010E00000F5EC71304688BFAB465A460AF019F954
:1010F000DAF8F801AC425844CAF8F80108D30020E5
:1011000001E06FF0010078B0BDE8F08D4FF0000B0A
:101110006EAC039504F1200002900AF5EC70CDE965
:101120000006AB45EBD2204651462022A0460AF0ED
:10113000F8F8DAE90854029F382616F1080008D0BA
:1011400028462146324609F043FF07F8010B083EC6
:10115000F3E704AF3846FFF76BFF384641462822D5
:101160004446FFF769FF039DA5EB0B08B8F11F0F7D
:101170000BD9019E384606EB0B01FFF75FFF0BF121
:10118000200B4FF0000800200DE03846009F394644
:10119000FFF754FF019E3946424606EB0B000AF06A
:1011A000C0F82020AB46CAE97E80DAE908010130A8
:1011B00041F10001CAE90801B3E7B0B500F51260DA
:1011C0000024B4F5807F09D051F8245025B11D6862
:1011D00044551D6801351D600134F2E7196810445B
:1011E00080F85010B0BD0A6800F5126000234F2A45
:1011F00088BF704783540A6801320A60F7E72DE917
:10120000F04100220023442B02D0C2540133FAE7FC
:101210000022012300264FF0000800250027B2F528
:10122000807F11D051F8224064B1825551F822409C
:10123000013404BF3D4348EA03087C00013644EA18
:10124000D3775B000132EAE700F13C070026402E2D
:1012500008BFBDE8F08140462946324609F0B8FE95
:1012600007F8010B0836F2E72DE9F8458846824673
:1012700000200021B1F5807F03D04AF82100013120
:10128000F8E708F13C05002600270024402E09D08D
:1012900015F8010B0021324609F0A6FE0C43074366
:1012A0000836F3E70020272808BFBDE8F885FA07CD
:1012B00018F800104FF0FF3208BF01225FEA540413
:1012C0004AF821204FEA37070130ECE72DE9FF4DBE
:1012D00014468A4600220021B1F5807F03D040F8F1
:1012E00021200131F8E70AF13C0500274FF0000BFF
:1012F00000260390402F06D000F0F0FB0E434BEA8F
:10130000000B0837F6E74FF00008CDF804A0B8F15D
:10131000270F08BFBDE8FF8D1AF808005FEACB7100
:10132000C0F5807711D103990296002501EB800664
:10133000AF421BD02046294600F042F856F825104F
:10134000084446F825000135F2E70399002501EB32
:10135000800AAF421BD02046294600F031F85AF8E7
:101360002510081A4AF825000135F2E7A6F5806530
:10137000029EB7F5807F1CD02046394600F020F849
:1013800055F82710081A45F827000137F1E7AAF5A4
:101390008065DDF804A0B7F5807F0AD02046394685
:1013A00000F00EF855F82710084445F827000137DB
:1013B000F1E75FEA560608F101084FEA3B0BA6E7A2
:1013C000CA080D2301F0070102FB030006290ED015
:1013D000012914D002291AD003291DD0042923D0B1
:1013E000052929D069BB0178407800022DE0827A76
:1013F000417AC37A900040EA9110990225E0827800
:101400004178C378D00040EA5110D9021DE0C1787C
:1014100000798001890818E04279017983795000C8
:1014200040EAD110590210E0C2798179037A1001A3
:1014300040EA1110190308E0017A407AC001490816
:1014400003E0C17A007B4001C90808436FF35F30B5
:10145000C0F58050704700002DE9FF4D14468B46C3
:1014600000220021B1F5807F03D040F82120013116
:10147000F8E70BF13C0500274FF0000A0026029028
:10148000402F06D000F02AFB0E434AEA000A083734
:10149000F6E732480022CDF800B08046272A08BF80
:1014A000BDE8FF8D1BF802005FEACA710392C0F528
:1014B000807712D102990196002501EB8006AF4298
:1014C0001ED02046294600F04BF856F8251001EBB7
:1014D000403046F825000135F1E70299002501EB7F
:1014E000800BAF421FD02046294600F039F85BF848
:1014F0002510424600FB08104BF825000135F0E7A7
:10150000A6F58065019EB7F5807F1FD0204639463D
:1015100000F026F855F82710424600FB081045F861
:1015200027000137EFE7ABF58065DDF800B0B7F5D0
:10153000807F0BD02046394600F012F855F827106E
:1015400001EB403045F827000137F0E7039A5FEAE6
:1015500056064FEA3A0A0132A0E700BF00E0FFFF5B
:101560008A0801F0030102EB82020229104406D02E
:10157000012909D069B90178082201230DE0817899
:1015800004220323090908E041780622022389087E
:1015900003E0C178022204238909C05C904000F472
:1015A0007F7008437047B0B5054608460C4600F00A
:1015B00023FB204600F02FFB0020B0F5807F08BF02
:1015C000B0BD54F8201000EB4002A954A91854F8FB
:1015D0002020120A4A7004EB8002013052888A707F
:1015E000EBE7B0B50022B2F5807F08BFB0BD02EBDB
:1015F0004203CC5C0B4440F822405D7844EA052469
:1016000040F822409B7844EA034340F822300132FC
:10161000E9E7F0B502310023B3F5807F08BFF0BDE4
:1016200011F8025C11F8016C11F8037B52F82340A9
:1016300045EA062545EA07452C1B40F823400133BF
:10164000EAE7B0B5002242F60B43B2F5807F08BF4F
:10165000B0BD51F822407F34E4115C4304F500052D
:101660002D16B4F12E5FA8BF002540F8225001329C
:10167000EBE700002DE9F041134E154F002242F632
:101680000B4C6FF0010EB046104EB2F5807F08BFD4
:10169000BDE8F08151F8223003F17F04E41104FB2E
:1016A0000CF404F50005B4F12E5F44460EEAE5554E
:1016B000B8BF05FB0833BB423446C8BF334440F8CB
:1016C00022300132E1E700BF008CFEFFFF1F80FFE8
:1016D00000F03F0002EB420201EB4211803101F0C9
:1016E0001EBB02EB420201EB421101F5007101F059
:1016F00016BB70B5044602EB42056619405D727870
:10170000B37840EA022040EA0340084400F088FD34
:10171000010C6055000AB170707070BD2DE9F04D7C
:10172000ADF5067D0DF1080883461E4617468A462C
:101730004046FFF785FC404639462022FFF791FCE2
:10174000300A0DF1060102228DF806608DF80700BF
:101750004046FFF786FC4046FFF795FC104C0027FB
:101760000DF20F26404631460922FFF7A2FC002564
:10177000062D98BFB7F5807F0BD200F09AF906D8F6
:101780005AF8271000F0B0F900F0B2F9013703352C
:10179000EEE7B7F5807FE5D30DF5067DBDE8F08D6A
:1017A00000E07F00B0B5017883784278C478057A8C
:1017B00063F3114141EA0221C279C1F500310160B0
:1017C0008179920042EA911201F03F0142EA8522BA
:1017D0004579C2F50032C26002792D0145EA121541
:1017E00045EA0131C1F500318160990862F3913118
:1017F00041EA8411C1F500314160B0BDF0B585B05A
:10180000054618461C4616460F46FFF719FC2046AB
:1018100039464022FFF725FC300A0DF10201022271
:101820008DF802608DF803002046FFF71AFC204671
:10183000FFF729FC002701AE402F04BF05B0F0BD23
:10184000204631460922FFF734FC3046FFF7AAFF55
:101850000020042805D056F8201045F8201001304B
:10186000F7E710350137E7E72DE9F04585B0DDF8FA
:1018700030A005461F4690460C465046FFF7E0FB59
:10188000504641464022FFF7ECFB380A0DF10201B9
:1018900002228DF802708DF803005046FFF7E1FB3D
:1018A0005046FFF7F0FB002601AF402E11D0504606
:1018B00039460922FFF7FDFB3846FFF773FF00208A
:1018C000042802D000F001F9FAE71034103501368F
:1018D000EBE705B0BDE8F0852DE9F04186461A48F2
:1018E000931C8C46002242F60B4500268046B6F536
:1018F000807F26D013F8024C13F8011C13F8030B59
:101900005CF8267044EA012141EA00407F30C119A9
:101910004746C911694301F5000424164145C8BF73
:101920000024C009684300F50001090E404588BF46
:101930000021601A18BF01204EF82600024401362B
:10194000D5E71046BDE8F081FFFF7F2B2DE9F04180
:1019500003F5126C42B102EB0C0E1EF8506F1EF82C
:10196000015CB54205D906E093F8706903F5176E7E
:101970000025502E02D90120BDE8F08103EB0508B7
:101980000027EA19B2420ED208EB0704AA4294F8E3
:10199000206903D994F81F299642ECD9C65501371E
:1019A0009EF80060EDE70F6093F8730901464F2839
:1019B00004D81CF80120481C002AF7D00020502928
:1019C00038BF0120BDE8F0812DE9F0419846154669
:1019D0000E4607460024B4F5807F08BFBDE8F081BD
:1019E0002846414631B110F8012B01399442F9D112
:1019F000012100E0002156F8240000F04BFC47F8DC
:101A000024000134E7E70022202A08BF70478B5CDE
:101A100083540132F8E702EB820200EB821020309F
:101A200000F006BB02EB420200EB4210803000F0F7
:101A300066BA02EB420200EB421000F5007000F0C3
:101A40005EBA4FF4D07302FB030000F5607000F043
:101A500013BB0022202A08BF70478B5C83540132DD
:101A6000F8E720300022202A08BF70478B5C83549F
:101A70000132F8E740300022402A08BF70478B5CF3
:101A800083540132F8E7F8B514460D4606460027A0
:101A9000B7F5807F08BFF8BD55F8270054F8271028
:101AA00000F022F856F82710084446F827000137BE
:101AB000EEE77119705D4A78897840EA022001F0FA
:101AC0007F0140EA0140A042704757F8201054F8C7
:101AD0002020114445F820100130704715F8010B03
:101AE00000213A4609F080BA81FB000100F07ABB80
:101AF000014658463A46FFF7FCBD00002DE9FC4D73
:101B0000044617484FF080084FF0000A78440190CF
:101B1000B8F1000F08BFBDE8FC8D0027FF2F1CD8CF
:101B200001980AF1010A07EB0806354650F82AB079
:101B3000B74210D254F8250080FB0B0100F052FB95
:101B400054F827100A18081A44F8272044F82500EA
:101B500001350137ECE72F46E0E74FEA5808D7E7B1
:101B6000A4AE00002DE9FC4D044622484FF00108C8
:101B70004FF4807A78440190B8F1FF0F28D80027FD
:101B8000FF2F22D80198AAF1010A07EB0806354673
:101B900050F82A00C0F1000BB74214D254F82700C5
:101BA00054F82510014444F8271054F82510401A21
:101BB00044F8250080FB0B0100F014FB44F82500DD
:101BC00001350137E8E72F46DAE74FEA4808D3E75F
:101BD00000254AF2FA36B5F5807F08BFBDE8FC8DD6
:101BE00054F8250080FB060100F0FCFA44F82500BB
:101BF0000135F0E73CAE0000B0B504460025B5F570
:101C0000807F08BFB0BD54F8250000F0F7FA44F813
:101C100025000135F3E7B0B504460025B5F5807F12
:101C200008BFB0BD54F8250000F0F2FA44F82500D2
:101C30000135F3E7B0B50023B3F5807F08BFB0BD31
:101C400051F8234052F823502C4440F823400133EC
:101C5000F2E7FFF753BFFFF785BFF8B500F0B5FA1D
:101C6000B7F5807F08BFF8BD55F8270054F8271056
:101C700081FB000100F0B6FA46F827000137EFE7D4
:101C8000F8B500F0A2FAB7F5806F08BFF8BDE159CA
:101C9000E81900F0D5FAF0510437F4E7094A914207
:101CA0000EDC0022B2F5807F04BF0020704750F8A0
:101CB0002230002B48BFA3EB430301328B42F1DB00
:101CC0000120704700FC0F002DE9F04DADF5AA6D25
:101CD000E84683460D46ADF84E254046FFF7B0F97D
:101CE000404629462022FFF7BCF90DF24E514046EE
:101CF0000222FFF7B6F94046FFF7C5F981AE40462C
:101D00004FF452724FF452773146FFF7D2F95846EA
:101D10004FF4807132464FF4527300F027F80546B5
:101D20004FF0030AFF2D1DD8B7FBFAF0314600EB48
:101D300040003C1AB84204D00A5C013F0A700131ED
:101D4000F8E731194046A822FFF7B3F944F0A80795
:101D50000BEB8500C5F5807132463B4600F006F876
:101D60000544DFE70DF5AA6DBDE8F08DF0B50F4C29
:101D7000844600200027A646884215D2FE1C9E42BB
:101D800012D8D45D17447D78BF7844EA052407F063
:101D90007F05374644EA054475467445ECD84CF84F
:101DA000204001303746E7E7F0BD00BF00E07F008C
:101DB0002DE9F04DADF50A7DADF8262208AC82463E
:101DC0000E462046FFF73CF9204631464022FFF7F9
:101DD00048F90DF2262120460222FFF742F920465B
:101DE000FFF751F94FF0000B6E464FF0CD08BBF1F5
:101DF000FF0F30D808A831462022FFF75AF90AEB26
:101E00008B00CBF5807200210023914221D21F2B41
:101E10001FD8F45C04F00F070F2F09D007FB08F55B
:101E2000AD0A05EB8505ED1B023540F82150013167
:101E300024090F2C0BD0914209D204FB08F5AD0AFE
:101E400005EB85052C1B023440F82140013101339C
:101E5000DBE78B44CBE70DF50A7DBDE8F08DF0B5EF
:101E600008304FF0000CBCF5107F08BFF0BD11F832
:101E70000C3001EB0C040CF1090C40F8083C6578BF
:101E800043EA052340F8083CA57865F3114340F880
:101E9000083CC3F50033A578AE0840F8046CE6783A
:101EA000B60146EA950540F8045C267966F391355B
:101EB00040F8045CC5F50035267937090760677975
:101EC0003F0147EA16160660A77967F311360660E8
:101ED000C6F50036A779BA094260E279920042EA73
:101EE00097124260247A066040F8045C40F8083C8F
:101EF00042EA8422C2F5003242601030B3E72DE995
:101F0000F04D013000224026B2F5806F08BFBDE8D9
:101F1000F08D8B1851F802801027203203F1040B4A
:101F200003F1100EDB699BE830089EE80054C5F110
:101F30000205A6EB4313A7EBC404C8F10207EDB2F8
:101F40003C43CCF1020744EA8514FFB200F8014C8F
:101F50000824A4EB8E0444EA57042343202443704E
:101F60000423A4EB0A14A3EB4B0343EA9503234396
:101F700043EAC71300F8033BC6E72DE9F04DADF582
:101F8000107D6E4680460D463046FFF759F83046C4
:101F900029462022FFF765F83046FFF774F880AD38
:101FA000304608222946FFF784F800262C464FF0D9
:101FB000000B4FF0000A402E07D000F00BF94AEA60
:101FC000010A4BEA000B0836F5E700200021B1F5C5
:101FD000807F03D048F821000131F8E70020D924A0
:101FE0006E460027B4F5807F1ED0B84206D3304637
:101FF000294640224027FFF75CF80020295C013089
:102000008C42F2D358F8212048F824205FEACB72A2
:102010004FF0FF3208BF01225FEA5A0A48F8212038
:102020004FEA3B0B0134DDE70DF5107DBDE8F08D87
:10203000B0B508310022B2F5A07F08BFB0BD51F89D
:10204000083C83548318053251E90245AD0045EA46
:1020500014245C700D6851F8044C2D0145EA941469
:102060009C70D1E90045AD0145EA1414DC704C6860
:102070001031A4081C71DEE72DE9FC4D1C314FF036
:10208000000C0090BCF5D07F08BFBDE8FC8D51F876
:10209000140C51E904A551E9073851E902E651F859
:1020A000207B01900098C7F58057C3F5805BC5F58C
:1020B00080557B0900EB0C0400F80CB00CF10D0C02
:1020C0002373C6F580539E08A6722E09E671CAF5E1
:1020D000805672086271C8F58052D008A070F8006E
:1020E00040EA93209B01E072CEF5805043EAD01382
:1020F000400040EA15306372F3012072280140EA83
:102100005620A0710198C0F5805043EA90138000DA
:1021100040EAD2202371E070500140EA1B20607039
:10212000B0E7F0B508314FF0000EBEF5107F08BFE4
:10213000F0BD51E9023CF1E8045600EB0E07C6F58C
:102140000036C3F50033B40A00F80E300EF1090E64
:102150003C72B408FC71C5F5003425097D71CCF5DD
:102160000035AA09FA701A0A7A70B20142EA1432EA
:10217000BA71220142EA95323A71AA0042EA134248
:10218000BA70D2E7B0B501300022B2F5806F08BF57
:10219000B0BD8B588C18103200F8013C656843EADA
:1021A000851300F8013C63689D080570A5682D0142
:1021B00045EA93030370A3681D094570E468A40011
:1021C00044EA131343700330DFE714460D46064616
:1021D0000027704714F8010B0021324608F004BFB5
:1021E00007F08DBE034A044B4243C2FB030108467D
:1021F000704700BF01208003FF1F80FF00F58001B2
:10220000024AC91501FB0200704700BFFF1F80FF93
:102210000249002848BF0844704700BF01E07F0022
:1022200000F58001044AC91501FB0200034900289A
:1022300048BF0844704700BFFF1F80FF01E07F00D8
:1022400001F6FF7241F6FF7322EA0303C91A016027
:102250005013704710B501F17F0242F60B430C4C4E
:10226000D211534303F500021216B3F12E5F064B51
:10227000A8BF002202FB0311044BA142C8BF1944AE
:102280000160104610BD00BF0018FDFFFF1F80FF5A
:1022900000F03F001CB50C46014601A8FFF7DAFF2D
:1022A00064B10199012904DBB0F12B0118BF411C75
:1022B00003E0411E002808BF2B2108461CBD70B555
:1022C00088B06E460C46054620213046FFF788FF51
:1022D00028462146324600F003F8002008B070BDC1
:1022E0002DE9F04DADF6886D0DF608670D460646F2
:1022F00011462022384609F014F840F20440ADF8A7
:10230000280E02AC2046FEF79BFE204639462222CC
:10231000FEF7A7FE00F0CAFB204639468022FEF7F2
:10232000C8FE28463946FFF794FB07F160012846AE
:102330000195FFF796FB304639460096FFF763FBA1
:1023400020374FF0000B82AD0DF5C1640DF6082665
:102350004FF00008B8F1040F72D028463946002229
:10236000FFF726FDB8F1000F04D10198294600229D
:10237000FFF758FB2846FFF76CFC4FEA08200DF6E4
:10238000086182B22046FFF79FFC304621462A466C
:10239000FFF763FC4FF0010ABAF1040F20D01FFAD7
:1023A0008AF228463946FFF703FDB8F1000F04D141
:1023B000019829465246FFF735FB2846FFF749FCAE
:1023C0000BEB0A000DF6086182B22046FFF77CFC99
:1023D000304621462A46FFF756FB0AF1010ADBE7A1
:1023E0003046FFF709FC3046FFF735FC08F10400E2
:1023F000394682B22046FFF7DBFCDDF804A0214617
:1024000042465046FFF715FB304631462246FFF75D
:1024100011FC3046FFF7FFFB284621463246FFF706
:102420002FFC504621464246FFF70BFB00982946F9
:102430004246FFF7F0FA0BF5807B08F1010889E7C7
:1024400002AC2046FEF7FCFD009E20464FF4A4623D
:102450003146FEF706FE00F029FB82AD2046402201
:102460002946FEF726FE0C482946402209EB0004C7
:1024700004F5207008F055FF04F5307031464FF434
:10248000A46208F04EFF01982946FFF7F3FA0020F6
:102490000DF6886DBDE8F08DD80200002DE9F04101
:1024A000FF2902D94FF0FF341CE080460F4800247A
:1024B0000D4609EB0007384687F8011287F80042FD
:1024C000FEF7BEFD0A4E07F52071384640227E44D5
:1024D000B04707F5007138460222B04738464146FA
:1024E0002A46B0472046BDE8F08100BFD802000070
:1024F00091EBFFFF0A46014601484844FEF7B1BD93
:10250000D80200002DE9F04DADF5835D86B00B904B
:10251000BF481646039109EB000400F0C7FA04F522
:10252000007120464022FEF7C4FD0DA8002100F5F1
:1025300000700A900020202906D0B54A4A440A4477
:10254000013182F84002F6E7B14809EB0004204669
:10255000FEF776FDB04F06F12001204620227F4491
:10256000B84704F51075204620222946B84704F5DF
:10257000007120464022B84700F098FA20462946CC
:102580004022FEF796FD06F5607000214FF000082E
:1025900004900B98203005900DAC01200791069017
:1025A00080B24FF6FC7101EB800300200DF58F61C6
:1025B00004280BD00022B2F5407F03D001F802803E
:1025C0000132F8E701F540710130F1E70798002783
:1025D000099380B24FEA800B042F23D08C4809EB7B
:1025E000000307EB0B0082B203F510712046FFF7E2
:1025F00005F92046FFF72DFB4FF0000A0DF58F651A
:10260000BAF5806F0CD007EB0A002146324683B240
:102610002846FFF783F805F540750AF5807AEFE75D
:102620000137D9E7DDF824B000270DF58F65B7F540
:10263000407F1AD020462946FEF7D3FF2046FFF7F9
:102640000AFB2046FFF7E7FA28462146FEF7ABFFD4
:1026500020462146FEF7F5FF0B9821463844FFF748
:1026600091FD05F54075C037E1E7694809EB0005C4
:102670002846FEF7E5FC05F5007128464022FEF7E6
:10268000F0FC0B9F28464FF440723946FEF7E9FCF8
:102690002846FEF7F8FC284639462022FEF709FDB9
:1026A00020463946FFF769FC0DF234402146FEF71B
:1026B000A6FD0798DDF814A000250130079035B17C
:1026C000042D35D020460DF23441FEF7CDFD0A9F92
:1026D0002146384600F0DAFA204631462A46FEF70F
:1026E000F9FF204600F0E6F920463946224600F080
:1026F00005FB474821464844009000F510720BEB5B
:10270000050083B22046FFF7AFF82046FFF774FAC2
:10271000404800F50C412046FFF7C0FA002866D17A
:1027200050462146FFF7FDFC0AF5107A0135C6E751
:10273000049D002100200DF58F6A002709900C915F
:10274000042F57D020460DF23441FEF78DFDAB46E5
:102750000A9D2146284600F099FA204631463A461D
:102760000897FEF7BEFF204600F0A4F92946204650
:1027700022465D4600F0C2FA204651462246FEF748
:1027800048FF2046FFF738FA50462146FEF70BFF78
:1027900020462146FEF76EFF2046FFF72DFA1D4921
:1027A0002046FFF77BFA10BB20460DF234412A4643
:1027B000FEF78CFD20464FF4BA31FFF76FFAB0B93F
:1027C000204621465246FFF787F8099901445029CF
:1027D00009910CD8089F0B9821460CAB3A46FEF79E
:1027E000ECFC05F5D0750AF5407A0137A8E70698A4
:1027F0000130D4E60CA90B98FEF7F5FC039940F6DE
:102800007410086000200DF5835D06B0BDE8F08D02
:10281000D8020000B273010001EBFFFF2DE9F04D7B
:10282000ADF6583D924640F6741204464FF0FF3024
:10283000914240F0EB80DDF87C1BFF2900F2E6803E
:1028400084AD814EDDF8808B039328467E44B047EB
:102850007E4F284641464FF4A4627F44B84728463D
:10286000FEF711FC0DF5826B284640225946FEF713
:1028700020FC2846B047284659464022B847DDF894
:102880007C0B4FF00008594602228DF810848DF819
:1028900011042846B847DDF8781BDDF87C2B284664
:1028A000B847039A28465146B8472846FEF7EBFB3F
:1028B000284659464022FEF7FCFB2846B0472846EA
:1028C00059464022B8470DF2547721463846FFF763
:1028D00054FB58463946FEF792FCDDF8800B594E02
:1028E00004F120050DF2544B4FF0000A0095203002
:1028F000019001200390BAF1040F00F08B800020BA
:10290000B0F5407F03D00BF800800130F8E738467F
:102910002946CDF808A0FFF7A2FA38463146FFF75E
:10292000BDF9002870D13846FFF793F90298DDF819
:10293000802B3946000283B25846FEF7EFFE039D16
:102940004FF4187ABAF5126F18D004EB0A01384622
:10295000FFF785FA38463146FFF7A0F9002853D132
:102960003846FFF776F9DDF8802BABB2584639468A
:10297000FEF7D4FE01350AF5107AE3E738465946EA
:10298000FEF72FFE3846FFF737F93846FFF763F9B1
:1029900058463946FEF707FEDDF808A001990AEB14
:1029A0008A0001EB801238460DF58261FEF754FD76
:1029B000384659463A46FEF72CFE3846FFF71CF9D2
:1029C0003846FFF728F904AD0DF654315246234638
:1029D0002846FEF7BBFFB8B9DDF8543B3846394608
:1029E0002A46FEF7F1FF58463946FFF7CBFB84A88D
:1029F0005946C022FEF735FB0398009D0AF1010AF3
:102A000000F58070039076E74FF0FF300DF6583DEB
:102A1000BDE8F08D84AE3046FEF735FB04AD3046A0
:102A200020222946FEF745FB00214FF0FF302029E8
:102A300005D06A5C635C01319342F8D0E6E7002080
:102A4000E4E700BFB2FF0100F1E7FFFF05E8FFFF89
:102A5000FEB5044640F674101D460E46834211D35F
:102A6000DDE90871A5F674130A983360CDE90071A9
:102A700002F674170290104640F674113A46FFF7BA
:102A8000CDFE48B1002030601DB104F8010B013DBE
:102A9000FAE74FF0FF30FEBD00203168884224BFC6
:102AA0000020FEBD395C21540130F6E72046FEF7D8
:102AB000EABA00002DE9F04D1C494FF0800C4FF0B0
:102AC000010E6FF4506879448A4617498B46BCF171
:102AD000020F38BFBDE8F08D0026FF2E21D85146E9
:102AE0003AF91E3006EB0C010F468E4215D230F932
:102AF00017205C465A4302FB0BF4241404FB082203
:102B000030F81640A4EB124504EB124220F817509F
:102B100020F8162001370136E7E70EF1010E3E4698
:102B2000DBE74FEA5C0CD2E7000001F3EAA2000009
:102B30002DE9FE4D3449364B02227F2444F6BF680E
:102B40006FF4506A8E4631497B44009301F1D35BA8
:102B5000802A34D800230192FF2B2ED800990294AA
:102B600031F9144099180D468B4221D230F8136088
:102B700030F81520F446324417B207FB08F707F186
:102B80000077BF1607FB0EF7A2EB174220F81320C1
:102B9000013330F81520921B12B2624302FB0BF690
:102BA000361406FB0A22120C20F815200135DBE74B
:102BB000029C019A2B46013CCEE75200C8E7002157
:102BC00040F2A1526FF4506344F6BF64B1F5807FC8
:102BD00008BFBDE8FE8D30F911500C4F05FB02F621
:102BE0007D4377462D1405FB03652E142D0C66439B
:102BF00006F10076B61606FB0EF6A5EB164520F894
:102C000011500131E2E700BF0000010D0000A1D822
:102C100068A20000F0B5B1F900C0B1F90250B2F9F4
:102C200002106FF4506EB2F9006001FB05F716490F
:102C300007FB01F4241404FB0E742414634303FB08
:102C400001F4241404FB0E3306FB0CF404FB01F71F
:102C50003F141B0C07FB0E4403EB1443038006FBDD
:102C600005F3B2F9022003FB01F4241402FB0CF279
:102C700004FB0E335143091401FB0E21090C01EB37
:102C800013414180F0BD00BF000001F3FF22B2F10B
:102C9000FF3FD8BFFFF70EBF51F8223020F81230A7
:102CA000013AF4E72DE9FC4DCDE9001283464FF0DF
:102CB000000A1148784400F18008BAF5007F08BF87
:102CC000BDE8FC8D009838F9026B0BEB0A0700EBAE
:102CD0000A0401983346214600EB0A0538462A4685
:102CE000FFF798FF7342381D211D2A1D1BB2FFF705
:102CF00091FF0AF1080AE0E7FCA0000010B50446C5
:102D0000FFF7D0FF2046FFF713FFFF20002805D470
:102D100034F9101044F820100138F7E710BD2DE900
:102D2000F04D01314FF0000CBCF5007F08BFBDE84D
:102D3000F08D11F8014C04F0070800EB0C0420F8AA
:102D40000C80C8F1020211F8015CC5F3C20EA4F8B0
:102D500002E011F8016C0B78B60963F38206A680D5
:102D60000B78C3F3420AA4F806A00D78C5F3021548
:102D700025810F784B78FF0963F3420767814B7811
:102D8000C3F38203A38191F801B020F80C20C3F1B2
:102D9000020203310CF1100CA281C7F10202628120
:102DA000C5F102022281CAF10202E280C6F10202EA
:102DB000A280CEF1020262800222A2EB5B12E281CB
:102DC000B2E7B0B500F0BFFB20B92168281D07F0BD
:102DD00075FF00B1B0BD216805F10800BDE8B04045
:102DE00007F06CBFF8B50F461446054643680968FE
:102DF000406B7A6807F0D0FF002854D1D5E90C0168
:102E000005F1200600F096FB00284CD13968686B6C
:102E100000F090FB002846D17968A86B00F08AFB8F
:102E2000002840D1A9696A6BE86B00F07DFBD0BB3C
:102E30006B68D5E90E21286C07F0AEFF98BBB96826
:102E4000A86C00F077FB70BB6B68E86A296CAA6C11
:102E500007F0AEFF38BB6B68E96AD5E9122007F0CE
:102E6000A7FF00BB05F12C026B6807CA07F0A0FFA3
:102E7000C8B96B68D5E90B10AA6B07F099FF90B938
:102E80002A6BE96C206800F04FFB60B96B68D5E9EC
:102E90000D02E96B07F08CFF28B96A6B296C60683A
:102EA00000F042FB00B1F8BD296CEA6CA068334623
:102EB00001B0BDE8F04007F0BDBF2DE9F041064686
:102EC00017460C4692688968C06A984606F1200544
:102ED00000F02DFB00287DD1D6E90B102B460A46C9
:102EE00007F0A8FF002875D13A682168706B00F0E0
:102EF0001EFB00286ED17A686168B06B00F017FB8A
:102F0000002867D1D6E90D12F06C00F010FB002804
:102F100060D1F269F06BF16C00F009FB002859D127
:102F20007368316BD6E90F2007F042FF002851D1BA
:102F30007368316BF26B706C07F02EFF002849D17B
:102F4000D4E900127368B06C07F026FF002841D165
:102F5000D7E900127368F06C07F01EFFD0BB306B2E
:102F6000D6E9121200F0E3FAA0BB7368D6E90C129E
:102F7000B06C07F01DFF68BB7368B26BD6E9121026
:102F800007F016FF30BBD6E90B10F26C00F0CFFA59
:102F900000BB326B316CD8F8000000F0C8FAC8B939
:102FA000B169D6E90C0200F0C2FA98B97368326BC5
:102FB000B16BF06C07F0FCFE60B9306B716CF26CB9
:102FC00000F0B5FA30B9D6E90B12D8F8040000F0D9
:102FD000AEFA08B1BDE8F081D6E91012D8F80800C1
:102FE0002B46BDE8F04107F025BFF8B505460F4672
:102FF000052009681446009005F12006E86A0A4693
:1030000000F092FA00B1F8BD7968286B00F092FAEE
:103010000028F8D1D5E90B12686B00F085FA00287A
:10302000F1D1A969EA6AE86B00F07EFA0028EAD1DA
:10303000E86B6B682A6B014607F0AEFE0028E2D110
:10304000E9696A6B286C00F06FFA0028DBD16B68C5
:10305000AA6AA86B296C07F09FFE0028D3D1A86B41
:103060003246014607F0DAFE0028CCD1E86B324642
:10307000014607F0D3FE0028C5D1D5E90E016A4606
:1030800007F066FE0028BED10098B0FA80F0400933
:1030900020700020F8BD00002DE9F045C1B00446C5
:1030A00002291FD0012940F0CF802020202220605B
:1030B00039AF68493846794408F033F966490DF16B
:1030C000C40A20225046794408F02BF963490DF1D7
:1030D000A40820224046794408F023F921AD604934
:1030E00079441BE020202022206019AF5D4938463A
:1030F000794408F016F95C490DF1440A2022504643
:10310000794408F00EF959490DF12408202240466F
:10311000794408F006F901AD554979442846202242
:1031200008F0FFF8261D20213A462023304607F0FC
:10313000CFFD002840F08A8020462A4650F8081B20
:103140000B4607F0C5FD002840F0808004F1200701
:103150002021384607F042FE002877D131683846F2
:1031600007F046FE002871D1254655F8281B284651
:1031700007F0A4FD002869D12868012107F0D2FDDD
:10318000002863D100F0DAF900285FD104F10C05C2
:1031900020462946FFF715FE002857D1204629462C
:1031A00000F068F8002851D12546524655F8181B02
:1031B00028460B4607F08CFD002847D100F0BEF9E9
:1031C000002843D12546424655F81C1B28460B468D
:1031D00007F07EFDD0BB00F0B1F9B8BB204650F837
:1031E0002C1B07F06BFD88BB204650F8301B07F006
:1031F00065FD58BB204650F8341B07F05FFD28BB27
:10320000204650F8381B07F059FDF8B9204650F811
:103210003C1B07F053FDC8B9204650F8401B07F08F
:103220004DFD98B9204650F8441B07F047FD68B99A
:10323000204650F8481B07F041FD38B954F84C1BA4
:10324000204607F03BFD01E048F6993041B0BDE86B
:10325000F08500BF428800007289000042890000AA
:103260009888000088890000F888000048890000DC
:103270007E880000B0B5054608680C46002107F0BE
:1032800051FD18B9A96A00F064F900B1B0BDA96A8E
:10329000A068BDE8B04007F03BBDFEB506681C461F
:1032A00017460A46054602A83146334607F010FD88
:1032B00000B1FEBD01A831463A46334607F008FD8D
:1032C0000028F6D16846314607F0F8FC0028F0D116
:1032D00005F1200620680299324607F093FD002888
:1032E000E7D160680199324607F08CFD0028E0D1F3
:1032F000A96AA06807F00CFD0028DAD102A807F03F
:10330000F3FC0028D5D101A807F0EEFC0028D0D1AD
:10331000684607F0E9FCFEBD2DE9F04198461646E7
:103320000F46054600F01EF898B905F120043968EB
:10333000E86A224607F072FD58B97968286B224680
:1033400007F06CFD28B92A68E86A314607F0F4FCFA
:1033500008B1BDE8F0812A68286B4146BDE8F0411C
:1033600007F0EABC70B505460C468968C06A05F1ED
:103370002006324607F06AFDD0B92268D5E90B1065
:1033800000F0D2F8A0B96268E96A686B00F0CCF886
:1033900070B9A268E96AA86B00F0C6F840B9296B59
:1033A000206807F0B5FC18B9696B00F0D2F800B1DD
:1033B00070BDA96BA068BDE8704007F0A9BCB0B5AE
:1033C0000C4605460168206807F0A2FC18B9696838
:1033D00000F0BFF800B1B0BDA968A068BDE8B0407A
:1033E00007F096BCF8B50E460168074618461C461D
:1033F000154607F063FC50B93968201D07F05EFCE4
:1034000028B9396804F1080007F058FC00B1F8BD8C
:10341000384631462A46234601B0BDE8F040FFF762
:103420003CBF2DE9FF4D0746002088461546002188
:103430009B4603908DF80B00106803AA07F094FCDC
:1034400038BB0398D0B1286801A907F057FC00BB2E
:1034500002204FF0FF310DF10B043865019801EBAC
:10346000C006002001280FD028683146224607F008
:1034700087FC70B99DF80B00013EF3E738465946CA
:10348000FFF7F8FE28B9DEE740465946FFF797FFF9
:1034900010B104B0BDE8F08D01200DF10B0AC7E9B1
:1034A0001406002E20D4384659465A46FFF79AFC97
:1034B0000028EED1386D3146524640003865286804
:1034C00007F05EFC0028E4D19DF80B0050B13846AF
:1034D000594642465B46FFF7F0FC0028D9D1386DCB
:1034E00001303865013EDCE70020D2E7BCB50C4670
:1034F000016899423CBF48F69930BCBD0546CA20D8
:10350000286501A807F0E4FB00B1BCBDB320069B11
:103510002146286501AA2846FFF783FF0028F4D139
:1035200001A807F0E1FBBCBD334607F083BC2B4686
:1035300007F080BC33460A4607F07CBC28683A4650
:10354000014607F05FBC0D4601680446284607F0B7
:10355000B5BB606807F0DCBBB0B5C26890E81A0084
:103560005FEA52054FEA3402E407C560DD0744EA2A
:10357000530445EA51054460154C05602140154C43
:10358000234019440C0C44EA034443EA1343214406
:103590000C0A44EA036483EA132361400C0944EAF9
:1035A000037483EA131361408C0844EA837483EA4A
:1035B000930361405FEA53034FEA3103594001F03E
:1035C000010182EAC132826008460021B0BD00BF1D
:1035D00001208000400008402DE9F8450C460546D2
:1035E0004FF0000A4FF000080027A74215D22846E6
:1035F000FFF7B2FF06462846FFF7AEFF10EB460086
:103600008107F2D500F001004FEA4801013740EA96
:103610004A0041EADA788246E7E750464146BDE88B
:10362000F8850000B0B5094A094B0446A0250020E2
:103630004FF6FF71C4E90210C4E9003225B12046FB
:10364000FFF78AFF013DF9E7B0BD00BF10F0FCFFB6
:1036500002FC01182DE9F041204F224E05460C4690
:103660000020B8461E4F7E44F8B928463E21B04798
:10367000C4E9000128464021B047C4E902012846B8
:103680004021B047C4E9040128464021B047C4E9BD
:103690000601D4E900013A46C01B404671EB080020
:1036A0004FF0000038BF0120DEE7D4E900010E4DE5
:1036B0007D44A847C4E90001D4E90201A847C4E950
:1036C0000201D4E90401A847C4E90401D4E90601D0
:1036D000A847C4E90601BDE8F08100BF4E4B5A304F
:1036E0002221584F6FFFFFFF390000000ABA01BACC
:1036F000104670479030FFF7ADBFF8B504469030E4
:103700001D4616460F46FFF78DFF0020C4E90375DE
:103710002146C4F8A000701CC4E90160286807F0C5
:10372000EDFAA06804F114054FF0FF360136864229
:1037300028BFF8BD2168284607F0C0FAA068043504
:103740008642F3D2FEE70000B0B5304919F80120F7
:10375000824208D100284BD009EB01035A6801329C
:103760005A60034606E042EA000409EB010252688F
:1037700020B123461C4609F8013007E0002309EB7D
:10378000010564F07F0409F801306B6083421EBFBD
:1037900009EB010000214160082A0AD30320B2FB93
:1037A000F0F000EB4000101A08BF44F0400404F0B1
:1037B0007F0402F09FFED8B1014611F8322F4B78FA
:1037C0008D78C97842EA032245EA012142EA0142A2
:1037D00072B1E1B283290CD041290CD042290CD01E
:1037E00081290CD082290CD0032901D1052109E0BF
:1037F000B0BD042106E0022104E0032102E0002123
:1038000000E00121BDE8B040104700BFF8140000FF
:103810002DE9F04D8AB08B4606460129069204D860
:103820007248784410F80B7004E0BBF1FF0F40F0D1
:10383000DA80002706987178B278F3788DF8240042
:10384000307842EA0322B379ADF81E20F27940EADB
:1038500001203179384443EA0222ADF81C00707926
:10386000ADF8222041EA0020A0EB4700ADF820008F
:1038700007A807F0B3F9BBF1FF0F00F0B480307870
:1038800071783546B0467C000DF11C0AADF8207009
:1038900040EA0120ADF81C0015F8020F697840EAF3
:1038A00001203844ADF81E0018F8060F98F80110F2
:1038B00040EA0120001BADF82200504607F08EF9C7
:1038C0002878697832797379ADF8207040EA012060
:1038D00098F801103844ADF81E0098F8000040EA4E
:1038E00001207178001BADF8220000F05FFBADF8FD
:1038F0001C00504607F072F9BBF1000F73D0B246BE
:10390000317ADDF8188096F9010033781AF802CF81
:1039100043EA002001239AF901200291CDE90088B1
:103920003844334C4CEA02215A4639447C44A0477F
:10393000304696F901C032789AF901509AF800E0C1
:10394000059410F8043F04904178307ACDE900885E
:10395000029043EA012042EA0C215A460023C91B87
:1039600008444EEA05213944A04734469AF901E05B
:103970009AF800C0317A96F90150327814F8063F6F
:10398000607802914CEA0E21CDE90088C91B43EA18
:1039900000200223014442EA0520059D5A4638448E
:1039A000A8470499327894F800C094F801E09AF995
:1039B00001309AF8004008784D7896F90110367A6F
:1039C000CDE9008842EA012140EA05204CEA0E22B6
:1039D0000296C91B084444EA0321059C0323C91B22
:1039E00011445A46A0470AB0BDE8F08D8E960000FB
:1039F000C50000007FB51C4600230A9D012A8DF8F2
:103A00000D3001938DF80C5037D81D4EDDE9083587
:103A10007E44B25CADF80820ADF80A2064B1012CF8
:103A200014D0022C1BD0032C28D100F0C7FA154863
:103A300015497844794419E0ADF80400881AADF8C6
:103A4000060014481449784479440FE0891A801A12
:103A500000F0B4FA114812497844794406E0801A1B
:103A600000F0ACFA09480A4978447944AB4208BFEF
:103A7000014601A8002207F0B9F87FBD0021F8E750
:103A8000A094000080940000809400004E940000F8
:103A90004E9400007494000074940000669400003A
:103AA000669400002DE9F04D8CB006469046012941
:103AB0000846089104D8B54808997844475C04E062
:103AC0000898FF2840F05E810027DDF850B08DF89F
:103AD0002C305B451ED1307A98421BD130787178FA
:103AE000B278F37840EA01203179ADF8240042EA57
:103AF0000320ADF82600707941EA0020B179ADF8D5
:103B00002800F07941EA0020ADF82A0009A807F062
:103B100065F837E1307971797D00069340EA01203C
:103B2000B0EB470F18D9B278F378401B7178ADF835
:103B30002800307842EA0322B379ADF82620F279E2
:103B400040EA0120384443EA0222ADF82400ADF8EF
:103B50002A2009A807F042F80898079501282AD8D2
:103B6000B079F17940EA0120854224D2401B717876
:103B70003446ADF82870ADF82A00307840EA0120CC
:103B800000F00CFA3844ADF8260009AD284607F0DD
:103B900025F8207861783279737940EA01207178CC
:103BA0003844ADF8260000F001FAADF824002846AC
:103BB000079D07F013F830787178344632797379BD
:103BC0008DF82CB00DF1240BADF82A80059740EA52
:103BD0000120384400F0E2F9ADF8260042EA032063
:103BE000401BADF82800584606F0F8FF35466278CD
:103BF000079F15F8060F697840EA0120217841EA0D
:103C00000221A1EB08010844ADF82600584606F051
:103C1000E5FF2878697840EA0120874229D2149983
:103C2000C01BB278F378ADF82880ADF82A00307860
:103C30008DF82C10717840EA01200599ADF8240028
:103C400042EA03200844ADF8260009AC204606F0FD
:103C5000C5FF307871783279737940EA012042EA01
:103C60000321A0EB08000844ADF82400204606F02C
:103C7000B5FF0898DDF818B0012800F283803546BA
:103C8000347A149996F901003378DDF814A015F808
:103C900002CF43EA0020012395F90120CDE9001B62
:103CA000029450443A4C089F4CEA022151447C440F
:103CB0003A46A04795F90100A0460794344696F984
:103CC00001E03278149B14F804CF049028786178CE
:103CD0000390307ACDE9003B002302904CEA0120AA
:103CE00042EA0E21A1EB0A010844DDE9032142EA80
:103CF00001213A465144C04796F901003A463746F9
:103D0000317A95F8008096F800E0149B17F806CFFA
:103D1000049095F90100039078780291CDE9003B79
:103D2000022303994CEA002048EA0121DDF81C80B7
:103D3000A1EB0A01014404984EEA00205044C04718
:103D400097F800C097F801E096F901703178207873
:103D5000647895F901302D78149A367A41EA072172
:103D600040EA0420CDE9002B4CEA0E220296A1EB9A
:103D70000A01084445EA03210323A1EB0A01114487
:103D8000089AC0470CB0BDE8F08D00BFF693000064
:103D900043FDFFFFF0B514460A4613F8061F13F85B
:103DA000015C5E789F78DB7841EA062147EA0323CD
:103DB00041EA03413DB1064A09EB02032246BDE850
:103DC000F04006F033BF2346BDE8F04006F00EBFDA
:103DD000441500002DE9F04D90B0044690F80080A5
:103DE000467818469B461746ADF83A200F9100F0EA
:103DF000EAF80546207A05940DF13C0A0DF12F04EE
:103E00008DF8380068798DF8390048EA06200DF100
:103E10003A060A90002F00F0BC80504631462246F8
:103E200000F0D3F880469DF82F0010B1BDF83A702D
:103E3000F0E7B8F1080F30D0B8F10C0F00F0A9800E
:103E4000E87A8045F2D3297B8845EFD82969A8EB29
:103E5000000001EBC00006F091FE074600686969AA
:103E6000084406F08BFE09907F68687A95F806C0D2
:103E7000C7F3450210B3C7F34550C7F3C521ACEBF8
:103E8000000CC7F34340131AA87A08440790C7F3FD
:103E9000C3100690002004901CE05FFA8BF0082805
:103EA00005D00A28C2D14FF0080B082002E04FF0DD
:103EB0000A0B0A2000F087F80546B7E73820C7F359
:103EC000C221134600EA171008440490002006900F
:103ED00000200790E97A5FFA88F00892814202D8C0
:103EE0002A7B824231D29846002206990A98DDF850
:103EF0001CE00844ADF83000ACEB0E00ADF8360025
:103F0000A8EB01000599ADF834008878C97840EA3B
:103F100001207044ADF832004AB117F0010006D11B
:103F20000CA80999189B002206F060FE06E0049890
:103F3000189B00900CA8099906F066FE0A9808994B
:103F40000844297A401A0A9070E7A0EB01019846CC
:103F500013D9286989B2CDF80CC0019100EBC100DA
:103F600006F00CFE02902869019900EBC1000830B0
:103F700006F004FEDDE9021C06E08242B4D188B2FC
:103F8000296901EBC001284609680068401A82B21D
:103F9000ABE75FFA8BF010B0BDE8F08DADF8240010
:103FA00014F8020F617840EA01207047307840EA47
:103FB000012042EA0321C01B08447047ADF80610F7
:103FC000ADF80400704706F049BEF0B5046801255D
:103FD000264616F8013B1570F02B15D30D88042DDD
:103FE00015D34FF4E012A678E77802EA83426378AB
:103FF00003F03F0342EA033206F03F03261D42EA84
:10400000831207F03F030FE0E02B0FD30D88032D41
:104010000FD362781B03A6789BB202F03F0243EAFB
:10402000821206F03F03E61C13440EE00D88C22BFB
:1040300009D3022D07D36278A61C02F03F0263F376
:104040008A12134601E0002717700660A01B28445F
:1040500008801846F0BD01224FF6FF7300F000B84B
:104060002DE9FF4D1C4601920F4605460391FFF7CF
:10407000AAFF0646384607F0ABF9A04238BF04460F
:10408000ADF80A40A0B20DF10C0A0DF10A0B0DF1CA
:1040900009074FF00008002458B3504659463A46E5
:1040A000FFF793FF0A280AD0014608280CD1E8B28E
:1040B000082816D00A2819D10825082013E00198ED
:1040C000B8B94FF0000811E09DF80920304600F023
:1040D00019F88044A1B21FFA88F0884288BF44468C
:1040E00004E00A250A2006F0B9FD0646BDF80A00DC
:1040F000D2E7A0B204B0BDE8F08D00224FF6FF7306
:10410000FFF7AEBF10B532B90446C07A884202D874
:10411000227B8A4202D20020C0B210BD081A216957
:1041200001EBC00006F02AFD0079217AC0F34500BA
:10413000401AF1E780B5FFF746FF807980BD80B572
:10414000FFF741FFC07980BD10B50021012241F287
:104150000143445C0C2C05D802FA04F41C421CBF39
:1041600088B210BD0131F4E72DE9F04D86B01C4650
:1041700003920F4606460591FFF725FF0546384690
:10418000FFF7E2FF804600200E9F00210DF1110B8A
:1041900002900020ADF812803980218001905FEA02
:1041A000084051D005A80DF112015A46FFF70DFF46
:1041B000082829D082460C283FD0BAF10A0F3CD0FB
:1041C0009DF8112028465146FFF79CFF40B30F99F8
:1041D00049B1BAF1200F18BFBAF15F0F29D1398860
:1041E0000291218801913988039A014491422ED885
:1041F000BDF812102388A8EB010288461A442280D9
:104200003A8810443880CAE7F0B20A2803D0082858
:1042100006D10A2600E00826304606F01FFD0546B6
:10422000BDF812002288A8EB0001804611442180CD
:10423000B5E7BAF12D0FD2D0D5E7BDF8120021882D
:10424000A8EB00000844208006B0BDE8F08D0F9870
:1042500002990028F8D00029F6D00198013020807A
:104260003980F1E72DE9F04D86B01D4602920E46E9
:1042700007460591FFF7A7FE04463046019607F072
:10428000A7F8DDF83CA0ADF81200002180B24FF095
:10429000000B4FF000080391002866D0280464D07A
:1042A000059E05A80DF112010DF11102FFF78DFE1B
:1042B0000146BAF1000F12D0A1F10800182805D864
:1042C000012202FA00F02F4A104203D15F2901D0E7
:1042D0002D2904D1BDF81200DDF814B0039008298F
:1042E0001DD00A2923D00C293ED09DF8112020464C
:1042F000FFF708FFA8B31FFA88F100EB0108029846
:1043000080452ED9BAF1000F18BFBBF1000F1ED1A6
:104310000598BDF812100596801B08441CE0F8B201
:1043200008280ED00A281CD1082708200BE0013DE0
:10433000280414D105984FF0000800250138059095
:104340000FE00A270A2006F089FC044609E00398DA
:10435000CDF814B04FF0000BADF81200013D4FF056
:104360000008BDF8120097E7002505980199401A4A
:104370000E990880A8B2B0FA80F0400906B0BDE8F6
:10438000F08D00BF150000012DE9F04D1C46904650
:104390000E46FFF718FE82463046FFF7D5FEDDF8E1
:1043A00020B007460020ABF8000020803D463FB318
:1043B0006F1EB8B2305C0A281FD09AF80B108842E2
:1043C000F4D39AF80C209042F0D8401ADAF8101082
:1043D00001EBC00006F0D2FB4068BBF80010C0F350
:1043E0004500014441450BD8218801312180BBF8AB
:1043F00000100844ABF80000D8E720880130D4E76B
:10440000002D18BF01252846BDE8F08D2DE9FF4D90
:104410001C4600920D4606460391FFF7D4FD074661
:10442000284606F0D5FF0021ADF80A0080B24FF013
:10443000000B4FF000084FF0000A0191002856D001
:10444000039D03A80DF10A010DF10902FFF7BDFD5F
:1044500001468CB1A1F10800182805D8012202FA02
:1044600000F0284A104203D15F2901D02D2903D141
:10447000BDF80A00AA460190082921D00A2927D0B0
:104480000C2934D09DF809203846FFF73BFE58B37D
:104490001FFA8BF100EB010B00998B4524D95CB11D
:1044A000BAF1000F08D00198ADF80A000AF1010036
:1044B0004FF0000A0390002008F10108834613E042
:1044C000F0B208280BD00A280ED10826082008E0F0
:1044D00008F101084FF0000B4FF0000A04E00A2633
:1044E0000A2006F0BBFB0746BDF80A00A6E75FEA14
:1044F0000B4018BF08F101081FFA88F004B0BDE8AE
:10450000F08D00BF150000012DE9F04D86B0CDE91A
:1045100000320C4605910390FFF755FD02902046AE
:1045200006F056FFADF8120080B200260DF111071B
:104530004FF0000B4FF0010800254FF0000A002853
:104540006ED0059C05A80DF112013A46FFF73DFD1E
:1045500001460838182814D8012202FA00F0334A1C
:1045600010420ED0BDF812A02546082924D00A29F1
:104570000CD00C292AD108F1010800264FF0000BBD
:1045800048E05F29EED02D29ECD0EEE70BF1010BCE
:1045900001991FFA8BF0401ABDF81210B0FA80F0A2
:1045A0004009002918BF0121084018BF4FF0000B37
:1045B0008044002600252DE00398C0B2082823D0AF
:1045C0000A2827D108200390082020E09DF8112018
:1045D0000298FFF797FDE8B1B1B2461800998E42F4
:1045E00018D925B1681CADF812A0059000200BF178
:1045F000010B019A1FFA8BF191420ED108F10108CB
:104600004FF0000B0646D5E70A2003900A2006F07B
:1046100025FB0290BDF8120091E700250646F9E758
:104620005FFA88F006B0BDE8F08D00BF150000010C
:104630002DE9F04D88B09A4614460E460746FFF71E
:10464000C2FC8346304606F0C3FE454980463846E4
:104650007944FFF752FD5FEACA7150D0CDF81CB023
:104660004FF0010B201A2546DDE9101206910BEBE5
:104670005A010391022190FBF1F04FEA5A014FF0E9
:10468000000A80B2029001911FFA88F110464FF0A3
:104690000008CDE9042182454FF0000038BF012019
:1046A0008A454FF0000138BF012101EA000414B32C
:1046B00016F80A70079800223946FFF723FD90B1DB
:1046C0001FFA88F100EB0108A84504D90BF1010B92
:1046D0004FF00008EBE703995FFA8BF0814202D1BB
:1046E000029880450ED8069800F80A70DDE90401AA
:1046F0000AF1010ACFE70699002001F80A0008B084
:10470000BDE8F08D06992E20002401EB0A0801F87F
:104710000A0088F8010008F8010CDDE9011001FB2E
:1047200005070598002506EB000A079EA0B2874200
:104730000AD90AEB0500002210F8011C3046FFF7E9
:10474000E1FC0444013DF1E70AEB050108F1020038
:10475000C5F10102013108B0BDE8F04D06F0E1BD40
:104760003371000070B50546007848B1194809EB6F
:1047700000018A7B52B14844817E51B1002426E079
:10478000144809EB00040020A07004E001F10C04BF
:1047900001E000F1180400202646A060206046F8E1
:1047A000040F686806F0EAF9A060287805F10802AD
:1047B0002070094B7B4420B13046072101F05EFF99
:1047C00004E03046072101F0A1FE00206070204681
:1047D00070BD00BF0015000025000000B0B590F8C6
:1047E0003E20114802235C1C1DD0DCB209EB000501
:1047F00004EB440405EB84056D78AA4205D109EB6E
:10480000000505EB8405AD780DB9013BEBE709EB3D
:10481000000202EB840292682AB1484400EB840053
:10482000BDE8B0401047B0BD0015000070B50028CD
:104830004DD00D4649780446C80722D06178022041
:1048400001F090FD2A786978234B244E002A7B449E
:104850007E44024608BF1E4602F8216F330ED37015
:10486000330C9370320A80F822206268A37842F8F1
:1048700023000322C2770422827500224272581C50
:10488000A07088074FF0000623D56178022001F060
:1048900069FD2978124A134B00297A447B4401466A
:1048A00008BF134601F8213F1A0E4672CA701A0C4F
:1048B0008A70190A80F822106168A27841F82200F3
:1048C0000321C17706218175501CA07001E04FF0D3
:1048D000FF36304670BD00BFC46C0000DE6C0000C7
:1048E000866C0000686C0000002800F035812DE91E
:1048F000F04D88B00E4641780546012017461C460B
:1049000001F030FD80460320002F08BF01206978A8
:1049100088F8200001F088FD4146020E4FF0720A2F
:104920004FF0000B049701F8220F88F804A088F8D4
:1049300005B0CA70020C000A88F823008A700420AF
:10494000697801F00FFD07460320F877304606F03E
:1049500015F90146082087F804A087F805B00394EC
:104960004FF0010A002C08BF0A2087F82200052218
:104970000B0E87F820203A4602F8261FD3700B0C46
:1049800093700A0A012387F827207222FFF73EFD61
:104990000646052805951DD33E4604200DF11E054B
:1049A00016F8261F7278B378F47806F8010C16F81A
:1049B000040C0095059DCDF804A041EA022143EACC
:1049C0000422042300F060FCBDF81E003071000AD0
:1049D0007071042600F060FC8346022087F824A052
:1049E000049CB8759BF80700002C06FB00FA4FEA00
:1049F0001A2087F806A0F871404610F8221F427866
:104A00008378C07841EA022143EA002041EA00406D
:104A1000076000F0068103986978022840F09E80C4
:104A20000520052501F09EFC0026074680F8216040
:104A30000120ADF81A60ADF8186000F03CFC20468B
:104A400006F09CF801460E20FE71BD7500F0F1FBEA
:104A5000652840F2D680BB4697F8265097F8230089
:104A600001241BF8251F9BF802209BF8033041EA24
:104A7000052106AECDE9006442EA03220DF11A03D6
:104A800041EA02416622FFF76FFBBDF81840BDF80E
:104A90001A60554604F10C003871000A78716B48B1
:104AA000132E28BF13269BF800109BF802209BF8BA
:104AB000033009EB000A97F8260041EA002042EA99
:104AC0000321324640EA0141504606F02AFC00200C
:104AD0000AF80600B87601208BF800A078764FEA35
:104AE0001A60002C8BF803004FEA1A408BF8020082
:104AF0004FEA1A20AA46059D87F82600404610F87E
:104B0000221F42788378C07841EA022143EA0020DC
:104B100041EA0040476000F0828069780520052660
:104B200001F020FC00250746049980F8215001205F
:104B300000F0C1FBBDF81A00084406F01FF801465A
:104B40000E20FD7100F075FB0C300F21BE75387121
:104B5000000A787102205AE000F0AABB00F099FB2D
:104B600003260746C677204606F008F8014672205D
:104B700000240123387101200A0E7C7187F824007B
:104B80000A2087F8220000F065FB04281ED33D466A
:104B900015F826CF05F8016C15F8040C95F801E01E
:104BA000AB78E97807AA00920122019243EA012139
:104BB0004CEA0E22032342EA01417222FFF752FB24
:104BC000BDF81C002871000A6871032003990029B0
:104BD00008BF06469BF80700BC76BC7506FB00F1D3
:104BE00006FB00A0B971090AF971022100F1020A5D
:104BF0007976052187F82010414600F038FB4F6098
:104C00000FE00C3008213871000A78710120002271
:104C100079764146BA7600F02AFB41F820700AF115
:104C20002C0A6868A978052288F816204FEA1A220B
:104C300040F821800020013188F806A088F807207C
:104C400088F81F00A97008B0BDE8F08D2415000099
:104C500000284FD02DE9F04D0C46054600274FF0B7
:104C6000050B4FF003084FF0000A207982453ED231
:104C70006079032802D3811E514535DC023050454E
:104C800032D3697800F005FB216806465FFA8AF0A6
:104C9000884761790A228A4508BF082286F82220BF
:104CA000F771777186F820B086F8217086F816B013
:104CB00086F81F803246030E02F8260FD370030CCD
:104CC000000A937086F827006868AA7840F8226086
:104CD0000C20B07172203071AAEB010001090001B3
:104CE0007076501CB176A8700AF1010ABDE7002069
:104CF000BDE8F08D00F0DCBA002800F0D9802DE985
:104D0000F04D86B00C4641788246012001F02AFB26
:104D10009AF8011080460320032701F085FB4146E5
:104D2000020E4FF0000B049401F8220F88F820B017
:104D3000CA70020C000A8A7088F82300A068C0B309
:104D40009AF80110022001F00DFB0646C777A06813
:104D500005F014FF3146020E86F813B086F809B04C
:104D600001F8210FCA70020C8A70010A86F822101D
:104D7000314601F812BF81F803B081F802B0414614
:104D800011F8222F4F788C78CD7811F8023C42EA46
:104D9000072244EA052442EA0442049C42F82360C4
:104DA0000222B2755A1C01F8022C8178C07841EABF
:104DB000002B2068002800F0A2809AF8011000F073
:104DC00068FA07460320F877206805F0D7FE014609
:104DD00072200025387105200A0E7D7187F82000A9
:104DE000012087F82400384600F8261FC2700A0CFC
:104DF0008270080A87F827000820627B002A08BF13
:104E00000A2087F8220072220123FFF7FFFA0646E4
:104E100005281ED33D46042001210DF1160415F886
:104E200026CF6A78AB78EE7805F8010C15F8040CFB
:104E300001910094049C4CEA022143EA06220423D7
:104E400000F022FABDF8160004262871000A6871E5
:104E5000002500F021FAC07987F821507043010A3B
:104E6000B871F971A16829B3414611F8222F4C7825
:104E700011F8023C8D78C97842EA042245EA012102
:104E800042EA01413A4601EB830151F8041C02F861
:104E9000121F0B0ED3700B0C090A51700021937076
:104EA0001172032E38BF01218900D17108210AE057
:104EB00000F0FEB9616819B100F0F2F9022102E0D8
:104EC00000F0EEF9052111714146584411F8222FE6
:104ED0004C788D78CE7811F8023C42EA042245EAFB
:104EE000062442EA0442049C42F823705A1C01F84A
:104EF000022C797EBA7E41EA022100EB010B606848
:104F0000002874D09AF801100420CDF80CA001F00C
:104F100029FA03260746C677606805F02FFE01468A
:104F200000200123787172200A0E38710A2087F858
:104F30002200052087F82000012087F8240000F0D7
:104F400089F9824604281CD33D464FF0010C15F820
:104F5000261F05F8016C6A78AB78EE7815F8040C1A
:104F600005ACCDE9004C41EA022143EA06220323C5
:104F700000F08AF9BDF814004FF0030A2871000A06
:104F8000687100F089F9414611F8223F4C788D781C
:104F9000CE7811F8022C43EA042345EA06243D4664
:104FA00043EA044303EB820454F8044C05F8124F1F
:104FB000260EEE70260C240AFC74AE7043F82270A4
:104FC0000223002401327B760823BC7687F8214037
:104FD000C079BB750AFB00F30AFB00B0DDE903A44E
:104FE000BB711B0A01F8022C00F1020BFB71207B44
:104FF0000221002808BF052188F81610DAF80400FD
:105000009AF80210722240F82180002088F80420CB
:105010004FEA1B22013188F806B088F8190088F899
:105020001A0088F8050088F81F0088F807208AF819
:10503000021006B0BDE8F08D2DE9F04D002877D0C4
:105040008B464178044600F024F94FF0030A0646E7
:1050500080F81FA0DBF8000005F090FD01467220EB
:1050600000254FF005080123307108200A0E7571E4
:1050700086F8208086F82200012086F82400304639
:1050800000F8261FC2700A0C8270080A722286F885
:1050900027000820FFF7BAF9012849D896F822001E
:1050A000FFF74DF86268A3786178B576F57142F83C
:1050B0002360B071022086F819A0B075581CA0704A
:1050C00000F0E7F8074680F81FA0DBF8040072261E
:1050D00005F054FD7D713D460A213E7187F8208020
:1050E00087F8221005F8260F010EE970010C000A5E
:1050F00087F827000A20A970FFF721F801212A78F4
:10510000AB78ED7887F82410C1094000F97197F861
:105110002710B87197F8220042EA012143EA0522DC
:10512000012341EA02417222FFF770F9022804D9F3
:105130004FF0FF363046BDE8F08D6068A2786178A8
:1051400001250026BE7640F8227005207D76B875D0
:10515000501CA070052001F005F94FF0030A4FF034
:10516000080880F8216080F82250074680F820A0C7
:1051700080F81FA080F823809BF808001E4A1F4972
:1051800001287A44794408BF11463A460B0E02F8CA
:10519000251FD3700B0C93700A0A87F8262001286C
:1051A0003846174A174D7A447D4418BF2A4600F8FE
:1051B0002D2F130EC370130C8370100A87F82E0066
:1051C0000820FEF79AFF6168A2786B78BE76FE71C0
:1051D00087F8168041F822700C2187F819A0B97160
:1051E000297841EA03210844511C0A303871000A29
:1051F000A17078719EE700BF4A6500002466000038
:10520000E7620000CF62000020B180B501F060F9D4
:10521000002080BD00F04CB848B110B504460078BD
:1052200010B1607801F0AEFA0020A07010BD00F05F
:105230003FB8B87108200A0E87F82300384600F8F6
:10524000251FC2700A0C8270080A87F82600082001
:10525000FEF753BF384600F8261FC2700A0C827052
:10526000080A722287F827000A20FFF7CFB811F842
:10527000222F4B788D78C97845EA012142EA032232
:10528000059D42EA0141704741EA02417222FEF760
:10529000E9BF042001F066B897F82200FEF793BE3C
:1052A00000213A4602F8121FD17091705170704778
:1052B0004FF0FF30704787F82200032087F8200066
:1052C000F877704770B5C17E024691B103461A4621
:1052D00013F80E4F5D789E78DB7844EA052446EAA1
:1052E000032344EA0343002BF1D1D37E0BB1012207
:1052F00004E092F83F20002A18BF0122064B19F85B
:1053000003300BB102B970BDB1FA81F14A09002135
:10531000BDE8704000F002B8381500002DE9F04DEE
:105320000446C07E102800F2A9800E465449C140B0
:10533000C90767D154491546794451F8200005F052
:105340001DFC0346204631462A469847DFF834C103
:1053500094F90130277809EB0C0539F90C1047EA6C
:105360000327AE8872188F4207DA27EAE77129F817
:105370000C102378677843EA0727B5F90230B5F8AF
:1053800006E0207965793FB240EA0520074410B273
:10539000874200DC1EB9802FA8BF80273A4694F9C7
:1053A0000300A5780EEB030645EA00279F4208DAC2
:1053B00009EB0C0027EAE7734380A078E57840EA20
:1053C000052738B2A579E77945EA07252F1830B2C5
:1053D000874202DCBEF1000F03D1402FA8BF402757
:1053E0003E4609EB0C00511A818031B24029A8BF1A
:1053F0004026F11AC180407A617A814284BF09EB6C
:105400000C004172E07E012838D8204610F8221F97
:1054100000F005FF90B300274FEA14684FEA144AE2
:105420004FEA142B002594F82000874226D220460C
:1054300010F8221F00F0F3FE50F82760E6B1304666
:105440002946012286F80FB000F80E4F80F803803D
:1054500080F802A03046FFF761FF3146F07C11F87A
:10546000122F42EA00208A78C97842EA012140EAF4
:105470000140002808BF35460137D4E7BDE8F08D6C
:10548000C83E01003A1500008C7B0000022000F0AD
:1054900001B8000070B50D4D014609EB050080888C
:1054A00098B109EB0500C08878B109EB050400222A
:1054B0000026204605F0C8FB7F20A680E68029F85C
:1054C0000500012060723F20608070BD3A15000029
:1054D000014800F0E8BE00BF3A150000024980F024
:1054E000010009F801007047381500001FB5017A66
:1054F00042788378C4788DF80C10017841EA022153
:105500000279ADF8041043EA0421ADF806104179A0
:1055100042EA0121ADF80810C179807940EA012002
:10552000ADF80A0001A805F059FB1FBD70B504468F
:105530000AB100F0D5FE00F0E6FEC67C00F0DBFE0E
:10554000097A00F8061C04D02046BDE8704005F03A
:1055500045BB70BDF8B50E46044610F8211F17462E
:1055600000F053FE5DB32878AA786978EB78207153
:10557000A2716171E3712879607227B120463146CA
:1055800000F08CFB607A21460128204611F80E2F8E
:105590004B788E78CF7842EA032246EA072342EA24
:1055A00003422B46127A01F8062C14BFE27FE42254
:1055B00094F8201001B0BDE8F040FEF7EBBB2046A8
:1055C00010F8251F00F048FE05D094F82900884700
:1055D00005460028C7D1F8BD2DE9F04D86B090F8FA
:1055E000226004460AB100F07BFE204610F82C1F12
:1055F00000F032FE09D094F8300088470546204676
:1056000000F8265F00F086FE04E0204610F8261F12
:1056100000F0FBFD002D00F03881224612F80E1F2D
:1056200053789778D07892F813C041EA032147EA7B
:105630000020BCF1010F41EA0041087A02F8060C93
:1056400019BF097A0A4600220321217220788DF8B9
:105650001420E378BCF1010F6178A27840EA0120C0
:105660002179ADF80C0042EA0320ADF80E00607914
:1056700041EA0020A179ADF81000E07941EA00206C
:10568000ADF8120003A804D100210322FEF7C0F8F0
:1056900001E005F0A3FA3046FEF74CFD80463046A7
:1056A000FEF74DFD834694F82300002857D030467E
:1056B0002946FEF7D0FC2179627941EA0222904224
:1056C00051D9734F30467F443946FEF716FD824666
:1056D000ADF8100020786178A278E37840EA0120E4
:1056E000A179ADF80C00E07941EA00200221A0EB9D
:1056F00008000DF10C0890FBF1F042EA03210322AF
:10570000334608443946ADF80E00E07F009040462D
:10571000FEF760FB207961790DF10A02009202AB7D
:1057200040EA01202946A0EB0A0082B23046FEF78B
:105730002BFEBDF80A00ADF81000BDF80C00504477
:10574000ADF80C002846FEF7FFFCBDF80820E17F0D
:1057500094F82230801A00912918404693E020796D
:10576000617940EA012294F8243030462946FEF758
:105770004DFE237A94F82570ADF81280A179E27974
:1057800094F821C08DF81430C3B241EA0221BB4223
:10579000034688BF3B46002F08BF0346DFB2781E92
:1057A00000FB0B804FF0000880B2081A022190FB2A
:1057B000F1FA4FF6FF70BCF1010F08BF8244474574
:1057C00063D02079617994F824200DF10A03F6B2B0
:1057D000CDE9003240EA01223046294602ABFEF70D
:1057E000C3FC94F82000062808D0052813D004280C
:1057F00022D12078617840EA01201BE0207861788E
:105800002279637940EA012042EA03210844BDF885
:105810000A10401A0EE0227963792078617842EA12
:105820000322BDF80A3040EA0120D21A022392FB7B
:10583000F3F21044ADF80C00BDF80A00A178E2784C
:10584000ADF8100094F8250041EA02215144ADF86A
:105850000E1010B10138404512D900F062FD03A8C6
:10586000FEF7B8FA0646BDF80800DA4408F1010868
:105870002844054615F8011B0A2918BF05469EE76E
:1058800000F04FFD03A8FEF7A5FA06B0BDE8F08DC5
:10589000196100002DE9F04D86B004460020ADF8F6
:1058A00016000AB100F01CFD2346E07BE27F94F86D
:1058B000221013F80E5F45EA00209D78DB7845EA58
:1058C000032340EA0340007A20722046FDF7A0FF40
:1058D000204610F8291F00F0BFFC09D094F83100D1
:1058E00088470546204600F8255F00F013FD04E0D8
:1058F000204610F8251F00F088FC002D76D0207877
:10590000617894F8028094F803B040EA012A94F890
:105910002300ADF80CA0FEF70DFC2246ADF81200F6
:1059200012F82DCF12F8276C12F8263C12F8291C19
:1059300012F8287C46EA032341EA0721181A0223B9
:10594000ADF8101090FBF3F048EA0B23184493785D
:10595000ADF80E00D078527843EA00204CEA0222DB
:1059600042EA004050B10278407842EA002002301A
:10597000091A8244ADF81010ADF80CA08EB294F85C
:10598000230001220DF116032946CDE900320DF165
:105990000A033246FEF7E8FBBDF81600864206D938
:1059A000301A022190FBF1F05044ADF80C00E07F7A
:1059B00094F8211094F82330BDF80A2000918DF856
:1059C000140003A82946FEF705FA00F05EFC47D054
:1059D000187859782279657940EA0120BDF81610C7
:1059E00042EA05220144511A02390BE000F04DFC55
:1059F00036D018785978627940EA0120217941EA55
:105A00000221091A4FF0020C26786778ADF81000D1
:105A1000E07F91FBFCF146EA07268DF81400E07860
:105A2000314493F802E0DA78A6791D79ADF80C10CC
:105A3000E1794EEA02228DF81550A57846EA012157
:105A4000ADF81220891A45EA002094F8212091FB34
:105A5000FCF108440021ADF80E0003A8FEF79AF906
:105A600006B0BDE8F08D7FB504460AB100F038FC01
:105A700000F049FC467C00F03EFC0B7A00F8063C46
:105A800008D094F824000121012200902046FEF75E
:105A900009F804E0204601211A46FDF7B9FE2079F5
:105AA000617994F8202040EA0120023800FB02F1DD
:105AB000642291FBF2F18142B8BF0846010420D074
:105AC000ADF808000020A179A278E3788DF80D00E8
:105AD00094F824008DF80C00E07941EA0020617808
