:02000004C0DE5C
:1000000010B5044662B608F000FF3CB12068B0F5B8
:10001000807F07D1204607F0BBFD01E007F082FD9D
:10002000002010BD07F06EFD70B58AB00C46054685
:100030006846202116460AF017F914B9012008F085
:10004000E1FE142E0AD3402001210990681C6D4660
:10005000089008A82A4608F08FFE08B1002006E0A4
:1000600005F10C01204614220AF001F901200AB022
:1000700070BD1FB5044610B9012008F0C3FE2078FA
:10008000E0282BD100200390CDE9010060780F28F3
:1000900027D004282FD0052837D0062848D0072895
:1000A00051D0082858D009285FD00A2866D00B28DC
:1000B0006CD00C2872D00D2878D00E287ED0032862
:1000C00040F08480A078002840F09580E0780028F7
:1000D00040F09180BDE81F4000F04DB94FF4DC4086
:1000E0008BE0A068002800F0838000F090F801A861
:1000F00000F066FA7AE0A07800287CD1E078002849
:1001000079D1BDE81F4000F0D1B8A178012972D89B
:10011000E07800286FD1A068002869D0019020798C
:100120000029029018BF012101A800F0D3F85DE07A
:10013000A17800294DD003295DD8E07840F08002F5
:10014000802A4AD057E0A068002851D000F05FF81C
:1001500001A800F017FA49E0A068002848D000F094
:1001600056F801A800F0D7F940E0A06800283FD079
:1001700000F04DF801A800F06FFA37E0A068B8B3BE
:1001800000F045F801A800F0CFFB2FE0A06878B39D
:1001900000F03DF801A800F02BFB27E0A06838B381
:1001A00000F035F801A800F065FB1FE0A068F8B189
:1001B00000F02DF801A800F0D5FA17E0A068B8B15A
:1001C00000F025F801A800F025FC0FE04FF4DA401C
:1001D00013E0E07880280ED18020A26842B101921D
:1001E00022790292C20901A800F0DCF804B010BD27
:1001F00046F6872001E046F6862004B0BDE81040B0
:1002000000F000B802460020002107F00BBC01906E
:100210002079029070470000BFB507F0DBFB1E4855
:1002200019F8000008B900F0EDFE1C484FF43671D3
:1002300048440AF025F81B48784409F021FC8078EE
:1002400001280DD001208DF802000020ADF800003B
:100250001548784409F014FC6946032209F094FC1F
:100260000F4D01AC07F0C0FB002814D4024609EB87
:100270000501204607F0DCFC30B12046FFF7F9FE0F
:10028000B0F1FF3FEEDC06E00020002146F68722B9
:1002900007F0C8FBE6E7BFBDD4180000000000006F
:1002A000BC190000C4B30000AAB30000F8B50848A8
:1002B000784409F0E5FB00214FF410420391072137
:1002C000CDE9010101A8012107F0ACFB04B080BD1C
:1002D000BDA50000F0B585B0234F0C4605464FF490
:1002E000367109EB0706304609F0CAFF002006F513
:1002F000357109F8070086F8A802284607F0FEF8CD
:1003000008B309EB070090F8D42200F52B712846BA
:1003100007F047F9B8B109EB07000021052290F872
:10032000D432CDE90221049100F1490500F108061B
:1003300000F52B7200202121CDE9006507F0F2F9CC
:1003400040B180B201E046F6872005B0BDE8F0403C
:1003500000F00CB8002C05B0BDE8F04008BF00F07C
:100360001DBC00F033BF00BF0000000002460020AB
:10037000002107F057BBF8B5002001214FF41042CF
:100380008DF802008DF80100039003208DF8031012
:10039000012102900DF10100019001A807F042FB3C
:1003A00004B080BD70B586B0544E044691B109EBDF
:1003B000060090F8A80201282CD109EB060015468A
:1003C0006268D0F808021118B1F5FF7F25D94BF209
:1003D000040039E009EB06054FF43671284609F0B0
:1003E0004FFF002005F5357109F80600012085F85A
:1003F000A802204607F082F848B109EB060090F801
:10040000D42200F52B71204607F0CBF8B8B946F698
:10041000872019E04BF2070016E009EB06010844BB
:1004200000F10801204607F0E6F858B109EB060193
:100430006268D1F808021044C1F808024DB14FF4C7
:10044000104001E04BF2050006B0BDE8704000F03E
:100450005DB80021CDE9020109EB060000F10801B9
:10046000019100F5047101A800F0EEFC012814D1FF
:10047000012009F8060009EB0600D0F8081200F583
:100480000E72059100F10801049104A8012108F001
:1004900073FC40B14BF2060001E04BF2050000F0A6
:1004A00035F806B070BD164819F80000A0B115481F
:1004B00019F80010F9B909EB0604012109F8001038
:1004C00004F506741FCC009400F07EFC10B10120EE
:1004D00000F042FD0020E4E709EB0600D0F82C0212
:1004E0000949794409F010FF10B100F08CFFD8E7FA
:1004F00000F086FFD5E7FF2009F0D0FC00000000E7
:10050000D4180000D518000097A000000246002073
:10051000002107F087BA10B5D0B004464068202803
:100520000BD1206840A9202200F070FF88B940A8B4
:10053000402100F017F800200DE068460921402214
:1005400008F048FC28B9D4E90012684608F047FCD6
:1005500018B100F019FB50B010BD684640A908F072
:1005600034FCE3E7F8B5002201AB07C301A8012181
:100570004FF4104207F056FA8FBD024600200021CA
:1005800007F050BA10B5F2B00446684606212022A2
:1005900008F020FC50B9D4E90012684608F01FFCAE
:1005A00020B968466AA908F010FC18B100F0ECFA0E
:1005B00072B010BD6AA82021FFF7D4FF0020F7E732
:1005C00010B5A4B000F0DCFAB0BB14AC1F49202277
:1005D0002046794409F04BFE0CA81D49202279449D
:1005E00009F045FE04A81B492022794409F03FFE8A
:1005F00003A82021224600F0CAFAE8B902A80CAAF2
:10060000202100F0C4FAB8B901A804AA202100F002
:10061000BEFA88B96846202109F0D2FA60B9DDE94E
:100620000213DDE9000209F045FB28B900981CA976
:10063000202209F00FFB18B100F0A6FA24B010BD7B
:100640001CA82021FFF78EFF0020F7E7A2A30000DF
:1006500016A300000AA400002DE9F041ADF5087DC5
:10066000044660A83D49A022794409F000FE00F04C
:1006700087FA68BB002048A9FF22602802D00A54EC
:100680000130FAE736496D4620222846794409F0C0
:10069000EEFD09A820212A4600F079FAC0B908A881
:1006A0006A46202100F073FA90B90AA8202109F0C7
:1006B0003BFB68B909990AA809F040FB40B90DF164
:1006C00030080AAB05210522404601F077FD28B12C
:1006D00000F05AFA0DF5087DBDE8F081002760AE04
:1006E0000D98874212D208EB870531462022E8692F
:1006F00009F090FA0028EBD1E869119A014609F057
:1007000027FB013720360028EAD0E1E708AA404657
:100710000021012301F0B8FD2068119A007808EB50
:10072000800454F8180F014609F01EFB0028CFD1B1
:10073000206848A9202209F08DFA0028C8D148A8CD
:100740006021FFF70FFF08A809F050FA0028BFD179
:1007500009F02EFA0028BBD10020BBE74CA4000012
:10076000C8A3000070B5D0B0044600F009FAA8BBD9
:1007700048A81D492022794409F079FD01AD1B49A3
:1007800020222846794409F072FD09A820212A4632
:1007900000F0FDF910BB0AA8202109F0C5FAE8B95C
:1007A00009990AA809F0CAFAC0B90CA80AAB052130
:1007B000052201F003FD88B9206806780CAC48AD2D
:1007C0002EB12046294601F0F5FC013EF8E748A885
:1007D0002021FFF7C7FE09F0EBF918B100F0D4F9BA
:1007E00050B070BD0020FBE75EA10000D0A2000069
:1007F000B0B5ADF51A7D01680022FF230D785AAC23
:10080000B2F5807F02D0A3540132F9E7406801318C
:100810001AAA013828B111F8013B013802F8013B4E
:10082000F8E700F0ADF9F0B904A8294601F032F973
:10083000C8B904A801A900F0AEFFA0B904A81AA97C
:1008400001AA00F019FE70B904A804F1200301A95F
:1008500000F0A0F938B9049841005AA8FFF782FEC9
:1008600009F0A6F920B100F08FF90DF51A7DB0BDA1
:100870000020FAE7F0B5ADF52B7D064600680021B3
:10088000FF2205786BACB1F5807F02D06254013154
:10089000F9E7716801302BAA013929B110F8013B41
:1008A000013902F8013BF8E700F06AF9A8BB3068AB
:1008B0000AAA002102AB202907D04618777857549E
:1008C00096F821605E540131F5E715A8294601F03C
:1008D000E1F810BB15A812A900F05DFFE8B915A852
:1008E0002BA912AA00F0C8FDB8B915A804F120037D
:1008F00012A900F04FF980B92020CDE9000415A815
:100900000AA912AA02AB00F0DFFD30B96BA8602182
:10091000FFF728FE09F04CF920B100F035F90DF58C
:100920002B7DF0BD0020FAE72DE9F045EBB0054640
:1009300000680DF1AB04FF2106780020B0F5807F40
:1009400002D021540130F9E700F01AF9002856D1FD
:1009500014AF3146384601F09DF800284FD107F119
:100960000C060DF2AB123846314601F03DF8002876
:1009700045D19DF8AB114CF6012001293FD1234907
:100980000DF1240A20225046794409F070FC01AF91
:100990001F4920223846794409F069FC0DF14408CA
:1009A00014A851463A46434601F07FFA38BB14A8D2
:1009B0000DF2AB12314601F017F800BB9DF8AB0108
:1009C00001284CF601201AD1D5E90001CDF80080AC
:1009D000421C4B1E14A8314601F0ECFA78B914A859
:1009E00004F1400311A900F0D5F840B90DF1AB00B6
:1009F0004FF48071FFF7B6FD09F0DAF820B100F08E
:100A0000C3F86BB0BDE8F0850020FAE7ECA0000069
:100A1000FEA00000F0B5EFB005464068412801D8BF
:100A2000022802D246F6872015E02868FF210678C2
:100A300000202FACB0F5807F02D021540130F9E7BF
:100A400000F09EF820B919A8314601F023F820B132
:100A500080B2FFF792FD6FB0F0BD022E0CD0012ED8
:100A600028D10BAE424920223046794409F0FFFBE1
:100A700003AF4049794409E00BAE3F49202230469C
:100A8000794409F0F4FB03AF3C497944384620220D
:100A900009F0EDFB19A816AB31463A4601F005FA0C
:100AA0000028D5D119A80BA903AA13AB01F0FDF9B1
:100AB0000028CDD100200DF10B028DF80B0019A8F4
:100AC00016A900F091FF0028C2D19DF80B00012863
:100AD00042D119A813AE0DF10B02314600F084FF8C
:100AE0000028B5D19DF80B00012838D11A980DF1D6
:100AF0000B0109F00FF90028AAD19DF80B0001287D
:100B000030D11B980DF10B0109F004F900289FD199
:100B10009DF80B00012828D1D5E900010096421C60
:100B20004B1E19A816A901F045FA002890D119A862
:100B300004F1200313A900F02DF800287FF488AFFA
:100B400009F036F800287FF483AF199841002FA8E8
:100B5000FFF708FD00207EE74CF6012079E74CF610
:100B6000022076E74CF6032073E74CF6042070E78A
:100B7000AA9E0000209F0000B49E00002A9E000054
:100B80002020002109F00AB880B2FFF7F6BC20232C
:100B900009F020B8224601F022B90000B0B59AB0A1
:100BA00041200DF1050441228DF805000B4809EBA9
:100BB0000005601C05F1080109F059FB202005F132
:100BC000490120228DF8470004F1430009F04FFB52
:100BD0002046632100F004F81AB0B0BD0000000008
:100BE000F8B5002201AB07C301A801214FF4104260
:100BF00006F018FF04B080BDF0B593B00DF102040B
:100C00004921651C284609F02FFB0B4809EB00071A
:100C1000284697F8A06207F5167132468DF80260F3
:100C200009F025FB97F8A11230194170B11C20463C
:100C3000FFF7D6FF13B0F0BD000000002DE9F04132
:100C4000BCB004460020A568A061002D4DD02069ED
:100C500000284AD009F062FB282846D1207B4FF0BB
:100C6000000839956121CDF8EC803A9015AD284601
:100C700009F0FAFA39AE0DF1E301304606F03EFC18
:100C80009DF8E3202EAF3046394606F08AFC052059
:100C900005F141019DF8E3303A46CDF81080CDE9E9
:100CA0000051CDE902080020212106F03BFDE0B90A
:100CB00010AD1421284609F0D7FA15A829461422A8
:100CC000FFF7B2F905AE2921304609F0CDFA2846E2
:100CD00014213246292306F003FE216930462922D9
:100CE00009F024FB08B90120A0613CB0BDE8F08107
:100CF00070B58CB004AC06461E21204609F0B4FA4B
:100D000006F10E053221284609F0AEFA0020317BAB
:100D1000CDE90200B06802AA07F02CF878B10320F0
:100D2000DDE902231E210090204606F092FD00948A
:100D3000284632211E23034A7A4408F007FD0CB0EE
:100D400070BD00BF989A0000F0B593B08569ADB34F
:100D50000446284609F0E2FA28282FD1A7686FB385
:100D60006E464821304609F07FFA06F1180000214E
:100D7000282909D06A5CA2F16103DBB21A2B38BFC3
:100D8000203A42540131F3E7217B06F1080238464C
:100D900006F0F0FF90B1217D206906F1100206F007
:100DA000E9FF58B101248DF8004008F037F80548F4
:100DB00069464822484409F05AFA00E000242046D7
:100DC00013B0F0BDD802000070B58CB01D4E19F8FC
:100DD00006402CB309EB0604D4E9024569406040A3
:100DE000084321D109EB0600D0E9040159405040E5
:100DF00008431DD101AD109C2921284609F034FA81
:100E0000204614212A46292306F06AFD09EB060034
:100E10002946183009F078FA70B901200CB070BD7D
:100E20004FF44040FF210AE04FF44040012106E02A
:100E30004FF44040032102E04FF4404002210022E1
:100E400006F05FFFD802000070B50D46044610B9E9
:100E5000012007F0D7FF15B9012007F0D3FF606824
:100E6000B0F5FF7F01D9F9204BE02046294600224A
:100E700006F05AFB30B32068A16808441421A86129
:100E8000204606F030FBF8B105F1080120460022AB
:100E9000002606F049FBC8B105F120012046C5E94E
:100EA000046606F061FB296A90B9686A5FEA50003F
:100EB0004FEA31020023D2F1E80273EB000007D2BF
:100EC000FC201EE0FF201CE0FE201AE0FD2018E0C0
:100ED0002068A2681044E861204606F004FB68B16F
:100EE00005F11C030DCB00F00EF848B1D4E9011256
:100EF0006FF006008A4208BF012002E0FB2000E0FC
:100F0000FA2040B270BDF8B51C461546064610B929
:100F1000012007F077FF002000230246401B1946FE
:100F200073EB040006D2B756501C41F10003B7F131
:100F3000FF3FF2DC0020521BA14128BF0120F8BD79
:100F400008B1FFF72BBE46F6851000F000B8024648
:100F50000020002106F066BD2DE9F0418CB078B389
:100F6000DFF89480022000252027032240F201644C
:100F70000DF12C0C0DF1280E0B9509F808004820F6
:100F80000A9009EB080090F8D43200F50E7100F5D4
:100F90001676CDE9004200F52B7200200895CDE9C8
:100FA00006C5CDE902172121CDE9046E06F0EEFB5E
:100FB00088B14BF2080009F80850FFF7C8FF17E0A6
:100FC0000D48002109F8001046F685100CB0BDE868
:100FD000F041FFF7BCBF0A9909EB080080F8A012A6
:100FE0009DF82C1001F0010180F8A112FFF704FE1A
:100FF0000CB0BDE8F08100BF00000000FF2008F049
:101000004DFF0000BFB5194C17487C4409EB0005A3
:1010100000F0D8F8142169731549164A79447A44C6
:10102000C5E901210078287300F0CCF81521697614
:101030001149124A79447A44C5E9042100214078D3
:1010400028760F480F4A104B78447A447B44CDE908
:101050000032CDE902100022FF230C480C497844ED
:10106000794404F00BFEBFBD20030000F2A5000090
:1010700057960000C8970000BA960000009500003F
:10108000B1FFFFFF169B0000089B00000F980000B7
:101090002F930000BFB5224C152809F8042011D069
:1010A00014282AD109EB04051E4C7C4400F08AF870
:1010B0000078B0FA80F0400928738DF80F0000F036
:1010C00081F815E01848784408F0DAFC4078A8B1B7
:1010D00009EB0405154C7C4400F074F84078B0FA34
:1010E00080F0400928768DF80F0000F06BF8013091
:1010F0000DF10F01012208F047FDBFBD0C480D495D
:1011000078447944CDE900100B480C490C4A0D4B4A
:10111000784479447A447B4405F0DCF9BFBD00BFD4
:101120002003000052A5000036A5000026A50000FF
:101130004500000012960000F9930000249400007E
:10114000E8940000D8960000B0B586B0A8B1174C5E
:1011500015487C4409EB000500F034F84078B0FAFB
:1011600080F0400928768DF8170000F02BF8013048
:101170000DF11701012208F007FD0B48002119F8B5
:1011800000300B480B4A0C4C78447A447C44CDE93F
:101190000042CDE902100022084809497844794408
:1011A00004F06CFD06B0B0BD20030000AAA400004E
:1011B00071FEFFFFD6990000C8990000D19600008B
:1011C000F1910000204608F05BBC000070B588B0CB
:1011D000224E09EB060119F8060091F8A8120843FF
:1011E0002AD11F4D2B2109EB050009F03DF803AC76
:1011F0001421204609F038F809EB06002146142294
:101200000830FEF711FF08B309EB050203A814210B
:101210002B2306F065FB013018D012480024002172
:101220007844CDE9004009EB05000F4A0F4B7A44A2
:101230007B4404F077FE0EE0002009F806004BF234
:10124000070008B0BDE8704000F012B84BF2020091
:1012500000F00EF80446204608B070BD0000000003
:101260003C03000059000000FE9200002A96000096
:1012700002460020002106F0D5BB000010B5044650
:10128000FFF75EFE0720002C18BF062002497944B4
:10129000BDE8104004F0F4BF73FDFFFFF0B58DB062
:1012A000434F044609EB070090F8A80201285DD1DE
:1012B00019F80700012859D13E4E1E2109EB0600FE
:1012C000143008F0D1FF05AD1E21284608F0CCFFF0
:1012D00009EB07001E21D0E9862303200090284651
:1012E00006F0B7FA00284BD0009509EB06051E2141
:1012F0001E23314A05F114007A4408F027FA5435C8
:101300002B21284608F0B0FF09EB070014212A46DC
:101310002B23D0F8280206F0E3FA013033D0274916
:1013200009EB060000250246794442F8341F49F8CB
:10133000062002222249027200F154028572794489
:10134000C0E9111200F1140181631E48784414B3FE
:10135000CDE90250CDE9005509EB060100201A4AFB
:101360001A4B7A447B4404F0CBFD11E0002009F8CD
:1013700007004BF207000DB0BDE8F04000F02CB8BC
:101380004BF2030001E04BF2020000F025F80546A5
:1013900028460DB0F0BD0290CDE9005509EB0601DD
:1013A00000200B4A0B4B7A447B4404F00FFDEFE71F
:1013B0000000000068030000D8940000BC92000008
:1013C0009B94000095000000CA910000DA91000093
:1013D000869100009691000002460020002106F050
:1013E00021BB000010B50446FFF7B6FD034984F0A9
:1013F00001007944BDE8104004F042BF0FFCFFFF3C
:101400000120FFF74BBF0020FFF748BF2DE9FC4D3F
:101410000C46CDE90002684601210126224607F06C
:10142000B8FC054618BB207800F0F8002070E07F7B
:1014300066F39F10E077D4E900010E4E7E44B0477A
:1014400080468A46D4E90201B04783460F46D4E974
:101450000601B047C4E90001D4E90401B04704F132
:10146000080282E8030804F1140080E88005284699
:10147000BDE8FC8D4103000070B592B014460268CF
:1014800002AE054608463146FFF7C0FF00200021A6
:10149000202809D0325C4901130641EAD361315456
:1014A00002F007010130F3E72946284651F80C3BCA
:1014B000009402AA00F07EFD18B92846214600F0EB
:1014C000B4FC12B070BD00002DE9F04DADF5467DC5
:1014D0000546CE98202818D10F4682A928461E46D8
:1014E000924600F058F988B92A6872AC384621460D
:1014F000FFF78CFF50B9DDF83CB300205AA9202833
:1015000008D0225C0A540130F9E79B480DF5467D6E
:10151000BDE8F08D12A80921402207F05BFC0028ED
:10152000F4D104F1200112A8202207F058FC002871
:10153000ECD112A83146202207F051FC0028E5D159
:1015400012A862AC214607F040FC0028DED13F2003
:1015500072A9421C04D0225C013801F8012BF8E783
:1015600089A872AA4021402308F034FB0028CDD17D
:1015700087A8402108F024FB0028C7D17F490DF13E
:10158000080840224046794408F071FE88A84021AE
:101590004246402308F01EFB0028B7D18999DDE9B7
:1015A000870208F0ABFB0028B0D187AA05F10C0137
:1015B00082AB284600F098FC0028A7D182A92846D3
:1015C00000F033FC0028A1D1879852A900F0E0F880
:1015D00000289BD188A808F009FB002896D189A88B
:1015E00008F004FB002891D187A808F0FFFA002832
:1015F0007FF48CAF284600F096FB00287FF486AF7E
:1016000005F120048AA805210522234600F0D6FD15
:1016100000287FF47BAF1F2062A9421C04D0325CFB
:10162000013801F8012BF8E78299919808F0FEFA49
:1016300000287FF46BAF8399929808F0F7FA00289E
:101640007FF464AFDAF80010939808F0EFFA0028FE
:101650007FF45CAFDAF80410949808F0E7FA0028F9
:101660007FF454AF959862A9202208F0D3FA00289D
:101670007FF44CAF95982246014608F069FB00289C
:101680007FF444AF829800F07FF800287FF43EAFEB
:10169000839800F079F800287FF438AF8298594693
:1016A00000F076F800287FF431AF83980BF1200129
:1016B00000F06EF800287FF429AF82A9284600F0D8
:1016C0007FF800287FF422AF85A8202108F078FA5F
:1016D00000287FF41BAF8AA885AA0021012300F00F
:1016E000D3FD00287FF412AF859800F04DF8002854
:1016F0007FF40CAF86A85AAA2021202308F06AFAAA
:1017000000287FF403AF01A8202108F059FA00282F
:101710007FF4FCAE08F1200288A82021202308F0E5
:1017200059FA00287FF4F2AE889BDDE98512019812
:1017300008F0D8FA00287FF4E9AE859852A9202253
:1017400008F068FA00287FF4E1AE889B019ADDE991
:10175000851008F0AFFA00287FF4D8AE889ADDE94A
:10176000850108F0CBFA00287FF4D0AE85980BF104
:10177000400100F00DF8C9E6034E4B5A2E960000CA
:101780000ABA01BA104670472246014608F0ECBA80
:10179000202208F05FBAB0B50D460168044628461D
:1017A00008F00EFA20B92168281D08F009FA00B1E6
:1017B000B0BD216805F10800BDE8B04008F000BAEE
:1017C00010B508460C4608F011FA18B9201D08F0AB
:1017D0000DFA00B110BD04F10800BDE8104008F09A
:1017E00005BAF8B50F461446054643680968406BCC
:1017F0007A6808F05FFA002854D1D5E90C0105F1A8
:10180000200600F0FDFB00284CD13968686B00F021
:10181000F7FB002846D17968A86B00F0F1FB00289F
:1018200040D1A9696A6BE86B00F0E4FBD0BB6B6840
:10183000D5E90E21286C08F03DFA98BBB968A86C70
:1018400000F0DEFB70BB6B68E86A296CAA6C08F0DC
:101850003DFA38BB6B68E96AD5E9122008F036FA20
:1018600000BB05F12C026B6807CA08F02FFAC8B953
:101870006B68D5E90B10AA6B08F028FA90B92A6BAF
:10188000E96C206800F0B6FB60B96B68D5E90D0221
:10189000E96B08F01BFA28B96A6B296C606800F0E4
:1018A000A9FB00B1F8BD296CEA6CA068334601B011
:1018B000BDE8F04008F064BA2DE9F041064617464D
:1018C0000C4692688968C06A984606F1200500F0C7
:1018D00094FB00287DD1D6E90B102B460A4608F070
:1018E0004FFA002875D13A682168706B00F085FBCB
:1018F00000286ED17A686168B06B00F07EFB00282A
:1019000067D1D6E90D12F06C00F077FB002860D1AA
:10191000F269F06BF16C00F070FB002859D173682C
:10192000316BD6E90F2008F0D1F9002851D1736846
:10193000316BF26B706C08F0BDF9002849D1D4E925
:1019400000127368B06C08F0B5F9002841D1D7E9EE
:1019500000127368F06C08F0ADF9D0BB306BD6E9BB
:10196000121200F04AFBA0BB7368D6E90C12B06CEF
:1019700008F0ACF968BB7368B26BD6E9121008F0D6
:10198000A5F930BBD6E90B10F26C00F036FB00BBBA
:10199000326B316CD8F8000000F02FFBC8B9B16988
:1019A000D6E90C0200F029FB98B97368326BB16B71
:1019B000F06C08F08BF960B9306B716CF26C00F070
:1019C0001CFB30B9D6E90B12D8F8040000F015FB67
:1019D00008B1BDE8F081D6E91012D8F808002B460E
:1019E000BDE8F04108F0CCB9F8B505460F46052032
:1019F00009681446009005F12006E86A0A4600F0DE
:101A0000F9FA00B1F8BD7968286B00F0F9FA0028FE
:101A1000F8D1D5E90B12686B00F0ECFA0028F1D18F
:101A2000A969EA6AE86B00F0E5FA0028EAD1E86BF8
:101A30006B682A6B014608F03DF90028E2D1E9699C
:101A40006A6B286C00F0D6FA0028DBD16B68AA6AB2
:101A5000A86B296C08F02EF90028D3D1A86B324668
:101A6000014608F081F90028CCD1E86B32460146E6
:101A700008F07AF90028C5D1D5E90E016A4608F0C8
:101A8000F5F80028BED10098B0FA80F04009207027
:101A90000020F8BD2DE9F04DD2B00446022922D035
:101AA000012940F0E7802020202220604AAF7449BD
:101AB0003846794408F0DBFB42AE724920223046BA
:101AC000794408F0D4FB70490DF1E80A2022504611
:101AD000794408F0CCFB32AD6C4920222846794489
:101AE00008F0C5FB2DE02020202220602AAF6849A5
:101AF0003846794408F0BBFB22AE664920223046C6
:101B0000794408F0B4FB64490DF1680A202250467C
:101B1000794408F0ACFB12A8604920220190794476
:101B200008F0A5FB5E490DF1280B202258467944A8
:101B300008F09DFB02AD5B4920222846794408F05D
:101B400096FB04F1040820213A462023404608F081
:101B500041F8002840F08F8020462A4650F8081BA4
:101B60000B4608F037F8002840F0858004F1200586
:101B70002021284608F0D8F800287CD1D8F8001099
:101B8000284608F0DBF8002875D1274657F8281BAF
:101B9000384608F015F800286DD13868012108F0A2
:101BA0004FF8002867D1386800F02EFA002862D17B
:101BB00004F10C0720463946FFF7EDFD00285AD105
:101BC000019920465A463B4600F06EF8002852D153
:101BD0002746324657F8181B38460B4607F0FAFFDF
:101BE000002848D1386800F00FFA002843D1264673
:101BF000524656F81C1B30460B4607F0EBFFD0BB95
:101C0000306800F001FAB0BB204650F82C1B07F0FA
:101C1000D7FF80BB204650F8301B07F0D1FF50BBE8
:101C2000204650F8341B07F0CBFF20BB204650F86D
:101C3000381B07F0C5FFF0B9204650F83C1B07F0F1
:101C4000BFFFC0B9204650F8401B07F0B9FF90B95C
:101C5000204650F8441B07F0B3FF60B9204650F807
:101C6000481B07F0ADFF30B954F84C1B204607F075
:101C7000A7FF00E0014852B0BDE8F08D014E4B5A7D
:101C8000E28D0000548F0000048F0000768E00006B
:101C9000628F0000B48E0000248F0000568F000079
:101CA000668F0000388E0000FEB506681C46174699
:101CB0000A46054602A83146334607F08BFF00B1BD
:101CC000FEBD01A831463A46334607F083FF00289F
:101CD000F6D16846314607F073FF0028F0D105F1D0
:101CE000200620680299324608F032F80028E7D131
:101CF00060680199324608F02BF80028E0D1A96A03
:101D0000A06807F093FF0028DAD102A807F06EFF61
:101D10000028D5D101A807F069FF0028D0D1684676
:101D200007F064FFFEBD10B504462C3007F05EFFDF
:101D3000D8BB04F1300007F059FFB0BB04F1340008
:101D400007F054FF88BB04F1380007F04FFF60BB79
:101D500004F13C0007F04AFF38BB04F1400007F0F3
:101D600045FF10BB04F1440007F040FFE8B904F15F
:101D7000480007F03BFFC0B904F14C0007F036FF04
:101D800098B904F10C01FFF71BFD70B904F11800BC
:101D900007F02CFF48B904F11C0007F027FF20B919
:101DA00004F1280007F022FF00B110BD04F1080083
:101DB000BDE8104007F01ABFB0B5054608680C46EC
:101DC000002107F03DFF18B9A96A00F021F900B120
:101DD000B0BDA96AA068BDE8B04007F027BF2DE9F3
:101DE000F041984616460F46054600F01EF898B991
:101DF00005F120043968E86A224607F0B5FF58B9B2
:101E00007968286B224607F0AFFF28B92A68E86A8C
:101E1000314607F01FFF08B1BDE8F0812A68286B42
:101E20004146BDE8F04107F015BF70B505460C46C8
:101E30008968C06A05F12006324607F0BDFFD0B9B7
:101E40002268D5E90B1000F0D5F8A0B96268E96AFC
:101E5000686B00F0CFF870B9A268E96AA86B00F06F
:101E6000C9F840B9296B206807F0E0FE18B9696B22
:101E700000F0CEF800B170BDA96BA068BDE870405D
:101E800007F0D4BEB0B50C4605460168206807F0DF
:101E9000CDFE18B9696800F0BBF800B1B0BDA96803
:101EA000A068BDE8B04007F0C1BEF8B50E460168B5
:101EB000074618461C46154607F082FE50B9396899
:101EC000201D07F07DFE28B9396804F1080007F0ED
:101ED00077FE00B1F8BD384631462A46234601B0A8
:101EE000BDE8F040FFF7E0BE2DE9FF4D07460020BA
:101EF0008846154600219B4603908DF80B0010681C
:101F000003AA07F0BFFE38BB0398D0B1286801A927
:101F100007F076FE00BB02204FF0FF310DF10B04FD
:101F20003865019801EBC006002001280FD0286811
:101F30003146224607F0B2FE70B99DF80B00013E13
:101F4000F3E738465946FFF737FF28B9DEE7404642
:101F50005946FFF797FF10B104B0BDE8F08D01209E
:101F60000DF10B0AC7E91406002E20D43846594655
:101F70005A46FFF736FC0028EED1386D31465246FE
:101F800040003865286807F089FE0028E4D19DF8F4
:101F90000B0050B13846594642465B46FFF78CFC71
:101FA0000028D9D1386D01303865013EDCE70020CA
:101FB000D2E70000BCB50C46016899423CBF0C4812
:101FC000BCBD0546CA20286501A807F003FE00B184
:101FD000BCBDB320069B2146286501AA2846FFF711
:101FE00083FF0028F4D101A807F000FEBCBD00BFAC
:101FF000014E4B5A334607F0C3BE2B4607F0C0BE16
:1020000033460A4607F0BCBE2A46014607F0A0BE8A
:10201000606807F00BBE0000B0B5C26890E81A0017
:102020005FEA52054FEA3402E407C560DD0744EA7F
:10203000530445EA51054460154C05602140154C98
:10204000234019440C0C44EA034443EA134321445B
:102050000C0A44EA036483EA132361400C0944EA4E
:10206000037483EA131361408C0844EA837483EA9F
:10207000930361405FEA53034FEA3103594001F093
:10208000010182EAC132826008460021B0BD00BF72
:1020900001208000400008402DE9F8450C46054627
:1020A0004FF0000A4FF000080027A74215D228463B
:1020B000FFF7B2FF06462846FFF7AEFF10EB4600DB
:1020C0008107F2D500F001004FEA4801013740EAEC
:1020D0004A0041EADA788246E7E750464146BDE8E1
:1020E000F8850000B0B5094A094B0446A025002038
:1020F0004FF6FF71C4E90210C4E9003225B1204651
:10210000FFF78AFF013DF9E7B0BD00BF10F0FCFF0B
:1021100002FC01182DE9F041204F224E05460C46E5
:102120000020B8461E4F7E44F8B928463E21B047ED
:10213000C4E9000128464021B047C4E9020128460D
:102140004021B047C4E9040128464021B047C4E912
:102150000601D4E900013A46C01B404671EB080075
:102160004FF0000038BF0120DEE7D4E900010E4D3A
:102170007D44A847C4E90001D4E90201A847C4E9A5
:102180000201D4E90401A847C4E90401D4E9060125
:10219000A847C4E90601BDE8F08100BF4E4B5A30A4
:1021A0002221584F6FFFFFFF390000000ABA01BA21
:1021B00010467047C030FFF7ADBF00002DE9F04179
:1021C000ADF5906D0446C0301E4617460D46FFF72C
:1021D00089FF2C49E8464FF490624046794408F064
:1021E00046F80020257366612146C4F8D000781CAB
:1021F000C4E90170306807F003FD30B9204650F89B
:10220000D46B314607F0DCFC18B10DF5906DBDE8DC
:10221000F081A0680025854230D204EB8507314665
:1022200007F1180007F0CCFC0028EED107F1D80028
:10223000314607F0C5FC0028E7D10027A068874297
:102240001AD205FB00703146334600FB068204EBD0
:102250008000303007F0BEFC0028D6D1A06862694B
:1022600005FB007004EB8000006B014607F070FD79
:1022700001370028E2D0C8E70135CCE70120206112
:102280000020C2E7188A00002DE9F04D8CB0064608
:102290000069012840F0B480B0691F46924607F0FB
:1022A000CFFC002840F0AD8006F10C0006F11808C4
:1022B00006F1C00B01900020442800F0AE80346885
:1022C000CDE9020A4FF0000AB068824524D204AD7D
:1022D00058462946FFF71EFFD6F8D8002946224661
:1022E00007F098FC002840F08C80D6F8D80072697E
:1022F000014607F02DFD002840F08380726958F8F0
:102300002A00D6F8D8101368024607F0D3FC0AF169
:10231000010A0028D8D074E00299042901D3402989
:1023200023D3DDF80CA0002484422BD258F82410CB
:102330007369D6F8D8000A4607F022FD002860D15C
:10234000D6E9361073690A4607F01AFD002858D1FD
:1023500058F824007369D6F8DC20014607F010FD18
:1023600000284ED1B0680134DEE7D6E90510019AA5
:1023700001230091014607F00FFDDDF80CA00028B5
:102380003FD1B0680025854229D206EB85040021A3
:1023900054F8D80F07F054FC98BB03950025B0689B
:1023A000854219D20399736901FB005058F8251032
:1023B00006EB8000026BD6F8D40007F0E1FC00BB0E
:1023C00071692068D6F8D4200B68014607F072FCCA
:1023D00001350028E3D014E0039D0135D3E7002444
:1023E00084420AD206EB84018869D1F8D81007F03C
:1023F0001DFC30B9B0680134F2E7029801305BE7A8
:1024000008480CB0BDE8F08D58F8041B5AF8040BCE
:1024100007F00CFC013F0028F3D1002FF4D100207D
:10242000EFE700BF024E4B5AB0B5304919F8012012
:10243000824208D100284BD009EB01035A680132CF
:102440005A60034606E042EA000409EB01025268C2
:1024500020B123461C4609F8013007E0002309EBB0
:10246000010564F07F0409F801306B6083421EBFF0
:1024700009EB010000214160082A0AD30320B2FBC6
:10248000F0F000EB4000101A08BF44F0400404F0E4
:102490007F0402F09FFED8B1014611F8322F4B782D
:1024A0008D78C97842EA032245EA012142EA0142D5
:1024B00072B1E1B283290CD041290CD042290CD051
:1024C00081290CD082290CD0032901D1052109E0F2
:1024D000B0BD042106E0022104E0032102E0002156
:1024E00000E00121BDE8B040104700BFE803000054
:1024F0002DE9F04D8AB08B4606460129069204D894
:102500007248784410F80B7004E0BBF1FF0F40F004
:10251000DA80002706987178B278F3788DF8240075
:10252000307842EA0322B379ADF81E20F27940EA0E
:1025300001203179384443EA0222ADF81C00707959
:10254000ADF8222041EA0020A0EB4700ADF82000C2
:1025500007A807F0C5FABBF1FF0F00F0B480307890
:1025600071783546B0467C000DF11C0AADF820703C
:1025700040EA0120ADF81C0015F8020F697840EA26
:1025800001203844ADF81E0018F8060F98F8011025
:1025900040EA0120001BADF82200504607F0A0FAE7
:1025A0002878697832797379ADF8207040EA012093
:1025B00098F801103844ADF81E0098F8000040EA81
:1025C00001207178001BADF8220000F05FFBADF830
:1025D0001C00504607F084FABBF1000F73D0B246DE
:1025E000317ADDF8188096F9010033781AF802CFB5
:1025F00043EA002001239AF901200291CDE90088E5
:102600003844334C4CEA02215A4639447C44A047B2
:10261000304696F901C032789AF901509AF800E0F4
:10262000059410F8043F04904178307ACDE9008891
:10263000029043EA012042EA0C215A460023C91BBA
:1026400008444EEA05213944A04734469AF901E08E
:102650009AF800C0317A96F90150327814F8063FA2
:10266000607802914CEA0E21CDE90088C91B43EA4B
:1026700000200223014442EA0520059D5A463844C1
:10268000A8470499327894F800C094F801E09AF9C8
:1026900001309AF8004008784D7896F90110367AA2
:1026A000CDE9008842EA012140EA05204CEA0E22E9
:1026B0000296C91B084444EA0321059C0323C91B55
:1026C00011445A46A0470AB0BDE8F08D728B000055
:1026D000C50000007FB51C4600230A9D012A8DF825
:1026E0000D3001938DF80C5037D81D4EDDE90835BB
:1026F0007E44B25CADF80820ADF80A2064B1012C2C
:1027000014D0022C1BD0032C28D100F0C7FA154896
:1027100015497844794419E0ADF80400881AADF8F9
:10272000060014481449784479440FE0891A801A45
:1027300000F0B4FA114812497844794406E0801A4E
:1027400000F0ACFA09480A4978447944AB4208BF22
:10275000014601A8002207F0CBF97FBD0021F8E770
:1027600084890000648900006489000032890000C7
:102770003289000058890000588900004A89000009
:102780004A8900002DE9F04D8CB00646904601299B
:102790000846089104D8B54808997844475C04E095
:1027A0000898FF2840F05E810027DDF850B08DF8D2
:1027B0002C305B451ED1307A98421BD1307871782D
:1027C000B278F37840EA01203179ADF8240042EA8A
:1027D0000320ADF82600707941EA0020B179ADF808
:1027E0002800F07941EA0020ADF82A0009A807F096
:1027F00077F937E1307971797D00069340EA01205D
:10280000B0EB470F18D9B278F378401B7178ADF868
:102810002800307842EA0322B379ADF82620F27915
:1028200040EA0120384443EA0222ADF82400ADF822
:102830002A2009A807F054F90898079501282AD8F2
:10284000B079F17940EA0120854224D2401B7178A9
:102850003446ADF82870ADF82A00307840EA0120FF
:1028600000F00CFA3844ADF8260009AD284607F010
:1028700037F9207861783279737940EA01207178EC
:102880003844ADF8260000F001FAADF824002846DF
:10289000079D07F025F930787178344632797379DD
:1028A0008DF82CB00DF1240BADF82A80059740EA85
:1028B0000120384400F0E2F9ADF8260042EA032096
:1028C000401BADF82800584607F00AF935466278F3
:1028D000079F15F8060F697840EA0120217841EA40
:1028E0000221A1EB08010844ADF82600584607F084
:1028F000F7F82878697840EA0120874229D21499AC
:10290000C01BB278F378ADF82880ADF82A00307893
:102910008DF82C10717840EA01200599ADF824005B
:1029200042EA03200844ADF8260009AC204607F02F
:10293000D7F8307871783279737940EA012042EA29
:102940000321A0EB08000844ADF82400204607F05E
:10295000C7F80898DDF818B0012800F283803546E2
:10296000347A149996F901003378DDF814A015F83B
:1029700002CF43EA0020012395F90120CDE9001B95
:10298000029450443A4C089F4CEA022151447C4442
:102990003A46A04795F90100A0460794344696F9B7
:1029A00001E03278149B14F804CF04902878617801
:1029B0000390307ACDE9003B002302904CEA0120DD
:1029C00042EA0E21A1EB0A010844DDE9032142EAB3
:1029D00001213A465144C04796F901003A4637462C
:1029E000317A95F8008096F800E0149B17F806CF2E
:1029F000049095F90100039078780291CDE9003BAD
:102A0000022303994CEA002048EA0121DDF81C80EA
:102A1000A1EB0A01014404984EEA00205044C0474B
:102A200097F800C097F801E096F9017031782078A6
:102A3000647895F901302D78149A367A41EA0721A5
:102A400040EA0420CDE9002B4CEA0E220296A1EBCD
:102A50000A01084445EA03210323A1EB0A011144BA
:102A6000089AC0470CB0BDE8F08D00BFDA880000BE
:102A700043FDFFFFF0B514460A4613F8061F13F88E
:102A8000015C5E789F78DB7841EA062147EA032300
:102A900041EA03413DB1064A09EB02032246BDE883
:102AA000F04007F045B82346BDE8F04007F020B8F5
:102AB000340400002DE9F04D90B0044690F80080F9
:102AC000467818469B461746ADF83A200F9100F01D
:102AD000EAF80546207A05940DF13C0A0DF12F0421
:102AE0008DF8380068798DF8390048EA06200DF134
:102AF0003A060A90002F00F0BC805046314622462C
:102B000000F0D3F880469DF82F0010B1BDF83A7060
:102B1000F0E7B8F1080F30D0B8F10C0F00F0A98041
:102B2000E87A8045F2D3297B8845EFD82969A8EB5C
:102B3000000001EBC00006F0A3FF074600686969CA
:102B4000084406F09DFF09907F68687A95F806C0F2
:102B5000C7F3450210B3C7F34550C7F3C521ACEB2B
:102B6000000CC7F34340131AA87A08440790C7F330
:102B7000C3100690002004901CE05FFA8BF0082838
:102B800005D00A28C2D14FF0080B082002E04FF010
:102B90000A0B0A2000F087F80546B7E73820C7F38C
:102BA000C221134600EA1710084404900020069042
:102BB00000200790E97A5FFA88F00892814202D8F3
:102BC0002A7B824231D29846002206990A98DDF883
:102BD0001CE00844ADF83000ACEB0E00ADF8360058
:102BE000A8EB01000599ADF834008878C97840EA6F
:102BF00001207044ADF832004AB117F0010006D14F
:102C00000CA80999189B002206F072FF06E00498B0
:102C1000189B00900CA8099906F078FF0A9808996B
:102C20000844297A401A0A9070E7A0EB01019846FF
:102C300013D9286989B2CDF80CC0019100EBC1000D
:102C400006F01EFF02902869019900EBC1000830D0
:102C500006F016FFDDE9021C06E08242B4D188B21C
:102C6000296901EBC001284609680068401A82B250
:102C7000ABE75FFA8BF010B0BDE8F08DADF8240043
:102C800014F8020F617840EA01207047307840EA7A
:102C9000012042EA0321C01B08447047ADF806102A
:102CA000ADF80400704706F05BBFF0B5046801257D
:102CB000264616F8013B1570F02B15D30D88042D10
:102CC00015D34FF4E012A678E77802EA83426378DE
:102CD00003F03F0342EA033206F03F03261D42EAB7
:102CE000831207F03F030FE0E02B0FD30D88032D75
:102CF0000FD362781B03A6789BB202F03F0243EA2F
:102D0000821206F03F03E61C13440EE00D88C22B2E
:102D100009D3022D07D36278A61C02F03F0263F3A9
:102D20008A12134601E0002717700660A01B284492
:102D300008801846F0BD01224FF6FF7300F000B87E
:102D40002DE9FF4D1C4601920F4605460391FFF702
:102D5000AAFF0646384607F0E1FAA04238BF04460B
:102D6000ADF80A40A0B20DF10C0A0DF10A0B0DF1FD
:102D700009074FF00008002458B3504659463A4618
:102D8000FFF793FF0A280AD0014608280CD1E8B2C1
:102D9000082816D00A2819D10825082013E0019820
:102DA000B8B94FF0000811E09DF80920304600F056
:102DB00019F88044A1B21FFA88F0884288BF4446BF
:102DC00004E00A250A2006F0CBFE0646BDF80A00FC
:102DD000D2E7A0B204B0BDE8F08D00224FF6FF7339
:102DE000FFF7AEBF10B532B90446C07A884202D8A8
:102DF000227B8A4202D20020C0B210BD081A21698B
:102E000001EBC00006F03CFE0079217AC0F34500DA
:102E1000401AF1E780B5FFF746FF807980BD80B5A5
:102E2000FFF741FFC07980BD10B50021012241F2BA
:102E30000143445C0C2C05D802FA04F41C421CBF6C
:102E400088B210BD0131F4E72DE9F04D86B01C4683
:102E500003920F4606460591FFF725FF05463846C3
:102E6000FFF7E2FF804600200E9F00210DF1110BBD
:102E700002900020ADF812803980218001905FEA35
:102E8000084051D005A80DF112015A46FFF70DFF79
:102E9000082829D082460C283FD0BAF10A0F3CD02E
:102EA0009DF8112028465146FFF79CFF40B30F992B
:102EB00049B1BAF1200F18BFBAF15F0F29D1398893
:102EC0000291218801913988039A014491422ED8B8
:102ED000BDF812102388A8EB010288461A4422800C
:102EE0003A8810443880CAE7F0B20A2803D008288C
:102EF00006D10A2600E00826304606F031FE0546D7
:102F0000BDF812002288A8EB000180461144218000
:102F1000B5E7BAF12D0FD2D0D5E7BDF81200218860
:102F2000A8EB00000844208006B0BDE8F08D0F98A3
:102F300002990028F8D00029F6D0019801302080AD
:102F40003980F1E72DE9F04D86B01D4602920E461C
:102F500007460591FFF7A7FE04463046019607F0A5
:102F6000DDF9DDF83CA0ADF81200002180B24FF091
:102F7000000B4FF000080391002866D0280464D0AD
:102F8000059E05A80DF112010DF11102FFF78DFE4E
:102F90000146BAF1000F12D0A1F10800182805D897
:102FA000012202FA00F02F4A104203D15F2901D01A
:102FB0002D2904D1BDF81200DDF814B003900829C2
:102FC0001DD00A2923D00C293ED09DF8112020467F
:102FD000FFF708FFA8B31FFA88F100EB0108029879
:102FE00080452ED9BAF1000F18BFBBF1000F1ED1DA
:102FF0000598BDF812100596801B08441CE0F8B235
:1030000008280ED00A281CD1082708200BE0013D13
:10301000280414D105984FF00008002501380590C8
:103020000FE00A270A2006F09BFD044609E00398FA
:10303000CDF814B04FF0000BADF81200013D4FF089
:103040000008BDF8120097E7002505980199401A7D
:103050000E990880A8B2B0FA80F0400906B0BDE829
:10306000F08D00BF150000012DE9F04D1C46904683
:103070000E46FFF718FE82463046FFF7D5FEDDF814
:1030800020B007460020ABF8000020803D463FB34B
:103090006F1EB8B2305C0A281FD09AF80B10884215
:1030A000F4D39AF80C209042F0D8401ADAF81010B5
:1030B00001EBC00006F0E4FC4068BBF80010C0F370
:1030C0004500014441450BD8218801312180BBF8DE
:1030D00000100844ABF80000D8E720880130D4E79E
:1030E000002D18BF01252846BDE8F08D2DE9FF4DC4
:1030F0001C4600920D4606460391FFF7D4FD074695
:10310000284607F00BF90021ADF80A0080B24FF015
:10311000000B4FF000084FF0000A0191002856D034
:10312000039D03A80DF10A010DF10902FFF7BDFD92
:1031300001468CB1A1F10800182805D8012202FA35
:1031400000F0284A104203D15F2901D02D2903D174
:10315000BDF80A00AA460190082921D00A2927D0E3
:103160000C2934D09DF809203846FFF73BFE58B3B0
:103170001FFA8BF100EB010B00998B4524D95CB150
:10318000BAF1000F08D00198ADF80A000AF1010069
:103190004FF0000A0390002008F10108834613E075
:1031A000F0B208280BD00A280ED10826082008E023
:1031B00008F101084FF0000B4FF0000A04E00A2666
:1031C0000A2006F0CDFC0746BDF80A00A6E75FEA34
:1031D0000B4018BF08F101081FFA88F004B0BDE8E1
:1031E000F08D00BF150000012DE9F04D86B0CDE94E
:1031F00000320C4605910390FFF755FD02902046E2
:1032000007F08CF8ADF8120080B200260DF111071E
:103210004FF0000B4FF0010800254FF0000A002886
:103220006ED0059C05A80DF112013A46FFF73DFD51
:1032300001460838182814D8012202FA00F0334A4F
:1032400010420ED0BDF812A02546082924D00A2924
:103250000CD00C292AD108F1010800264FF0000BF0
:1032600048E05F29EED02D29ECD0EEE70BF1010B01
:1032700001991FFA8BF0401ABDF81210B0FA80F0D5
:103280004009002918BF0121084018BF4FF0000B6A
:103290008044002600252DE00398C0B2082823D0E2
:1032A0000A2827D108200390082020E09DF811204B
:1032B0000298FFF797FDE8B1B1B2461800998E4227
:1032C00018D925B1681CADF812A0059000200BF1AB
:1032D000010B019A1FFA8BF191420ED108F10108FE
:1032E0004FF0000B0646D5E70A2003900A2006F0AF
:1032F00037FC0290BDF8120091E700250646F9E779
:103300005FFA88F006B0BDE8F08D00BF150000013F
:103310002DE9F04D88B09A4614460E460746FFF751
:10332000C2FC8346304606F0F9FF454980463846E0
:103330007944FFF752FD5FEACA7150D0CDF81CB056
:103340004FF0010B201A2546DDE9101206910BEB18
:103350005A010391022190FBF1F04FEA5A014FF01C
:10336000000A80B2029001911FFA88F110464FF0D6
:103370000008CDE9042182454FF0000038BF01204C
:103380008A454FF0000138BF012101EA000414B35F
:1033900016F80A70079800223946FFF723FD90B10E
:1033A0001FFA88F100EB0108A84504D90BF1010BC5
:1033B0004FF00008EBE703995FFA8BF0814202D1EE
:1033C000029880450ED8069800F80A70DDE90401DD
:1033D0000AF1010ACFE70699002001F80A0008B0B7
:1033E000BDE8F08D06992E20002401EB0A0801F8B3
:1033F0000A0088F8010008F8010CDDE9011001FB62
:1034000005070598002506EB000A079EA0B2874233
:103410000AD90AEB0500002210F8011C3046FFF71C
:10342000E1FC0444013DF1E70AEB050108F102006B
:10343000C5F10102013108B0BDE8F04D06F017BF3B
:10344000EB73000070B50546007848B1194809EBE8
:1034500000018A7B52B14844817E51B1002426E0AC
:10346000144809EB00040020A07004E001F10C04F2
:1034700001E000F1180400202646A060206046F814
:10348000040F686806F0FCFAA060287805F10802CD
:103490002070094B7B4420B13046072101F05EFFCC
:1034A00004E03046072101F0A1FE002060702046B4
:1034B00070BD00BFF003000025000000B0B590F81B
:1034C0003E20114802235C1C1DD0DCB209EB000534
:1034D00004EB440405EB84056D78AA4205D109EBA1
:1034E000000505EB8405AD780DB9013BEBE709EB71
:1034F000000202EB840292682AB1484400EB840087
:10350000BDE8B0401047B0BDF003000070B5002822
:103510004DD00D4649780446C80722D06178022074
:1035200001F090FD2A786978234B244E002A7B44D1
:103530007E44024608BF1E4602F8216F330ED37048
:10354000330C9370320A80F822206268A37842F824
:1035500023000322C2770422827500224272581C83
:10356000A07088074FF0000623D56178022001F093
:1035700069FD2978124A134B00297A447B4401469D
:1035800008BF134601F8213F1A0E4672CA701A0C82
:103590008A70190A80F822106168A27841F8220026
:1035A0000321C17706218175501CA07001E04FF006
:1035B000FF36304670BD00BF586F0000956F0000A9
:1035C0003D6F0000FC6E0000002800F035812DE901
:1035D000F04D88B00E4641780546012017461C463E
:1035E00001F030FD80460320002F08BF01206978DC
:1035F00088F8200001F088FD4146020E4FF0720A63
:103600004FF0000B049701F8220F88F804A088F807
:1036100005B0CA70020C000A88F823008A700420E2
:10362000697801F00FFD07460320F877304606F071
:1036300027FA0146082087F804A087F805B003940C
:103640004FF0010A002C08BF0A2087F8220005224B
:103650000B0E87F820203A4602F8261FD3700B0C79
:1036600093700A0A012387F827207222FFF73EFD94
:103670000646052805951DD33E4604200DF11E057E
:1036800016F8261F7278B378F47806F8010C16F84D
:10369000040C0095059DCDF804A041EA022143EAFF
:1036A0000422042300F060FCBDF81E003071000A03
:1036B0007071042600F060FC8346022087F824A085
:1036C000049CB8759BF80700002C06FB00FA4FEA33
:1036D0001A2087F806A0F871404610F8221F427899
:1036E0008378C07841EA022143EA002041EA0040A1
:1036F000076000F0068103986978022840F09E80F8
:103700000520052501F09EFC0026074680F8216073
:103710000120ADF81A60ADF8186000F03CFC2046BE
:1037200006F0AEF901460E20FE71BD7500F0F1FB0A
:10373000652840F2D680BB4697F8265097F82300BC
:1037400001241BF8251F9BF802209BF8033041EA57
:10375000052106AECDE9006442EA03220DF11A0309
:1037600041EA02416622FFF76FFBBDF81840BDF841
:103770001A60554604F10C003871000A78716B48E4
:10378000132E28BF13269BF800109BF802209BF8ED
:10379000033009EB000A97F8260041EA002042EACC
:1037A0000321324640EA0141504606F060FD002008
:1037B0000AF80600B87601208BF800A078764FEA68
:1037C0001A60002C8BF803004FEA1A408BF80200B5
:1037D0004FEA1A20AA46059D87F82600404610F8B1
:1037E000221F42788378C07841EA022143EA002010
:1037F00041EA0040476000F0828069780520052694
:1038000001F020FC00250746049980F82150012092
:1038100000F0C1FBBDF81A00084406F031F901467A
:103820000E20FD7100F075FB0C300F21BE75387154
:10383000000A787102205AE000F0AABB00F099FB60
:1038400003260746C677204606F01AF9014672207D
:1038500000240123387101200A0E7C7187F82400AE
:103860000A2087F8220000F065FB04281ED33D469D
:1038700015F826CF05F8016C15F8040C95F801E051
:10388000AB78E97807AA00920122019243EA01216C
:103890004CEA0E22032342EA01417222FFF752FB57
:1038A000BDF81C002871000A6871032003990029E3
:1038B00008BF06469BF80700BC76BC7506FB00F106
:1038C00006FB00A0B971090AF971022100F1020A90
:1038D0007976052187F82010414600F038FB4F60CB
:1038E0000FE00C3008213871000A787101200022A5
:1038F00079764146BA7600F02AFB41F820700AF149
:103900002C0A6868A978052288F816204FEA1A223E
:1039100040F821800020013188F806A088F80720AF
:1039200088F81F00A97008B0BDE8F08D14040000ED
:1039300000284FD02DE9F04D0C46054600274FF0EA
:10394000050B4FF003084FF0000A207982453ED264
:103950006079032802D3811E514535DC0230504581
:1039600032D3697800F005FB216806465FFA8AF0D9
:10397000884761790A228A4508BF082286F82220F2
:10398000F771777186F820B086F8217086F816B046
:1039900086F81F803246030E02F8260FD370030C00
:1039A000000A937086F827006868AA7840F82260B9
:1039B0000C20B07172203071AAEB010001090001E6
:1039C0007076501CB176A8700AF1010ABDE700209C
:1039D000BDE8F08D00F0DCBA002800F0D9802DE9B8
:1039E000F04D86B00C4641788246012001F02AFB5A
:1039F0009AF8011080460320032701F085FB414619
:103A0000020E4FF0000B049401F8220F88F820B04A
:103A1000CA70020C000A8A7088F82300A068C0B33C
:103A20009AF80110022001F00DFB0646C777A06846
:103A300006F026F83146020E86F813B086F809B073
:103A400001F8210FCA70020C8A70010A86F8221050
:103A5000314601F812BF81F803B081F802B0414647
:103A600011F8222F4F788C78CD7811F8023C42EA79
:103A7000072244EA052442EA0442049C42F82360F7
:103A80000222B2755A1C01F8022C8178C07841EAF2
:103A9000002B2068002800F0A2809AF8011000F0A6
:103AA00068FA07460320F877206805F0E9FF014629
:103AB00072200025387105200A0E7D7187F82000DC
:103AC000012087F82400384600F8261FC2700A0C2F
:103AD0008270080A87F827000820627B002A08BF46
:103AE0000A2087F8220072220123FFF7FFFA064618
:103AF00005281ED33D46042001210DF1160415F8BA
:103B000026CF6A78AB78EE7805F8010C15F8040C2E
:103B100001910094049C4CEA022143EA062204230A
:103B200000F022FABDF8160004262871000A687118
:103B3000002500F021FAC07987F821507043010A6E
:103B4000B871F971A16829B3414611F8222F4C7858
:103B500011F8023C8D78C97842EA042245EA012135
:103B600042EA01413A4601EB830151F8041C02F894
:103B7000121F0B0ED3700B0C090A517000219370A9
:103B80001172032E38BF01218900D17108210AE08A
:103B900000F0FEB9616819B100F0F2F9022102E00B
:103BA00000F0EEF9052111714146584411F8222F19
:103BB0004C788D78CE7811F8023C42EA042245EA2E
:103BC000062442EA0442049C42F823705A1C01F87D
:103BD000022C797EBA7E41EA022100EB010B60687B
:103BE000002874D09AF801100420CDF80CA001F040
:103BF00029FA03260746C677606805F041FF0146AB
:103C000000200123787172200A0E38710A2087F88B
:103C10002200052087F82000012087F8240000F00A
:103C200089F9824604281CD33D464FF0010C15F853
:103C3000261F05F8016C6A78AB78EE7815F8040C4D
:103C400005ACCDE9004C41EA022143EA06220323F8
:103C500000F08AF9BDF814004FF0030A2871000A39
:103C6000687100F089F9414611F8223F4C788D784F
:103C7000CE7811F8022C43EA042345EA06243D4697
:103C800043EA044303EB820454F8044C05F8124F52
:103C9000260EEE70260C240AFC74AE7043F82270D7
:103CA0000223002401327B760823BC7687F821406A
:103CB000C079BB750AFB00F30AFB00B0DDE903A481
:103CC000BB711B0A01F8022C00F1020BFB71207B77
:103CD0000221002808BF052188F81610DAF8040030
:103CE0009AF80210722240F82180002088F80420FF
:103CF0004FEA1B22013188F806B088F8190088F8CD
:103D00001A0088F8050088F81F0088F807208AF84C
:103D1000021006B0BDE8F08D2DE9F04D002877D0F7
:103D20008B464178044600F024F94FF0030A06461A
:103D300080F81FA0DBF8000005F0A2FE014672200B
:103D400000254FF005080123307108200A0E757117
:103D500086F8208086F82200012086F8240030466C
:103D600000F8261FC2700A0C8270080A722286F8B8
:103D700027000820FFF7BAF9012849D896F8220051
:103D8000FFF74DF86268A3786178B576F57142F86F
:103D90002360B071022086F819A0B075581CA0707D
:103DA00000F0E7F8074680F81FA0DBF80400722651
:103DB00005F066FE7D713D460A213E7187F8208040
:103DC00087F8221005F8260F010EE970010C000A91
:103DD00087F827000A20A970FFF721F801212A7827
:103DE000AB78ED7887F82410C1094000F97197F895
:103DF0002710B87197F8220042EA012143EA052210
:103E0000012341EA02417222FFF770F9022804D926
:103E10004FF0FF363046BDE8F08D6068A2786178DB
:103E200001250026BE7640F8227005207D76B87503
:103E3000501CA070052001F005F94FF0030A4FF067
:103E4000080880F8216080F82250074680F820A0FA
:103E500080F81FA080F823809BF808001E4A1F49A5
:103E600001287A44794408BF11463A460B0E02F8FD
:103E7000251FD3700B0C93700A0A87F8262001289F
:103E80003846174A174D7A447D4418BF2A4600F831
:103E90002D2F130EC370130C8370100A87F82E0099
:103EA0000820FEF79AFF6168A2786B78BE76FE71F3
:103EB00087F8168041F822700C2187F819A0B97193
:103EC000297841EA03210844511C0A303871000A5C
:103ED000A17078719EE700BF09680000DC680000EF
:103EE0007B6500006365000020B180B501F060F9DA
:103EF000002080BD00F04CB848B110B504460078F1
:103F000010B1607801F0AEFA0020A07010BD00F092
:103F10003FB8B87108200A0E87F82300384600F829
:103F2000251FC2700A0C8270080A87F82600082034
:103F3000FEF753BF384600F8261FC2700A0C827085
:103F4000080A722287F827000A20FFF7CFB811F875
:103F5000222F4B788D78C97845EA012142EA032265
:103F6000059D42EA0141704741EA02417222FEF793
:103F7000E9BF042001F066B897F82200FEF793BE6F
:103F800000213A4602F8121FD170917051707047AB
:103F90004FF0FF30704787F82200032087F8200099
:103FA000F877704770B5C17E024691B103461A4654
:103FB00013F80E4F5D789E78DB7844EA052446EAD4
:103FC000032344EA0343002BF1D1D37E0BB101223A
:103FD00004E092F83F20002A18BF0122064B19F88E
:103FE00003300BB102B970BDB1FA81F14A09002169
:103FF000BDE8704000F002B8280400002DE9F04D43
:104000000446C07E102800F2A9800E465449C140E3
:10401000C90767D154491546794451F8200005F085
:104020002FFD0346204631462A469847DFF834C123
:1040300094F90130277809EB0C0539F90C1047EA9F
:104040000327AE8872188F4207DA27EAE77129F84A
:104050000C102378677843EA0727B5F90230B5F8E2
:1040600006E0207965793FB240EA0520074410B2A6
:10407000874200DC1EB9802FA8BF80273A4694F9FA
:104080000300A5780EEB030645EA00279F4208DAF5
:1040900009EB0C0027EAE7734380A078E57840EA53
:1040A000052738B2A579E77945EA07252F1830B2F8
:1040B000874202DCBEF1000F03D1402FA8BF40278A
:1040C0003E4609EB0C00511A818031B24029A8BF4D
:1040D0004026F11AC180407A617A814284BF09EB9F
:1040E0000C004172E07E012838D8204610F8221FCB
:1040F00000F005FF90B300274FEA14684FEA144A16
:104100004FEA142B002594F82000874226D220463F
:1041100010F8221F00F0F3FE50F82760E6B1304699
:104120002946012286F80FB000F80E4F80F8038070
:1041300080F802A03046FFF761FF3146F07C11F8AD
:10414000122F42EA00208A78C97842EA012140EA27
:104150000140002808BF35460137D4E7BDE8F08D9F
:10416000C83E01002A04000070700000022000F028
:1041700001B8000070B50D4D014609EB05008088BF
:1041800098B109EB0500C08878B109EB050400225D
:104190000026204605F0DAFC7F20A680E68029F87C
:1041A0000500012060723F20608070BD2A0400007D
:1041B000014800F0E8BE00BF2A040000024980F078
:1041C000010009F801007047280400001FB5017ABA
:1041D00042788378C4788DF80C10017841EA022186
:1041E0000279ADF8041043EA0421ADF806104179D4
:1041F00042EA0121ADF80810C179807940EA012036
:10420000ADF80A0001A805F06BFC1FBD70B50446AF
:104210000AB100F0D5FE00F0E6FEC67C00F0DBFE41
:10422000097A00F8061C04D02046BDE8704005F06D
:1042300057BC70BDF8B50E46044610F8211F17464E
:1042400000F053FE5DB32878AA786978EB78207186
:10425000A2716171E3712879607227B120463146FD
:1042600000F08CFB607A21460128204611F80E2FC1
:104270004B788E78CF7842EA032246EA072342EA57
:1042800003422B46127A01F8062C14BFE27FE42287
:1042900094F8201001B0BDE8F040FEF7EBBB2046DB
:1042A00010F8251F00F048FE05D094F82900884733
:1042B00005460028C7D1F8BD2DE9F04D86B090F82D
:1042C000226004460AB100F07BFE204610F82C1F45
:1042D00000F032FE09D094F83000884705462046A9
:1042E00000F8265F00F086FE04E0204610F8261F46
:1042F00000F0FBFD002D00F03881224612F80E1F61
:1043000053789778D07892F813C041EA032147EAAE
:104310000020BCF1010F41EA0041087A02F8060CC6
:1043200019BF097A0A4600220321217220788DF8EC
:104330001420E378BCF1010F6178A27840EA0120F3
:104340002179ADF80C0042EA0320ADF80E00607947
:1043500041EA0020A179ADF81000E07941EA00209F
:10436000ADF8120003A804D100210322FEF7C0F823
:1043700001E005F0B5FB3046FEF74CFD80463046C7
:10438000FEF74DFD834694F82300002857D03046B1
:104390002946FEF7D0FC2179627941EA0222904257
:1043A00051D9734F30467F443946FEF716FD824699
:1043B000ADF8100020786178A278E37840EA012017
:1043C000A179ADF80C00E07941EA00200221A0EBD0
:1043D00008000DF10C0890FBF1F042EA03210322E2
:1043E000334608443946ADF80E00E07F0090404661
:1043F000FEF760FB207961790DF10A02009202ABB1
:1044000040EA01202946A0EB0A0082B23046FEF7BE
:104410002BFEBDF80A00ADF81000BDF80C005044AA
:10442000ADF80C002846FEF7FFFCBDF80820E17F40
:1044300094F82230801A00912918404693E02079A0
:10444000617940EA012294F8243030462946FEF78B
:104450004DFE237A94F82570ADF81280A179E279A7
:1044600094F821C08DF81430C3B241EA0221BB4256
:10447000034688BF3B46002F08BF0346DFB2781EC5
:1044800000FB0B804FF0000880B2081A022190FB5D
:10449000F1FA4FF6FF70BCF1010F08BF82444745A7
:1044A00063D02079617994F824200DF10A03F6B2E3
:1044B000CDE9003240EA01223046294602ABFEF740
:1044C000C3FC94F82000062808D0052813D004283F
:1044D00022D12078617840EA01201BE020786178C1
:1044E0002279637940EA012042EA03210844BDF8B9
:1044F0000A10401A0EE0227963792078617842EA46
:104500000322BDF80A3040EA0120D21A022392FBAE
:10451000F3F21044ADF80C00BDF80A00A178E2787F
:10452000ADF8100094F8250041EA02215144ADF89D
:104530000E1010B10138404512D900F062FD03A8F9
:10454000FEF7B8FA0646BDF80800DA4408F101089B
:104550002844054615F8011B0A2918BF05469EE7A1
:1045600000F04FFD03A8FEF7A5FA06B0BDE8F08DF8
:10457000D16300002DE9F04D86B004460020ADF86F
:1045800016000AB100F01CFD2346E07BE27F94F8A0
:10459000221013F80E5F45EA00209D78DB7845EA8B
:1045A000032340EA0340007A20722046FDF7A0FF73
:1045B000204610F8291F00F0BFFC09D094F8310004
:1045C00088470546204600F8255F00F013FD04E00B
:1045D000204610F8251F00F088FC002D76D02078AA
:1045E000617894F8028094F803B040EA012A94F8C4
:1045F0002300ADF80CA0FEF70DFC2246ADF812002A
:1046000012F82DCF12F8276C12F8263C12F8291C4C
:1046100012F8287C46EA032341EA0721181A0223EC
:10462000ADF8101090FBF3F048EA0B231844937890
:10463000ADF80E00D078527843EA00204CEA02220E
:1046400042EA004050B10278407842EA002002304D
:10465000091A8244ADF81010ADF80CA08EB294F88F
:10466000230001220DF116032946CDE900320DF198
:104670000A033246FEF7E8FBBDF81600864206D96B
:10468000301A022190FBF1F05044ADF80C00E07FAD
:1046900094F8211094F82330BDF80A2000918DF889
:1046A000140003A82946FEF705FA00F05EFC47D087
:1046B000187859782279657940EA0120BDF81610FA
:1046C00042EA05220144511A02390BE000F04DFC88
:1046D00036D018785978627940EA0120217941EA88
:1046E0000221091A4FF0020C26786778ADF8100005
:1046F000E07F91FBFCF146EA07268DF81400E07894
:10470000314493F802E0DA78A6791D79ADF80C10FF
:10471000E1794EEA02228DF81550A57846EA01218A
:10472000ADF81220891A45EA002094F8212091FB67
:10473000FCF108440021ADF80E0003A8FEF79AF939
:1047400006B0BDE8F08D7FB504460AB100F038FC34
:1047500000F049FC467C00F03EFC0B7A00F8063C79
:1047600008D094F824000121012200902046FEF791
:1047700009F804E0204601211A46FDF7B9FE207928
:10478000617994F8202040EA0120023800FB02F110
:10479000642291FBF2F18142B8BF0846010420D0A7
:1047A000ADF808000020A179A278E3788DF80D001B
:1047B00094F824008DF80C00E07941EA002061783B
:1047C0000238ADF80A00207840EA01200130ADF847
:1047D000040042EA03200130ADF8060001A805F00C
:1047E0007FF97FBD70B5044610F81F3F4578867885
:1047F000C07843EA052346EA002043EA00459DB11C
:1048000032B100F0DDFB204610F81F1F00F06DFBF9
:104810000320294600222072044809EB00032046A9
:10482000BDE8704005F084B970BD00BF34040000DD
:104830002DE9F04D86B00E46044610F8211F1746AC
:1048400000F05DFB05F06AFD05461FB120463146CC
:1048500000F094F803206178A278E37820720020B9
:10486000ADF81400207840EA01202179ADF80C0061
:1048700042EA03200322ADF80E00607941EA0020ED
:10488000A179ADF81000E07941EA00200121ADF8EE
:10489000120003A8FDF72CFE217AE07F8DF814109A
:1048A000FEF7B8FAADF8120094F82000092802D9F2
:1048B00006B0BDE8F08D2279637900EB80014FF0FE
:1048C000080B0DF10C0A4FF00008494242EA03229E
:1048D00002EB4101022291FBF2F727497944019151
:1048E0008045E5D221786278A378E678ADF810B0FB
:1048F00041EA02213944ADF80C1043EA062102399D
:104900008542ADF80E1009DAA8451EDA204610F8E7
:10491000211F00F0F4FA10F8080017E0B8F1000FBA
:1049200025D0411E884510DA214611F8212F4B78F9
:104930008E78C97842EA032246EA012142EA01411F
:10494000081A28444044407800E05F208DF80B00AE
:1049500000200DF10B010122009050460823FEF7C4
:10496000A9F894F820000A3708F10108B8E70020F8
:1049700001990222F0E700BF555F0000F0B5024642
:1049800012F80E4F55789678D778137A44EA0522B4
:1049900046EA0724002B42EA04424ED0014611F8B1
:1049A000124F4D788E78C97844EA052446EA0121F1
:1049B00044EA0141002908BF1146914250D00D2B15
:1049C00000F08F80022B00F0AC80032B00F0C4803D
:1049D000042B00F0E380062B00F00081072B00F091
:1049E0001D81082B00F03681092B00F04D810A2B28
:1049F00000F06F810B2B00F086810C2B00F0A4815E
:104A0000012B40F032828B7ACC7AC77D057E91F8FB
:104A10000CC0497BC67943EA042347EA052584791B
:104A20004CEA01212B44457E83721B0A44EA06248A
:104A3000C372837E45EA0323ADE0D37FA3B300298D
:104A400043D00B794C798D7AC97A43EA042345EA3D
:104A50000121047E1944C37D43EA0423194438E04C
:104A6000092B00F08B81022B00F09881032B00F0C2
:104A7000A781042B00F0BA81052B00F0C281062B20
:104A800000F0DD81072B00F00A82082B00F00E8277
:104A9000012B40F0EA81C17D037E447E857E8172D8
:104AA000C37244EA0521DDE1C37D047EC4728372D2
:104AB00091B18B79CC790D7B497B43EA042345EA9C
:104AC0000121847E1944437EC1E0C17D037E41EA19
:104AD00003218172090AC172417E837E41EA03216A
:104AE000C0E100F070FA91F807E044EA03230C7982
:104AF00046EA072644EA0524C579234484793344E9
:104B0000467E83721B0A44EA0524C372837E46EA0A
:104B100003234E7B097B41EA06214CEA0E263144F1
:104B200010E1037EC47D8E7ACF7A4D7990F806C06D
:104B300090F807E044EA032346EA07260C79477910
:104B40003344067944EA0524022546EA0726A41BD5
:104B500094FBF5F4234411E000F021FA90F807E00B
:104B600044EA0323047946EA072644EA05244D79FA
:104B700023440C7944EA05243444E31A83721B0A63
:104B8000447EC3724B7B097B41EA0321837E44EA66
:104B900003234CEA0E242344C91A63E100F0FFF911
:104BA00090F807E044EA0323047946EA072644EA3A
:104BB0000524CD7923448C79F31A467E83721B0A2F
:104BC00044EA0524C3724B7B097B41EA0321837EBF
:104BD00046EA032319444CEA0E233EE100F0F3F9C0
:104BE00091F807E044EA03230C7946EA072644EAF1
:104BF0000524C579234484793344467E83721B0A95
:104C0000C3724B7B097B41EA0321837E46EA03237F
:104C1000194444EA05234CEA0E241EE18D7ACE7A2B
:104C2000077E91F806C091F807E0437E847E45EA4E
:104C30000625C67D46EA0726354485722D0AC572CB
:104C40004D7B097B41EA05214CEA0E25294443EAC4
:104C5000042306E1CB7A8C7AC67D077E457991F8EC
:104C600006C044EA0323047946EA0726CF79334491
:104C70004E7944EA05240D7945EA06252C1B0225C8
:104C800094FBF5F4234415E003794479C57D067E51
:104C900091F806C0CF7945EA062543EA0423CC7A89
:104CA0004E792B448D7A45EA04240D7945EA062590
:104CB0002C44E31A83721B0A447EC372837E44EA47
:104CC00003234C7B097B41EA04214CEA072421445D
:104CD000C7E003794479C57D067E45EA062543EAA7
:104CE00004238C7A0E7B2B44CD7A497B44EA05243D
:104CF00046EA0121E31A447E83721B0AC372837E53
:104D000044EA0323ADE000F04AF990F807E044EAF2
:104D10000323047946EA072644EA0524CD7923448F
:104D20008C79F31A467E83721B0A44EA0524C37207
:104D3000837E46EA03234E7B097B41EA0621214418
:104D40004CEA0E24091B8CE00B794C798D7ACE7AD3
:104D5000877E45EA062543EA0423C47D467E2B442C
:104D6000057E44EA0524234483721B0AC3724B7BED
:104D7000097B41EA032146EA072372E000F0C9F803
:104D8000591A437E8172090AC172817E43EA012168
:104D90004CEA0623194447EA0523A4E00179437944
:104DA0005679C47D057E41EA0321137943EA06233F
:104DB000591A022391FBF3F144EA052319440DE04B
:104DC00001794379C47D057E41EA032144EA052443
:104DD00013792144547943EA0423591A8172090A48
:104DE000437EC172817E43EA01213BE000F0AFF8CF
:104DF000D57943EA0523591A022391FBF3F12144A3
:104E000030E000F0D4F890F807E043EA012103799C
:104E100045EA062543EA0423147944EA0724E31A01
:104E2000022493FBF4F31944437E8172090AC17290
:104E3000817E43EA01214CEA0E23EB1A0FE000F0D9
:104E400068F847EA0524591A437E8172090AC1723B
:104E5000817E43EA01214CEA0623E31A022493FBF4
:104E6000F4F319440173090A4173BAB11178537804
:104E7000C57A9478D278067B477B41EA0321837A0E
:104E800044EA022243EA0523194446EA0723017053
:104E90001A44090A4170110A8270C170F0BD00F015
:104EA00056F82144D47943EA04231CE000F07FF84B
:104EB00090F807E043EA0121037943EA04231479D7
:104EC00044EA0724E31A022493FBF4F31944437ED3
:104ED0008172090AC172817E43EA01214CEA0E23E4
:104EE000194445EA0623591ABCE742788378C0780A
:104EF00041EA022143EA002041EA00457047427836
:104F00008378C07841EA022143EA002041EA004068
:104F10007047017EC37D44799779D57990F806C0B2
:104F2000C67943EA0121037943EA042354791944F9
:104F3000137943EA0423704742788378C07841EAC2
:104F4000022143EA002041EA004100297047C47D64
:104F5000057E8179C379C5728472847E457E41EA7B
:104F60000321937945EA04247047204610F82D1F49
:104F700042788378C07841EA022143EA002041EA7E
:104F80000043002B70477F21012229F8001048447C
:104F900000218180C1803F21427241807047037EA1
:104FA000C47D45798E7ACF7A90F806C07047017E2D
:104FB000C37D447957799579D67990F806C07047C2
:104FC0002046FFF7DBBCCB7A8C7A4D79C67D077E15
:104FD00091F806C0704741EA022143EA0522002EFB
:104FE00041EA02417047204610F80E1F427883784C
:104FF000C5787047290EC170290C8170290A41704B
:105000007047E07FBDF8082029463346009070477E
:10501000B0B50B4919F8012082B10323FF242B2BD3
:105020000CD009EB0105ED5C854205D1013A09EB95
:10503000010509F80120EC540133F0E7B0BD00BFD1
:10504000E01400002DE9F04D1A4F80468A4609EB26
:105050000700407838B909EB070400F0A3F800F026
:105060009BF80120607019F80740272C01D1002619
:105070001CE009EB0700851C0020B0F5F56FF6D0A9
:1050800015F8011F3130FF29F7D10B49494401EBD5
:10509000000B3121ABF13106304605F0E5F8601C1C
:1050A00085F800A00BF8168C09F807003046BDE81B
:1050B000F08D00BFE0140000350C0000F0B5104981
:1050C00009EB01029278CAB10E4C0023FF2500269D
:1050D000402E13D009EB0107374497F82B70874215
:1050E0000AD109EB0407013A47F8263009EB01071A
:1050F000BA70374487F82B500136E9E7F0BD00BF9E
:10510000E0140000E01300002DE9F845DFF880A06E
:105110000546884609EB0A00407838B909EB0A04CD
:1051200000F040F800F038F80120607009EB0A0048
:105130000026807844193E2C26D809EB0A0000F19D
:105140002B070020B6F5807F1DD017F8011BFF2923
:105150004FF0000108BF411CC8B20436A8420846FF
:10516000F0D10C48A9004844A0EB85000644304625
:1051700005F07AF8781B2946424605F07CF809EBE1
:105180000A00847000E000263046BDE8F88500BFC4
:10519000E0140000E013000004F12B004021FF2286
:1051A00005F069B82821FF22E01C05F064B8000072
:1051B00010B5074819F8001041B109EB000404F0DC
:1051C000D9FC6068BDE81040FEF7ECBE10BD00BF22
:1051D0004C160000044819F80010484440680029A3
:1051E00008BF0846704700BF4C160000F8B50746D8
:1051F0000D480D461E46144619F8001031B901211C
:1052000009F8001009494844494441600020FFF76B
:10521000FFFE0020FFF752FF002039462A462346B2
:10522000009600F005F8F8BD4C1600004B15000084
:10523000032884BF4FF0FF3070472DE9F84504463E
:105240000F46DDF820A010461D4616462146FFF702
:105250005BFFDFF80481A301002109EB0802D154B0
:1052600002EB84124FEA1A23386082F83330030AC3
:1052700082F820604FEA1A66D1715171517311732F
:10528000D1729172D17091705170D176117282F891
:105290003E40D17782F823304023937180231371ED
:1052A000134602F8220F03F832AFDE704FEA1A46B7
:1052B0009E70030E000CD3709070ADB3287869789F
:1052C000AA78EB7842EA032240EA012040EA024051
:1052D00004F0D6FB09EB080101EB841101F8260F5D
:1052E00015F8042F15F8043F15F803CC15F8027CC7
:1052F00015F801EC6E7801F8042FEA78AD7801F822
:10530000043F030E01F8053C030C000A4E7001F83F
:10531000027C01F801EC01F803CC01F8063C01F82D
:10532000070C8D70CA7008E009EB080000EB8410D0
:1053300000F8261FC1708170417009EB080000EB76
:10534000841404F0F1FD0438B0FA80F0400984F8C8
:105350003F000020BDE8F8854B1500002DE9F84519
:10536000DFF8F880824619F80800032871D89446BF
:105370008E46A0B13A48484400F17A05012004283D
:1053800037D02C786E78AF78EA7847EA022244EA80
:10539000062444EA024272B340350130EFE7304D53
:1053A0000027012009F808004D442E0E85F877707B
:1053B00085F8207085F87A5085F87D602E0C85F888
:1053C0007C602E0A85F87B602E4606F8767FF770A3
:1053D000B77005F1400709EB080677602E463C0ED2
:1053E00006F8367FF4703C0CB4703C0A85F8374000
:1053F0001FE004201DE009EB0802A5F13A065468FD
:10540000370A310E566084F83770274607F8366F32
:10541000F970310CB970210E2C70E970210CA97053
:10542000210A6970002105F8031C05F8041DA97004
:10543000E970C5B200935146724663462846FFF7AD
:10544000F7FE002805D419F80800013009F8080013
:1054500001E04FF0FF352846BDE8F8854C16000006
:105460004B150000F8B5494E044619F8060000280F
:1054700045D0DFF81CC109EB0603411E5B6809F843
:10548000061009EB0C0202EB84129A423AD009EBA7
:105490000C0101EB841111F83A2F4B788D78C97803
:1054A00042EA032245EA012142EA014070B109EBD8
:1054B0000C02014602EB841212F8363F55789778B9
:1054C000D27801F8363F8F70CA704D7009EB0C012D
:1054D00001EB841111F8362F4B788D78C97842EAA8
:1054E000032245EA012142EA014222B302F83A0FBF
:1054F000010ED170010C000A917050701BE04FF04A
:10550000FF3541E0090612D009EB0C0101EB8411D3
:1055100011F83A2F4B788D78C97842EA032245EA90
:10552000012142EA014109EB0602516003E009EB67
:10553000060100224A6009EB0C07002507EB8410E6
:1055400000F83A5F00F8045D00F8145DC5758575D4
:105550004575C57685764576C5708570457000F8C9
:10556000025C2046FFF754FD2046FFF7A7FD19F81F
:105570000600012808D197F8200028B9002509EB7A
:10558000060009F8065045602846F8BD4C16000094
:105590004B15000070B5204919F8012052B3494459
:1055A00049680B4691F8272013F8264F44EA022257
:1055B0009C78DB7844EA032342EA0342D2B10B46EB
:1055C00013F82A4F5D789E78DB7844EA052446EA92
:1055D000032344EA03436BB11C1A0D4638BF002471
:1055E00005F82A4F260EEE70260C240A8342AE7070
:1055F0006C7000D970BD08460C4610F82E3F04F8B8
:105600002A3F8378C078E07091F82F00A370607013
:10561000BDE87040104700BF4C1600002DE9F8456A
:105620000E460A99054600209A46174600F030F8C3
:1056300048B3DDF82080044646610FB100F0E1FA7E
:105640000A20B8F1000F19BF414603225146042237
:105650007223FDF7C9FD099920702A0746BF01385A
:1056600060706078C4F80C80C4F804A084F830102E
:10567000C5F38011617405F003012174C1B22046A5
:1056800000F02CF800E000242046BDE8F88500007A
:1056900070B5044610480D4651B1002190290AD03A
:1056A00009EB00020A44D2F8882032B14831F5E70C
:1056B00009EB000605E000260BE04844084400F131
:1056C00048063046482104F0CFFD86F8455086F85C
:1056D0004440304670BD00BF541600002DE9F0452F
:1056E00091B0044640780E4688421CD2A5682078C6
:1056F00066700138B04231DDE0680121032308AA59
:10570000CDE900212946002808BF04230A2072227F
:10571000FDF718FCBDF820106818A060695C0A2924
:105720001ED101301BE0E568002D74D000274FF03A
:1057300001080DF1200ABE42D9D020780138B842C4
:105740000ADD0A20294672220323CDE900A8FDF7CD
:10575000F9FBBDF8200005440137ECE70020A0600C
:105760004F4804F13402784404900020ADF80A0058
:1057700094F845008DF80C0007CA05AB07C303A8D1
:10578000FDF760FE277894F801A006462064207C8F
:105790003946524600F0FCF880468DF80B00E06870
:1057A00088B1012F15D161680820722200230026DC
:1057B000FDF79CFC022848D36168182004F1180208
:1057C000CDE9002021E094F830303046294600220F
:1057D00055E00AF1010063682421CDE9000708AF14
:1057E000304A38467A4403F0B1FF08203946722225
:1057F00000234FF0000AFDF779FC04F1180C022891
:105800002CD31820CDE900C008A90820722201235A
:10581000FDF77EFD2DE0656800274FF001080DF1D2
:10582000200ABE423FF463AF20780138B8420ADD57
:105830000A20294672220423CDE900A8FDF782FB45
:10584000BDF8200005440137EBE7616804F118005A
:10585000172204F00CFD84F82F600AE04FCFACE86B
:105860004F0084F82FA03888ACF80000B8788CF886
:10587000020094F83030206C04F118012A46FDF73C
:10588000A3FEB8F1000F04D0206C0DF10A01FDF762
:105890003DFE00F0E9F9FEF769FC11B0BDE8F085C6
:1058A000BB010000794D00002DE9F04587B00D46A1
:1058B000824602A800F0D3F919480E99784400F006
:1058C000C5F968B1044645610FB100F053F900F025
:1058D000CEF907D0022807D0012808D1022004E021
:1058E000002418E0032000E00120002500E0002053
:1058F0008DF8070002A8FDF7A5FD41462064FEF7DC
:105900006BF825B9206C0DF10601FDF7FFFD00F0E5
:10591000ABF9FEF72BFC204607B0BDE8F08500BFD1
:105920006500000010B50C4600F0F0F878B3042CC8
:1059300006D0012C08D054BB4178D9B1013909E017
:10594000426922B304211FE002784178013A8A4279
:1059500005DD0131C9B2BDE81040FFF7BFBE017CD3
:1059600041F00201032901D0417C81B1426972B149
:10597000012109E0017C01F0FE01022901D0417CF6
:1059800029B142691AB10021BDE81040104710BD8D
:105990000346022908D301391046002A18BF012006
:1059A000914288BF023000E00020032B0AD0022B76
:1059B00004BF40F001007047012B04BF40F002001B
:1059C0007047704703207047F8B50F46064602201F
:1059D00019461546FFF75CFE70B104460FB100F0A2
:1059E00010F928792072687960722868C4E900602B
:1059F000204600F005F800E000242046F8BD000035
:105A0000B0B586B004460020019004F13402194874
:105A10007844029094F845008DF8040007CA03AB5F
:105A200007C301A8FDF70EFD251D20642946FDF7DB
:105A30007FFF207A022816D30121ADF80210697980
:105A400000290A4618BF012201388DF80320884238
:105A500003D9901C8DF8030000E021B1206C0DF1FA
:105A60000201FDF753FD00F0FFF8FEF77FFB06B0E3
:105A7000B0BD00BF210100002DE9F04587B00D4603
:105A8000824602A800F0EBF819480E99784400F01D
:105A9000DDF868B1044645610FB100F06BF800F025
:105AA000E6F807D0022807D0012808D1022004E038
:105AB000002418E0032000E00120002500E0002081
:105AC0008DF8070002A8FDF7BDFC41462064FEF7F3
:105AD00023F925B9206C0DF10601FDF717FD00F043
