:02000004C0DE5C
:1000000010B5044662B60BF0C6F80CB90AF010F849
:10001000002010BD70B58AB00C4605466846202108
:1000200016460CF0B7FA14B901200BF0B1F8142EF3
:100030000AD3402001210990681C6D46089008A849
:100040002A460BF06DF808B1002006E005F10C011E
:10005000204614220CF0A1FA01200AB070BD1FB591
:10006000044610B901200BF093F82078E02839D12C
:1000700000200390CDE901006078132835D00428D2
:100080003CD0052846D006285AD0072866D0092833
:100090006ED00A287CD00B2800F083800C2800F05A
:1000A00089800D2800F093800E2800F099800F2899
:1000B00000F09F80102800F0A980112800F0B18086
:1000C000122800F0B980032840F0C080A0780028F2
:1000D00040F0D580E078002840F0D180BDE81F4096
:1000E00000F087B94FF4DC40CBE0A068A178E2785B
:1000F00000F0D1F801A800F065FBA5E0A078002889
:1001000040F0BD80E078002840F0B980BDE81F4095
:1001100000F00AB9A178012900F2B180E078002846
:1001200040F0AD80A068002800F0A1800190207907
:100130000029029018BF012101A800F009F983E00D
:10014000A178002900F08580032900F29880E078EA
:1001500040F08002802A00F0808090E0A0680028B3
:1001600000F0858000F097F801A800F00AFA6BE033
:10017000E078002840F08380A178022901D380290B
:100180007DD1A06800F087F801A800F013FA5BE0C9
:10019000A06800286BD000F07EF801A800F0D9F923
:1001A00052E0A068002862D000F075F801A800F0C5
:1001B00039FA49E0A078002861D1E07800285ED1C2
:1001C000A06800F068F801A800F03BFA3CE0A068E5
:1001D00000284CD000F05FF801A800F003FB33E0EA
:1001E000A068002843D000F056F801A800F028FBD2
:1001F0002AE0E078002842D1A17802293AD2A0680A
:1002000000F049F801A800F043FA1DE0A078B0BB67
:10021000E078A0BBA06800F03EF801A800F0A0FACA
:1002200012E0A07858BBE07848BBA06800F033F833
:1002300001A800F01AFA07E0A068A178E27800F0BF
:100240002AF801A800F0AEFA04B010BD4FF4DA406D
:1002500017E0E078802812D18020A2683AB101929C
:1002600022790292C20901A800F0DAF8ECE746F61A
:10027000872006E0802902D120790228BFD046F6E7
:10028000862004B0BDE8104000F000B8024600200F
:10029000002109F06FBE01902079029070470000A4
:1002A000BFB509F03FFE00F0BFFC1B484FF43671AC
:1002B00048440CF07BF91A4878440BF09BFD807899
:1002C00001280DD001208DF802000020ADF80000BB
:1002D000144878440BF08EFD694603220BF00EFEA5
:1002E0000E4D01AC09F028FE002814D4024609EB9B
:1002F0000501204609F0C3FE30B12046FFF7AFFEEE
:10030000B0F1FF3FEEDC06E00020002146F6872238
:1003100009F030FEE6E7BFBD00000000642A0000DF
:1003200044E300002AE30000F8B5084878440BF0E5
:1003300061FD00214FF4104203910721CDE9010135
:1003400001A8012109F016FE04B080BD1BC8000001
:10035000F0B585B0234F0C4605464FF4367109EBD6
:10036000070630460CF022F9002006F5357109F831
:10037000070086F8A802284609F068FB08B309EBD5
:10038000070090F8D42200F52B71284609F0B1FB44
:10039000B8B109EB07000021052290F8D432CDE96D
:1003A0000221049100F1490500F1080600F52B72C5
:1003B00000202121CDE9006509F05CFC40B180B24C
:1003C00001E046F6872005B0BDE8F04000F00CB82B
:1003D000002C05B0BDE8F04008BF00F0F7BA00F00F
:1003E00007BD00BF0000000002460020002109F008
:1003F000C1BDF8B5002001214FF410428DF8020074
:100400008DF80100039003208DF803100121029064
:100410000DF10100019001A809F0ACFD04B080BD10
:1004200070B586B0464E044691B109EB060090F8CF
:10043000A80201282CD109EB060015466268D0F805
:1004400008021118B1F5FF7F25D94BF2040039E0FD
:1004500009EB06054FF4367128460CF0A7F800208A
:1004600005F5357109F80600012085F8A802204637
:1004700009F0ECFA48B109EB060090F8D42200F537
:100480002B71204609F035FBB8B946F6872019E0F4
:100490004BF2070016E009EB0601084400F10801E1
:1004A000204609F050FB58B109EB06016268D1F80B
:1004B00008021044C1F808024DB14FF4104001E0A9
:1004C0004BF2050006B0BDE8704000F03DB80021D9
:1004D000CDE9020109EB060000F10801019100F5E8
:1004E000047101A800F0C2FA012814D1012009F812
:1004F000060009EB0600D0F8081200F50E7205910F
:1005000000F10801049104A801210AF009FE40B19C
:100510004BF2060001E04BF2050000F015F806B0C2
:1005200070BD09EB0600D0F82C02064979440CF0A6
:1005300081F810B100F079FDF1E700F073FDEEE70E
:10054000000000002EC3000002460020002109F038
:1005500011BD80B5D0E90021104600F002F800205E
:1005600080BDF8B5002201AB07C301A801214FF4FB
:10057000104209F0FFFC8FBD02460020002109F067
:10058000F9BCB0B5F2B06D460446284601F063FEF2
:10059000A2882168284601F062FE6AAC28462146FE
:1005A00001F05FFE20462021FFF7DBFF002072B044
:1005B000B0BD000010B590B0802907D0012917D038
:1005C00011BB1748484401F04EFE19E0144C09EBEA
:1005D000040001F06BFEA0B909EB0400694640225B
:1005E00001F07AFE68B968464021FFF7BAFF14E0CF
:1005F0000B4909EB0103D0E90012184601F044FE53
:1006000048B100F0D7F909E046F6862010B0BDE801
:100610001040FFF7B1BF00F0D5F9002010B010BDB9
:10062000D802000010B5ADF5806D01686C4620461B
:1006300002F07BFD204600F0C1F900200DF5806D31
:1006400010BD80B5ADF5726D02680DF5206069468C
:1006500002F056FF10B100F0ADF903E0684600F07B
:10066000ADF900200DF5726D80BD80B5ADF5726DF0
:100670000DF52060694602F032FF10B100F09AF9E2
:1006800003E0684600F09AF900200DF5726D80BD18
:10069000B0B5ADF6487D0D46304904460DF62870DC
:1006A000202279440BF079FF802D13D0012D1FD02B
:1006B00035BB0DF6082002A90DF6287202F020FFC6
:1006C000044600283ED10020002102F0EFFF00F098
:1006D00079F937E00DF6082002A90DF6287202F02C
:1006E0000FFF80BB6068012812D846F687202CE0F7
:1006F000D4E9000103F006F828BB00F063F927E015
:1007000046F686200DF6487DBDE8B040FFF734BFC1
:100710000238114D60602068023020600020019096
:1007200009EB050001A902AA00F5F06002F0F6FF4E
:10073000044638B909EB05004FF4807100F5F0600C
:10074000FFF70FFF24B14BF20500FFF715FF00E0A4
:1007500000200DF6487DB0BDD8020000AEC50000F7
:1007600080B58EB00D48002140F69513CDE90011FB
:100770007844029004A90A4A0DF117007A4403F064
:1007800071FA10B100F016F905E004990DF11700A7
:10079000FFF7E7FE00200EB080BD00BF35CF0000A0
:1007A00094C5000080B50648C1EB012148440844C7
:1007B000114600F5F060FFF7D4FE002080BD00BFB9
:1007C000D802000080B50648C1EB01214844084426
:1007D000114600F51870FFF7C4FE002080BD00BF71
:1007E000D802000070B5BEB009AD144904462022FD
:1007F000284679440BF0D1FE11A820212A46202357
:100800000BF0A2FB119912AE30460BF02DFC14AD8B
:10081000052105223346284604F0ABF820686C46D3
:1008200006782EB12846214604F0A0F8013EF8E7EC
:1008300068462021FFF795FE3EB070BDFEC4000063
:10084000F0B5EFB005464068412801D8022802D231
:1008500046F6872018E02868FF21067800202FAC94
:10086000B0F5807F02D021540130F9E7202000212B
:100870000BF04EFB20B919A8314603F049FD28B111
:100880004BF20500FFF778FE6FB0F0BD022E0CD0E2
:10089000012E28D10BAE43492022304679440BF07B
:1008A0007CFE03AF4049794409E00BAE3F4920226A
:1008B000304679440BF071FE03AF3D497944384628
:1008C00020220BF06AFE19A816AB31463A4603F017
:1008D000C5FE0028D4D119A80BA903AA13AB03F0B5
:1008E000BDFE0028CCD100200DF10B028DF80B00CD
:1008F00019A816A903F0B6FC0028C1D19DF80B0079
:10090000012843D119A813AE0DF10B02314603F0B3
:10091000A9FC0028B4D19DF80B00012839D11A9800
:100920000DF10B010BF08CFB0028A9D19DF80B00F9
:10093000012831D11B980DF10B010BF081FB002830
:100940009ED19DF80B00012829D1D5E90001009620
:10095000421C4B1E19A816A903F004FF00288FD1D2
:1009600019A804F1200313A9224603F011FE002860
:100970007FF486AF0BF0D6FA00287FF481AF199888
:1009800041002FA8FFF7EDFD00207DE74CF6012088
:1009900078E74CF6022075E74CF6032072E74CF638
:1009A00004206FE714C300008AC300001EC30000C8
:1009B000D4C200004BF20500FFF7DEBD4FF480719A
:1009C000FFF7CFBD4FF41040FFF7D6BDB0B59AB0DA
:1009D00041200DF1050441228DF805000B4809EB7B
:1009E0000005601C05F108010BF0D7FD202005F182
:1009F000490120228DF8470004F143000BF0CDFDA2
:100A00002046632100F004F81AB0B0BD00000000D9
:100A1000F8B5002201AB07C301A801214FF4104231
:100A200009F0A8FA04B080BDF0B593B00DF102044E
:100A30004921651C28460BF0ADFD0B4809EB00076A
:100A4000284697F8A06207F5167132468DF80260C5
:100A50000BF0A3FD97F8A11230194170B11C20468C
:100A6000FFF7D6FF13B0F0BD0000000070B50D46D3
:100A7000044610B901200AF08BFB15B901200AF0D9
:100A800087FB6068B0F5FF7F01D9F9204BE0204675
:100A90002946002208F0F0FF30B32068A16808441E
:100AA0001421A861204608F0C6FFF8B105F108013D
:100AB00020460022002608F0DFFFC8B105F1200122
:100AC0002046C5E9046608F0F7FF296A90B9686A0C
:100AD0005FEA50004FEA31020023D2F1E80273EBE3
:100AE000000007D2FC201EE0FF201CE0FE201AE0E0
:100AF000FD2018E02068A2681044E861204608F054
:100B00009AFF68B105F11C030DCB00F00EF848B157
:100B1000D4E901126FF006008A4208BF012002E00A
:100B2000FB2000E0FA2040B270BDF8B51C46154627
:100B3000064610B901200AF02BFB002000230246D4
:100B4000401B194673EB040006D2B756501C41F106
:100B50000003B7F1FF3FF2DC0020521BA14128BF88
:100B60000120F8BD08B1FFF731BF46F6851000F04F
:100B700000B802460020002109F0FCB92DE9F0413F
:100B80008CB078B3DFF89480022000252027032260
:100B900040F201640DF12C0C0DF1280E0B9509F8B3
:100BA000080048200A9009EB080090F8D43200F5BC
:100BB0000E7100F51676CDE9004200F52B7200208B
:100BC0000895CDE906C5CDE902172121CDE9046ECE
:100BD00009F084F888B14BF2080009F80850FFF7D3
:100BE000C8FF17E00D48002109F8001046F68510EF
:100BF0000CB0BDE8F041FFF7BCBF0A9909EB080053
:100C000080F8A0129DF82C1001F0010180F8A112CB
:100C1000FFF70AFF0CB0BDE8F08100BF0000000044
:100C2000FF200BF0B9FA0000BFB5194C17487C44FF
:100C300009EB000500F0D8F8142169731549164A2C
:100C400079447A44C5E901210078287300F0CCF892
:100C5000152169761149124A79447A44C5E904217B
:100C60000021407828760F480F4A104B78447A4488
:100C70007B44CDE90032CDE902100022FF230C486D
:100C80000C497844794407F0C5FABFBDD013000081
:100C9000CED900000CBD000084BE000076BD00006F
:100CA000BDBB0000B1FFFFFF66CF000058CF0000C2
:100CB000C5BE00000FBA0000BFB5224C152809F8C8
:100CC000042011D014282AD109EB04051E4C7C44C1
:100CD00000F08AF80078B0FA80F0400928738DF8A7
:100CE0000F0000F081F815E0184878440BF082F806
:100CF0004078A8B109EB0405154C7C4400F074F869
:100D00004078B0FA80F0400928768DF80F0000F0A6
:100D10006BF801300DF10F0101220BF0EFF8BFBDB0
:100D20000C480D4978447944CDE900100B480C4932
:100D30000C4A0D4B784479447A447B4407F078FEA2
:100D4000BFBD00BFD01300002ED9000012D9000093
:100D500002D9000045000000CEBC0000B6BA000079
:100D6000E1BA00009DBB000094BD0000B0B586B0A4
:100D7000A8B1174C15487C4409EB000500F034F885
:100D80004078B0FA80F0400928768DF8170000F01E
:100D90002BF801300DF1170101220BF0AFF80B48D1
:100DA000002119F800300B480B4A0C4C78447A4467
:100DB0007C44CDE90042CDE90210002208480949EF
:100DC0007844794407F026FA06B0B0BDD01300008D
:100DD00086D8000071FEFFFF26CE000018CE00006E
:100DE00087BD0000D1B8000020460BF003B800001A
:100DF00070B588B0224E09EB060119F8060091F88B
:100E0000A81208432AD11F4D2B2109EB05000BF036
:100E1000C1FB03AC142120460BF0BCFB09EB060020
:100E2000214614220830FFF7F5F808B309EB050254
:100E300003A814212B2308F0FBFF013018D012481F
:100E4000002400217844CDE9004009EB05000F4A59
:100E50000F4B7A447B4407F031FB0EE0002009F889
:100E600006004BF2070008B0BDE8704000F012B871
:100E70004BF2020000F00EF80446204608B070BDA8
:100E800000000000EC13000059000000BBB9000096
:100E9000E0BC000002460020002109F06BB8000011
:100EA00010B50446FFF75EFE0720002C18BF062091
:100EB00002497944BDE8104007F0AEBC73FDFFFF66
:100EC000F0B58DB0434F044609EB070090F8A80237
:100ED00001285DD119F80700012859D13E4E1E2185
:100EE00009EB060014300BF055FB05AD1E2128461A
:100EF0000BF050FB09EB07001E21D0E986230320ED
:100F00000090284608F04DFF00284BD0009509EBD3
:100F100006051E211E23314A05F114007A440AF009
:100F2000CFFD54352B2128460BF034FB09EB07008D
:100F300014212A462B23D0F8280208F079FF01302B
:100F400033D0274909EB060000250246794442F8D0
:100F5000341F49F8062002222249027200F154028D
:100F600085727944C0E9111200F1140181631E48B1
:100F7000784414B3CDE90250CDE9005509EB0601E0
:100F800000201A4A1A4B7A447B4407F085FA11E094
:100F9000002009F807004BF207000DB0BDE8F04053
:100FA00000F02CB84BF2030001E04BF2020000F01D
:100FB00025F8054628460DB0F0BD0290CDE9005554
:100FC00009EB060100200B4A0B4B7A447B4407F0E7
:100FD000C9F9EFE7000000001814000094BB0000FE
:100FE00071B9000057BB00009500000087B80000F1
:100FF00097B8000043B8000053B800000246002034
:10100000002108F0B7BF000010B50446FFF7B6FD99
:10101000034984F001007944BDE8104007F0FCBBAF
:101020000FFCFFFF0120FFF74BBF0020FFF748BF79
:1010300010B5044600F004F80020C4F8C80010BD44
:1010400000210022C82A08BF704783188150083247
:101050005960F7E71CB50B46D0F8C8100092A822DB
:10106000044600F002F801F0F3B82DE9F04DDDF888
:1010700020801C4693468A46064608EB0A055D45D5
:101080001BD34FEACA0557465F450DD214F8010B32
:1010900005F0380200210BF0E3F827F007020835CD
:1010A000013701F0C5F8EFE7304600F063F9AAEB2D
:1010B0000B004FF0000A8044DFE74FEACA07AA4559
:1010C0000ED214F8010B07F0380200210BF0C8F81B
:1010D0002AF0070208370AF1010A01F0A9F8EEE741
:1010E0005046BDE8F08DB0B5D0F8C810A82204462F
:1010F000A82500F003F8C4F8C850B0BD70B5064686
:10110000382014460D4600EAC1021F2000210BF0D2
:10111000A7F825F0070201F08BF824F0070030440F
:1011200050F8041C81F0004140F8041C70BD1CB54F
:101130001446D2F8C830A8220092224600F002F8E5
:1011400001F086B82DE9F04DDDF820801F4693466A
:101150000D460646E5B1474503D1584600F00AF969
:10116000002707EB050AFC004745F3D2BA45F1D941
:1011700027F0070104F038025BF801005944496880
:101180000BF062F806F8010B0834013D0137EBE77C
:101190003846BDE8F08D2DE9FF4D884604461F46D0
:1011A000002000210292C82904D062186050083142
:1011B0005060F8E74FEAD800CDF80080039047452B
:1011C00035D3029E4FF0000801970398804523D045
:1011D000002537464FF0000A4FF0000B402D0BD092
:1011E00017F8010B00212A460BF03AF84BEA010BE5
:1011F0004AEA000A0835F1E754F83800083680EA70
:101200000A0044F8380004EBC80008F101084168FE
:1012100081EA0B014160D8E7204600F0ABF8DDE938
:10122000008702984044A7EB08070290C7E7002513
:101230000026B7420DD0029805F038020021805DEB
:101240000BF00EF826F007020835013600F0F8FF23
:10125000EFE73820002100EAC7020C980BF000F8F5
:1012600027F0070200F0ECFFA8F1010020F00700D2
:101270002044416881F000414160BDE8FF8DA82312
:1012800000F000B82DE9F04D984615468B4607460C
:101290004FEAD30ABBF1000F08BFBDE8F08D284626
:1012A00000F068F80024564646B129192A59381921
:1012B0004B6800F0ACFF0834013EF5E74744ABF162
:1012C000010BE7E710B50446FFF7BAFE0020C4F8AB
:1012D000C80010BD1CB50B46D0F8C810009288227B
:1012E0000446FFF7C2FE00F0B3BFB0B5D0F8C81097
:1012F000882204468825FFF701FFC4F8C850B0BD16
:101300001CB51446D2F8C830882200922246FFF756
:1013100019FF00F09DBFBCB504461F2013460A46C6
:101320008821882500902046FFF735FFC4F8C85073
:10133000BCBD8823FFF7A6BFF0B5B5B06E460C461E
:10134000054611461A463046FFF7E5FF882032462B
:10135000B4FBF0F728463946FFF7EBFF07EB071120
:10136000324605EBC100A4EBC101FFF7C9FF35B060
:10137000F0BD00002DE9F04DDEB0D0E93021009045
:101380005691D0F8A0105392D0E902232A91D0F8B8
:10139000A4102C91D0F8A8104891D0F8AC104F911F
:1013A000D0F8B0104391D0F8B4104D91D0F8B810E7
:1013B0005191D0F8BC105491D0F880103691D0F8EB
:1013C00084103E91D0F888104291D0F88C104A9148
:1013D000D0F890103F91D0F894104791D0F8981021
:1013E0003491D0F89C103A91016E4191416E49912F
:1013F000816E4E91C16E5291016F5091416F559126
:10140000816F3591C16F3C91016C4591416C4C915C
:10141000816C3991C16C3B91016D4091416D469158
:10142000816D4491C16D4B91016A5891D0E909E1F8
:101430003391C16A3D91016B3191416B3291816B66
:101440003791C16B389101685A9141685B9101698C
:10145000599141695C918169C0692E91309003482E
:10146000784408305D90002002E000BFCCC7000047
:10147000172800F254862790489836999A46579232
:10148000CDF898E0484044994840319948403E9909
:1014900080EA02044F98239448404B99484032997F
:1014A00048403A995840430006462890569843EAE7
:1014B000D47581EA0003559843403B9843402C98EB
:1014C00083EA0E0B349B85EA0B01650081EA00027A
:1014D0002F91539945EAD676229283EA01055099D5
:1014E0002A9B4D4039994D40589985EA010886EA72
:1014F000080181EA03042B91A604259446EA923C54
:10150000DDE94212CDF870C081EA020641994D9A98
:101510004E4037994E40599986EA010E4A99309EBD
:1015200081EA020749994F4038994F405C994F40F2
:101530003C997C0081EA0002469844EADE7442400D
:101540003D9842405B9882EA00014FEA4E0281EAF0
:10155000040042EAD77280EA0A052D90359820955A
:1015600080EA030440984440339844405A984440E9
:10157000579884EA020A80EA0A00CDF864A0420083
:101580002190549842EAD572579222EA0C0C4A00F4
:1015900042EAD473479A4240529842404C984240A3
:1015A00082EA06053A9A83EA050063002E9C4240CF
:1015B0002A9043EAD17051993F9B12924B404E9929
:1015C0004B4045994B40634080EA03013498299190
:1015D00048401D90000240EA12608CEA000C3490F2
:1015E0004FEA4B0040EAD870CDF890C0784080EACE
:1015F00006012C904FEA480040EADB70309180EA07
:101600000E0080EA0402044610072E92239A1394D7
:1016100040EA1111580040EAD5703A9182EA000878
:10162000439A680040EAD3702B9BCDF82C8088EA5F
:101630000206289A169682EA000E4D9ACDF8A0E08E
:1016400082EA0E02500714922D9A40EAD6001A90B0
:1016500021EA000036998AEA01053E990D9551402C
:101660001791490341EAD541484043914F991B9056
:1016700080EA0C004A404899119281EA0A01489197
:10168000890041EA927259993E9288EA01055C9973
:10169000109581EA0E015C91890741EA95013C9D14
:1016A0004F919143359A83EA02062F9A0F966A402A
:1016B0000E92520242EAD6522C9E5140369280EA55
:1016C000010C1F913F994798614086EA000220462D
:1016D000299C0C914905479241EAD2252A9A5699AC
:1016E000189582EA010B539961400A91890341EAF6
:1016F0009B475A991E9759405691B943219F69407B
:1017000023918CEA0103269982EA010A58996140E3
:101710005A91C90641EA5A155199359580EA010452
:10172000549886EA00012E9E0A0642EA14204A9A3C
:10173000159025EA0000429D82EA0E02DDF8A4E041
:1017400085EA08054FEAC53C4CEA524CD20380EAD0
:101750000C00CDF864C142EA5542199D83EA000CA1
:1017600026901698149BCDF834C1400740EAD30365
:1017700030981693000740EA1610179E5890984329
:101780000D9B5B0343EAD64383EA000622983C9311
:10179000259B1796800440EA9333209814934000C9
:1017A00040EAD7701D9F54909843129B1B0243EA56
:1017B000176358403F93219080EA060810988307EA
:1017C0005C9843EA9006119853968300489843EA40
:1017D0009070129026EA00030F9846020E980E921F
:1017E00046EAD0500C9E4340309088EA03001D9397
:1017F000479BDDF8BC805B0543EAD6270A9E4FEA8B
:101800008B3393460D9743EA96465B9B2E9683EA6D
:1018100008035193B3437B402093584023065A9CBE
:1018200043EA11234FEACA61DDF82CA041EA5411C2
:101830005B932B9C489199435140484025912899AE
:101840004A90400040EADC70DDF8A8C05C904998FE
:10185000414041985A9180EA0A001190C00240EA42
:1018600051503299499027EA00002D9F87EA0102E2
:101870003199329269401091090341EA125181EA8B
:10188000000340984791419384EA000146980F91E4
:1018900080EA08000C90C00040EA51703C994690E4
:1018A00021EA000639998EEA01023B9939928CEAC5
:1018B000010001053B9041EA123181EA06004291A4
:1018C0004499499E2290584085EA01024B99199209
:1018D00079402C9F0991890241EA92513D9A4B919E
:1018E0002BEA010188EA0203339A08936240289C9C
:1018F0003392120142EA1372139B514044923D917C
:1019000048404E9983EA0102529906927940059126
:10191000490641EAD2123F994E929143379A8AEA98
:101920000205389A379562402892920142EA956200
:10193000289D5140529280EA0102559840918CEACC
:10194000000450980B9480EA0E00C1012A90309850
:1019500041EA5461109C559188434C9987EA010EE5
:101960004599339F83EA010B4FEACB5A4AEA5E213D
:10197000484050915C992C90504081EA00022D9093
:101980002E980D995C92884311997040099E82EAC5
:10199000000A31904D984A9ACDF834A0400040EAB0
:1019A000D270329A4C905A981203C00242EA145CE8
:1019B0000C9A3B9C40EA51531899CDF81CC00A93ED
:1019C00021EA03008CEA00080F98CDF8E080C000FF
:1019D00040EA527243982F929043399A120542EA94
:1019E0001434199A6040049492022B9080EA080003
:1019F00042EA9656599A0996B243089E360146EA3B
:101A00001777059E7A40019745925040069A5206F4
:101A100042EAD616349A3396B243379EB60146EA66
:101A200095667240039680EA02080B9819922A9AEA
:101A3000C00140EA52623698089220EA02054FEA55
:101A4000CE5040EA5B22DDF870B085EA02001E9DB0
:101A50009646CDE90B204C9A80EA0800DDF85480C8
:101A600025EA01011090504059405A904840059194
:101A7000129982070F9042EA9A004F9ADDF868A007
:101A80004C903E982EEA020280EA0203569A29936D
:101A90002CEA020285EA0200479D80EA0302579B76
:101AA000139026EA0303449E83EA0B003A9B2A9094
:101AB0004240359824EA0303149C83EA0A033B93CB
:101AC0005A4027EA0003509883EA080382EA030C8D
:101AD000539A32936746CDF818C020EA02022E9836
:101AE00081EA0203519A1E9325EA0202429D504068
:101AF00080EA03021190549B529820EA030363404A
:101B00002E935A40589B25EA0303169D6B40399348
:101B10005A40489B26EA03035B9E734082EA030017
:101B200018933C9B4200029025EA0303469D42EA3B
:101B3000DC72DDF82CC15D400E9B169526EA03038E
:101B4000099E83EA0C033C936B40309D21EA050516
:101B500055994D4031996B4037953F9D4B404E997B
:101B600024EA0505089C4D4083EA050E179B28953D
:101B70002F9D82EA0E0282EA030C599B5B927A0047
:101B800042EAD07228EA030386EA0301439B3F91AD
:101B90002AEA0303DDF830A183EA050080EA0103A5
:101BA000159036983E9921EA0007059884EA0701C6
:101BB000339F4B40319183EA0001349B2BEA0303AE
:101BC0007B4081EA030B1C93579982EA0B001B9A16
:101BD000599080EA02084FEAC85242EA5C204FEA74
:101BE0004B02369020EA0A0042EADE7234900398F3
:101BF00027EA00030198594026EA000335983391FB
:101C00005840079B80EA0106439004983A9925EAD8
:101C1000000787EA01004F993E9046400B9824EA5E
:101C2000000048400A991490704021EA0304569934
:101C3000449B4C405D9951E9026784EA0601109E7D
:101C400048401B910C994F9050404FEA4E02DDF8EE
:101C5000B4E042EADB742F90414052984E9A82439E
:101C6000549850404B9A17909A43489B83EA020B32
:101C7000429B8BEA0002469820EA03055898509B45
:101C8000684052904240559820EA03055398479B7C
:101C9000684055904240499820EA030551982C9B92
:101CA000454085EA070042401A9082EA040080EA33
:101CB0000307349B5790BC0044EA91704FEACC5420
:101CC0008900434044EA582841EA977756930D9B90
:101CD0009D070F9B45EA930C029B069D28EA0C0486
:101CE00087EA04014FEA4E0444EAD67453912AEA83
:101CF000000183EA040A730043EADE738AEA0B04F4
:101D0000CDF8C0A085EA030B439B4F9DCDF860B191
:101D100083EA0B035E0246EAD4566402714044EA49
:101D2000D35320EA0604500054912CEA070140EAFC
:101D3000D570594051914A9980EA010E68002E9958
:101D400040EAD2704D9ACDF8B4E081EA0E015040DD
:101D50002A9A05462E904240D00140EA5160C901BE
:101D6000444041EA52614D9427EA030481EA0402A7
:101D7000369C439226EA00026240A0435B9C4F924D
:101D800023EA010282EA080248924C9A50402C90C1
:101D900021EA08001199DDF8708180EA0C002A9090
:101DA00013988EEA010CDDF868E14FEACC626840D6
:101DB00042EA5013529AC0061D4650938AEA020125
:101DC0003E9A40EA5C1A08018BEA0206320140EAB8
:101DD000167C42EA11722CEA0A0052929A431D9B29
:101DE00084EA03071F9B599C39065C40230641EA9D
:101DF000142143EA172348405A40349025EA03004F
:101E00002F9D3A923F9A8EEA02043C9A88EA020693
:101E1000199AF70347EA5447E403784044EA5644E2
:101E2000409E47902AEA010060403F9023EA070065
:101E300085EA0203579A56404FEA862B4BEA935B9A
:101E400080EA0B004A9021EA04009902529B41EA81
:101E500096514840429027EA0B0058403E9024EAB1
:101E60000100149C80EA0C0036902BEA0300509B82
:101E7000DDF86CB15840589B3C9021EA0C00419928
:101E800080EA0A0083EA0407309B559C3590389815
:101E900082EA010C4FEA4C02634068409C0442EA2B
:101EA000D075159A44EA9734400040EADC7ADDF8B0
:101EB000B8C046958EEA0201169A880188EA0206A1
:101EC000DDF8B480B20140EA966E42EA9162B9044C
:101ED0002EEA0A004C92AA4341EA933162404840FC
:101EE0005592329A509025EA0400599D8CEA0203DB
:101EF000189A88EA0206370247EA13671B027840FD
:101F000043EA166324EA070252902AEA0100994341
:101F100058404E90249885EA000421988BEA0006E8
:101F2000700640EAD4106406424044EAD61449924E
:101F300061404C9A419127EA0001514090434B91F6
:101F400023EA0401379B81EA0E01449146994840F7
:101F50002099469024EA0E005C9C80EA0A008BEAF5
:101F6000010E409023984FEA0E7284EA0307319BDA
:101F70005A9C6840634042EA10163B9A5C0700078F
:101F800044EAD70440EA1E1E24968CEA0205399AD8
:101F9000DDF8C0C0280588EA0201DDF8BC800A052A
:101FA00042EA153A40EA113579072AEA060241EA7F
:101FB000D301579B25EA0E00624048403B923D9A70
:101FC000399026EA04005340459A88EA0206589A56
:101FD000770347EAD3475B03784043EAD64324EAD2
:101FE000070B4C902EEA01009943584045903398D6
:101FF00082EA000417988CEA0006F00040EA547068
:10200000E40044EA56748BEA00026140389237914A
:1020100027EA000120EA0A0081EA0A01329123EA54
:10202000040169403191249948402E993D9024EA59
:10203000050080EA0E003390299881EA00021E987C
:102040002D9981EA00035799980340EA9244229817
:10205000920342EA934281EA00052B9858992B0398
:1020600088EA0006300340EA155A1A9843EA1655E2
:1020700080EA0C081B982AEA080780EA010B5999A4
:1020800084EA070E25EA0B0682EA06005890269895
:1020900081EA000625985B9981EA000728EA040195
:1020A000780540EAD620414024EA000C5C9C30913F
:1020B00071052BEA020641EAD72186EA01038A4329
:1020C0002E93289B84EA03061C9B5A9C84EA0307F0
:1020D000FC0244EA5654F6028CEA040346EA5756D8
:1020E000A0435C9372408AEA000321EA06005992F9
:1020F00085EA000224EA0A005D9C616881EA080121
:10210000484054F8101B5B9026EA050081EA0B0159
:102110005D9448405A9027980230FFF7A9B900987B
:102120005399C0F8C01051998260C0F824E0C36090
:10213000C0F8B8104399C0F8B0104899C0F8A8107A
:102140002A99C0F8A0103499C0F898103F99C0F8A7
:1021500090104299C0F888103699C0F880103599CF
:102160008167509901674E9981664199016644994A
:102170008165409901653999816445990164379970
:1021800081633199016333998162589901622E9973
:102190008161599901615A9901605699C0F8C4103A
:1021A0005499C0F8BC104D99C0F8B4104F99C0F8BC
:1021B000AC102C99C0F8A4103A99C0F89C1047991B
:1021C000C0F894104A99C0F88C103E99C0F8841059
:1021D0003C99C167559941675299C16649994166D1
:1021E0004B99C165469941653B99C1644C994164DD
:1021F0003899C163329941633D99C1623099C16197
:102200005C9941615B9941605EB0BDE8F08DF8B5C5
:102210001C46154606460027402F08BFF8BD284635
:1022200021463A460AF010F806F8010B0837F3E7A2
:10223000B3585840B050B0184268514041607047A0
:10224000A3585840A050A0184268514041607047C0
:10225000C4F8C8001CBD0621202208F082BF08F087
:1022600085BF08F079BF60B110B52C2104460AF093
:1022700091F904F13000FFF7EEFF0020C4E97E0081
:1022800010BD4FF0FF30704780B503464FF0FF3070
:102290005BB151B1986A10B16FF0010080BD03F1DC
:1022A000300092B2FFF7DBFF002080BD10B528B1EF
:1022B0000446806A28B16FF0010010BD4FF0FF3076
:1022C00010BD04F130002146FFF7CBFF00200121B3
:1022D000C4E97E00A16210BD2DE9F04DF8B0824640
:1022E0004FF0FF30BAF1000F20D00E46F1B1DAF80E
:1022F0002800C8B1DAE97E011546814219D90C1AC5
:102300005044A346AC4200F5EC71304688BFAB4662
:102310005A460AF042F9DAF8F801AC425844CAF8D1
:10232000F80108D3002001E06FF0010078B0BDE8AB
:10233000F08D4FF0000B6EAC039504F1200002907D
:102340000AF5EC70CDE90006AB45EBD220465146CC
:102350002022A0460AF021F9DAE90854029F382623
:1023600016F1080008D028462146324609F06CFFD5
:1023700007F8010B083EF3E704AF3846FFF76BFFA1
:102380003846414628224446FFF769FF039DA5EBE6
:102390000B08B8F11F0F0BD9019E384606EB0B0155
:1023A000FFF75FFF0BF1200B4FF0000800200DE05E
:1023B0003846009F3946FFF754FF019E3946424692
:1023C00006EB0B000AF0E9F82020AB46CAE97E8054
:1023D000DAE90801013041F10001CAE90801B3E777
:1023E000B0B500F512600024B4F5807F09D051F833
:1023F000245025B11D6844551D6801351D60013408
:10240000F2E71968104480F85010B0BD0A6800F572
:10241000126000234F2A88BF704783540A68013234
:102420000A60F7E72DE9F04100220023442B02D097
:10243000C2540133FAE70022012300264FF00008BE
:1024400000250027B2F5807F11D051F8224064B1F9
:10245000825551F82240013404BF3D4348EA030845
:102460007C00013644EAD3775B000132EAE700F1F1
:102470003C070026402E08BFBDE8F08140462946B3
:10248000324609F0E1FE07F8010B0836F2E72DE9C4
:10249000F8458846824600200021B1F5807F03D0B0
:1024A0004AF821000131F8E708F13C050026002731
:1024B0000024402E09D015F8010B0021324609F006
:1024C000CFFE0C4307430836F3E70020272808BF58
:1024D000BDE8F885FA0718F800104FF0FF3208BF82
:1024E00001225FEA54044AF821204FEA37070130FD
:1024F000ECE72DE9FF4D14468A4600220021B1F594
:10250000807F03D040F821200131F8E70AF13C0533
:1025100000274FF0000B00260390402F06D000F05C
:102520000AFC0E434BEA000B0837F6E74FF00008B1
:10253000CDF804A0B8F1270F08BFBDE8FF8D1AF849
:1025400008005FEACB71C0F5807711D1039902963C
:10255000002501EB8006AF421BD02046294600F043
:1025600042F856F82510084446F825000135F2E7F0
:102570000399002501EB800AAF421BD02046294673
:1025800000F031F85AF82510081A4AF825000135EC
:10259000F2E7A6F58065029EB7F5807F1CD0204645
:1025A000394600F020F855F82710081A45F827009A
:1025B0000137F1E7AAF58065DDF804A0B7F5807F63
:1025C0000AD02046394600F00EF855F82710084486
:1025D00045F827000137F1E75FEA560608F10108E0
:1025E0004FEA3B0BA6E7CA080D2301F0070102FBE7
:1025F000030006290ED0012914D002291AD003297C
:102600001DD0042923D0052929D069BB0178407841
:1026100000022DE0827A417AC37A900040EA91105C
:10262000990225E082784178C378D00040EA5110C1
:10263000D9021DE0C17800798001890818E042794B
:1026400001798379500040EAD110590210E0C27933
:102650008179037A100140EA1110190308E0017A28
:10266000407AC001490803E0C17A007B4001C908F3
:1026700008436FF35F30C0F5805070472DE9FF4D80
:1026800014468B4600220021B1F5807F03D040F82C
:1026900021200131F8E70BF13C0500274FF0000A3B
:1026A00000260290402F06D000F045FB0E434AEA78
:1026B000000A0837F6E732480022CDF800B080461D
:1026C000272A08BFBDE8FF8D1BF802005FEACA7128
:1026D0000392C0F5807712D102990196002501EB93
:1026E0008006AF421ED02046294600F04BF856F82F
:1026F000251001EB403046F825000135F1E702993D
:10270000002501EB800BAF421FD02046294600F088
:1027100039F85BF82510424600FB08104BF82500FD
:102720000135F0E7A6F58065019EB7F5807F1FD0E3
:102730002046394600F026F855F82710424600FB9F
:10274000081045F827000137EFE7ABF58065DDF8A5
:1027500000B0B7F5807F0BD02046394600F012F864
:1027600055F8271001EB403045F827000137F0E716
:10277000039A5FEA56064FEA3A0A0132A0E700BF21
:1027800000E0FFFF8A0801F0030102EB8202022948
:10279000104406D0012909D069B901780822012323
:1027A0000DE0817804220323090908E0417806221C
:1027B0000223890803E0C178022204238909C05C4E
:1027C000904000F47F7008437047B0B50546084656
:1027D0000C4600F03DFB204600F049FB0020B0F520
:1027E000807F08BFB0BD54F8201000EB4002A95410
:1027F000A91854F82020120A4A7004EB8002013014
:1028000052888A70EBE7B0B50022B2F5807F08BF2E
:10281000B0BD02EB4203CC5C0B4440F822405D7833
:1028200044EA052440F822409B7844EA034340F8F8
:1028300022300132E9E7F0B502310023B3F5807FA1
:1028400008BFF0BD11F8025C11F8016C11F8037BB0
:1028500052F8234045EA062545EA07452C1B40F877
:1028600023400133EAE7B0B5002242F60B43B2F54C
:10287000807F08BFB0BD51F822407F34E4115C4333
:1028800004F500052D16B4F12E5FA8BF002540F811
:1028900022500132EBE700002DE9F041134E154FB5
:1028A000002242F60B4C6FF0010EB046104EB2F50E
:1028B000807F08BFBDE8F08151F8223003F17F042A
:1028C000E41104FB0CF404F50005B4F12E5F44465A
:1028D0000EEAE555B8BF05FB0833BB423446C8BF16
:1028E000334440F822300132E1E700BF008CFEFFA4
:1028F000FF1F80FF00F03F0002EB420201EB42119C
:10290000803101F018BB02EB420201EB421101F5EC
:10291000007101F010BB00002DE9FF4DDDF83080A3
:102920008A46834611461A46404601F056FB104C33
:1029300000270DF10706304609214246FEF7F7FB56
:102940000025082D98BFB7F5807F0BD200F0DEF987
:1029500006D85AF8271000F0F4F900F0F6F901371C
:102960000335EEE7B7F5807F28BFBDE8FF8DE2E7CE
:1029700000E07F0070B5044602EB42056619405D39
:102980007278B37840EA022040EA0340084400F03D
:1029900057FD010C6055000AB170707070BDF0B544
:1029A00085B0054618461C4601F02BFB002701AEFA
:1029B000402F04BF05B0F0BD304609212246FEF786
:1029C0009FFC304600F00CF80020042805D056F893
:1029D000201045F820100130F7E710350137E7E700
:1029E000B0B5017883784278C478057A63F31141F1
:1029F00041EA0221C279C1F500310160817992007A
:102A000042EA911201F03F0142EA85224579C2F57E
:102A10000032C26002792D0145EA121545EA013102
:102A2000C1F500318160990862F3913141EA841166
:102A3000C1F500314160B0BD2DE9FF41DDF82880CE
:102A40000C46054611461A46404601F0DAFA0026C1
:102A50006F46402E08BFBDE8FF8138460921424637
:102A6000FEF74EFC3846FFF7BBFF0020042802D0DB
:102A700000F058F9FAE7103410350136E9E70000A4
:102A80002DE9F04186461A48931C8C46002242F6F6
:102A90000B4500268046B6F5807F26D013F8024C01
:102AA00013F8011C13F8030B5CF8267044EA0121AB
:102AB00041EA00407F30C1194746C911694301F519
:102AC000000424164145C8BF0024C009684300F52E
:102AD0000001090E404588BF0021601A18BF01207F
:102AE0004EF8260002440136D5E71046BDE8F081D5
:102AF000FFFF7F2B2DE9F04103F5126C42B102EB91
:102B00000C0E1EF8506F1EF8015CB54205D906E0A8
:102B100093F8706903F5176E0025502E02D9012035
:102B2000BDE8F08103EB05080027EA19B2420ED296
:102B300008EB0704AA4294F8206903D994F81F29E6
:102B40009642ECD9C65501379EF80060EDE70F605C
:102B500093F8730901464F2804D81CF80120481C3B
:102B6000002AF7D00020502938BF0120BDE8F081AD
:102B70002DE9F041984615460E4607460024B4F567
:102B8000807F08BFBDE8F0812846414631B110F88A
:102B9000012B01399442F9D1012100E0002156F8BE
:102BA000240000F087FC47F824000134E7E7002206
:102BB000202A08BF70478B5C83540132F8E702EB90
:102BC000820200EB8210203000F042BB02EB420296
:102BD00000EB4210803000F0FDBA02EB420200EB45
:102BE000421000F5007000F0F5BA4FF4D07302FB0C
:102BF000030000F5607000F04FBB0022202A08BFE0
:102C000070478B5C83540132F8E720300022202A81
:102C100008BF70478B5C83540132F8E740300022D4
:102C2000402A08BF70478B5C83540132F8E72DE9D6
:102C3000F04DB6B06E4680460D463046FEF742FB7C
:102C4000304629462022FEF745FB3046FEF74DFB75
:102C500034AD082132462846FEF752FB00262C46AA
:102C600000274FF0000A402E0AD014F8010B002173
:102C7000324609F0F5FA4AEA010A07430836F2E754
:102C800000200021B1F5807F03D048F821000131F8
:102C9000F8E70820D9246E464FF0020BB4F5807F88
:102CA0001BD0082805D3284608213246FEF728FB0A
:102CB0000020295C01308C42F3D358F821205FEAD0
:102CC0005A0A48F824200BEA47024FEA3707013432
:102CD000C2F1010248F82120E0E736B0BDE8F08DEE
:102CE000F8B514460D4606460027B7F5807F08BFA5
:102CF000F8BD55F8270054F8271000F022F856F8D0
:102D00002710084446F827000137EEE77119705D77
:102D10004A78897840EA022001F07F0140EA0140C8
:102D2000A042704757F8201054F82020114445F86D
:102D300020100130704715F8010B00213A4609F0C8
:102D40008FBA81FB000100F05DBB014658463A4650
:102D5000FFF710BE2DE9FC4D044617484FF08008E0
:102D60004FF0000A78440190B8F1000F08BFBDE8A9
:102D7000FC8D0027FF2F1CD801980AF1010A07EBF0
:102D80000806354650F82AB0B74210D254F825004C
:102D900080FB0B0100F036FB54F827100A18081AC4
:102DA00044F8272044F8250001350137ECE72F4689
:102DB000E0E74FEA5808D7E788AF00002DE9FC4D5F
:102DC000044622484FF001084FF4807A784401907D
:102DD000B8F1FF0F28D80027FF2F22D80198AAF1B9
:102DE000010A07EB0806354650F82A00C0F1000B2F
:102DF000B74214D254F8270054F82510014444F87F
:102E0000271054F82510401A44F8250080FB0B01C8
:102E100000F0F8FA44F8250001350137E8E72F46BD
:102E2000DAE74FEA4808D3E700254AF2FA36B5F563
:102E3000807F08BFBDE8FC8D54F8250080FB0601AB
:102E400000F0E0FA44F825000135F0E720AF00007B
:102E5000B0B504460025B5F5807F08BFB0BD54F875
:102E6000250000F0DBFA44F825000135F3E7B0B5A2
:102E700004460025B5F5807F08BFB0BD54F8250095
:102E800000F0D6FA44F825000135F3E7B0B5002389
:102E9000B3F5807F08BFB0BD51F8234052F82350EE
:102EA0002C4440F823400133F2E7FFF753BFFFF70C
:102EB00085BFF8B500F099FAB7F5807F08BFF8BD77
:102EC00055F8270054F8271081FB000100F09AFA0A
:102ED00046F827000137EFE7F8B500F086FAB7F5B6
:102EE000806F08BFF8BDE159E81900F0B9FAF05158
:102EF0000437F4E7094A91420EDC0022B2F5807FE4
:102F000004BF0020704750F82230002B48BFA3EBCD
:102F1000430301328B42F1DB0120704700FC0F00BC
:102F20002DE9F04DADF5846DE8468346404601F04D
:102F300054F80DF1D606052142463046FEF79FF9BA
:102F400058464FF4807132464FF452734FF4527525
:102F500000F028F807464FF0030AFF2F1DD8B5FBF5
:102F6000FAF0314600EB40002C1AA84204D00A5C6B
:102F7000013D0A700131F8E7301901214246FEF7A0
:102F80007EF944F0A8050BEB8700C7F58071324647
:102F90002B4600F007F80744DFE70DF5846DBDE828
:102FA000F08D0000F0B50F4C844600200027A646A7
:102FB000884215D2FE1C9E4212D8D45D17447D78FB
:102FC000BF7844EA052407F07F05374644EA054404
:102FD00075467445ECD84CF8204001303746E7E799
:102FE000F0BD00BF00E07F00F0B5D7B06D460446ED
:102FF000284601F006F835AE01212A463046FEF794
:1030000098F920464FF48071324600F013F80746D5
:10301000FF2F84BF57B0F0BD304601212A46FEF78E
:1030200088F904EB8700C7F58071324600F002F89A
:103030000744EDE7F0B5034600204FF0CD0C002526
:10304000884221D2872D1FD8565D06F00F070F2F1B
:1030500009D007FB0CF4A40A04EB8404E41B02343B
:1030600043F82040013036090F2E0BD0884209D298
:1030700006FB0CF4A40A04EB8404A41B023443F8FA
:10308000204001300135DBE7F0BDF0B508304FF0EE
:10309000000CBCF5107F08BFF0BD11F80C3001EB3F
:1030A0000C040CF1090C40F8083C657843EA052350
:1030B00040F8083CA57865F3114340F8083CC3F597
:1030C0000033A578AE0840F8046CE678B60146EA0D
:1030D000950540F8045C267966F3913540F8045C68
:1030E000C5F5003526793709076067793F0147EA5A
:1030F00016160660A77967F311360660C6F5003626
:10310000A779BA094260E279920042EA97124260D6
:10311000247A066040F8045C40F8083C42EA8422C5
:10312000C2F5003242601030B3E72DE9F04DD6B061
:103130006E4680460D463046FEF7C4F830462946B6
:103140002022FEF7C7F83046FEF7CFF834AD012154
:1031500032462846FEF7EDF800262C4600274FF0B1
:10316000000A402E06D000F045F94AEA010A07435A
:103170000836F6E700200021B1F5807F03D048F83B
:1031800021000131F8E70820D9246E464FF0020BE8
:10319000B4F5807F1BD0882805D32846012132460C
:1031A000FEF7C7F80020295C01308C42F3D358F8B1
:1031B00021205FEA5A0A48F824200BEA47024FEA26
:1031C00037070134C2F1010248F82120E0E756B088
:1031D000BDE8F08D2DE9F04D013000224026B2F51A
:1031E000806F08BFBDE8F08D8B1851F80280102762
:1031F000203203F1040B03F1100EDB699BE8300869
:103200009EE80054C5F10205A6EB4313A7EBC404E6
:10321000C8F10207EDB23C43CCF1020744EA851441
:10322000FFB200F8014C0824A4EB8E0444EA5704D2
:103230002343202443700423A4EB0A14A3EB4B0381
:1032400043EA9503234343EAC71300F8033BC6E769
:10325000B0B508310022B2F5A07F08BFB0BD51F86B
:10326000083C83548318053251E90245AD0045EA14
:1032700014245C700D6851F8044C2D0145EA941437
:103280009C70D1E90045AD0145EA1414DC704C682E
:103290001031A4081C71DEE72DE9FC4D1C314FF004
:1032A000000C0090BCF5D07F08BFBDE8FC8D51F844
:1032B000140C51E904A551E9073851E902E651F827
:1032C000207B01900098C7F58057C3F5805BC5F55A
:1032D00080557B0900EB0C0400F80CB00CF10D0CD0
:1032E0002373C6F580539E08A6722E09E671CAF5AF
:1032F000805672086271C8F58052D008A070F8003C
:1033000040EA93209B01E072CEF5805043EAD0134F
:10331000400040EA15306372F3012072280140EA50
:103320005620A0710198C0F5805043EA90138000A8
:1033300040EAD2202371E070500140EA1B20607007
:10334000B0E7F0B508314FF0000EBEF5107F08BFB2
:10335000F0BD51E9023CF1E8045600EB0E07C6F55A
:103360000036C3F50033B40A00F80E300EF1090E32
:103370003C72B408FC71C5F5003425097D71CCF5AB
:103380000035AA09FA701A0A7A70B20142EA1432B8
:10339000BA71220142EA95323A71AA0042EA134216
:1033A000BA70D2E7B0B501300022B2F5806F08BF25
:1033B000B0BD8B588C18103200F8013C656843EAA8
:1033C000851300F8013C63689D080570A5682D0110
:1033D00045EA93030370A3681D094570E468A400DF
:1033E00044EA131343700330DFE714460D460646E4
:1033F0000027704714F8010B0021324608F030BF57
:1034000007F0B9BE034A044B4243C2FB030108461E
:10341000704700BF01208003FF1F80FF00F580017F
:10342000024AC91501FB0200704700BFFF1F80FF61
:103430000249002848BF0844704700BF01E07F00F0
:1034400000F58001044AC91501FB02000349002868
:1034500048BF0844704700BFFF1F80FF01E07F00A6
:1034600001F6FF7241F6FF7322EA0303C91A0160F5
:103470005013704710B501F17F0242F60B430C4C1C
:10348000D211534303F500021216B3F12E5F064B1F
:10349000A8BF002202FB0311044BA142C8BF19447C
:1034A0000160104610BD00BF0018FDFFFF1F80FF28
:1034B00000F03F001CB50C46014601A8FFF7DAFFFB
:1034C00064B10199012904DBB0F12B0118BF411C43
:1034D00003E0411E002808BF2B2108461CBD70B523
:1034E00088B06E460C46054620213046FFF788FF1F
:1034F00028462146324600F003F8002008B070BD8F
:103500002DE9F04DADF6884D0DF608460C46054602
:1035100011462022304609F040F840F20440ADF850
:10352000280C02AF3846FDF7CDFE38463146222240
:10353000FDF7D0FE3846FDF7D8FE304680213A46EA
:10354000FDF7DEFE20463146FFF757FB06F160012E
:1035500020460194FFF759FB284631460095FFF7B6
:1035600026FB06F120054FF0000B0DF581640DF6EA
:1035700008064FF00008B8F1040F72D0384629460B
:103580000022FFF731FDB8F1000F04D10198394650
:103590000022FFF71BFB3846FFF787FC4FEA0820A5
:1035A0000DF6084182B22046FFF7BAFC30462146AC
:1035B0003A46FFF77EFC4FF0010ABAF1040F20D023
:1035C0001FFA8AF238462946FFF70EFDB8F1000FC0
:1035D00004D1019839465246FFF7F8FA3846FFF70A
:1035E00064FC0BEB0A000DF6084182B22046FFF79F
:1035F00097FC304621463A46FFF772FB0AF1010A72
:10360000DBE73046FFF724FC3046FFF750FC08F1BB
:103610000400294682B22046FFF7E6FCDDF804A04C
:10362000214642465046FFF7D8FA304631462246F8
:10363000FFF72CFC3046FFF71AFC3846214632468D
:10364000FFF74AFC504621464246FFF7CEFA009863
:1036500039464246FFF7B3FA0BF5807B08F10108C3
:1036600089E702AC009E40214FF4A4632046324615
:10367000FDF762FE0C482146402209EB000505F5E6
:10368000087008F08AFF05F5187031464FF4A462FF
:1036900008F083FF01982146FFF7C0FA00200DF6DD
:1036A000884DBDE8F08D00BFD80200002DE9F04143
:1036B000FF2902D94FF0FF341CE080460F48002458
:1036C0000D4609EB0007384687F8A11187F8A0419D
:1036D000FDF7F8FD0A4E07F50871384640227E4492
:1036E000B04707F5D07138460222B0473846414608
:1036F0002A46B0472046BDE8F08100BFD80200004E
:10370000F3DBFFFF80B50A46014603484844FDF756
:10371000E1FD002080BD00BFD80200002DE9F04D82
:10372000ADF5835D86B0DFF800830B9016460291FD
:1037300009EB08042046FDF7D8FD04F5D0704021C0
:103740002246FDF7DDFD0DA8002100F5007009906F
:103750000020202906D009EB08020A44013182F832
:10376000E001F6E709EB08042046FDF7ABFDB04F9A
:1037700006F12001204620227F44B84704F5F07569
:10378000204620222946B84704F5D0712046402221
:10379000B8472046FDF7A9FD284640212246FDF7FF
:1037A000AFFD06F5607000214FF0000B03900B9801
:1037B000203004900DAC01200691059080B24FF6A8
:1037C000FC7101EB80000DF58F610890002004284A
:1037D0000BD00022B2F5407F03D001F802B00132D5
:1037E000F8E701F540710130F1E706984FF0000A63
:1037F00080B280000A90BAF1040F26D00A9809EB33
:10380000080303F5F071504482B22046FFF7C7F871
:103810002046FFF74AFB00270DF58F65B7F5806F4F
:1038200010D009EB080021463246D03000900AEB58
:10383000070083B22846FFF76FF805F5407507F5D6
:103840008077EBE70AF1010AD5E700270DF58F65D0
:10385000B7F5407F1AD020462946FEF7D4FF204610
:10386000FFF725FB2046FFF702FB28462146FEF71F
:10387000ACFF20462146FEF7F6FF0B982146384460
:10388000FFF790FD05F54075C037E1E709EB080546
:103890002846FDF717FD05F5D07128464022FDF7B3
:1038A00019FD0B9F28464FF440723946FDF712FD73
:1038B0002846FDF71AFD384620212A46FDF720FD4F
:1038C00020463946FFF731FC0DF234402146FEF721
:1038D000A9FD0698DDF810A000250130069035B14D
:1038E000042D32D020460DF23441FEF7D0FD00F019
:1038F000E7F9204631462A46FEF7FEFF204600F053
:10390000E5F920463946224600F004FB09EB0800A1
:103910002146009000F5F0720898284483B22046B2
:10392000FFF78AF82046FFF793FA404800F50C416C
:103930002046FFF7DFFA002865D150462146FFF701
:1039400000FD0AF5107A0135C9E7DDF80CA0002169
:1039500000200DF58F65002708900C91042F55D09D
:1039600020460DF23441FEF792FD0A953D4600F0E7
:10397000A7F9204631462A460795FEF7C4FF2046A0
:1039800000F0A4F9204639460A9D224600F0C2FA0A
:10399000204629462246FEF74EFF2046FFF758FAFA
:1039A00028462146FEF711FF20462146FEF774FF08
:1039B0002046FFF74DFA1D492046FFF79BFA10BB42
:1039C00020460DF234415246FEF793FD20464FF457
:1039D000BA31FFF78FFAB0B9204621462A46FFF7E1
:1039E0004FF808990144502908910CD8079F0B986B
:1039F00021460CAB3A46FEF7F3FC0AF5D07A05F502
:103A000040750137AAE705980130D6E60CA90B9856
:103A1000FEF7FCFC029940F67410086000200DF5DA
:103A2000835D06B0BDE8F08DD8020000B2730100DE
:103A300059DBFFFF2DE9F04DADF5106D154640F651
:103A4000741204464FF0FF30914240F0EA80DDF8F6
:103A500024A9BAF1FF0F00F2E480804F0DF1E80BCA
:103A6000DDF82869059358467F44B84704955846C1
:103A700031464FF4A4627A4D7D44A8475846FDF77D
:103A800034FC0DF5DC7840215A464046FDF738FC01
:103A90005846B847584641464022A8478DF8B9A134
:103AA00056464FF0000A5846414602228DF8B8A10A
:103AB000A847DDF8201958463246A847DDE9041228
:103AC0005846A8475846FDF710FC404640215A4644
:103AD000FDF716FC5846B847584641464022A847CD
:103AE0000DF2FC4621463046FFF7A1F8404631462C
:103AF000FEF798FCDDF8280904F120050DF1180BFC
:103B00000DF5FE78002702952030039001200590E6
:103B1000042F00F08A800020B0F5407F03D008F821
:103B200000A00130F8E730462946FFF7AEFA4A49CF
:103B30003046FFF7DFF9002871D13046FFF7B5F9BD
:103B40003802DDF8282931465D46CDF800B00497EB
:103B500083B24046FEF7E0FE059F4FF4187BBBF5AD
:103B6000126F19D004EB0B013046FFF78EFA3A4979
:103B70003046FFF7BFF9002851D13046FFF795F9DD
:103B8000DDF82829BBB2404631460095FEF7C4FE59
:103B900001370BF5107BE2E730464146FEF733FE76
:103BA0003046FFF755F93046FFF781F94046314678
:103BB000FEF70BFE049F039907EB870001EB8012D1
:103BC00030466EA9FEF75AFD304641463246FEF7B2
:103BD00032FE3046FFF73CF93046FFF748F92846F9
:103BE0000DF6FC013A462346AB46FEF783FFB0B91B
:103BF000DDF8FC38304631465A46FEF7B9FF4046FC
:103C00003146FFF7CFFB3AA84146C022FDF762FBE1
:103C10000598029D013700F58070059078E74FF018
:103C2000FF300DF5106DBDE8F08D3AAD2846FDF77B
:103C30005CFB584620212A46FDF762FB00214FF02D
:103C4000FF30202906D01BF80120635C013193422C
:103C5000F7D0E6E70020E4E7B2FF010059D8FFFF04
:103C600059D8FFFFFEB5044640F674101D460E46B7
:103C7000834211D3DDE90871A5F674130A98336005
:103C8000CDE9007102F674170290104640F67411E7
:103C90003A46FFF7CFFE48B1002030601DB104F86E
:103CA000010B013DFAE74FF0FF30FEBD0020316807
:103CB000884224BF0020FEBD395C21540130F6E764
:103CC000099F2146384600F0EDB800002DE9F04D7F
:103CD0001C494FF0800C4FF0010E6FF4506879448E
:103CE0008A4617498B46BCF1020F38BFBDE8F08DFC
:103CF0000026FF2E21D851463AF91E3006EB0C0162
:103D00000F468E4215D230F917205C465A4302FB0B
:103D10000BF4241404FB082230F81640A4EB1245DF
:103D200004EB124220F8175020F816200137013614
:103D3000E7E70EF1010E3E46DBE74FEA5C0CD2E707
:103D4000000001F30EA400002DE9FE4D3449364B6E
:103D500002227F2444F6BF686FF4506A8E463149D0
:103D60007B44009301F1D35B802A34D80023019275
:103D7000FF2B2ED80099029431F9144099180D4662
:103D80008B4221D230F8136030F81520F4463244CB
:103D900017B207FB08F707F10077BF1607FB0EF70E
:103DA000A2EB174220F81320013330F81520921BA4
:103DB00012B2624302FB0BF6361406FB0A22120C07
:103DC00020F815200135DBE7029C019A2B46013CC7
:103DD000CEE75200C8E7002140F2A1526FF45063D1
:103DE00044F6BF64B1F5807F08BFBDE8FE8D30F9B1
:103DF00011500C4F05FB02F67D4377462D1405FB51
:103E000003652E142D0C664306F10076B61606FBEC
:103E10000EF6A5EB164520F811500131E2E700BF80
:103E20000000010D0000A1D88CA30000F0B5B1F98D
:103E300000C0B1F90250B2F902106FF4506EB2F93D
:103E4000006001FB05F7164907FB01F4241404FB8D
:103E50000E742414634303FB01F4241404FB0E3397
:103E600006FB0CF404FB01F73F141B0C07FB0E448C
:103E700003EB1443038006FB05F3B2F9022003FBB6
:103E800001F4241402FB0CF204FB0E335143091419
:103E900001FB0E21090C01EB13414180F0BD00BF75
:103EA000000001F3FF22B2F1FF3FD8BFFFF70EBFC2
:103EB00051F8223020F81230013AF4E72DE9FC4D98
:103EC000CDE9001283464FF0000A1148784400F112
:103ED0008008BAF5007F08BFBDE8FC8D009838F96E
:103EE000026B0BEB0A0700EB0A04019833462146EC
:103EF00000EB0A0538462A46FFF798FF7342381D43
:103F0000211D2A1D1BB2FFF791FF0AF1080AE0E705
:103F100020A2000010B50446FFF7D0FF2046FFF7AF
:103F200013FFFF20002805D434F9101044F82010A6
:103F30000138F7E710BD2DE9F04D01314FF0000CCD
:103F4000BCF5007F08BFBDE8F08D11F8014C04F00E
:103F5000070800EB0C0420F80C80C8F1020211F8ED
:103F6000015CC5F3C20EA4F802E011F8016C0B78F5
:103F7000B60963F38206A6800B78C3F3420AA4F85D
:103F800006A00D78C5F3021525810F784B78FF093F
:103F900063F3420767814B78C3F38203A38191F8EF
:103FA00001B020F80C20C3F1020203310CF1100C17
:103FB000A281C7F102026281C5F102022281CAF127
:103FC0000202E280C6F10202A280CEF10202628009
:103FD0000222A2EB5B12E281B2E7BCB500F025F849
:103FE000FDF726F8284621462022FDF733F80DF18B
:103FF000060128460222FDF72DF82846FDF773F842
:10400000BCBDBCB500F011F8FDF75CF928462146AF
:104010004022FDF75FF90DF1060128460222FDF767
:1040200059F92846FDF761F9BCBD0546100A0C4652
:104030008DF806208DF8070028467047B0B500F0CF
:10404000BEFB20B92168281D07F074FF00B1B0BD88
:10405000216805F10800BDE8B04007F06BBFF8B576
:104060000F461446054643680968406B7A6807F0B6
:10407000CFFF002854D1D5E90C0105F1200600F04E
:1040800095FB00284CD13968686B00F08FFB002845
:1040900046D17968A86B00F089FB002840D1A96956
:1040A0006A6BE86B00F07CFBD0BB6B68D5E90E2136
:1040B000286C07F0ADFF98BBB968A86C00F076FBE0
:1040C00070BB6B68E86A296CAA6C07F0ADFF38BB5F
:1040D0006B68E96AD5E9122007F0A6FF00BB05F17D
:1040E0002C026B6807CA07F09FFFC8B96B68D5E957
:1040F0000B10AA6B07F098FF90B92A6BE96C206847
:1041000000F04EFB60B96B68D5E90D02E96B07F072
:104110008BFF28B96A6B296C606800F041FB00B125
:10412000F8BD296CEA6CA068334601B0BDE8F040E8
:1041300007F0BCBF2DE9F041064617460C469268D1
:104140008968C06A984606F1200500F02CFB00281B
:104150007DD1D6E90B102B460A4607F0A7FF0028B1
:1041600075D13A682168706B00F01DFB00286ED194
:104170007A686168B06B00F016FB002867D1D6E959
:104180000D12F06C00F00FFB002860D1F269F06BAB
:10419000F16C00F008FB002859D17368316BD6E947
:1041A0000F2007F041FF002851D17368316BF26B8B
:1041B000706C07F02DFF002849D1D4E90012736814
:1041C000B06C07F025FF002841D1D7E900127368D1
:1041D000F06C07F01DFFD0BB306BD6E9121200F077
:1041E000E2FAA0BB7368D6E90C12B06C07F01CFFB2
:1041F00068BB7368B26BD6E9121007F015FF30BBCD
:10420000D6E90B10F26C00F0CEFA00BB326B316CC9
:10421000D8F8000000F0C7FAC8B9B169D6E90C02B5
:1042200000F0C1FA98B97368326BB16BF06C07F0AB
:10423000FBFE60B9306B716CF26C00F0B4FA30B90F
:10424000D6E90B12D8F8040000F0ADFA08B1BDE8C9
:10425000F081D6E91012D8F808002B46BDE8F041ED
:1042600007F024BFF8B505460F4605200968144637
:10427000009005F12006E86A0A4600F091FA00B1C4
:10428000F8BD7968286B00F091FA0028F8D1D5E9DB
:104290000B12686B00F084FA0028F1D1A969EA6A70
:1042A000E86B00F07DFA0028EAD1E86B6B682A6BB6
:1042B000014607F0ADFE0028E2D1E9696A6B286C7F
:1042C00000F06EFA0028DBD16B68AA6AA86B296C33
:1042D00007F09EFE0028D3D1A86B3246014607F0B6
:1042E000D9FE0028CCD1E86B3246014607F0D2FE59
:1042F0000028C5D1D5E90E016A4607F065FE002801
:10430000BED10098B0FA80F0400920700020F8BDBE
:104310002DE9F045C1B0044602291FD0012940F023
:10432000CF8020202022206039AF68493846794468
:1043300008F033F966490DF1C40A20225046794449
:1043400008F02BF963490DF1A40820224046794476
:1043500008F023F921AD604979441BE02020202298
:10436000206019AF5D493846794408F016F95C4978
:104370000DF1440A20225046794408F00EF95949BB
:104380000DF1240820224046794408F006F901ADD9
:10439000554979442846202208F0FFF8261D20219F
:1043A0003A462023304607F0CFFD002840F08A80AF
:1043B00020462A4650F8081B0B4607F0C5FD00288A
:1043C00040F0808004F120072021384607F042FEAB
:1043D000002877D13168384607F046FE002871D1B1
:1043E000254655F8281B284607F0A4FD002869D16A
:1043F0002868012107F0D2FD002863D100F0DAF926
:1044000000285FD104F10C0520462946FFF716FE6F
:10441000002857D12046294600F068F8002851D1DD
:104420002546524655F8181B28460B4607F08CFDCA
:10443000002847D100F0BEF9002843D12546424666
:1044400055F81C1B28460B4607F07EFDD0BB00F03C
:10445000B1F9B8BB204650F82C1B07F06BFD88BBA8
:10446000204650F8301B07F065FD58BB204650F839
:10447000341B07F05FFD28BB204650F8381B07F0BF
:1044800059FDF8B9204650F83C1B07F053FDC8B958
:10449000204650F8401B07F04DFD98B9204650F8D3
:1044A000441B07F047FD68B9204650F8481B07F049
:1044B00041FD38B954F84C1B204607F03BFD01E0A4
:1044C00048F6993041B0BDE8F08500BF4288000051
:1044D00072890000428900009888000088890000E5
:1044E000F8880000488900007E880000B0B50546C5
:1044F00008680C46002107F051FD18B9A96A00F0C0
:1045000064F900B1B0BDA96AA068BDE8B04007F089
:104510003BBDFEB506681C4617460A46054602A87E
:104520003146334607F010FD00B1FEBD01A831460B
:104530003A46334607F008FD0028F6D16846314672
:1045400007F0F8FC0028F0D105F120062068029958
:10455000324607F093FD0028E7D1606801993246A2
:1045600007F08CFD0028E0D1A96AA06807F00CFDD7
:104570000028DAD102A807F0F3FC0028D5D101A861
:1045800007F0EEFC0028D0D1684607F0E9FCFEBD3C
:104590002DE9F041984616460F46054600F01EF8F4
:1045A00098B905F120043968E86A224607F072FDDF
:1045B00058B97968286B224607F06CFD28B92A683B
:1045C000E86A314607F0F4FC08B1BDE8F0812A68DA
:1045D000286B4146BDE8F04107F0EABC70B50546DE
:1045E0000C468968C06A05F12006324607F06AFD6C
:1045F000D0B92268D5E90B1000F0D2F8A0B96268F2
:10460000E96A686B00F0CCF870B9A268E96AA86B37
:1046100000F0C6F840B9296B206807F0B5FC18B95E
:10462000696B00F0D2F800B170BDA96BA068BDE85D
:10463000704007F0A9BCB0B50C460546016820687B
:1046400007F0A2FC18B9696800F0BFF800B1B0BD6E
:10465000A968A068BDE8B04007F096BCF8B50E4662
:104660000168074618461C46154607F063FC50B91A
:104670003968201D07F05EFC28B9396804F108008C
:1046800007F058FC00B1F8BD384631462A462346AB
:1046900001B0BDE8F040FFF73CBF2DE9FF4D0746F4
:1046A00000208846154600219B4603908DF80B009C
:1046B000106803AA07F094FC38BB0398D0B12868AF
:1046C00001A907F057FC00BB02204FF0FF310DF1AC
:1046D0000B043865019801EBC006002001280FD0BB
:1046E00028683146224607F087FC70B99DF80B0018
:1046F000013EF3E738465946FFF7F8FE28B9DEE7F2
:1047000040465946FFF797FF10B104B0BDE8F08D61
:1047100001200DF10B0AC7E91406002E20D43846FB
:1047200059465A46FFF79BFC0028EED1386D3146BA
:10473000524640003865286807F05EFC0028E4D146
:104740009DF80B0050B13846594642465B46FFF78C
:10475000F1FC0028D9D1386D01303865013EDCE725
:104760000020D2E7BCB50C46016899423CBF48F630
:104770009930BCBD0546CA20286501A807F0E4FBB6
:1047800000B1BCBDB320069B2146286501AA28467E
:10479000FFF783FF0028F4D101A807F0E1FBBCBDBF
:1047A000334607F083BC2B4607F080BC33460A46ED
:1047B00007F07CBC28683A46014607F05FBC0D460E
:1047C00001680446284607F0B5BB606807F0DCBB0B
:1047D000B0B5C26890E81A005FEA52054FEA3402A9
:1047E000E407C560DD0744EA530445EA5105446027
:1047F000154C05602140154C234019440C0C44EA2B
:10480000034443EA134321440C0A44EA036483EA61
:10481000132361400C0944EA037483EA13136140D3
:104820008C0844EA837483EA930361405FEA53038C
:104830004FEA3103594001F0010182EAC13282603E
:1048400008460021B0BD00BF0120800040000840A4
:104850002DE9F8450C4605464FF0000A4FF00008D8
:104860000027A74215D22846FFF7B2FF0646284682
:10487000FFF7AEFF10EB46008107F2D500F0010014
:104880004FEA4801013740EA4A0041EADA788246B5
:10489000E7E750464146BDE8F8850000B0B5094A53
:1048A000094B0446A02500204FF6FF71C4E9021011
:1048B000C4E9003225B12046FFF78AFF013DF9E740
:1048C000B0BD00BF10F0FCFF02FC01182DE9F04163
:1048D000204F224E05460C460020B8461E4F7E440F
:1048E000F8B928463E21B047C4E9000128464021D6
:1048F000B047C4E9020128464021B047C4E9040199
:1049000028464021B047C4E90601D4E900013A46EF
:10491000C01B404671EB08004FF0000038BF01207B
:10492000DEE7D4E900010E4D7D44A847C4E900014B
:10493000D4E90201A847C4E90201D4E90401A84767
:10494000C4E90401D4E90601A847C4E90601BDE8A9
:10495000F08100BF4E4B5A302221584F6FFFFFFFAE
:10496000390000000ABA01BA104670479030FFF7CC
:10497000ADBFF8B5044690301D4616460F46FFF70A
:104980008DFF0020C4E903752146C4F8A000701C07
:10499000C4E90160286807F0EDFAA06804F1140585
:1049A0004FF0FF360136864228BFF8BD2168284601
:1049B00007F0C0FAA06804358642F3D2FEE7000093
:1049C000B0B5304919F80120824208D100284BD0F7
:1049D00009EB01035A6801325A60034606E042EAD5
:1049E000000409EB0102526820B123461C4609F875
:1049F000013007E0002309EB010564F07F0409F8AA
:104A000001306B6083421EBF09EB01000021416051
:104A1000082A0AD30320B2FBF0F000EB4000101A82
:104A200008BF44F0400404F07F0402F09FFED8B1B8
:104A3000014611F8322F4B788D78C97842EA03226B
:104A400045EA012142EA014272B1E1B283290CD068
:104A500041290CD042290CD081290CD082290CD0BC
:104A6000032901D1052109E0B0BD042106E002219E
:104A700004E0032102E0002100E00121BDE8B04094
:104A8000104700BF981400002DE9F04D8AB08B4606
:104A900006460129069204D87248784410F80B7033
:104AA00004E0BBF1FF0F40F0DA8000270698717830
:104AB000B278F3788DF82400307842EA0322B37993
:104AC000ADF81E20F27940EA01203179384443EAFA
:104AD0000222ADF81C007079ADF8222041EA0020D6
:104AE000A0EB4700ADF8200007A807F0B3F9BBF131
:104AF000FF0F00F0B480307871783546B0467C0006
:104B00000DF11C0AADF8207040EA0120ADF81C0040
:104B100015F8020F697840EA01203844ADF81E000C
:104B200018F8060F98F8011040EA0120001BADF8B4
:104B30002200504607F08EF9287869783279737927
:104B4000ADF8207040EA012098F801103844ADF823
:104B50001E0098F8000040EA01207178001BADF8B3
:104B6000220000F05FFBADF81C00504607F072F920
:104B7000BBF1000F73D0B246317ADDF8188096F998
:104B8000010033781AF802CF43EA002001239AF992
:104B900001200291CDE900883844334C4CEA0221CF
:104BA0005A4639447C44A047304696F901C03278D1
:104BB0009AF901509AF800E0059410F8043F049027
:104BC0004178307ACDE90088029043EA012042EA38
:104BD0000C215A460023C91B08444EEA05213944DA
:104BE000A04734469AF901E09AF800C0317A96F964
:104BF0000150327814F8063F607802914CEA0E2199
:104C0000CDE90088C91B43EA00200223014442EA9F
:104C10000520059D5A463844A8470499327894F8EF
:104C200000C094F801E09AF901309AF80040087841
:104C30004D7896F90110367ACDE9008842EA0121D3
:104C400040EA05204CEA0E220296C91B084444EAB9
:104C50000321059C0323C91B11445A46A0470AB0EF
:104C6000BDE8F08D52970000C50000007FB51C46DE
:104C700000230A9D012A8DF80D3001938DF80C5008
:104C800037D81D4EDDE908357E44B25CADF808200A
:104C9000ADF80A2064B1012C14D0022C1BD0032CD7
:104CA00028D100F0C7FA154815497844794419E02D
:104CB000ADF80400881AADF8060014481449784489
:104CC00079440FE0891A801A00F0B4FA11481249A9
:104CD0007844794406E0801A00F0ACFA09480A49A1
:104CE00078447944AB4208BF014601A8002207F08E
:104CF000B9F87FBD0021F8E76495000044950000F5
:104D000044950000129500001295000038950000AF
:104D1000389500002A9500002A9500002DE9F04DF5
:104D20008CB00646904601290846089104D8B5483B
:104D300008997844475C04E00898FF2840F05E81B9
:104D40000027DDF850B08DF82C305B451ED1307A4D
:104D500098421BD130787178B278F37840EA01201C
:104D60003179ADF8240042EA0320ADF826007079CD
:104D700041EA0020B179ADF82800F07941EA00203D
:104D8000ADF82A0009A807F065F837E130797179A4
:104D90007D00069340EA0120B0EB470F18D9B278A6
:104DA000F378401B7178ADF82800307842EA03228E
:104DB000B379ADF82620F27940EA0120384443EA7D
:104DC0000222ADF82400ADF82A2009A807F042F825
:104DD0000898079501282AD8B079F17940EA01208E
:104DE000854224D2401B71783446ADF82870ADF866
:104DF0002A00307840EA012000F00CFA3844ADF87F
:104E0000260009AD284607F025F820786178327928
:104E1000737940EA012071783844ADF8260000F03B
:104E200001FAADF824002846079D07F013F8307802
:104E300071783446327973798DF82CB00DF1240BEA
:104E4000ADF82A80059740EA0120384400F0E2F9E5
:104E5000ADF8260042EA0320401BADF82800584672
:104E600006F0F8FF35466278079F15F8060F697857
:104E700040EA0120217841EA0221A1EB080108441F
:104E8000ADF82600584606F0E5FF2878697840EA34
:104E90000120874229D21499C01BB278F378ADF86B
:104EA0002880ADF82A0030788DF82C10717840EA0F
:104EB00001200599ADF8240042EA03200844ADF82A
:104EC000260009AC204606F0C5FF307871783279AB
:104ED000737940EA012042EA0321A0EB080008446C
:104EE000ADF82400204606F0B5FF0898DDF818B0AC
:104EF000012800F283803546347A149996F901002E
:104F00003378DDF814A015F802CF43EA002001231E
:104F100095F90120CDE9001B029450443A4C089FBA
:104F20004CEA022151447C443A46A04795F90100DD
:104F3000A0460794344696F901E03278149B14F8A1
:104F400004CF0490287861780390307ACDE9003B53
:104F5000002302904CEA012042EA0E21A1EB0A0153
:104F60000844DDE9032142EA01213A465144C047A1
:104F700096F901003A463746317A95F8008096F85E
:104F800000E0149B17F806CF049095F901000390F8
:104F900078780291CDE9003B022303994CEA002086
:104FA00048EA0121DDF81C80A1EB0A0101440498C4
:104FB0004EEA00205044C04797F800C097F801E03F
:104FC00096F9017031782078647895F901302D7860
:104FD000149A367A41EA072140EA0420CDE9002BF1
:104FE0004CEA0E220296A1EB0A01084445EA03218D
:104FF0000323A1EB0A011144089AC0470CB0BDE895
:10500000F08D00BFBA94000043FDFFFFF0B51446D9
:105010000A4613F8061F13F8015C5E789F78DB7868
:1050200041EA062147EA032341EA03413DB1064A2A
:1050300009EB02032246BDE8F04006F033BF2346E9
:10504000BDE8F04006F00EBFE41400002DE9F04D7D
:1050500090B0044690F80080467818469B46174664
:10506000ADF83A200F9100F0EAF80546207A059451
:105070000DF13C0A0DF12F048DF8380068798DF898
:10508000390048EA06200DF13A060A90002F00F098
:10509000BC8050463146224600F0D3F880469DF849
:1050A0002F0010B1BDF83A70F0E7B8F1080F30D01A
:1050B000B8F10C0F00F0A980E87A8045F2D3297B83
:1050C0008845EFD82969A8EB000001EBC00006F085
:1050D00091FE074600686969084406F08BFE099056
:1050E0007F68687A95F806C0C7F3450210B3C7F326
:1050F0004550C7F3C521ACEB000CC7F34340131A6E
:10510000A87A08440790C7F3C310069000200490C3
:105110001CE05FFA8BF0082805D00A28C2D14FF0B6
:10512000080B082002E04FF00A0B0A2000F087F875
:105130000546B7E73820C7F3C221134600EA171027
:10514000084404900020069000200790E97A5FFA56
:1051500088F00892814202D82A7B824231D2984656
:10516000002206990A98DDF81CE00844ADF83000EA
:10517000ACEB0E00ADF83600A8EB01000599ADF8D8
:1051800034008878C97840EA01207044ADF83200D4
:105190004AB117F0010006D10CA80999189B00220A
:1051A00006F060FE06E00498189B00900CA8099990
:1051B00006F066FE0A9808990844297A401A0A906F
:1051C00070E7A0EB0101984613D9286989B2CDF8A0
:1051D0000CC0019100EBC10006F00CFE02902869A2
:1051E000019900EBC100083006F004FEDDE9021C65
:1051F00006E08242B4D188B2296901EBC001284699
:1052000009680068401A82B2ABE75FFA8BF010B011
:10521000BDE8F08DADF8240014F8020F617840EA83
:1052200001207047307840EA012042EA0321C01B88
:1052300008447047ADF80610ADF80400704706F05A
:1052400049BEF0B504680125264616F8013B1570E5
:10525000F02B15D30D88042D15D34FF4E012A6784A
:10526000E77802EA8342637803F03F0342EA0332BD
:1052700006F03F03261D42EA831207F03F030FE0CA
:10528000E02B0FD30D88032D0FD362781B03A67874
:105290009BB202F03F0243EA821206F03F03E61C93
:1052A00013440EE00D88C22B09D3022D07D3627878
:1052B000A61C02F03F0263F38A12134601E00027A6
:1052C00017700660A01B284408801846F0BD012214
:1052D0004FF6FF7300F000B82DE9FF4D1C46019218
:1052E0000F4605460391FFF7AAFF0646384607F02A
:1052F000ABF9A04238BF0446ADF80A40A0B20DF1A8
:105300000C0A0DF10A0B0DF109074FF000080024FB
:1053100058B3504659463A46FFF793FF0A280AD039
:10532000014608280CD1E8B2082816D00A2819D15D
:105330000825082013E00198B8B94FF0000811E0E3
:105340009DF80920304600F019F88044A1B21FFAF8
:1053500088F0884288BF444604E00A250A2006F007
:10536000B9FD0646BDF80A00D2E7A0B204B0BDE818
:10537000F08D00224FF6FF73FFF7AEBF10B532B9C4
:105380000446C07A884202D8227B8A4202D2002098
:10539000C0B210BD081A216901EBC00006F02AFD59
:1053A0000079217AC0F34500401AF1E780B5FFF794
:1053B00046FF807980BD80B5FFF741FFC07980BD91
:1053C00010B50021012241F20143445C0C2C05D8A8
:1053D00002FA04F41C421CBF88B210BD0131F4E78C
:1053E0002DE9F04D86B01C4603920F460646059106
:1053F000FFF725FF05463846FFF7E2FF804600200D
:105400000E9F00210DF1110B02900020ADF81280CB
:105410003980218001905FEA084051D005A80DF144
:1054200012015A46FFF70DFF082829D082460C28A2
:105430003FD0BAF10A0F3CD09DF8112028465146C2
:10544000FFF79CFF40B30F9949B1BAF1200F18BF85
:10545000BAF15F0F29D139880291218801913988E9
:10546000039A014491422ED8BDF812102388A8EB6C
:10547000010288461A4422803A8810443880CAE7DC
:10548000F0B20A2803D0082806D10A2600E0082630
:10549000304606F01FFD0546BDF812002288A8EB35
:1054A0000001804611442180B5E7BAF12D0FD2D01A
:1054B000D5E7BDF812002188A8EB00000844208041
:1054C00006B0BDE8F08D0F9802990028F8D00029A9
:1054D000F6D00198013020803980F1E72DE9F04DB8
:1054E00086B01D4602920E4607460591FFF7A7FEBD
:1054F00004463046019607F0A7F8DDF83CA0ADF869
:105500001200002180B24FF0000B4FF00008039111
:10551000002866D0280464D0059E05A80DF112016C
:105520000DF11102FFF78DFE0146BAF1000F12D006
:10553000A1F10800182805D8012202FA00F02F4A2C
:10554000104203D15F2901D02D2904D1BDF81200EA
:10555000DDF814B0039008291DD00A2923D00C29A6
:105560003ED09DF811202046FFF708FFA8B31FFA90
:1055700088F100EB0108029880452ED9BAF1000F9E
:1055800018BFBBF1000F1ED10598BDF8121005968B
:10559000801B08441CE0F8B208280ED00A281CD151
:1055A000082708200BE0013D280414D105984FF08E
:1055B00000080025013805900FE00A270A2006F0B0
:1055C00089FC044609E00398CDF814B04FF0000BB5
:1055D000ADF81200013D4FF00008BDF8120097E74A
:1055E000002505980199401A0E990880A8B2B0FAD2
:1055F00080F0400906B0BDE8F08D00BF1500000145
:105600002DE9F04D1C4690460E46FFF718FE8246E7
:105610003046FFF7D5FEDDF820B007460020ABF896
:10562000000020803D463FB36F1EB8B2305C0A28B0
:105630001FD09AF80B108842F4D39AF80C209042AD
:10564000F0D8401ADAF8101001EBC00006F0D2FBD7
:105650004068BBF80010C0F34500014441450BD839
:10566000218801312180BBF800100844ABF800000C
:10567000D8E720880130D4E7002D18BF012528463F
:10568000BDE8F08D2DE9FF4D1C4600920D46064603
:105690000391FFF7D4FD0746284606F0D5FF002109
:1056A000ADF80A0080B24FF0000B4FF000084FF049
:1056B000000A0191002856D0039D03A80DF10A01AC
:1056C0000DF10902FFF7BDFD01468CB1A1F1080003
:1056D000182805D8012202FA00F0284A104203D106
:1056E0005F2901D02D2903D1BDF80A00AA460190F7
:1056F000082921D00A2927D00C2934D09DF8092067
:105700003846FFF73BFE58B31FFA8BF100EB010B55
:1057100000998B4524D95CB1BAF1000F08D00198EB
:10572000ADF80A000AF101004FF0000A03900020D2
:1057300008F10108834613E0F0B208280BD00A28CC
:105740000ED10826082008E008F101084FF0000BF0
:105750004FF0000A04E00A260A2006F0BBFB0746C9
:10576000BDF80A00A6E75FEA0B4018BF08F1010880
:105770001FFA88F004B0BDE8F08D00BF15000001ED
:105780002DE9F04D86B0CDE900320C46059103902D
:10579000FFF755FD0290204606F056FFADF81200C7
:1057A00080B200260DF111074FF0000B4FF00108F9
:1057B00000254FF0000A00286ED0059C05A80DF1C9
:1057C00012013A46FFF73DFD01460838182814D863
:1057D000012202FA00F0334A10420ED0BDF812A0A6
:1057E0002546082924D00A290CD00C292AD108F1F1
:1057F000010800264FF0000B48E05F29EED02D296C
:10580000ECD0EEE70BF1010B01991FFA8BF0401A77
:10581000BDF81210B0FA80F04009002918BF01212C
:10582000084018BF4FF0000B8044002600252DE0F3
:105830000398C0B2082823D00A2827D10820039053
:10584000082020E09DF811200298FFF797FDE8B1AD
:10585000B1B2461800998E4218D925B1681CADF82E
:1058600012A0059000200BF1010B019A1FFA8BF199
:1058700091420ED108F101084FF0000B0646D5E722
:105880000A2003900A2006F025FB0290BDF81200C2
:1058900091E700250646F9E75FFA88F006B0BDE813
:1058A000F08D00BF150000012DE9F04D88B09A463B
:1058B00014460E460746FFF7C2FC8346304606F004
:1058C000C3FE4549804638467944FFF752FD5FEAFA
:1058D000CA7150D0CDF81CB04FF0010B201A2546EC
:1058E000DDE9101206910BEB5A010391022190FBA6
:1058F000F1F04FEA5A014FF0000A80B20290019194
:105900001FFA88F110464FF00008CDE904218245C6
:105910004FF0000038BF01208A454FF0000138BF2A
:10592000012101EA000414B316F80A700798002256
:105930003946FFF723FD90B11FFA88F100EB01080B
:10594000A84504D90BF1010B4FF00008EBE70399D0
:105950005FFA8BF0814202D1029880450ED80698FA
:1059600000F80A70DDE904010AF1010ACFE706999F
:10597000002001F80A0008B0BDE8F08D06992E203D
:10598000002401EB0A0801F80A0088F8010008F871
:10599000010CDDE9011001FB05070598002506EB68
:1059A000000A079EA0B287420AD90AEB050000222E
:1059B00010F8011C3046FFF7E1FC0444013DF1E71B
:1059C0000AEB050108F10200C5F10102013108B03E
:1059D000BDE8F04D06F0E1BD3371000070B505463D
:1059E000007848B1194809EB00018A7B52B148445C
:1059F000817E51B1002426E0144809EB0004002008
:105A0000A07004E001F10C0401E000F11804002092
:105A10002646A060206046F8040F686806F0EAF9A0
:105A2000A060287805F108022070094B7B4420B162
:105A30003046072101F05EFF04E03046072101F007
:105A4000A1FE00206070204670BD00BFA0140000C1
:105A500025000000B0B590F83E20114802235C1CE0
:105A60001DD0DCB209EB000504EB440405EB840512
:105A70006D78AA4205D109EB000505EB8405AD78E8
:105A80000DB9013BEBE709EB000202EB84029268DF
:105A90002AB1484400EB8400BDE8B0401047B0BDD7
:105AA000A014000070B500284DD00D46497804467A
:105AB000C80722D06178022001F090FD2A78697829
:105AC000234B244E002A7B447E44024608BF1E46D8
:105AD00002F8216F330ED370330C9370320A80F8C2
